:100000000C943A010C9459010C9459010C94590127
:100010000C9459010C9459010C9459010C945901F8
:100020000C9459010C9459010C9459010C945901E8
:100030000C9459010C9459010C9459010C945901D8
:100040000C9459010C9459010C9459010C945901C8
:100050000C9459010C9459010C9459010C945901B8
:100060000C9459010C9459010C9459010C945901A8
:100070000C9459010C9459010C9459010C94590198
:100080000C9459010C9459010C9459010C94590188
:100090000C9459010C945901000000000000005F0D
:1000A00000000003000300143E143E14242A7F2A9B
:1000B000124333086661364955225000050300009B
:1000C000001C2241000041221C0014083E081408B4
:1000D000083E0808005030000008080808080060C2
:1000E00060000020100804023E5149453E00040211
:1000F0007F00426151494622414949361814127F16
:100100001027454545393E494949320101710907E2
:100110003649494936264949493E003636000000ED
:10012000563600000814224100141414141400411F
:1001300022140802015109063E4159555E7E090903
:10014000097E7F494949363E414141227F41414133
:100150003E7F494949417F090909013E4141493AE8
:100160007F0808087F00417F4100304040403F7FCA
:10017000081422417F404040407F020C027F7F02F2
:1001800004087F3E4141413E7F090909061E2121A5
:10019000215E7F09090976264949493201017F011B
:1001A000013F4040403F1F2040201F7F2010207F04
:1001B00041221C224107087008076151494543004C
:1001C0007F41000002040810200000417F0004026B
:1001D0000102044040404040000102040020545409
:1001E00054787F4444443838444444443844444474
:1001F0007F385454541804047E0505085454543C64
:100200007F0804047800447D40002040443D007F86
:100210001028440000417F40007C047804787C086A
:1002200004047838444444387C1414140808141422
:10023000147C007C080404485454542004043F44B3
:10024000443C4040207C1C2040201C3C4030403C32
:1002500044281028440C5050503C4464544C4400F2
:100260000836414100007F0000414136080002018C
:100270000204020011241FBECFEFD0E2DEBFCDBFCB
:100280001EE1A0E0B1E0EAE5FAE200E00BBF02C047
:1002900007900D92A239B107D9F71EE1A2E9BEE19C
:1002A00001C01D92A93BB107E1F70E94A8090C9477
:1002B0002B150C94000093E89093B00091E090937C
:1002C000B1008093B30008959C019093A61E809383
:1002D000A51E86E390E0809300402115310589F446
:1002E00080EF90E09093A21E8093A11E80E491E0A5
:1002F0009093A41E8093A31E88E490E08093004115
:100300003BC02130310589F480E491E09093A21E36
:100310008093A11E80EF90E09093A41E8093A31E73
:1003200088EE90E08093004127C02230310589F4A7
:1003300080EF90E09093A21E8093A11E80E491E054
:100340009093A41E8093A31E88E890E080930041C0
:1003500013C02330310581F480E491E09093A21E14
:100360008093A11E80EF90E09093A41E8093A31E23
:1003700088E290E0809300418AE290E08093004020
:1003800020E030E030930041209300418091A11E95
:100390009091A21E019790930041809300418BE2BF
:1003A00090E0809300403093004120930041809181
:1003B000A31E9091A41E0197909300418093004149
:1003C00008951F93682F873718F010E066E711C073
:1003D000883010F468E00CC08D3310F010E009C0D4
:1003E0008F3110F011E005C0803110F012E001C033
:1003F00013E081EB90E0809300401093004170E0A7
:10040000882777FD8095982F0E94710E9B01AC0183
:1004100060E070E080EF94E40E94950D0E94BF0BB5
:1004200070E002C0759567951A95E2F760930041F8
:100430001F9108950F931F93DF93CF93CDB7DEB72E
:1004400028970FB6F894DEBF0FBECDBF29833A833D
:100450004B835C836D837E838F83988769817A81E8
:100460002B813C81ED81FE814F8158858AE290E0AD
:1004700080930040709300416093004130930041AD
:10048000209300418BE290E080930040F093004184
:10049000E093004150930041409300418CE290E092
:1004A000809300402F5F3F4F261B370B4F5F5F4FFE
:1004B0004E1B5F0B24173507C8F4842F877090E01C
:1004C000829FB001839F700D929F700D1124F3E005
:1004D00056954795FA95E1F7842F90E0829FF001B9
:1004E000839FF00D929FF00D112418C0822F87700A
:1004F00090E0849FB001859F700D949F700D112432
:10050000E3E036952795EA95E1F7822F90E0849F06
:10051000F001859FF00D949FF00D1124862F8770B8
:1005200005C0109300410093004181508823C9F712
:10053000CB0123E0969587952A95E1F78E0F9F1FB3
:1005400021C010930041009300411093004100939B
:10055000004110930041009300411093004100932B
:10056000004110930041009300411093004100931B
:10057000004110930041009300411093004100930B
:10058000004101970097E9F628960FB6F894DEBF70
:100590000FBECDBFCF91DF911F910F910895EF92C4
:1005A000FF920F931F93DF93CF93CDB7DEB72897BA
:1005B0000FB6F894DEBF0FBECDBF29833A834B83BD
:1005C0005C836D837E838F83988729813A81AB8199
:1005D000BC81ED80FE806F8178858AE290E0809317
:1005E00000403093004120930041B0930041A0931C
:1005F00000418BE290E080930040F0920041E09255
:10060000004170930041609300418CE290E0809340
:1006100000400FC0F801819191918F0190930041AA
:10062000809300414F5F5F4F6417750798F72F5F06
:100630003F4FA217B30710F0A701F6CF28960FB6C9
:10064000F894DEBF0FBECDBFCF91DF911F910F9108
:10065000FF90EF900895EF92FF920F931F93CF9327
:10066000DF938B0179012AE230E0209300409093E0
:10067000004180930041EA01C80FD91F2197D09310
:100680000041C093004121962BE230E020930040CE
:100690007093004160930041460F571F41505040F6
:1006A00050930041409300414F5F5F4F2CE230E098
:1006B00020930040BC01A0E0B0E00EC08191919178
:1006C00090930041809300412F5F3F4F1196241774
:1006D0003507A0F36F5F7F4F6C177D0738F4FD017E
:1006E000EE0FFF1FEE0DFF1D9801F1CFDF91CF91AF
:1006F0001F910F91FF90EF900895AF92BF92CF920C
:10070000DF92EF92FF920F931F93CF93DF937B01C2
:10071000590168012AE230E02093004090930041A3
:1007200080930041BA01680F791F61507040709347
:100730000041609300416F5F7F4F2BE230E02093D8
:100740000040F0920041E09200414E0D5F1D41508B
:10075000504050930041409300414F5F5F4F2CE267
:1007600030E0209300408C01C0E0D0E015C08D91B6
:100770009C911197009711F4808191819093004191
:10078000809300412F5F3F4F219612963296241797
:10079000350768F30F5F1F4F0617170758F4CE0190
:1007A000880F991FD501A80FB91FF601E80FF91F8F
:1007B0009701EDCFDF91CF911F910F91FF90EF90B7
:1007C000DF90CF90BF90AF9008950F931F93DF936A
:1007D000CF93CDB7DEB728970FB6F894DEBF0FBE24
:1007E000CDBF1092A81E1092A71E1092AA1E1092A2
:1007F000A91E2091A11E3091A21E2150304080914F
:10080000A31E9091A41E01971A821982422F3C8345
:100810002B831E821D8298878F830091AD1E1091BD
:10082000AE1E29813A815C816D817E8198850E940E
:100830001A0228960FB6F894DEBF0FBECDBFCF9137
:10084000DF911F910F91089586E08093750080E8F5
:10085000809374003F9A249A80ED97E00197F1F716
:10086000479880E49CE90197F1F7479A80EB94E080
:1008700028EC30E0F9013197F1F70197D9F788E2D8
:1008800090E08093004081E190E08093004088E513
:1008900092E028EC30E0F9013197F1F70197D9F7B0
:1008A00041E050E08BEC90E08093004040930041A9
:1008B00080EC90E08093004088E096E290930041C5
:1008C0008093004120E130E081EC90E08093004093
:1008D0002093004185EC90E0809300408EE395E307
:1008E000909300418093004125EB30E087EC90E04D
:1008F000809300402093004186EF90E08093004079
:100900004093004180E090E090930041809300414B
:1009100025E530E08AE390E0809300402093004199
:1009200081E090E00E9464010E94E5031092A81EFD
:100930001092A71E1092AA1E1092A91E1092AE1E0F
:100940001092AD1E8FEF9FEF9093AC1E8093AB1E65
:1009500089E290E08093004084EF91E028EC30E061
:10096000F9013197F1F70197D9F780E090E025E39D
:1009700030E0209300408093004180916A008062C3
:1009800080936A002C9A0895CF92DF92EF92FF92A3
:100990000F931F93CF93DF93982F4091A71E5091F1
:1009A000A81E8A010C5F1F4F2091A91E3091AA1E1C
:1009B0008A30A9F41092A81E1092A71E285F3F4FFC
:1009C0003093AA1E2093A91E8091A31E9091A41E6D
:1009D0002817390708F489C00E94E50386C08052B1
:1009E0008F3508F082C0E901279685E09802F00172
:1009F0001124E850F0408BE290E080930040309367
:100A0000004120930041D0930041C09300417AE21D
:100A1000C72ED12C6CE2E62EF12C29C0C0920040EA
:100A20005093004140930041509300414093004156
:100A3000E0920040B491B901A1E013C08A2F8B234A
:100A400029F08091AB1E9091AC1E04C08091AD1E28
:100A50009091AE1E90930041809300416F5F7F4F55
:100A6000AA0FC617D70750F731964F5F5F4F04178D
:100A70001507A0F68AE290E0809300405093004171
:100A80004093004150930041409300418CE290E03C
:100A9000809300400AC08091AD1E9091AE1E90934D
:100AA0000041809300412F5F3F4FC217D30798F753
:100AB0008091A71E9091A81E06969093A81E8093E1
:100AC000A71E2091A11E3091A21E8217930768F0E5
:100AD0001092A81E1092A71E8091A91E9091AA1E86
:100AE00008969093AA1E8093A91EDF91CF911F9123
:100AF0000F91FF90EF90DF90CF9008951F93CF93C9
:100B0000DF93EC0110E003C00E94C4041F5FFE01EC
:100B1000E10FF11D80818823B9F7DF91CF911F91FB
:100B200008951F93CF93DF93EC017093A81E6093F9
:100B3000A71E5093AA1E4093A91E10E003C00E9456
:100B4000C4041F5FFE01E10FF11D80818823B9F706
:100B5000DF91CF911F910895EF92FF920F931F9312
:100B6000CF93DF93C0E0D0E0E0E8EE2EF12C082F29
:100B700010E0C7010C2E02C0959587950A94E2F704
:100B800080239123892B11F081E301C08EE20E9422
:100B9000C4042196C830D10561F7DF91CF911F9130
:100BA0000F91FF90EF9008954091921E552747FDB9
:100BB0005095A0916F1DBB27A7FDB09526E130E0B1
:100BC000429FF001439FF00D529FF00D11242BE046
:100BD00030E0A901A49F9001A59F300DB49F300D76
:100BE0001124E20FF31FE60FF11D94E0EE0FFF1F3B
:100BF0009A95E1F7E80FF11DE755F54E80810895CC
:100C000080916B1D80936D1D80916C1D80936E1D76
:100C10000895CF93DF93C0E0D0E0CE016CED70E09B
:100C200044E150E029E03BE00E942B03649681E020
:100C3000C034D80791F780E090E06CED70E044E1BB
:100C400050E029EE37E00E942B038CE291E06CED3E
:100C500070E044E150E029E23EE00E942B03DF9186
:100C6000CF9108956F927F928F929F92AF92BF9291
:100C7000CF92DF92EF92FF920F931F93CF93DF9368
:100C8000EE24FF24CC24DD2440E6642E41E0742EC3
:100C900030EB832E912C20E2A22E23E0B22E43C013
:100CA0002091921E332727FD309580916F1D992743
:100CB00087FD9095269DF001279DF00D369DF00D46
:100CC00011249C01289DC001299D900D389D900DF7
:100CD0001124E80FF91FE755F54EEC0FFD1FEE0D3F
:100CE000FF1D808190E08A9D90018B9D300D9A9D23
:100CF000300D112427553E4FC601B80144E150E0A4
:100D00000E942B0360960C5E1F4FC03BD10541F63D
:100D10000894E11CF11C84E190E0C80ED91E90E11A
:100D2000E916F10429F0C0E0D0E000E010E0B8CF0F
:100D3000DF91CF911F910F91FF90EF90DF90CF90B7
:100D4000BF90AF909F908F907F906F9008956F921B
:100D50007F928F929F92AF92BF92CF92DF92EF924B
:100D6000FF920F931F93B0916B1DA0916C1DF9EA38
:100D7000CF2EF1E0DF2E24E1B202C0011124A20245
:100D8000B00111242091921E332727FD3095409108
:100D90006F1D552747FD5095E6E16E2E712C269D5F
:100DA000F001279DF00D369DF00D11240BE0802EF3
:100DB000912C489D9001499D300D589D300D112476
:100DC000E20FF31FEA0FF11D19EAE12E1AE1F12EED
:100DD000A4E0EE0FFF1FAA95E1F7EB0FF11DEE0D5A
:100DE000FF1D208130E0E0E2AE2EE3E0BE2E2A9D22
:100DF00080012B9D100D3A9D100D11240C0D1D1D11
:100E000044E150E029EC34E00E947D0370916D1DB7
:100E100060916E1D44E17402C00111246402F0016E
:100E200011242091921E332727FD309540916F1D8C
:100E3000552747FD5095D901A69D9001A79D300DDE
:100E4000B69D300D1124DA01A89DA001A99D500D79
:100E5000B89D500D1124240F351F260F311D54E06D
:100E6000220F331F5A95E1F7270F311DE20EF31EB3
:100E7000D7012C9130E0A9014A9D90014B9D300D86
:100E80005A9D300D1124C20ED31EBF0144E150E023
:100E900096010E942B038DB79EB708970FB6F89462
:100EA0009EBF0FBE8DBFEDB7FEB731968091AF1ECE
:100EB0009091B01EADB7BEB712969C938E931197CA
:100EC00080E091E09383828380916B1D992787FD59
:100ED00090959583848380916C1D992787FD9095CB
:100EE000978386830E9454124DB75EB7485F5F4F69
:100EF0000FB6F8945EBF0FBE4DBF8091AF1E9091AC
:100F0000B01E60E070E040E050E00E9491058DB7B7
:100F10009EB708970FB6F8949EBF0FBE8DBFEDB772
:100F2000FEB731968091AF1E9091B01EADB7BEB79F
:100F300012969C938E93119789E191E0938382831B
:100F400080916D1D992787FD90959583848380916D
:100F50006E1D992787FD9095978386830E94541272
:100F60004DB75EB7485F5F4F0FB6F8945EBF0FBED8
:100F70004DBF8091AF1E9091B01E60E070E048E0E0
:100F800050E00E9491058DB79EB708970FB6F89470
:100F90009EBF0FBE8DBFEDB7FEB731968091AF1EDD
:100FA0009091B01EADB7BEB712969C938E931197D9
:100FB00082E391E0938382838091921E992787FD3B
:100FC00090959583848380916F1D992787FD9095D7
:100FD000978386830E9454124DB75EB7485F5F4F78
:100FE0000FB6F8945EBF0FBE4DBF8091AF1E9091BB
:100FF000B01E60E070E040E150E00E94910580EE9C
:101000009FEF9093AC1E8093AB1E00D000D000D019
:10101000EDB7FEB731968091AF1E9091B01EADB77F
:10102000BEB712969C938E93119785E491E09383BB
:1010300082838DE79DE1958384830E9454124DB78E
:101040005EB74A5F5F4F0FB6F8945EBF0FBE4DBFED
:101050008091AF1E9091B01E63E070E04EED50E0C5
:101060000E9491058FEF9FEF9093AC1E8093AB1E73
:101070008DB79EB70C970FB6F8949EBF0FBE8DBF6D
:10108000EDB7FEB731968091AF1E9091B01EADB70F
:10109000BEB712969C938E9311978AE491E0938346
:1010A00082838091721D848315828091931E90911A
:1010B000941E978386838091791D90917A1D9187E4
:1010C000808780917B1D90917C1D938782870E94F1
:1010D00054124DB75EB7445F5F4F0FB6F8945EBFD2
:1010E0000FBE4DBF8091AF1E9091B01E62E370E0C5
:1010F0004EED50E00E9491058DB79EB740970FB618
:10110000F8949EBF0FBE8DBFEDB7FEB731968091AC
:10111000AF1E9091B01EADB7BEB712969C938E9342
:1011200011978AE691E0938382838091731D848373
:1011300015828091741D868317828091751D80872A
:1011400011868091761D828713868091771D848712
:1011500015868091781D868717860E9454124DB798
:101160005EB7405F5F4F0FB6F8945EBF0FBE4DBFD6
:101170008091AF1E9091B01E63E070E046EE50E0AB
:101180000E94910581E090E01F910F91FF90EF90F8
:10119000DF90CF90BF90AF909F908F907F906F9097
:1011A0000895BF92CF92DF92EF92FF920F931F9319
:1011B000CF93DF9308ECC02ED12C16E1E12EF12C59
:1011C000CBE0D0E00AE0BFE0BB2E84EF91E0F60177
:1011D0003197F1F70197D9F70E94570B892B11F43A
:1011E00010E00CC080916B1D80936D1D90916C1D63
:1011F00090936E1D815080936B1D11E00E94280B0F
:10120000892B61F080916B1D80936D1D90916C1DF9
:1012100090936E1D8F5F80936B1D11E00E94CA0A30
:10122000892B61F080916B1D80936D1D80916C1DE9
:1012300080936E1D815080936C1D11E00E94F90A0D
:10124000892B61F080916B1D80936D1D80916C1DC9
:1012500080936E1D8F5F80936C1D03C0112309F472
:10126000B4CF80916B1D803114F490E008C01092CF
:101270006B1D8091921E8F5F8093921E91E08091F2
:101280006B1D87FF08C0B0926B1D8091921E81502C
:101290008093921E91E080916C1D8B3044F01092EF
:1012A0006C1D80916F1D8F5F80936F1D91E0809109
:1012B0006C1D87FF08C000936C1D80916F1D8150CD
:1012C00080936F1D02C0992351F08091921E60910E
:1012D0006F1D0E9432060E9409060E94A7064091D7
:1012E0006C1D2091921E332727FD309580916F1D34
:1012F000992787FD90952E9DF0012F9DF00D3E9D25
:10130000F00D11249C012C9FC0012D9F900D3C9F3E
:10131000900D1124E80FF91FE40FF11D80916B1D52
:10132000A4E0EE0FFF1FAA95E1F7E80FF11DE755C6
:10133000F54E8081863049F480916D1D80936B1D40
:1013400080916E1D80936C1D40CF0E94A7063DCFFB
:10135000E1E6F0E080E8808310820E9424040E948D
:10136000990B8DE30E94E10181E090E00E9464010D
:10137000279A2F9810928000E1E8F0E088E08083BF
:10138000808181608083EFE6F0E0808182608083ED
:10139000109299001092980080E190E00E944F1105
:1013A0008093AF1E9093B01E8091921E60916F1D2E
:1013B0000E9432060E9409060E94A7060E94D108D8
:1013C00081E090E0089500D000D000D0EDB7FEB7E6
:1013D00031962091AF1E3091B01EADB7BEB71296B8
:1013E0003C932E93119726EA31E033832283958331
:1013F00084830E9454128DB79EB706960FB6F89458
:101400009EBF0FBE8DBF8091AF1E9091B01E0E94F7
:101410007E0508954091B31E5091B41E20E030E047
:10142000FA01E20FF31F80819181892B19F021E0ED
:1014300030E007C02E5F3F4F2A30310589F720E0AA
:1014400030E0C9010895CF93DF934091B11E5091D0
:10145000B21EC091B31ED091B41E20E030E0FA015C
:10146000E20FF31FDE01A20FB31F8D919C919183B8
:1014700080832E5F3F4F2A30310589F78CB190E091
:101480008095909580789070998788878CB190E04E
:101490008095909588709070998388838CB190E046
:1014A00080959095847090709B838A838CB190E036
:1014B00080959095807290709F838E838CB190E020
:1014C00080959095807190709D838C830E940A0A0C
:1014D0009093A01E80939F1EDF91CF910895AC0141
:1014E000440F551FE091B31EF091B41EE40FF51F99
:1014F00080819181892B19F420E030E00FC020E039
:10150000E091B11EF091B21EE40FF51F8081918130
:10151000892B09F021E081E0282730E0C9010895F6
:10152000880F991FE091B31EF091B41EE80FF91FC8
:10153000808191810895679919C08091951E90913D
:10154000961E892B99F480919F1E9091A01E892B45
:1015500069F481E090E09093961E8093951E90939D
:10156000A01E80939F1E21E030E012C0679B0EC03A
:101570008091951E9091961E892B41F01092961E97
:101580001092951E1092A01E10929F1E20E030E037
:10159000C9010895329919C08091971E9091981EA3
:1015A000892B99F480919F1E9091A01E892B69F43C
:1015B00081E090E09093981E8093971E9093A01ED8
:1015C00080939F1E21E030E012C0329B0EC08091BC
:1015D000971E9091981E892B41F01092981E1092A0
:1015E000971E1092A01E10929F1E20E030E0C901AD
:1015F0000895349919C08091991E90919A1E892B53
:1016000099F480919F1E9091A01E892B69F481E02E
:1016100090E090939A1E8093991E9093A01E8093C1
:101620009F1E21E030E012C0349B0EC08091991EB5
:1016300090919A1E892B41F010929A1E1092991E39
:101640001092A01E10929F1E20E030E0C901089564
:10165000339919C080919B1E90919C1E892B99F4FF
:1016600080919F1E9091A01E892B69F481E090E0EB
:1016700090939C1E80939B1E9093A01E80939F1E10
:1016800021E030E012C0339B0EC080919B1E9091F0
:101690009C1E892B41F010929C1E10929B1E109252
:1016A000A01E10929F1E20E030E0C90108953599D8
:1016B00019C080919D1E90919E1E892B99F4809156
:1016C0009F1E9091A01E892B69F481E090E0909379
:1016D0009E1E80939D1E9093A01E80939F1E21E0CE
:1016E00030E012C0359B0EC080919D1E90919E1ED1
:1016F000892B41F010929E1E10929D1E1092A01EEA
:1017000010929F1E20E030E0C9010895359909C06C
:1017100080919F1E9091A01E892B19F421E030E04A
:1017200006C01092A01E10929F1E20E030E0C9015A
:1017300008956F98779A87B1837C87B988B18C6355
:1017400088B96F98779A87B1837C87B988B18C63A1
:1017500088B9EAE6F0E08081856880838AE090E0DD
:101760000E944F118093B11E9093B21E8AE090E0C8
:101770000E944F118093B31E9093B41E0895EF9270
:10178000FF920F931F937B018C0120E030E040E03B
:101790005FE40E94410E88238CF0C801B70120E06D
:1017A00030E040E05FE40E94370D0E94CF0E9B01C5
:1017B000AC01205030404040504806C0C801B7013D
:1017C0000E94CF0E9B01AC01B901CA011F910F917C
:1017D000FF90EF900895A0E0B0E0E1EFFBE00C9403
:1017E0001811DC012B01FA019C91923008F439C1E7
:1017F000EB018881823008F433C1943069F484307D
:1018000009F02FC111969C9111978981981709F4BD
:1018100028C1A3E8BDE125C1843009F421C182308B
:10182000A9F4923009F01DC19A01AD0188E0EA01E6
:101830000990AE01E90109929E018150C1F7E201D0
:10184000898111969C918923818308C1923009F482
:1018500007C112962D903C901397EB018A819B81D2
:101860001496AD90BD90CD90DC901797EC80FD80E4
:101870000E811F819101281B390BB90137FF04C06C
:1018800066277727621B730B603271050CF061C00D
:10189000121613066CF537014801062E04C0969403
:1018A0008794779467940A94D2F721E030E040E07F
:1018B00050E004C0220F331F441F551F6A95D2F712
:1018C00021503040404050402E213F2140235123A1
:1018D000211531054105510521F021E030E040E0BE
:1018E00050E079018A01E628F728082919293CC027
:1018F000232BD1F1260E371E35014601062E04C0DA
:1019000096948794779467940A94D2F721E030E014
:1019100040E050E004C0220F331F441F551F6A955A
:10192000D2F721503040404050402A213B214C21E9
:101930005D21211531054105510521F021E030E0FF
:1019400040E050E059016A01A628B728C828D928E4
:101950000BC0821593052CF01C01AA24BB24650141
:1019600003C0EE24FF24870111969C91D2011196A9
:101970008C91981709F445C0992339F0A801970173
:101980002A193B094C095D0906C0A60195012E19CB
:101990003F09400B510B57FD08C011823382228250
:1019A00024833583468357831DC081E0818333823E
:1019B000228288279927DC01821B930BA40BB50B8D
:1019C00084839583A683B7830DC0220F331F441FE2
:1019D000551F2483358346835783828193810197E2
:1019E000938382832481358146815781DA01C9013D
:1019F0000197A109B1098F5F9F4FAF4FBF4328F3F4
:101A00000BC0918333822282EA0CFB1C0C1D1D1D2E
:101A1000E482F5820683178383E080832481358105
:101A20004681578157FF1AC0C901AA2797FDA09583
:101A3000BA2F81709070A070B07056954795379509
:101A40002795822B932BA42BB52B84839583A68378
:101A5000B78382819381019693838283DF0101C0E2
:101A6000D201CD01CDB7DEB7E2E10C943411A0E292
:101A7000B0E0EDE3FDE00C94241169837A838B835D
:101A80009C832D833E834F835887E9E0EE2EF12C13
:101A9000EC0EFD1ECE010196B7010E9447108E018B
:101AA0000F5E1F4FCE010596B8010E9447108A892C
:101AB00091E089278A8BC701B801AE01475E5F4F6D
:101AC0000E94EB0B0E94720FA096E6E00C9440116E
:101AD000A0E2B0E0EEE6FDE00C94241169837A8385
:101AE0008B839C832D833E834F835887F9E0EF2EB1
:101AF000F12CEC0EFD1ECE010196B7010E9447109D
:101B00008E010F5E1F4FCE010596B8010E9447104F
:101B1000C701B801AE01475E5F4F0E94EB0B0E9408
:101B2000720FA096E6E00C944011A8E1B0E0EBE95A
:101B3000FDE00C94201169837A838B839C832D8331
:101B40003E834F835887B9E0EB2EF12CEC0EFD1E3F
:101B5000CE010196B7010E9447108E010F5E1F4F04
:101B6000CE010596B8010E9447102985223008F45D
:101B70007EC03989323010F4B8017CC08A859A89D8
:101B800089278A87243011F0223031F4231709F095
:101B90006EC063E87DE16EC0343039F41D861E8668
:101BA0001F86188A1C861B8604C0323021F484E00C
:101BB0008987B7015FC02B853C858B899C89281B51
:101BC000390B3C872B87ED84FE840F851889AD88FF
:101BD000BE88CF88D88CEA14FB040C051D0540F4A0
:101BE000EE0CFF1C001F111F215030403C872B873B
:101BF00020E030E040E050E080E090E0A0E0B0E4A1
:101C000060E070E0EA14FB040C051D0540F0282B91
:101C1000392B4A2B5B2BEA18FB080C091D09B695DA
:101C2000A79597958795EE0CFF1C001F111F6F5FFE
:101C30007F4F6F31710531F7DA01C9018F779070ED
:101C4000A070B07080349105A105B10561F427FD45
:101C50000AC0E114F1040105110529F0205C3F4F91
:101C60004F4F5F4F20782D873E874F87588BBE019F
:101C7000675F7F4FCB010E94720F6896EAE00C9479
:101C80003C11A8E1B0E0E7E4FEE00C942411698384
:101C90007A838B839C832D833E834F83588789E08F
:101CA000E82EF12CEC0EFD1ECE010196B7010E942C
:101CB00047108E010F5E1F4FCE010596B8010E949E
:101CC00047108985823040F08989823028F0C70129
:101CD000B8010E94BF1001C08FEF6896E6E00C9437
:101CE0004011A8E0B0E0E7E7FEE00C9421119B0171
:101CF000AC0183E08983DA01C9018827B7FD8395A8
:101D00009927AA27BB27B82E211531054105510572
:101D100019F482E089833AC08823A9F0203080E05A
:101D2000380780E0480780E8580729F460E070E051
:101D300080E09FEC30C0EE24FF248701E21AF30A12
:101D4000040B150B02C079018A018EE1C82ED12C3B
:101D5000DC82CB82ED82FE820F831887C801B70137
:101D60000E94230F01971816190684F4082E04C048
:101D7000EE0CFF1C001F111F0A94D2F7ED82FE82A9
:101D80000F831887C81AD90ADC82CB82BA82CE01A7
:101D900001960E94720F2896E9E00C943D11ACE088
:101DA000B0E0E5EDFEE00C94281169837A838B8323
:101DB0009C83CE010196BE016B5F7F4F0E9447104E
:101DC0008D81823061F1823050F1843021F48E8136
:101DD000882351F12EC02F81388537FD20C06E81B8
:101DE0002F3131051CF06623F9F023C08EE190E01D
:101DF000821B930B29853A854B855C8504C05695DB
:101E00004795379527958A95D2F76623B1F0509577
:101E10004095309521953F4F4F4F5F4F0EC020E0CA
:101E200030E040E050E009C02FEF3FEF4FEF5FE7B9
:101E300004C020E030E040E050E8B901CA012C962F
:101E4000E2E00C944411EF92FF920F931F937B01F9
:101E50008C0180E0E81680E0F80681E0080780E069
:101E6000180788F48FEFE816F1040105110531F029
:101E700028F088E090E0A0E0B0E017C080E090E0BB
:101E8000A0E0B0E012C080E0E81680E0F80680E054
:101E9000080781E0180728F088E190E0A0E0B0E0B2
:101EA00004C080E190E0A0E0B0E020E230E040E05B
:101EB00050E0281B390B4A0B5B0B04C016950795A5
:101EC000F794E7948A95D2F7F701E557F24E8081AF
:101ED000281B310941095109C9011F910F91FF9038
:101EE000EF900895DF92EF92FF920F931F93FC0102
:101EF000E480F58006811781D1808081823048F4AA
:101F000080E090E0A0E1B0E0E82AF92A0A2B1B2B40
:101F1000A5C0843009F49FC0823021F4EE24FF2450
:101F2000870105C0E114F1040105110519F4E0E091
:101F3000F0E096C0628173819FEF623879070CF000
:101F40005BC022E83FEF261B370B2A3131052CF00E
:101F500020E030E040E050E02AC0B801A701022EA6
:101F600004C076956795579547950A94D2F781E016
:101F700090E0A0E0B0E004C0880F991FAA1FBB1F2B
:101F80002A95D2F70197A109B1098E219F21A0239B
:101F9000B1230097A105B10521F081E090E0A0E018
:101FA000B0E09A01AB01282B392B4A2B5B2BDA01CD
:101FB000C9018F779070A070B07080349105A10531
:101FC000B10539F427FF09C0205C3F4F4F4F5F4FE9
:101FD00004C0215C3F4F4F4F5F4FE0E0F0E0203006
:101FE000A0E03A07A0E04A07A0E45A0710F0E1E0B9
:101FF000F0E079018A0127C06038710564F5FB01C2
:10200000E158FF4FD801C7018F779070A070B07072
:1020100080349105A105B10539F4E7FE0DC080E4D7
:1020200090E0A0E0B0E004C08FE390E0A0E0B0E07A
:10203000E80EF91E0A1F1B1F17FF05C0169507950E
:10204000F794E794319687E016950795F794E7940F
:102050008A95D1F705C0EE24FF248701EFEFF0E069
:102060006E2F679566276795902F9F77D794DD240D
:10207000D7948E2F8695492F462B582F5D29B7016F
:10208000CA011F910F91FF90EF90DF900895FC011E
:10209000DB01408151812281622F6F7770E0221F26
:1020A0002227221F9381892F880F822B282F30E02F
:1020B000991F9927991F11969C9311972115310506
:1020C000A9F5411551056105710511F482E037C08C
:1020D00082E89FEF13969C938E9312979A01AB011F
:1020E00067E0220F331F441F551F6A95D1F783E025
:1020F0008C930DC0220F331F441F551F12968D91D4
:102100009C911397019713969C938E93129720306E
:1021100080E0380780E0480780E4580758F31496B9
:102120002D933D934D935C93179708952F3F310561
:1021300079F4411551056105710519F484E08C931A
:10214000089564FF03C081E08C9312C01C9210C0FC
:102150002F57304013963C932E93129783E08C9325
:1021600087E0440F551F661F771F8A95D1F770646B
:1021700014964D935D936D937C93179708951F93D9
:10218000DC01FB019C91923008F447C080818230D1
:1021900008F443C0943051F411961C91843099F5A1
:1021A0008181682F70E0611B71093FC0843021F08C
:1021B000923031F48230B9F18181882389F12DC0C8
:1021C00011961C9111978230F1F081811817D9F482
:1021D00012962D913C9113978281938182179307D8
:1021E00094F028173907BCF014968D919D910D90AD
:1021F000BC91A02D2481358146815781281739074C
:102200004A075B0718F4112341F00AC082179307AD
:10221000A407B50740F4112319F061E070E005C090
:102220006FEF7FEF02C060E070E0CB011F91089577
:102230002F923F924F925F926F927F928F929F92D6
:10224000AF92BF92CF92DF92EF92FF920F931F93C4
:10225000CF93DF93CDB7DEB7CA1BDB0B0FB6F89475
:10226000DEBF0FBECDBF09942A88398848885F84B5
:102270006E847D848C849B84AA84B984C884DF8026
:10228000EE80FD800C811B81AA81B981CE0FD11D0A
:102290000FB6F894DEBF0FBECDBFED010895CF930A
:1022A000DF93BC018230910510F462E070E0A091F0
:1022B000B71EB091B81EED01E0E0F0E040E050E064
:1022C00021C0888199818617970769F48A819B814B
:1022D000309719F09383828304C09093B81E809343
:1022E000B71EFE0134C06817790738F4411551054F
:1022F00019F08417950708F4AC01FE018A819B81CF
:102300009C01E9012097E9F641155105A9F1CA019F
:10231000861B970B049708F4BA01E0E0F0E02AC0AE
:102320008D919C91119784179507F9F4641775079F
:1023300081F412968D919C911397309719F09383A5
:10234000828304C09093B81E8093B71EFD0132961D
:102350004FC0CA01861B970BFD01E80FF91F61935F
:10236000719302978D939C9343C0FD018281938169
:102370009C01D9011097A1F68091B51E9091B61ECF
:10238000892B41F480918D1E90918E1E9093B61EE4
:102390008093B51E40918F1E5091901E411551059E
:1023A00041F44DB75EB780918B1E90918C1E481BF7
:1023B000590B2091B51E3091B61E24173507B0F485
:1023C000CA01821B930B8617970780F0AB014E5F03
:1023D0005F4F8417950750F0420F531F5093B61E5E
:1023E0004093B51EF9016193719302C0E0E0F0E003
:1023F000CF01DF91CF910895CF93DF93009709F438
:1024000050C0EC0122971B821A82A091B71EB09196
:10241000B81E109709F140E050E0AC17BD0708F175
:10242000BB83AA83FE0121913191E20FF31FAE1706
:10243000BF0779F48D919C911197280F391F2E5F5A
:102440003F4F3983288312968D919C9113979B83DC
:102450008A834115510571F4D093B81EC093B71EFD
:1024600020C012968D919C911397AD01009711F0A9
:10247000DC01D3CFFA01D383C28321913191E20FE2
:10248000F31FCE17DF0769F488819981280F391F60
:102490002E5F3F4FFA01318320838A819B81938392
:1024A0008283DF91CF9108950F931F93DF93CF9392
:1024B000CDB7DEB72E970FB6F894DEBF0FBECDBFF7
:1024C0000D891E8986E08C831A8309838FEF9FE72D
:1024D0009E838D839E01275E3F4FCE0101966F89BB
:1024E000788DA9010E9485122F813885020F131F54
:1024F000F80110822E960FB6F894DEBF0FBECDBF46
:10250000CF91DF911F910F9108952F923F924F929B
:102510005F926F927F928F929F92AF92BF92CF9273
:10252000DF92EF92FF920F931F93DF93CF93CDB77C
:10253000DEB72B970FB6F894DEBF0FBECDBF3C01C0
:102540002B015A01FC0117821682838181FD03C091
:102550006FEF7FEFC6C19AE0892E1E010894211CFF
:10256000311CF3012381F20123FD859123FF819129
:102570002F01882309F4B2C1853239F423FD8591F6
:1025800023FF81912F01853229F490E0B3010E944D
:10259000A114E7CF982FFF24EE249924FFE1FF1523
:1025A000D0F09B3269F09C3228F4903259F093328B
:1025B00091F40EC09D3249F0903369F441E024C09B
:1025C00052E0F52A84E0F82A28C098E0F92A25C0CC
:1025D000E0E1FE2A22C0F7FC29C0892F80538A300F
:1025E00070F4F6FE05C0989C902C1124980E15C02E
:1025F000E89CE02C1124E80EF0E2FF2A0EC09E3287
:1026000029F4F6FC6BC140E4F42A07C09C3619F4A7
:1026100050E8F52A02C0983649F4F20123FD95915D
:1026200023FF91912F01992309F0B8CF892F855469
:10263000833018F08052833038F444E050E0A40E28
:10264000B51E5FE359830FC0933631F0933779F0AD
:10265000933509F056C020C0F5018081898342E09E
:1026600050E0A40EB51E610101E010E012C0F501BA
:10267000C080D180F6FC03C06FEF7FEF02C0692DF0
:1026800070E042E050E0A40EB51EC6010E94961410
:102690008C015FE7F52214C0F501C080D180F6FC03
:1026A00003C06FEF7FEF02C0692D70E042E050E0A1
:1026B000A40EB51EC6010E948B148C0150E8F52AA9
:1026C000F3FE07C01AC080E290E0B3010E94A1149B
:1026D000EA948E2D90E008171907A8F30EC0F601B2
:1026E000F7FC8591F7FE81916F0190E0B3010E94A4
:1026F000A114E110EA94015010400115110579F779
:10270000EAC0943611F0993669F5F7FE08C0F50174
:10271000208131814281538184E090E00AC0F5013B
:10272000808191819C01442737FD4095542F82E0A0
:1027300090E0A80EB91E9FE6F92257FF09C05095F8
:102740004095309521953F4F4F4F5F4FE0E8FE2A6F
:10275000CA01B901A1012AE030E00E94CD14D82EAF
:10276000D21840C0953729F41F2D1F7E2AE030E093
:102770001DC01F2D197F9F3661F0903720F49835CA
:1027800009F0ACC00FC0903739F0983709F0A6C0F7
:1027900004C028E030E00AC0106114FD146020E19C
:1027A00030E004C014FD166020E132E017FF08C0DD
:1027B000F501608171818281938144E050E008C01D
:1027C000F50180819181BC0180E090E042E050E021
:1027D000A40EB51EA1010E94CD14D82ED2188FE7E9
:1027E000F82EF122F6FE0BC05EEFF522D91438F474
:1027F000F4FE07C0F2FC05C08FEEF82202C01D2DCA
:1028000001C0192DF4FE0DC0FE01ED0DF11D8081FA
:10281000803319F499EEF92208C01F5FF2FE05C05B
:1028200003C08F2D867809F01F5F0F2DF3FC14C0B5
:10283000F0FE0FC01E1510F09D2C0BC09D2C9E0CA1
:10284000911A1E2D06C080E290E0B3010E94A114EF
:102850001F5F1E15C0F304C01E1510F4E11A01C05D
:10286000EE2404FF0FC080E390E0B3010E94A114A6
:1028700002FF1DC001FD03C088E790E00EC088E59F
:1028800090E00BC0802F867891F001FF02C08BE2B0
:1028900001C080E2F7FC8DE290E0B3010E94A11438
:1028A00006C080E390E0B3010E94A1149A94D91469
:1028B000C0F3DA94F101ED0DF11D808190E0B301D8
:1028C0000E94A114DD20A9F706C080E290E0B301C8
:1028D0000E94A114EA94EE20C1F743CEF301668171
:1028E0007781CB012B960FB6F894DEBF0FBECDBF1C
:1028F000CF91DF911F910F91FF90EF90DF90CF90DC
:10290000BF90AF909F908F907F906F905F904F900F
:102910003F902F900895FC01059061507040011088
:10292000D8F7809590958E0F9F1F0895FC016150F8
:10293000704001900110D8F7809590958E0F9F1FE1
:1029400008950F931F93CF93DF938C01EB018B813D
:1029500081FF1BC082FF0DC02E813F818C819D8134
:102960002817390764F4E881F9810193F983E88332
:1029700006C0E885F985802F0995892B31F48E8171
:102980009F8101969F838E8302C00FEF1FEFC801C6
:10299000DF91CF911F910F910895FA01AA27283056
:1029A00051F1203181F1E8946F936E7F6E5F7F4F1C
:1029B0008F4F9F4FAF4FB1E03ED0B4E03CD0670F98
:1029C000781F891F9A1FA11D680F791F8A1F911DEB
:1029D000A11D6A0F711D811D911DA11D20D009F43B
:1029E00068943F912AE0269F11243019305D31937D
:1029F000DEF6CF010895462F4770405D4193B3E066
:102A00000FD0C9F7F6CF462F4F70405D4A3318F00C
:102A1000495D31FD4052419302D0A9F7EACFB4E0BD
:102A2000A6959795879577956795BA95C9F7009775
:102A30006105710508959B01AC010A2E0694579516
:102A4000479537952795BA95C9F7620F731F841F6D
:0A2A5000951FA01D0895F894FFCF14
:102A5A00506C6179657220436F6F72643A2020204E
:102A6A00202025642C202564004F6C6420506C6162
:102A7A0079657220436F6F72643A2025642C202591
:102A8A006400526F6F6D20436F6F72643A20256441
:102A9A002C20256400252D3673007C4C6966653A26
:102AAA00252D33697C58503A252D34697C252D34DF
:102ABA0069637C4C76252D32690053746174737C8A
:102ACA004174743A252D32697C5374723A252D3239
:102ADA00697C53746D3A252D32697C4465663A25C2
:102AEA002D32697C5769733A252D32697C496E7497
:102AFA003A252D326900256400E407E407E407E477
:102B0A0007E407E407E407E407E407E40700000032
:102B1A0000000000000000000000000000000000AB
:102B2A0000E407E407E407E407E407E407E407E44A
:102B3A0007E407E4070000000000000000000000AE
:102B4A00000000000000000000E407E407E407E4D6
:102B5A0007E407E407E407E407E407E407000000E2
:102B6A00000000000000000000000000000000005B
:102B7A0000E407E407E407E407E407E407E407E4FA
:102B8A0007E407E40700000000000000000000005E
:102B9A00000000000000000000E407E407E407E486
:102BAA0007E407E407E407E407E407E40700000092
:102BBA00000000000000000000000000000000000B
:102BCA0000E407E407E407E407E407E407E407E4AA
:102BDA0007E407E40700000000000000000000000E
:102BEA00000000000000000000E407E407E407E436
:102BFA0007E407E407E407E407E407E40700000042
:102C0A0000000000000000000000000000000000BA
:102C1A0000E407E407E407E407E407E407E407E459
:102C2A0007E407E4070000000000000000000000BD
:102C3A00000000000000000000E407E407E407E4E5
:102C4A0007E407E407E407E407E407E407000000F1
:102C5A00000000000000000000000000000000006A
:102C6A0000E407E407E407E407E407E407E407E409
:102C7A0007E407E40700000000000000000000006D
:102C8A00000000000000000000000000000000003A
:102C9A0000000000000000000000000000E407E45B
:102CAA0007E407E407E407E407E407E407E407E4C2
:102CBA000700000000000000000000000000000003
:102CCA000000000000E407E407E407E407E407E47F
:102CDA0007E407E407E407E4070000000000000037
:102CEA0000000000000000000000000000E407E40B
:102CFA0007E407E407E407E407E407E407E407E472
:102D0A0007000000000000000000000000000000B2
:102D1A000000000000E407E407E407E407E407E42E
:102D2A0007E407E407E407E40700000000000000E6
:102D3A0000000000000000000000000000E407E4BA
:102D4A0007E407E407E407E407E407E407E407E421
:102D5A000700000000000000000000000000000062
:102D6A000000000000E407E407E407E407E407E4DE
:102D7A0007E407E407E407E4070000000000000096
:102D8A0000000000000000000000000000E407E46A
:102D9A0007E407E407E407E407E407E407E407E4D1
:102DAA000700000000000000000000000000000012
:102DBA000000000000E407E407E407E407E407E48E
:102DCA0007E407E407E407E4070000000000000046
:102DDA0000000000000000000000000000E407E41A
:102DEA0007E407E407E407E407E407E407E407E481
:102DFA0007000000000000000000000000000000C2
:102E0A000000000000E407E407E407E407E407E43D
:102E1A0007E407E407E407E40700000000000000F5
:102E2A000000000000000050CD0000F0AC50CD5072
:102E3A00CD000000000000000000000000000000BB
:102E4A000000000000000000000000000000006B0D
:102E5A00AC6BAC2CDD6BAC6BAC6BAC000000000057
:102E6A000000000000000000000000000000000058
:102E7A0000000000002CDD6BAC2CDD6BAC2CDD2CD3
:102E8A00DD2CDD2CDD000000000000000000000049
:102E9A00000000000000000000000000006BAC2CE5
:102EAA00DD53FE2CDD6BAC6BAC2CDD6BAC6BAC007C
:102EBA000000000000000000000000000000000008
:102ECA000000006BAC2CDD53FE73FE53FE2CDD4C70
:102EDA00E56BAC2CDD0000000000000000000000E3
:102EEA0000000000000000000000000000EBCC53CE
:102EFA00FEEB5A53FE53FEEB5A53FEEBCC71C50060
:102F0A0000000000000000000000000000000000B7
:102F1A000000000000000053FE53FE53FE53FE5310
:102F2A00FE53FE0000000000000000000000000048
:102F3A000000000000000000000000000000000087
:102F4A000053FE53FE53FE53FE0000000000000033
:102F5A000000000000000000000000000000000067
:102F6A0000FFFFEDFAEDFAFFFFB29453FE53FEB2F3
:102F7A0094BAD6EDFAEDFABAD600000000000000C5
:102F8A000000000000000000000000FFFFECFA2D26
:102F9A00FBFFFFB294B294DBD62DFBECF2BBD6005A
:102FAA000000000000000000000000000000000017
:102FBA0000000053FE76FE2DFB2DFB52EC52EC2D49
:102FCA00FBEDFAF8FE53FE000000000000000000CE
:102FDA00000000000000000000000053FE53FEED58
:102FEA00FAEDFA2DFB2DFBEDFAEDFA53FE53FE0036
:102FFA0000000000000000000000000000000000C7
:10300A000000002DFBEDFA2DFB2DFB2DFBEDFAED5B
:10301A00FAEDFAEDFA2DFB000000000000000000B6
:10302A00000000000000000000000053FE53FE2CC8
:10303A00DD2CDDFFFFBAD62CDDCBC453FE53FE00D8
:10304A000000000000000000000000000000000076
:10305A00000000000000003CE72CDD2DFBEDFA2CFF
:10306A00DDBAD600000000000000000000000000E9
:10307A000000000000000000000000000000003C0A
:10308A00E714CE6CECEBD314CEBAD60000000000E5
:10309A000000000000000000000000000000000026
:1030AA00000000000000003CE7BAD600000000BAA9
:1030BA00D6BAD600000000000000000000000000A0
:1030CA00000000000000000000000000000000CD29
:1030DA00FC4DDC000000004DDCCDFC0000000000CF
:1030EA0000000000000000000000000000000000D6
:1030FA00000000000000002DFBEDFA00000000EDCA
:10310A00FA2DFB0000000000000000000000000093
:10311A0000000000000000000000000000CDFCCD0F
:10312A00FCEDFA00000000EDFACDFCCDFC00000039
:10313A00000000000000000000000000003CE73C26
:10314A00E700003CE73CE73CE73CE73CE73CE73C80
:10315A00E73CE73CE73CE73CE73CE73CE73CE73C4D
:10316A00E700003CE73CE700003CE73CE73CE73C83
:10317A00E73CE73CE73CE73CE73CE73CE73CE73C2D
:10318A00E73CE73CE73CE73CE73CE73CE70000007C
:10319A000000000000000000000000000000000025
:1031AA000000000000000000000000000000000015
:1031BA00003CE700000000000000000000000000E2
:1031CA0000000000000000000000000000000000F5
:1031DA0000000000000000000000003CE7000000C2
:1031EA0000000000000000000000000000000000D5
:1031FA0000000000000000000000000000000000C5
:10320A00003CE73CE700000000000000000000006E
:10321A0000000000000000000000000000000000A4
:10322A000000000000000000003CE73CE70000004E
:10323A000000000000000000000000000000000084
:10324A000000000000000000000000000000000074
:10325A00003CE73CE700000000000000000000001E
:10326A000000000000000000000000000000000054
:10327A000000000000000000003CE73CE7000000FE
:10328A000000000000000000000000000000000034
:10329A000000000000000000000000000000000024
:1032AA00003CE73CE70000000000000000000000CE
:1032BA000000000000000000000000000000000004
:1032CA000000000000000000003CE73CE7000000AE
:1032DA0000000000000000000000000000000000E4
:1032EA0000000000000000000000000000000000D4
:1032FA00003CE73CE700000000000000000000007E
:10330A0000000000000000000000000000000000B3
:10331A000000000000000000003CE73CE70000005D
:10332A000000000000000000000000000000000093
:10333A000000000000000000000000000000000083
:10334A00003CE73CE700000000000000000000002D
:10335A000000000000000000000000000000000063
:10336A000000000000000000003CE73CE70000000D
:10337A000000000000000000000000000000000043
:10338A000000000000000000000000000000000033
:10339A000000003CE7000000000000000000000000
:1033AA000000000000000000000000000000000013
:1033BA000000000000000000003CE70000000000E0
:1033CA0000000000000000000000000000000000F3
:1033DA0000000000000000000000000000000000E3
:1033EA00003CE73CE700000000000000000000008D
:1033FA0000000000000000000000000000000000C3
:10340A0000000000000000000000003CE73CE7006C
:10341A00003CE73CE73CE73CE73CE73CE73CE73C71
:10342A00E73CE73CE73CE73CE73CE73CE73CE73C7A
:10343A00E7000000003CE73CE700003CE73CE73CD3
:10344A00E73CE73CE73CE73CE73CE73CE73CE73C5A
:10345A00E73CE73CE73CE73CE73CE73CE73CE73C4A
:10346A00E73CE73CE73CE73CE73CE73CE73CE73C3A
:10347A00E73CE73CE73CE73CE73CE73CE73CE73C2A
:10348A00E73CE73CE73CE73CE73CE73CE73CE73C1A
:10349A00E73CE73CE73CE73CE73CE73CE73CE73C0A
:1034AA00E73CE73CE73CE73CE7000000000000009F
:1034BA000000000000000000000000000000000002
:1034CA0000000000000000000000000000000000F2
:1034DA0000000000000000000000000000000000E2
:1034EA0000000000000000000000000000000000D2
:10372A000000000000000000003CE73CE73CE73CEA
:10373A00E73CE73CE73CE73CE73CE73CE73CE73C67
:10374A00E73CE73CE73CE73CE73CE73CE73CE73C57
:10375A00E73CE73CE73CE73CE73CE73CE73CE73C47
:10376A00E73CE73CE73CE73CE73CE73CE73CE73C37
:10377A00E73CE73CE73CE73CE73CE73CE73CE73C27
:10378A00E73CE73CE73CE73CE73CE73CE73CE73C17
:10379A00E73CE73CE73CE700003CE73CE700000089
:1037AA00003CE73CE73CE73CE73CE73CE73CE73CDE
:1037BA00E73CE73CE73CE73CE73CE73CE73CE73CE7
:1037CA00E700003CE73CE7000000000000000000C2
:1037DA0000000000000000000000000000000000DF
:1037EA00000000000000000000000000003CE73C70
:1037FA00E7000000000000000000000000000000D8
:10380A0000000000000000000000000000000000AE
:10381A00000000000000003CE7000000000000007B
:10382A00000000000000000000000000000000008E
:10383A00000000000000000000000000003CE7005B
:10384A00000000000000000000000000000000006E
:10385A00000000000000000000000000000000005E
:10386A0000000000003CE73CE70000000000000008
:10387A00000000000000000000000000000000003E
:10388A00000000000000000000000000003CE73CCF
:10389A00E700000000000000000000000000000037
:1038AA00000000000000000000000000000000000E
:1038BA0000000000003CE73CE700000000000000B8
:1038CA0000000000000000000000000000000000EE
:1038DA00000000000000000000000000003CE73C7F
:1038EA00E7000000000000000000000000000000E7
:1038FA0000000000000000000000000000000000BE
:10390A0000000000003CE73CE70000000000000067
:10391A00000000000000000000000000000000009D
:10392A00000000000000000000000000003CE73C2E
:10393A00E700000000000000000000000000000096
:10394A00000000000000000000000000000000006D
:10395A0000000000003CE73CE70000000000000017
:10396A00000000000000000000000000000000004D
:10397A00000000000000000000000000003CE73CDE
:10398A00E700000000000000000000000000000046
:10399A00000000000000000000000000000000001D
:1039AA0000000000003CE73CE700000000000000C7
:1039BA0000000000000000000000000000000000FD
:1039CA00000000000000000000000000003CE73C8E
:1039DA00E7000000000000000000000000000000F6
:1039EA0000000000000000000000000000000000CD
:1039FA0000000000003CE70000000000000000009A
:103A0A0000000000000000000000000000000000AC
:103A1A000000000000000000000000000000003C60
:103A2A00E7000000000000000000000000000000A5
:103A3A00000000000000000000000000000000007C
:103A4A0000000000003CE73CE73CE73CE73CE73C81
:103A5A00E73CE73CE73CE73CE73CE73CE73CE73C44
:103A6A00E73CE73CE73CE73CE700003CE73CE70093
:103A7A00003CE73CE73CE73CE73CE73CE73CE73C0B
:103A8A00E73CE73CE73CE73CE73CE73CE73CE70050
:103A9A00003CE73CE700000000084210841084085C
:103AAA004210841084108408421084108410840800
:103ABA004210841084108438C6084210841084107E
:103ACA0084084210841084084208420842084210BE
:103ADA0084084208420842084208420842108410F8
:103AEA00840842108410841084084210840842100A
:103AFA0084108438C608421084084210841084381E
:103B0A00C638C60842084208420842084208420823
:103B1A004238C6084210841084108438C638C60851
:103B2A0042084210841084108438C6084238C608F5
:103B3A0042108438C60842108438C638C608421073
:103B4A0084108410840842108410840842084210A9
:103B5A008408421084108408421084108408421099
:103B6A0084108410840842108408420842084210D3
:103B7A00840842108438C608420842108410840817
:103B8A0042084210840842108410841084084208B3
:103B9A0042108438C638C608420842108438C638EB
:103BAA00C610840842084238C638C6084238C608D1
:103BBA004208420842084210841084108410840883
:103BCA004208421084108410841084084210841021
:103BDA008438C60842108438C638C6084210840899
:103BEA0042108410840842108438C60842084210E1
:103BFA0084108408421084108410840842108410AF
:103C0A00841084084210840842084208420842107C
:103C1A008438C638C638C608420842108410841050
:103C2A0084084238C60842108410840842084208B0
:103C3A004238C638C608421084108410841084089A
:103C4A004238C6084208420842108438C608421060
:103C5A00840842084208421084108438C608421078
:103C6A00841084108410840842108438C638C60828
:103C7A00421084108438C608421084108438C6085A
:103C8A004210841084084210841084108408421060
:103C9A0084108410841084084210841084108408CC
:103CAA004208421084084238C60842084238C60808
:103CBA0042108410840842108410841084108408EE
:103CCA0042084208420842108438C608421084104A
:103CDA008408421084108438C608420842108408B6
:103CEA0042084210840842108438C638C608421076
:103CFA0084108438C608421084084208421084108E
:103D0A008410840842108438C638C60842108410C9
:103D1A0084108438C638C6084210841084084208C1
:103D2A004238C60842084208420842084210841033
:103D3A008438C638C6084210841084108410840857
:103D4A00420842084238C60842108438C60842105F
:103D5A0084108438C608421084108438C608421079
:103D6A008410841084108408420842108438C608DB
:103D7A00421084084208420842108408420842104D
:103D8A0084108410840842084208421084084208B9
:103D9A004208421084108438C608421084108438BD
:103DAA00C60842108438C6084208420842108438BD
:103DBA00C608420842108438C6FF8F9F467F3E7F5E
:103DCA003E7F3EFF8F7F353F2D5F2D7F3EFF8FFF6A
:103DDA008F9F5E3F2D3F2D3F2D3F2D3F2D5F2D7F26
:103DEA003E7F3E7F3E7F3E7F3E7F3EFF8F7F353F59
:103DFA002D7F35FF8F7F3E5F2D9F5EBF7F3F2D3F1B
:103E0A002DDF87BDC77BF77BF77F3E7F3E7F3E7FF7
:103E1A003E7F3EBF3D3F777F777F7F9CDF7F2D3F91
:103E2A002DFF3DDF567F777F77DF4EBF56BE767B0D
:103E3A00F77F3E7F3E7F3E7F3E7F3E3F2DBF5E5EE9
:103E4A008FBDB71DAF3F2D3F2D1F46FF5EDF665F5B
:103E5A006F7F3E7F3E9F4EBDCF7F3E7F3E7F3E7F40
:103E6A003E7F3E3F2D3F2D5D8E5BE77F3E3F2D3FE0
:103E7A002D9F5EBF7F3F2D7F3E7F3E7F3E9F46FF49
:103E8A008F3F2D3F3E7F3E5F3E3F2D3F2DBF7F9FA1
:103E9A005E7F35FF8F7BF77BF7BDBFBF7F3F2D7FEF
:103EAA003E7F3EBF359F35FF8FFF8F9F353F2D3FAA
:103EBA002D3F2DFF8F7F35DF357F3E7F3E7F3E7F53
:103ECA003EDF357F3D7BF73F2D3F2D3F2D3F2D3F79
:103EDA002DFF8F9F353F2D5F35FCCEDF3D1F3E3FC7
:103EEA003E7F3E7F3E7F3E7F3EDF357F35DEA73F0A
:103EFA002D3F2D3F2D3F2D3F2DFF8F5E7E1E761EBF
:103F0A007E1DAF3F2D3F3E7F3E7F3E7F3E7F3EFF81
:103F1A00359F2D7F355F6F3F4E3F2D3F2D3F2D3F04
:103F2A002DFF8F9BE77BF77BE77F3E3F2D3F3E7F51
:103F3A003E7F3E7F3E7F3E5F2D3F2D5F2D7F3EFFC2
:103F4A008F5F353F2D3F2D3F2D3F2D3F2D3F2D5F5D
:103F5A003D7BF7FF8F9F467F3E7F3E7F3E3F2D3F53
:103F6A002DDF359F46FF8F7BF75F3DBF5EFF977B57
:103F7A00F77F3E7F3EDF353F2D3F2D7F3EDF879F18
:103F8A005E3F2D3F2D3F2D5BE7BDBFBF7F3F2D3FDE
:103F9A002D5BE7FD967F3E7F3E7F3E7F3EDF353FCE
:103FAA002D3F2D7F2D9F4E1F673F6F3F2DFCC6BEB5
:103FBA006E3F56BF3D3F2D3F2DBE55BF6E7F777F6B
:103FCA003E7F3E7F3EDF353F2D3F2D3F2D3F3EDF7B
:103FDA00563F6F1E761CAF1F469F2D3F2D3F2D9FCC
:103FEA00359F35DF5EDF877F3E7F3E7F3EDF353F91
:103FFA002D3F2D3F2D3F3E7F3E7F4E7BF77F3E5F1D
:10400A002D3F2D3F2D3F2D7F3E7F3E3F67DF877F30
:10401A003E7F3E7F3EDF353F2D3F2D3F2D3F3EFD0C
:10402A00965BE73F2DFF8F7F353F2D5F2D7F3E7FCC
:10403A003E7F3E7F3E9F46FF8FFF8F9F46DF353F85
:10404A002D3F2D7F3EDF879F5E3F2D3F2D7BF75F04
:10405A003DDF357F3E7F3E7F3E7F3E7F3E3F3E3F98
:10406A002D9CDFBF455F2D3F2D1F369F771F46FFD3
:10407A003D1F361F36DEA77F35DF357F3E7F3E7F09
:10408A003E7F3E7F3E3F3E3F2D7BF73D861E663F8D
:10409A004EFF5EFF665F35DF357F3E7F3E7F6F5F97
:1040AA00561F46FF357F3E7F3E7F3E3F3EDF353F10
:1040BA002D7BF77BF7BDC7FF8FFF8F3F2D3F2DDF8E
:1040CA00357F3E7F3E7F3EDF879F5E5F2D7F3E7F4F
:1040DA003E7F3EBF353F2D3F2D0FFE2FF60FFE0FC1
:1040EA00FECFF58EF5EFFD2FF60FF62FFE2FFE50C1
:1040FA00FE70FED1FEF1FEF1FEF1FEF1FE90FE3001
:10410A00FEF1FEF1FEF1FED1FE90FE50FE50FECF12
:10411A00F52FFE50FECEF550FE50FE50FE90FEF1F9
:10412A00FEF1FEF1FEF1FEF1FEF1FEF1FEF1FEF10D
:10413A00FEF1FEF1FE70FE2FFEEFF52FFE2FF6EFD9
:10414A00F50FF650FE50FE50FED1FEF1FEF1FEF1E3
:10415A00FEF1FEF1FEF1FEF1FEF1FEF1FEF1FED1FD
:10416A00FE50FE8EF52FFE50FE2FFE0FF62FFE504C
:10417A00FE50FE70FED1FEF1FE50FE70FE50FE7043
:10418A00FED1FEF1FEF1FEF1FEF1FE50FE2FF6CE5B
:10419A00F5EFF52FFE2FF62FFE2FFE50FE50FE50A4
:1041AA00FE2FFE2FFE2FFE2FFE50FE90FEF1FEF197
:1041BA00FEF1FEB1FE70FE50F630FE50FE0FF62FF5
:1041CA00FE2FF62FFE30FE2FFE2FFE0FF6CFF56ED6
:1041DA00F52FFE50FE70FED1FEF1FEF1FEF1FEF16A
:1041EA00FEF1FEF1FED1FE70FEAEF5EFF550FE5087
:1041FA00FEEFF550FE2FFEEFF56EF5CFF550FE708F
:10420A00FED1FEF1FEF1FEF1FEF1FEF1FEF1FEF14C
:10421A00FE70FEEFF5EFF5EFF56EF550FE50FE502D
:10422A00FE2FFE6EF550FE50FE50FE90FED1FED1DE
:10423A00FED1FEF1FEF1FEF1FEF1FE90FECFF56E2B
:10424A00F56EF56EF5EFF530FE2FFE2FFEEFF5AEAB
:10425A00F50FF650FE50FE50FE50FE50FEB0FEF135
:10426A00FEF1FEF1FE90FEAEF5AEF56EF56EF58E40
:10427A00ED8EF50FF62FF6EFF5CEF5CFF5AEF5EF9D
:10428A00F52FFE50FE50FEB0FEF1FEF1FEF1FE509B
:10429A00F6D1FE30FECFF5CFF5EFF5EFF5AEF5CF5F
:1042AA00F52FFE50FE2FFEEFF56EF58EF52FFE5020
:1042BA00FEF1FEF1FEF1FEF1FEF1FEF1FED1FED1BC
:1042CA00FED1FED1FED1FE90FE0FF6CFF5EFF52F0F
:1042DA00FEEFF58EF5AEF52FFE70FED0FEF1FEF183
:1042EA00FEF1FEF1FEF1FEF1FEF1FEF1FEF1FEF14C
:1042FA00FEF1FE50FECFF5EFF550FE50FE6EF5AE24
:10430A00F550FE50FED1FEF1FED1FEF1FEF1FEF1B6
:10431A00FEF1FEF1FEF1FEF1FEF1FEF1FE90FE2F3E
:10432A00FECFF530FE2FFE2FF68EF52FF650FE70DB
:10433A00FE50FE70FE70FE50FE50FE50FE90FEF1E2
:10434A00FEF1FEF1FEF1FE90FECFF58EEDEFF530B7
:10435A00FE0FF68EF52FF62FFE30FE50FE50FE5061
:10436A00FE50FE50FE50FE70FEB0FEF1FEF1FEF170
:10437A00FEF1FE70FE6EF56EED2FFE2FFE0FF6EFCC
:10438A00F52FF62FFEEFF50FF6EFF5CFF5EFF52F38
:10439A00F650FED0FEF1FEF1FEF1FEF1FE70F68E51
:1043AA00F56EF5CFF5EFF52FFEEFF52FFE30FE5047
:1043BA00FE2FFEEFF58EF5AEF550FE50FEB1FEF182
:1043CA00FEF1FEF1FEF1FED1FE0FF6CFF56EF58E8F
:1043DA00F56EF56EED8EEDCFF5AEF5EFF52FF62F06
:1043EA00FECEF52FFE50FE70FED1FEF1FEF1FEF17B
:1043FA00FEF1FE90FE2FFE6EF5060606060606067E
:10440A000606060606060606060606060606060642
:10441A000606060606060606060606060606060632
:10442A000606060606060606060606060606060622
:10443A000606060606060606060606060606060612
:10444A000606060606060606060606060606060602
:10445A0006060606060606060606060707070706EE
:10446A0006060606070707070706060706060706DB
:10447A0006060606070606060606060706060707CE
:10448A0007070707070606060606070706060606BB
:10449A0006060606070606060606070606060606B0
:1044AA0006060606070606060606070606060606A0
:1044BA000606060607060606060607060606060690
:1044CA00060607070706060606060707060606067D
:1044DA000607070707070707060607070707070765
:1044EA000707070707070707060607070707070754
:1044FA000707070707070707070607070707070743
:10450A000707070707070707070607070707070732
:10451A000707070707070707070607070707070722
:10452A000707070707070707070606060707070714
:10453A000707070707070707070606060707060705
:10454A0007060707070707070706060606060606F9
:10455A0006060606060606060606060606060606F1
:10456A0006060606060606060606060606060606E1
:10457A0006060606060606060606060606060606D1
:10458A0006060606060606060606060606060606C1
:10459A0006060606060606060606060606060606B1
:1045AA0006060606060606060606060606060606A1
:1045BA00060606060606060606070707070707078A
:1045CA000606060606060606060606060606060780
:1045DA000606060606060606060606060606060770
:1045EA000706060606060606060606060606060660
:1045FA000706060606060606060606060606060650
:10460A00070606060606060606060606060606063F
:10461A00070606060606060606060606060707072C
:10462A000707070707070706060606060707070715
:10463A000707070707070707060607070707070702
:10464A0007070707070707070607070707070707F1
:10465A0007070707070707070607070707070707E1
:10466A0007070707070707070607070707070707D1
:10467A0007070707070707070607070707070707C1
:10468A0007070707070707070607070707070707B1
:10469A0007070707070707060607070707070707A2
:1046AA00070707070707060606060606060606069A
:1046BA00060606060606060606141401010101018D
:1046CA0010000A0101010101012A0001006D616C5B
:1046DA006C6F63000000000000000000010202038A
:1046EA00030303040404040404040405050505057E
:1046FA00050505050505050505050506060606065B
:10470A00060606060606060606060606060606063F
:10471A00060606060606060606060607070707072A
:10472A00070707070707070707070707070707070F
:10473A0007070707070707070707070707070707FF
:10474A0007070707070707070707070707070707EF
:10475A0007070707070707070707070808080808DA
:10476A0008080808080808080808080808080808BF
:10477A0008080808080808080808080808080808AF
:10478A00080808080808080808080808080808089F
:10479A00080808080808080808080808080808088F
:1047AA00080808080808080808080808080808087F
:1047BA00080808080808080808080808080808086F
:1047CA00080808080808080808080808080808085F
:1047DA0008080808080808080808082000B91E0080
:0247EA000000CD
:00000001FF
