:100000000C943A010C9459010C9459010C94590127
:100010000C9459010C9459010C9459010C945901F8
:100020000C9459010C9459010C9459010C945901E8
:100030000C9459010C9459010C9459010C945901D8
:100040000C9459010C9459010C9459010C945901C8
:100050000C9459010C9459010C9459010C945901B8
:100060000C9459010C9459010C9459010C945901A8
:100070000C9459010C9459010C9459010C94590198
:100080000C9459010C9459010C9459010C94590188
:100090000C9459010C945901000000000000005F0D
:1000A00000000003000300143E143E14242A7F2A9B
:1000B000124333086661364955225000050300009B
:1000C000001C2241000041221C0014083E081408B4
:1000D000083E0808005030000008080808080060C2
:1000E00060000020100804023E5149453E00040211
:1000F0007F00426151494622414949361814127F16
:100100001027454545393E494949320101710907E2
:100110003649494936264949493E003636000000ED
:10012000563600000814224100141414141400411F
:1001300022140802015109063E4159555E7E090903
:10014000097E7F494949363E414141227F41414133
:100150003E7F494949417F090909013E4141493AE8
:100160007F0808087F00417F4100304040403F7FCA
:10017000081422417F404040407F020C027F7F02F2
:1001800004087F3E4141413E7F090909061E2121A5
:10019000215E7F09090976264949493201017F011B
:1001A000013F4040403F1F2040201F7F2010207F04
:1001B00041221C224107087008076151494543004C
:1001C0007F41000002040810200000417F0004026B
:1001D0000102044040404040000102040020545409
:1001E00054787F4444443838444444443844444474
:1001F0007F385454541804047E0505085454543C64
:100200007F0804047800447D40002040443D007F86
:100210001028440000417F40007C047804787C086A
:1002200004047838444444387C1414140808141422
:10023000147C007C080404485454542004043F44B3
:10024000443C4040207C1C2040201C3C4030403C32
:1002500044281028440C5050503C4464544C4400F2
:100260000836414100007F0000414136080002018C
:100270000204020011241FBECFEFD0E2DEBFCDBFCB
:1002800015E0A0E0B1E0EAEEF3E200E00BBF02C04F
:1002900007900D92A234B107D9F718E0A2E4B5E0B7
:1002A00001C01D92A639B107E1F70E947E060C94A9
:1002B000F3110C94000093E89093B00091E09093B8
:1002C000B1008093B30008959C01909353058093EF
:1002D000520586E390E0809300402115310589F4B2
:1002E00080EF90E090934F0580934E0580E491E07D
:1002F000909351058093500588E490E080930041ED
:100300003BC02130310589F480E491E090934F05A2
:1003100080934E0580EF90E09093510580935005B7
:1003200088EE90E08093004127C02230310589F4A7
:1003300080EF90E090934F0580934E0580E491E02C
:10034000909351058093500588E890E08093004198
:1003500013C02330310581F480E491E090934F0580
:1003600080934E0580EF90E0909351058093500567
:1003700088E290E0809300418AE290E08093004020
:1003800020E030E0309300412093004180914E0501
:1003900090914F05019790930041809300418BE22B
:1003A00090E0809300403093004120930041809181
:1003B0005005909151050197909300418093004121
:1003C00008951F93682F873718F010E066E711C073
:1003D000883010F468E00CC08D3310F010E009C0D4
:1003E0008F3110F011E005C0803110F012E001C033
:1003F00013E081EB90E0809300401093004170E0A7
:10040000882777FD8095982F0E94390B9B01AC01BE
:1004100060E070E080EF94E40E945D0A0E9487082B
:1004200070E002C0759567951A95E2F760930041F8
:100430001F9108950F931F93DF93CF93CDB7DEB72E
:1004400028970FB6F894DEBF0FBECDBF29833A833D
:100450004B835C836D837E838F83988769817A81E8
:100460002B813C81ED81FE814F8158858AE290E0AD
:1004700080930040709300416093004130930041AD
:10048000209300418BE290E080930040F093004184
:10049000E093004150930041409300418CE290E092
:1004A000809300402F5F3F4F261B370B4F5F5F4FFE
:1004B0004E1B5F0B24173507C8F4842F877090E01C
:1004C000829FB001839F700D929F700D1124F3E005
:1004D00056954795FA95E1F7842F90E0829FF001B9
:1004E000839FF00D929FF00D112418C0822F87700A
:1004F00090E0849FB001859F700D949F700D112432
:10050000E3E036952795EA95E1F7822F90E0849F06
:10051000F001859FF00D949FF00D1124862F8770B8
:1005200005C0109300410093004181508823C9F712
:10053000CB0123E0969587952A95E1F78E0F9F1FB3
:1005400021C010930041009300411093004100939B
:10055000004110930041009300411093004100932B
:10056000004110930041009300411093004100931B
:10057000004110930041009300411093004100930B
:10058000004101970097E9F628960FB6F894DEBF70
:100590000FBECDBFCF91DF911F910F910895EF92C4
:1005A000FF920F931F93DF93CF93CDB7DEB72897BA
:1005B0000FB6F894DEBF0FBECDBF29833A834B83BD
:1005C0005C836D837E838F83988729813A81AB8199
:1005D000BC81ED80FE806F8178858AE290E0809317
:1005E00000403093004120930041B0930041A0931C
:1005F00000418BE290E080930040F0920041E09255
:10060000004170930041609300418CE290E0809340
:1006100000400FC0F801819191918F0190930041AA
:10062000809300414F5F5F4F6417750798F72F5F06
:100630003F4FA217B30710F0A701F6CF28960FB6C9
:10064000F894DEBF0FBECDBFCF91DF911F910F9108
:10065000FF90EF900895CF92DF92EF92FF920F9369
:100660001F93DF93CF93CDB7DEB728970FB6F894DB
:10067000DEBF0FBECDBF29833A834B835C836D837E
:100680007E838F839887680129813A81EB80FC8083
:100690000D811E81AF81B8858AE290E08093004091
:1006A0003093004120930041F0920041E0920041DC
:1006B0008BE290E080930040109300410093004152
:1006C000B0930041A09300418CE290E08093004001
:1006D0000FC08191919190930041809300414F5FB1
:1006E0005F4F6F5F7F4FA417B50798F72F5F3F4F9E
:1006F000E216F30638F0FB01EE0FFF1FEC0DFD1DB7
:10070000A801F1CF28960FB6F894DEBF0FBECDBF7B
:10071000CF91DF911F910F91FF90EF90DF90CF90DD
:1007200008950F931F93DF93CF93CDB7DEB728972C
:100730000FB6F894DEBF0FBECDBF109255051092D4
:100740005405109257051092560520914E05309190
:100750004F052150304080915005909151050197EF
:100760001A821982422F3C832B831E821D82988716
:100770008F8300915A0510915B0529813A815C8134
:100780006D817E8198850E941A0228960FB6F89492
:10079000DEBF0FBECDBFCF91DF911F910F910895A6
:1007A00086E08093750080E8809374003F9A249AD5
:1007B00080ED97E00197F1F7479880E49CE9019775
:1007C000F1F7479A80EB94E028EC30E0F90131979B
:1007D000F1F70197D9F788E290E08093004081E13A
:1007E00090E08093004088E592E028EC30E0F90149
:1007F0003197F1F70197D9F741E050E08BEC90E0A9
:10080000809300404093004180EC90E08093004052
:1008100088E096E2909300418093004120E130E02F
:1008200081EC90E0809300402093004185EC90E0C3
:10083000809300408EE395E39093004180930041C4
:1008400025EB30E087EC90E080930040209300415E
:1008500086EF90E0809300404093004180E090E07C
:10086000909300418093004125E530E08AE390E0D9
:10087000809300402093004181E090E00E94640159
:100880000E9491031092550510925405109257053D
:100890001092560510925B0510925A058FEF9FEF4C
:1008A000909359058093580589E290E08093004029
:1008B00084EF91E028EC30E0F9013197F1F70197EE
:1008C000D9F780E090E025E330E02093004080936A
:1008D000004180916A00806280936A002C9A08959A
:1008E000CF92DF92EF92FF920F931F93CF93DF93FC
:1008F000982F40915405509155058A010C5F1F4F68
:1009000020915605309157058A30A9F4109255056B
:1009100010925405285F3F4F30935705209356059A
:1009200080915005909151052817390708F489C026
:100930000E94910386C080528F3508F082C0E90181
:10094000279685E09802F0011124E850F0408BE2F0
:1009500090E0809300403093004120930041D09379
:100960000041C09300416AE2C62ED12C9CE2E92EE0
:10097000F12C29C0C09200405093004140930041A7
:100980005093004140930041E0920040B491B9017E
:10099000A1E013C08A2F8B2329F0809158059091F4
:1009A000590504C080915A0590915B0590930041D0
:1009B000809300416F5F7F4FAA0FC617D70750F78C
:1009C00031964F5F5F4F04171507A0F68AE290E05B
:1009D0008093004050930041409300415093004168
:1009E000409300418CE290E0809300400AC08091E7
:1009F0005A0590915B0590930041809300412F5FD1
:100A00003F4FC217D30798F7809154059091550531
:100A10000696909355058093540520914E0530918C
:100A20004F058217930768F01092550510925405F0
:100A3000809156059091570508969093570580939D
:100A40005605DF91CF911F910F91FF90EF90DF90AE
:100A5000CF9008951F93CF93DF93EC0110E003C074
:100A60000E9470041F5FFE01E10FF11D8081882349
:100A7000B9F7DF91CF911F9108951F93CF93DF9323
:100A8000EC017093550560935405509357054093BE
:100A9000560510E003C00E9470041F5FFE01E10FC5
:100AA000F11D80818823B9F7DF91CF911F910895BF
:100AB000EF92FF920F931F93CF93DF93C0E0D0E0AC
:100AC00070E8E72EF12C082F10E0C7010C2E02C0B1
:100AD000959587950A94E2F780239123892B11F04D
:100AE00081E301C08EE20E9470042196C830D105D6
:100AF00061F7DF91CF911F910F91FF90EF900895D3
:100B00000F931F93DF93CF93CDB7DEB728970FB620
:100B1000F894DEBF0FBECDBF20917C0830917D08D8
:100B200040917E0850917F08609180087091810803
:100B3000809182089091830800E010E00E941A02E0
:100B400020912704332727FD30954091280455270D
:100B500047FD509564E170E0269FC001279F900DEE
:100B6000369F900D11249A8389832F5F3F4F269FD4
:100B7000C001279F900D369F900D112401979C83F3
:100B80008B8323E130E0429FC001439F900D529F31
:100B9000900D11249E838D834F5F5F4F429FC00154
:100BA000439F900D529F900D112498878F83A6E844
:100BB000B8E0FE01319688E001900D928150E1F796
:100BC00020918608309187084091880850918908C3
:100BD00060918A0870918B0880918C0890918D08A3
:100BE00007E011E00E942B038DB79EB708970FB660
:100BF000F8949EBF0FBE8DBFEDB7FEB731968091C2
:100C0000840890918508ADB7BEB712969C938E93D9
:100C1000119780E091E09383828380912704992744
:100C200087FD90959583848380912804992787FD7B
:100C30009095978386830E941C0F8DB79EB7089668
:100C40000FB6F8949EBF0FBE8DBF8091840890911F
:100C5000850860E070E040E050E00E943D05CE0174
:100C600001960E94C40E28960FB6F894DEBF0FBE00
:100C7000CDBFCF91DF911F910F9108950F931F93D7
:100C8000CF93DF9308EC10E084EF91E0F801319707
:100C9000F1F70197D9F70E941F08892B19F4C0E0DA
:100CA000D0E007C080912704815080932704C1E0E1
:100CB000D0E00E94F007892B39F0809127048F5FE4
:100CC00080932704C1E0D0E00E949207892B39F07D
:100CD00080912804815080932804C1E0D0E00E94D4
:100CE000C107892B31F0809128048F5F80932804FD
:100CF00002C0CD2B49F20E948005C6CF80E88093C8
:100D00006100109261000E94D0030E9461088DE38F
:100D10000E94E10181E090E00E946401279A2F98EF
:100D20001092800088E08093810080918100816032
:100D30008093810080916F00826080936F00109299
:100D400099001092980020914E0530914F058091A6
:100D500050059091510590938308809382081092DA
:100D600081081092800830937F0820937E081092AB
:100D70007D0810927C08ECE5F5E080E29DEF819320
:100D8000919328E0EC37F207D1F780E190E00E94E0
:100D9000170E80938408909385080E9480050E9416
:100DA0003E060895409190085091910820E030E06F
:100DB000FA01E20FF31F80819181892B19F021E064
:100DC00030E007C02E5F3F4F2A30310589F720E021
:100DD00030E0C9010895CF93DF9340918E08509180
:100DE0008F08C0919008D091910820E030E0FA017E
:100DF000E20FF31FDE01A20FB31F8D919C9191832F
:100E000080832E5F3F4F2A30310589F78CB190E007
:100E10008095909580789070998788878CB190E0C4
:100E20008095909588709070998388838CB190E0BC
:100E300080959095847090709B838A838CB190E0AC
:100E400080959095807290709F838E838CB190E096
:100E500080959095807190709D838C830E94D206BE
:100E600090934D0580934C05DF91CF910895AC018F
:100E7000440F551FE0919008F0919108E40FF51F81
:100E800080819181892B19F420E030E00FC020E0AF
:100E9000E0918E08F0918F08E40FF51F8081918119
:100EA000892B09F021E081E0282730E0C90108956D
:100EB000880F991FE0919008F0919108E80FF91FB1
:100EC000808191810895679919C080914205909120
:100ED0004305892B99F480914C0590914D05892B00
:100EE00069F481E090E090934305809342059093EC
:100EF0004D0580934C0521E030E012C0679B0EC089
:100F00008091420590914305892B41F01092430551
:100F10001092420510924D0510924C0520E030E0F1
:100F2000C9010895329919C08091440590914505F1
:100F3000892B99F480914C0590914D05892B69F48A
:100F400081E090E0909345058093440590934D0592
:100F500080934C0521E030E012C0329B0EC080919E
:100F6000440590914505892B41F01092450510925A
:100F7000440510924D0510924C0520E030E0C90167
:100F80000895349919C08091460590914705892BA1
:100F900099F480914C0590914D05892B69F481E07D
:100FA00090E0909347058093460590934D0580937C
:100FB0004C0521E030E012C0349B0EC08091460504
:100FC00090914705892B41F01092470510924605F4
:100FD00010924D0510924C0520E030E0C9010895B3
:100FE000339919C08091480590914905892B99F44E
:100FF00080914C0590914D05892B69F481E090E03A
:10100000909349058093480590934D0580934C0536
:1010100021E030E012C0339B0EC0809148059091D2
:101020004905892B41F0109249051092480510920C
:101030004D0510924C0520E030E0C9010895359926
:1010400019C080914A0590914B05892B99F48091A4
:101050004C0590914D05892B69F481E090E09093C7
:101060004B0580934A0590934D0580934C0521E0F4
:1010700030E012C0359B0EC080914A0590914B051F
:10108000892B41F010924B0510924A0510924D05A4
:1010900010924C0520E030E0C9010895359909C04F
:1010A00080914C0590914D05892B19F421E030E099
:1010B00006C010924D0510924C0520E030E0C901A9
:1010C00008956F98779A87B1837C87B988B18C63CC
:1010D00088B96F98779A87B1837C87B988B18C6318
:1010E00088B9EAE6F0E08081856880838AE090E054
:1010F0000E94170E80938E0890938F088AE090E0EC
:101100000E94170E80939008909391080895EF9293
:10111000FF920F931F937B018C0120E030E040E0B1
:101120005FE40E94090B88238CF0C801B70120E01E
:1011300030E040E05FE40E94FF090E94970B9B01B2
:10114000AC01205030404040504806C0C801B701B3
:101150000E94970B9B01AC01B901CA011F910F912D
:10116000FF90EF900895A0E0B0E0E9EBF8E00C9478
:10117000E00DDC012B01FA019C91923008F439C199
:10118000EB018881823008F433C1943069F48430F3
:1011900009F02FC111969C9111978981981709F434
:1011A00028C1A3E3B4E025C1843009F421C1823011
:1011B000A9F4923009F01DC19A01AD0188E0EA015D
:1011C0000990AE01E90109929E018150C1F7E20147
:1011D000898111969C918923818308C1923009F4F9
:1011E00007C112962D903C901397EB018A819B8149
:1011F0001496AD90BD90CD90DC901797EC80FD805B
:101200000E811F819101281B390BB90137FF04C0E2
:1012100066277727621B730B603271050CF061C083
:10122000121613066CF537014801062E04C0969479
:101230008794779467940A94D2F721E030E040E0F5
:1012400050E004C0220F331F441F551F6A95D2F788
:1012500021503040404050402E213F214023512317
:10126000211531054105510521F021E030E040E034
:1012700050E079018A01E628F728082919293CC09D
:10128000232BD1F1260E371E35014601062E04C050
:1012900096948794779467940A94D2F721E030E08B
:1012A00040E050E004C0220F331F441F551F6A95D1
:1012B000D2F721503040404050402A213B214C2160
:1012C0005D21211531054105510521F021E030E076
:1012D00040E050E059016A01A628B728C828D9285B
:1012E0000BC0821593052CF01C01AA24BB246501B8
:1012F00003C0EE24FF24870111969C91D201119620
:101300008C91981709F445C0992339F0A8019701E9
:101310002A193B094C095D0906C0A60195012E1941
:101320003F09400B510B57FD08C0118233822282C6
:1013300024833583468357831DC081E081833382B4
:10134000228288279927DC01821B930BA40BB50B03
:1013500084839583A683B7830DC0220F331F441F58
:10136000551F248335834683578382819381019758
:10137000938382832481358146815781DA01C901B3
:101380000197A109B1098F5F9F4FAF4FBF4328F36A
:101390000BC0918333822282EA0CFB1C0C1D1D1DA5
:1013A000E482F5820683178383E08083248135817C
:1013B0004681578157FF1AC0C901AA2797FDA095FA
:1013C000BA2F81709070A070B07056954795379580
:1013D0002795822B932BA42BB52B84839583A683EF
:1013E000B78382819381019693838283DF0101C059
:1013F000D201CD01CDB7DEB7E2E10C94FC0DA0E245
:10140000B0E0E5E0FAE00C94EC0D69837A838B831D
:101410009C832D833E834F835887E9E0EE2EF12C89
:10142000EC0EFD1ECE010196B7010E940F0D8E013C
:101430000F5E1F4FCE010596B8010E940F0D8A89DD
:1014400091E089278A8BC701B801AE01475E5F4FE3
:101450000E94B3080E943A0CA096E6E00C94080E95
:10146000A0E2B0E0E6E3FAE00C94EC0D69837A8345
:101470008B839C832D833E834F835887F9E0EF2E27
:10148000F12CEC0EFD1ECE010196B7010E940F0D4E
:101490008E010F5E1F4FCE010596B8010E940F0D01
:1014A000C701B801AE01475E5F4F0E94B3080E94BA
:1014B0003A0CA096E6E00C94080EA8E1B0E0E3E652
:1014C000FAE00C94E80D69837A838B839C832D83E7
:1014D0003E834F835887B9E0EB2EF12CEC0EFD1EB6
:1014E000CE010196B7010E940F0D8E010F5E1F4FB6
:1014F000CE010596B8010E940F0D2985223008F40F
:101500007EC03989323010F4B8017CC08A859A894E
:1015100089278A87243011F0223031F4231709F00B
:101520006EC063E374E06EC0343039F41D861E86ED
:101530001F86188A1C861B8604C0323021F484E082
:101540008987B7015FC02B853C858B899C89281BC7
:10155000390B3C872B87ED84FE840F851889AD8875
:10156000BE88CF88D88CEA14FB040C051D0540F416
:10157000EE0CFF1C001F111F215030403C872B87B1
:1015800020E030E040E050E080E090E0A0E0B0E417
:1015900060E070E0EA14FB040C051D0540F0282B08
:1015A000392B4A2B5B2BEA18FB080C091D09B69551
:1015B000A79597958795EE0CFF1C001F111F6F5F75
:1015C0007F4F6F31710531F7DA01C9018F77907064
:1015D000A070B07080349105A105B10561F427FDBC
:1015E0000AC0E114F1040105110529F0205C3F4F08
:1015F0004F4F5F4F20782D873E874F87588BBE0116
:10160000675F7F4FCB010E943A0C6896EAE00C942A
:10161000040EA8E1B0E0EFE0FBE00C94EC0D698370
:101620007A838B839C832D833E834F83588789E005
:10163000E82EF12CEC0EFD1ECE010196B7010E94A2
:101640000F0D8E010F5E1F4FCE010596B8010E944F
:101650000F0D8985823040F08989823028F0C701DA
:10166000B8010E94870D01C08FEF6896E6E00C94E8
:10167000080EA8E0B0E0EFE3FBE00C94E90D9B015D
:10168000AC0183E08983DA01C9018827B7FD83951E
:101690009927AA27BB27B82E2115310541055105E9
:1016A00019F482E089833AC08823A9F0203080E0D1
:1016B000380780E0480780E8580729F460E070E0C8
:1016C00080E09FEC30C0EE24FF248701E21AF30A89
:1016D000040B150B02C079018A018EE1C82ED12CB2
:1016E000DC82CB82ED82FE820F831887C801B701AE
:1016F0000E94EB0B01971816190684F4082E04C0FB
:10170000EE0CFF1C001F111F0A94D2F7ED82FE821F
:101710000F831887C81AD90ADC82CB82BA82CE011D
:1017200001960E943A0C2896E9E00C94050EACE074
:10173000B0E0EDE9FBE00C94F00D69837A838B83D4
:101740009C83CE010196BE016B5F7F4F0E940F0DFF
:101750008D81823061F1823050F1843021F48E81AC
:10176000882351F12EC02F81388537FD20C06E812E
:101770002F3131051CF06623F9F023C08EE190E093
:10178000821B930B29853A854B855C8504C0569551
:101790004795379527958A95D2F76623B1F05095EE
:1017A0004095309521953F4F4F4F5F4F0EC020E041
:1017B00030E040E050E009C02FEF3FEF4FEF5FE730
:1017C00004C020E030E040E050E8B901CA012C96A6
:1017D000E2E00C940C0EEF92FF920F931F937B01AB
:1017E0008C0180E0E81680E0F80681E0080780E0E0
:1017F000180788F48FEFE816F1040105110531F0A0
:1018000028F088E090E0A0E0B0E017C080E090E031
:10181000A0E0B0E012C080E0E81680E0F80680E0CA
:10182000080781E0180728F088E190E0A0E0B0E028
:1018300004C080E190E0A0E0B0E020E230E040E0D1
:1018400050E0281B390B4A0B5B0B04C0169507951B
:10185000F794E7948A95D2F7F701E55CFB4F808116
:10186000281B310941095109C9011F910F91FF90AE
:10187000EF900895DF92EF92FF920F931F93FC0178
:10188000E480F58006811781D1808081823048F420
:1018900080E090E0A0E1B0E0E82AF92A0A2B1B2BB7
:1018A000A5C0843009F49FC0823021F4EE24FF24C7
:1018B000870105C0E114F1040105110519F4E0E008
:1018C000F0E096C0628173819FEF623879070CF077
:1018D0005BC022E83FEF261B370B2A3131052CF085
:1018E00020E030E040E050E02AC0B801A701022E1D
:1018F00004C076956795579547950A94D2F781E08D
:1019000090E0A0E0B0E004C0880F991FAA1FBB1FA1
:101910002A95D2F70197A109B1098E219F21A02311
:10192000B1230097A105B10521F081E090E0A0E08E
:10193000B0E09A01AB01282B392B4A2B5B2BDA0143
:10194000C9018F779070A070B07080349105A105A7
:10195000B10539F427FF09C0205C3F4F4F4F5F4F5F
:1019600004C0215C3F4F4F4F5F4FE0E0F0E020307C
:10197000A0E03A07A0E04A07A0E45A0710F0E1E02F
:10198000F0E079018A0127C06038710564F5FB0138
:10199000E158FF4FD801C7018F779070A070B070E9
:1019A00080349105A105B10539F4E7FE0DC080E44E
:1019B00090E0A0E0B0E004C08FE390E0A0E0B0E0F1
:1019C000E80EF91E0A1F1B1F17FF05C01695079585
:1019D000F794E794319687E016950795F794E79486
:1019E0008A95D1F705C0EE24FF248701EFEFF0E0E0
:1019F0006E2F679566276795902F9F77D794DD2484
:101A0000D7948E2F8695492F462B582F5D29B701E5
:101A1000CA011F910F91FF90EF90DF900895FC0194
:101A2000DB01408151812281622F6F7770E0221F9C
:101A30002227221F9381892F880F822B282F30E0A5
:101A4000991F9927991F11969C931197211531057C
:101A5000A9F5411551056105710511F482E037C002
:101A600082E89FEF13969C938E9312979A01AB0195
:101A700067E0220F331F441F551F6A95D1F783E09B
:101A80008C930DC0220F331F441F551F12968D914A
:101A90009C911397019713969C938E9312972030E5
:101AA00080E0380780E0480780E4580758F3149630
:101AB0002D933D934D935C93179708952F3F3105D8
:101AC00079F4411551056105710519F484E08C9391
:101AD000089564FF03C081E08C9312C01C9210C073
:101AE0002F57304013963C932E93129783E08C939C
:101AF00087E0440F551F661F771F8A95D1F77064E2
:101B000014964D935D936D937C93179708951F934F
:101B1000DC01FB019C91923008F447C08081823047
:101B200008F443C0943051F411961C91843099F517
:101B30008181682F70E0611B71093FC0843021F002
:101B4000923031F48230B9F18181882389F12DC03E
:101B500011961C9111978230F1F081811817D9F4F8
:101B600012962D913C91139782819381821793074E
:101B700094F028173907BCF014968D919D910D9023
:101B8000BC91A02D248135814681578128173907C2
:101B90004A075B0718F4112341F00AC08217930724
:101BA000A407B50740F4112319F061E070E005C007
:101BB0006FEF7FEF02C060E070E0CB011F910895EE
:101BC0002F923F924F925F926F927F928F929F924D
:101BD000AF92BF92CF92DF92EF92FF920F931F933B
:101BE000CF93DF93CDB7DEB7CA1BDB0B0FB6F894EC
:101BF000DEBF0FBECDBF09942A88398848885F842C
:101C00006E847D848C849B84AA84B984C884DF809C
:101C1000EE80FD800C811B81AA81B981CE0FD11D80
:101C20000FB6F894DEBF0FBECDBFED010895CF9380
:101C3000DF93BC018230910510F462E070E0A09166
:101C40009408B0919508ED01E0E0F0E040E050E04C
:101C500021C0888199818617970769F48A819B81C1
:101C6000309719F09383828304C0909395088093F2
:101C70009408FE0134C06817790738F441155105FE
:101C800019F08417950708F4AC01FE018A819B8145
:101C90009C01E9012097E9F641155105A9F1CA0116
:101CA000861B970B049708F4BA01E0E0F0E02AC025
:101CB0008D919C91119784179507F9F46417750716
:101CC00081F412968D919C911397309719F093831C
:101CD000828304C09093950880939408FD01329606
:101CE0004FC0CA01861B970BFD01E80FF91F6193D6
:101CF000719302978D939C9343C0FD0182819381E0
:101D00009C01D9011097A1F68091920890919308B7
:101D1000892B41F480913D0590913E059093930865
:101D20008093920840913F0550914005411551051F
:101D300041F44DB75EB780913B0590913C05481B3F
:101D4000590B209192083091930824173507B0F46D
:101D5000CA01821B930B8617970780F0AB014E5F79
:101D60005F4F8417950750F0420F531F509393080D
:101D700040939208F9016193719302C0E0E0F0E0B2
:101D8000CF01DF91CF910895CF93DF93009709F4AE
:101D900050C0EC0122971B821A82A0919408B09146
:101DA0009508109709F140E050E0AC17BD0708F125
:101DB000BB83AA83FE0121913191E20FF31FAE177D
:101DC000BF0779F48D919C911197280F391F2E5FD1
:101DD0003F4F3983288312968D919C9113979B8353
:101DE0008A834115510571F4D0939508C0939408E6
:101DF00020C012968D919C911397AD01009711F020
:101E0000DC01D3CFFA01D383C28321913191E20F58
:101E1000F31FCE17DF0769F488819981280F391FD6
:101E20002E5F3F4FFA01318320838A819B81938308
:101E30008283DF91CF9108950F931F93DF93CF9308
:101E4000CDB7DEB72E970FB6F894DEBF0FBECDBF6D
:101E50000D891E8986E08C831A8309838FEF9FE7A3
:101E60009E838D839E01275E3F4FCE0101966F8931
:101E7000788DA9010E944D0F2F813885020F131F05
:101E8000F80110822E960FB6F894DEBF0FBECDBFBC
:101E9000CF91DF911F910F9108952F923F924F9212
:101EA0005F926F927F928F929F92AF92BF92CF92EA
:101EB000DF92EF92FF920F931F93DF93CF93CDB7F3
:101EC000DEB72B970FB6F894DEBF0FBECDBF3C0137
:101ED0002B015A01FC0117821682838181FD03C008
:101EE0006FEF7FEFC6C19AE0892E1E010894211C76
:101EF000311CF3012381F20123FD859123FF8191A0
:101F00002F01882309F4B2C1853239F423FD85916C
:101F100023FF81912F01853229F490E0B3010E94C3
:101F20006911E7CF982FFF24EE249924FFE1FF15D4
:101F3000D0F09B3269F09C3228F4903259F0933201
:101F400091F40EC09D3249F0903369F441E024C011
:101F500052E0F52A84E0F82A28C098E0F92A25C042
:101F6000E0E1FE2A22C0F7FC29C0892F80538A3085
:101F700070F4F6FE05C0989C902C1124980E15C0A4
:101F8000E89CE02C1124E80EF0E2FF2A0EC09E32FD
:101F900029F4F6FC6BC140E4F42A07C09C3619F41E
:101FA00050E8F52A02C0983649F4F20123FD9591D4
:101FB00023FF91912F01992309F0B8CF892F8554E0
:101FC000833018F08052833038F444E050E0A40E9F
:101FD000B51E5FE359830FC0933631F0933779F024
:101FE000933509F056C020C0F5018081898342E015
:101FF00050E0A40EB51E610101E010E012C0F50131
:10200000C080D180F6FC03C06FEF7FEF02C0692D66
:1020100070E042E050E0A40EB51EC6010E945E11C1
:102020008C015FE7F52214C0F501C080D180F6FC79
:1020300003C06FEF7FEF02C0692D70E042E050E017
:10204000A40EB51EC6010E9453118C0150E8F52A5A
:10205000F3FE07C01AC080E290E0B3010E9469114C
:10206000EA948E2D90E008171907A8F30EC0F60128
:10207000F7FC8591F7FE81916F0190E0B3010E941A
:102080006911E110EA94015010400115110579F72A
:10209000EAC0943611F0993669F5F7FE08C0F501EB
:1020A000208131814281538184E090E00AC0F501B2
:1020B000808191819C01442737FD4095542F82E017
:1020C00090E0A80EB91E9FE6F92257FF09C050956F
:1020D0004095309521953F4F4F4F5F4FE0E8FE2AE6
:1020E000CA01B901A1012AE030E00E949511D82E61
:1020F000D21840C0953729F41F2D1F7E2AE030E00A
:102100001DC01F2D197F9F3661F0903720F4983540
:1021100009F0ACC00FC0903739F0983709F0A6C06D
:1021200004C028E030E00AC0106114FD146020E112
:1021300030E004C014FD166020E132E017FF08C053
:10214000F501608171818281938144E050E008C093
:10215000F50180819181BC0180E090E042E050E097
:10216000A40EB51EA1010E949511D82ED2188FE79A
:10217000F82EF122F6FE0BC05EEFF522D91438F4EA
:10218000F4FE07C0F2FC05C08FEEF82202C01D2D40
:1021900001C0192DF4FE0DC0FE01ED0DF11D808171
:1021A000803319F499EEF92208C01F5FF2FE05C0D2
:1021B00003C08F2D867809F01F5F0F2DF3FC14C02C
:1021C000F0FE0FC01E1510F09D2C0BC09D2C9E0C18
:1021D000911A1E2D06C080E290E0B3010E946911A1
:1021E0001F5F1E15C0F304C01E1510F4E11A01C0D4
:1021F000EE2404FF0FC080E390E0B3010E94691158
:1022000002FF1DC001FD03C088E790E00EC088E515
:1022100090E00BC0802F867891F001FF02C08BE226
:1022200001C080E2F7FC8DE290E0B3010E946911E9
:1022300006C080E390E0B3010E9469119A94D9141A
:10224000C0F3DA94F101ED0DF11D808190E0B3014E
:102250000E946911DD20A9F706C080E290E0B30179
:102260000E946911EA94EE20C1F743CEF301668122
:102270007781CB012B960FB6F894DEBF0FBECDBF92
:10228000CF91DF911F910F91FF90EF90DF90CF9052
:10229000BF90AF909F908F907F906F905F904F9086
:1022A0003F902F900895FC010590615070400110FF
:1022B000D8F7809590958E0F9F1F0895FC0161506F
:1022C000704001900110D8F7809590958E0F9F1F58
:1022D00008950F931F93CF93DF938C01EB018B81B4
:1022E00081FF1BC082FF0DC02E813F818C819D81AB
:1022F0002817390764F4E881F9810193F983E883A9
:1023000006C0E885F985802F0995892B31F48E81E7
:102310009F8101969F838E8302C00FEF1FEFC8013C
:10232000DF91CF911F910F910895FA01AA272830CC
:1023300051F1203181F1E8946F936E7F6E5F7F4F92
:102340008F4F9F4FAF4FB1E03ED0B4E03CD0670F0E
:10235000781F891F9A1FA11D680F791F8A1F911D61
:10236000A11D6A0F711D811D911DA11D20D009F4B1
:1023700068943F912AE0269F11243019305D3193F3
:10238000DEF6CF010895462F4770405D4193B3E0DC
:102390000FD0C9F7F6CF462F4F70405D4A3318F083
:1023A000495D31FD4052419302D0A9F7EACFB4E034
:1023B000A6959795879577956795BA95C9F70097EC
:1023C0006105710508959B01AC010A2E069457958D
:1023D000479537952795BA95C9F7620F731F841FE4
:0A23E000951FA01D0895F894FFCF8B
:1023EA00256420256400140000000000000000009D
:1023FA0000000000000000000000000000000000D3
:10240A0000000000000000000000000000000000C2
:10241A0000000000000000000000000000000000B2
:10242A0000FFFFFFFF0000000000000000000000A6
:10243A000000000000000000000000000000000092
:10244A0000000000000000FFFF00000000FFFF0086
:10245A000000000000000000000000000000000072
:10246A0000000000000000000000000000FFFF0064
:10247A0000000000000000FFFF0000000000000054
:10248A000000000000000000000000000000000042
:10249A000000000000FFFF0000000000000000FF35
:1024AA00FF00000000000000000000000000000023
:1024BA00000000000000000000000000000000FF13
:1024CA00FF00000000FFFF00000000000000000005
:1024DA0000000000000000000000000000000000F2
:1024EA00000000000000000000FFFFFFFF000000E6
:1024FA0000000000000000000000000000000000D2
:10250A00000000000000000000000000000000FFC2
:10251A00FFFFFFFFFFFFFF000000000000000000B8
:10252A0000000000000000000000000000000000A1
:10253A0000000000000000FFFFFFFFFFFFFFFF0099
:10254A000000000000000000000000000000000081
:10255A00000000000000000000000000000000FF72
:10256A00FFFFFFFFFFFFFF00000000000000000068
:10257A000000000000000000000000000000000051
:10258A0000000000000000FFFFFFFFFFFFFFFF0049
:10259A000000000000000000000000000000000031
:1025AA00000000000000000000000000000000FF22
:1025BA00FFFFFFFFFFFFFF00000000000000000018
:1025CA000000000000000000000000000000000001
:1025DA0000000000000000FFFFFFFFFFFFFFFF00F9
:1025EA0000000000000000000000000000000000E1
:1025FA0000000000000000000000000000000000D1
:10260A0000FFFFFFFF0000000000000000000000C4
:10261A0000000000000000000000000000000000B0
:10262A00000000000000000000FFFFFFFF000000A4
:10263A000000000000000000000000000000000090
:10264A000000000000000000000000000000000080
:10265A0000FFFFFFFF000000000000000000000074
:10266A000000000000000000000000000000000060
:10267A00000000000000000000FFFFFFFF00000054
:10268A000000000000000000000000000000000040
:10269A000000000000000000000000000000000030
:1026AA0000FFFFFFFF000000000000000000000024
:1026BA000000000000000000000000000000000010
:1026CA0000000000000000FFFFFFFFFFFFFFFF0008
:1026DA0000000000000000000000000000000000F0
:1026EA0000000000000000000000000000000000E0
:1026FA0000000000000000000000000000000000D0
:10270A000000000000000001010000130000001397
:10271A000010000000000000000000000102020397
:10272A00030303040404040404040405050505055D
:10273A00050505050505050505050506060606063A
:10274A00060606060606060606060606060606061F
:10275A00060606060606060606060607070707070A
:10276A0007070707070707070707070707070707EF
:10277A0007070707070707070707070707070707DF
:10278A0007070707070707070707070707070707CF
:10279A0007070707070707070707070808080808BA
:1027AA00080808080808080808080808080808089F
:1027BA00080808080808080808080808080808088F
:1027CA00080808080808080808080808080808087F
:1027DA00080808080808080808080808080808086F
:1027EA00080808080808080808080808080808085F
:1027FA00080808080808080808080808080808084F
:10280A00080808080808080808080808080808083E
:10281A000808080808080808080808200096080098
:02282A000000AC
:00000001FF
