:100000000C94E3B70C9402B80C9402B80C9402B8A8
:100010000C9402B80C9402B80C9402B80C9402B878
:100020000C9402B80C9402B80C9402B80C9402B868
:100030000C9402B80C9402B80C9402B80C9402B858
:100040000C9402B80C9402B80C9402B80C9402B848
:100050000C9402B80C9402B80C9402B80C9402B838
:100060000C9402B80C9402B80C9402B80C9402B828
:100070000C9402B80C9402B80C9402B80C9402B818
:100080000C9402B80C9402B80C9402B80C9402B808
:100090000C9402B80C9402B8000000000000005F4D
:1000A00000000003000300143E143E14242A7F2A9B
:1000B000124333086661364955225000050300009B
:1000C000001C2241000041221C0014083E081408B4
:1000D000083E0808005030000008080808080060C2
:1000E00060000020100804023E5149453E00040211
:1000F0007F00426151494622414949361814127F16
:100100001027454545393E494949320101710907E2
:100110003649494936264949493E003636000000ED
:10012000563600000814224100141414141400411F
:1001300022140802015109063E4159555E7E090903
:10014000097E7F494949363E414141227F41414133
:100150003E7F494949417F090909013E4141493AE8
:100160007F0808087F00417F4100304040403F7FCA
:10017000081422417F404040407F020C027F7F02F2
:1001800004087F3E4141413E7F090909061E2121A5
:10019000215E7F09090976264949493201017F011B
:1001A000013F4040403F1F2040201F7F2010207F04
:1001B00041221C224107087008076151494543004C
:1001C0007F41000002040810200000417F0004026B
:1001D0000102044040404040000102040020545409
:1001E00054787F4444443838444444443844444474
:1001F0007F385454541804047E0505085454543C64
:100200007F0804047800447D40002040443D007F86
:100210001028440000417F40007C047804787C086A
:1002200004047838444444387C1414140808141422
:10023000147C007C080404485454542004043F44B3
:10024000443C4040207C1C2040201C3C4030403C32
:1002500044281028440C5050503C4464544C4400F2
:100260000836414100007F0000414136080002018C
:10027000020402000102010011000102011100014B
:1002800004061100010A14110002000811005400B4
:10029000000000000000000000000000000000005E
:1002A000000000000000000000000000000000004E
:1002B000000000000000000000000000000000003E
:1002C0000000AAAAAA00000000000000000000A090
:1002D000AAAAAAAAEA0F0000000000000080AAAAA9
:1002E000AAAAAABFAA02000000000000AAAAAAAAFD
:1002F000AAAAAAAAAA000000000000AAAAAAAAAA5A
:10030000AAAAAAAA000000000000AAAA02AAAAAAF1
:1003100080AAAA000000000000AA0A0080AA020029
:10032000A0AA000000000000AA0A0000000000A02F
:10033000AA000000000000AAAA0200000080AAAAE9
:10034000000000000000AAAAAA2A00A8AAAAAA00DF
:100350000000000000AAAAAA2A00A8AAAAAA0000CF
:1003600000000000AAAAAA2A00A8AAAAAA000000BF
:10037000000000AAAAAA2A00A8AAAAAA00000000AF
:100380000000AAAAAA2A00A8AAAAAA00000000009F
:10039000000000000000000000000000000000005D
:1003A000000000000000000000000000000000004D
:1003B000000000000000000000000000000000003D
:1003C000000000000000000000000000000000002D
:1003D000000000000000000000000000000000001D
:1003E0000000000000000000000000FC71000000A0
:1003F00000C071F000000000000085AA1E07001C6C
:10040000C7FF1F00000000000085AAAAEA51FCFFF8
:10041000FF1F00000000000045A1AA6A51FCFF7FF9
:100420001C000000000000855AA86A51A8FFF11FB7
:1004300000000000000085AA166A51A8C7FF1F002F
:10044000000000000085AAAA455114EAFF1F000021
:100450000000000040A1AA6A51A8AA7A000000008A
:1004600000000040A1AA6A51A8AA5A00000000009A
:1004700000000050A86A51A86A01000000000000B6
:10048000000050A86A51A86A0100000000000000A6
:100490000000146A51A805000000000000000000E0
:1004A000000005CF17000000000000000000000061
:1004B000000000000000000000000000000000003C
:1004C000000000000000000000000000000000002C
:1004D000000000000000000000000000000000001C
:1004E000000000000000000000000000000000000C
:1004F00000000000000000000000000000000000FC
:1005000000000000000000000000000000000000EB
:10051000000000000000FC3F0000000000000000A0
:100520000000000000FCFF0F0000000000000000C1
:100530000000000000FFFF030000000000000000BA
:1005400000000000C0FFFF000000000000000000ED
:1005500000000000F0FF3F0000000000000000006D
:1005600000000000FCFF0F00000000000000000081
:1005700000000000FFFF030000000000000000007A
:10058000000000C0FFFF00000000000000000000AD
:10059000000000F0FFFF0F0000000000000000005E
:1005A000000000FCFFFF030000000000000000004E
:1005B0000000FC3F050000000000000000000000FB
:1005C00000003F40010000000000000000000000AB
:1005D000000000503F00000000000000000000008C
:1005E0000000FC3C000000000000000000000000D3
:1005F00000000000000000000000000000000000FB
:1006000000000000000000000000000000000000EA
:10061000000000FFFFFFFFFFFFFFFFFFFFFFFFFFE7
:10062000FFFFFFFFFFFFFFFFFFFFFFFFFFFFFFFFDA
:10063000FF000000000000000000000000000000BB
:1006400000000000000000000000000000000000AA
:10065000000000000000000000000000000000009A
:10066000000000000000000000000000000000008A
:10067000000000000000000000000000000000007A
:10068000000000000000000000000000000000006A
:10069000000000000000000000000000000000005A
:1006A000000000000000000000000000000000004A
:1006B000000000000000000000000000000000003A
:1006C000000000000000000000000000000000002A
:1006D000000000000000000000000000000000001A
:1006E000000000000000000000000000000000000A
:1006F00000000000000000000000000000000000FA
:1007000000000000000000000000000000000000E9
:1007100000000000000000000000000000000000D9
:1007200000FFFFFFFFFFFFFFFFFFFFFFFFFFFFFFD8
:10073000FFFFFFFFFFFFFFFFFFFFFFFFFFFFFFFFC9
:10074000FFFFFFFFFFFFFFFFFFFF03FF0F00FFFFA4
:10075000FFFFFFFFFFFFFFFFFFFFC0FF03000000E1
:1007600000000000000000000000F0FF000000009A
:1007700000000000000000000000FC00000000007D
:100780000000000000000000F00300000000000076
:1007900000000000000000F0FF000000000000006A
:1007A000000000000000F0FF00000000000000005A
:1007B0000000000000F0FF0000000000000000004A
:1007C00000000000F0FF000000000000000000003A
:1007D000000000F0FF00000000000000000000002A
:1007E0000000F0FF0000000000000000000000001A
:1007F00000F0FF000000000000000000000000000A
:10080000F0FF00000000000000000000000000F009
:10081000FF00000000000000000000000000F0FFEA
:1008200000000000000000000000000000F00300D5
:1008300000000000000000000000000000FC0000BC
:100840000000000000000000000000F0FFFFFFFFBC
:10085000FFFFFFFFFFFFFFFFFFC0FF03FFFFFFFFE3
:10086000FFFFFFFFFFFFFF03FF0F0000F0FFC0FFD0
:10087000FFFFFFFFFFFFFFFFFFFFC0FF03FFFFFFC3
:10088000FFFFFFFFFFFFFFFFFFFF0F000000000063
:1008900000000000000000003F0000000000000019
:1008A00000000000000000C00F0000000000000079
:1008B000000000000000FF0F00000000000000002A
:1008C0000000000000FF0F0000000000000000001A
:1008D00000000000FF0F000000000000000000000A
:1008E000000000FF0F0000000000000000000000FA
:1008F0000000FF0F000000000000000000000000EA
:1009000000FF0F00000000000000000000000000D9
:10091000FF0F00000000000000000000000000FFCA
:100920000F00000000000000000000000000FF0FAA
:1009300000000000000000000000000000FF0F00A9
:10094000000000000000000000000000C00F0000D8
:1009500000000000000000000000003F0000000058
:1009600000000000000000000000FF0F0000000079
:10097000000000000000000000C0FF03FFFFFFFFB9
:10098000FFFFFFFFFFFFFFFF00F0FFC0FFFFFFFFC4
:10099000FFFFFFFFFFFFFF00A70A00274B5555553C
:1009A0005555556AA5A66AA5AA6A55556AA556550C
:1009B0005555AAFA575555556A5555AAAAAA6955C3
:1009C000A9AA5AA95555555555A96A5A5555555567
:1009D00055A55695AAAA95AA5655555580AAAABFB7
:1009E0005A556A5555AAAAAA555555A9AAAA5555A0
:1009F000555955A9E9FFFF555555EAFFFF6A55A915
:100A000055F5A7EAAFAA6AA5FEEAAF56955A55EA88
:100A1000AF56555555555555555555BF5A55D5AFE2
:100A2000AA55555595AAAAAAFAFFAAEAAB6A55A5EE
:100A3000AA5A5595AAAAFFAFAAAAAAFEFFAFFEEA34
:100A4000FFABA5AAAAFAAFFEFFAFFEFF5F55555553
:100A5000557FA55655FAABBF5AA9AAAA5655555562
:100A600055A556FFFF576AE5AB55A5565555A9FF45
:100A70005FA97F55555555A9EAFFFFAA5AAAFFFF5E
:100A8000ABA5FAABFF5F554055E9EAAFA655555502
:100A9000AA9AAAAAFAABFFFFFB695555D55FA96AC6
:100AA000A5AA7FA9FAEAFFFF55A556BF9AFEFFAF98
:100AB000FEFF5F5555F55755A556AAAF56BF5AA923
:100AC000FFFFABAA5A555555A995AAAA5555A95540
:100AD00055957FF5FF55F5AB55A5A655555595AAE6
:100AE000AA55F5FFD5AFFA95AA565555A995AAAAC4
:100AF000AA5AFD5595AA55A5565555FD95AAAA552C
:100B0000A5AA95FA5755955640AAAA95FAEBD5FF8E
:100B100097AAFAFF555555AAFAFF95FAFFE95FA97A
:100B20006AF5AB555555AAFAABD5AFAAFF5FFDA93B
:100B3000AA5655A556AAFA57D5AFFE6A55A9AAFADC
:100B4000ABAAAA567FA556BFAAFEBF5AFDEAFFFF71
:100B500095AA566A55A9AAAAFE6A55FD6AF9FFEA3E
:100B60005FA955555595AFAA955F55BF5AFD69A523
:100B70005655A55695FAFFAAAA56AA5FA96A5555D1
:100B80006A56A995FAFF6AA502BF5AA95555A955F3
:100B900055FD7FF5FF6AF557FF5FA96A55A955F521
:100BA000AB6AA556AAFA57FFFF576A55A9959A56F8
:100BB0006AFA5755F5EBFE5F55AA5A556AAA56953B
:100BC000AA5655A5AA6955555555A9EAFF5795FA4C
:100BD0005755A5FE5555555555A9EAAF5655F557E4
:100BE0005555AA95AA5655A556EAAF5655A55695F8
:100BF000AAA65555A95A511485160441A169451054
:100C000004411014455114851604815604851604B8
:100C10009AAAAA455114455169961A0445A16945F5
:100C200051A94551144550685A150445515545512F
:100C3000A84551144510546A11048516144551688D
:100C400041511441A01581A6AAAA16144510685A4C
:100C5000100481160445511441A0064110045A1095
:100C60000455511445511441A0054110045A55141E
:100C70005550144551144150154110049AAAAA45E3
:100C80005014455104415068411004411004AA56C3
:100C90001445110441A1A941A1A945510441A1153F
:100CA0004110A8AA16046A551445510441505455E0
:100CB000505545110445A115455104415014555155
:100CC0001541100441A115455104415014855A04A1
:100CD00041101445A5154551044150546AA00541E1
:100CE00050144551685A510441A11541A006415183
:100CF000144551046A110485561445A10541511447
:100D00004551046A5514451504455115455114457E
:100D10005104AAAA6A5A1004455168455014451056
:100D200004BAAEEBBAAEEBBAAEEBBAAEEBBAAEEB20
:100D30007AA9EBBAAEEBBAAEEBBAAEEBBEAEEBBA9B
:100D4000AEEBBAAEEBBFAEEBA5AEEBBAAEEBBAAE66
:100D5000EBBEAEEBA9AEEBBAAEEBBAAEEBBAAEEB16
:100D6000BAAEEBA9AEEBBAAEEBBAAEEBBAAEEBBA3B
:100D7000AEEBBAAEEBBEAEEB7AA9EBBAAEEBBA5EB7
:100D8000EABAAEFBBFAFEBBAAEEBBAAEEBBAAEEBC4
:100D9000BAAEEBBEAEEBBAAEEBBAAEFFBAAEEBBAE2
:100DA000AEEBA9AEEBBAAEEBBAAEA7BAAEFBBAAE3B
:100DB000EBBAAEEBBAAEEBBAAEA7BAEE97BEAEEBFD
:100DC000BAFEEBBAAEEBBAAEEBBAAEFBBAAEEBBA6A
:100DD0009EEABAAFEBBAAEEBBAAEEBBAAEFBBA9ED6
:100DE000EABAAEEBBAAFEBBAAEEBBAAEEBBAAEEB79
:100DF000BAAEEBBAAE97BAAEEBBAAEEBBAAEEBBAEE
:100E0000AEEBBAAEEBBAAEEBBFAEEBBAAEEBBAAE90
:100E1000EBBAAEEBBAAEEBA9AEEBBAAEFBBAAEEB49
:100E2000BAAEEBBAAEEBA9AEEBBAEEEBBEAEEBBA36
:100E3000AEEBBAAFEBBAAE97BAAEFBBAAEEBBAAEA8
:100E4000EBBAAEEBBAAEEBBAAEEBBAAEEB1886616C
:100E50001886611886611886611886611881611884
:100E600086611886611886612C86611886611886ED
:100E7000613C86610486611886611886612C8661F2
:100E8000188661188661188661188661188661184F
:100E900086611886611886611886611886611886D1
:100EA000612C86611881611886611846601886B1C8
:100EB0003C8B611886611886611886611886612CE2
:100EC00086611886611886F1188661188661188611
:100ED000611886611886611886B118866118866166
:100EE00018866118866118C6822C866118C6631838
:100EF00086611886611886B1188661188661188B1C
:100F0000611886611886611886B118866118866135
:100F1000188B6118866118866118866118866118B9
:100F20008611188661188661188661188661188690
:100F3000611886613C866118866118866118866131
:100F40001886611886611886B1188661188661183E
:100F5000866118866118C6622C8661188661188BB6
:100F6000611886111886B118866118866118866125
:100F70001886611886611886617F55557F55FD6A10
:100F8000A5AAEAAFAA55F5575555A9D55F416AA557
:100F900056AAAE5695FA576AF5ABEAFFFF6995A9CE
:100FA000AA9A56655A56BE5A557EAAAA6AA5AA5545
:100FB000A5567AA556955EAA95FAABFFAF567F5512
:100FC00055D59FEA5555A995AA56AA5A55BF5AA96B
:100FD00055AA5695FAFBAA5A56BE5A55BFAAFA9573
:100FE000AAAA955A556AA556AAFEFF6A55E97F95A1
:100FF000AA7F55556AA9AA6AA5AAD55FA9D5FFA750
:10100000955E5595AFAA95AFABAAAA56AAAAA655C2
:10101000A5AA6AA5EAD5AF567EA5ABBFAA96FEFFE4
:10102000575555555555A5E9AFAA6AF5FF6A555567
:10103000D55FA9955E5595AAFAD5EF57D55FA9BAA0
:10104000FA576A59F97FA5AA5555A9EAFF57BF5A19
:10105000A9AAAAAA7FA556BFEAAB5555557F5555F3
:1010600055A556E95FAA7F5AFEA55B557FF5A7BF38
:10107000FA57955AAAFF5F557AE5AB7F55A5E99FC8
:10108000FE95FA577FA5AA55955655F557BEAA560F
:10109000EAAF56959AAAAAFAAB7FA556BF9A56957B
:1010A0005AA9955FE9695E971495E7799AE6699977
:1010B000E77995E76599A73995E7799EE779995397
:1010C0002595E7799ED77999E7799E571495E66932
:1010D0005EE5799E975099E7794995799AE769494C
:1010E000955459A5795595549EE7659EE77999528F
:1010F000794995545995795EE6799EE7799E4279CA
:101100005EE6654A55659EE7799EE7794995799E41
:10111000E7699E575499E7799E526999A7799DE7A7
:10112000799EE62545556595E7795EE67999E779F3
:1011300099E7795A52659AE7799EE73995E7799E5A
:10114000E7799A93654951649AE72595E7655EE6E4
:10115000799E97549EE7799E972995E7799EA76592
:101160009EE7549EE7799E53659AE7799EE7799EBC
:10117000A7559E97799E53545551799EE7799EE7DE
:10118000549EE7795EEA10595654455555555554C5
:101190009EE7794EE5659EE76599A66559A6555582
:1011A000E6794EE5799EE7795EE6799956549E9602
:1011B0001045E5799EE7799EE7795956799AE7795E
:1011C00059E5799EE7799EE7795E56799EE73995EC
:1011D000A7BAAE976559A6695AA6BAAEA7699AA7E3
:1011E0005555556559967999EABAAEEB799AEB550A
:1011F0005996A59E97795A96B99EEB7E9E96B9EF21
:10120000EB79AEFBBEEFEBBA9EE7659996BEAEFBFF
:10121000FEFFFFFFEFFBBEEFFB7A9EEB69AEFB7AB2
:101220005E9665555555559665A9FB5555555559C5
:10123000EABEEFFBBEAFE7799AFB5599E6BEAFFB7E
:10124000BFEEEB7E9EEBBAEEEB7A9EEB6999A6BA07
:10125000EEEBBAAFFBBEEEFB555556555555555501
:1012600055555555555555A9AAFAFAEFFBBA9F960B
:101270006559AAA59A966599A6A9AAA6695AFABE19
:10128000EEE7B9AE97BEEEEBBAAEEBAA5AEA6959F1
:1012900096A9AEA7BEAEEB6A9AA669A9E7BAAEFB5D
:1012A0007AAEFBBAAEA6655A966599EABA9EEBAAE3
:1012B0009AA66599EABA9EA669AAEB7AAAEBBAAE93
:1012C000EB6559966599EA6555F9BEAEEBBAFEFF36
:1012D000FFEFEB699AEABA5EA5BAEEEBBAEFEB69FB
:1012E000AAFBBEAEEBAAAA96659AA6BAAEE755557A
:1012F0005555595555A5AB5555555555953445D169
:10130000244D51344953144DD2144593148D532414
:1013100045E31449D1384552344E91348DD3244D90
:10132000E33449D3384DD2344E93348DD3244DE336
:101330003449D3384DD2344E933445D1244D5134B1
:101340004953144DD2144593148D532445E3144945
:10135000D1384552344E91348DD3244DE33449D3A2
:10136000384DD2344E93348DD3244DE33449D338A1
:101370004DD2344E933445D1244D51344953144DFC
:10138000D2144593148D532445E31449D138455262
:10139000344E91348DD3244DE33449D3384DD23477
:1013A0004E93348DD3244DE33449D3384DD2344E4B
:1013B000933445D1244D51344953144DD21445939F
:1013C000148D532445E31449D1384552344E913499
:1013D0008DD3244DE33449D3384DD2344E93348DDC
:1013E000D3244DE33449D3384DD2344E933445D1D0
:1013F000244D51344953144DD2144593148D532424
:1014000045E31449D1384552344E91348DD3244D9F
:10141000E33449D3384DD2344E93348DD3244DE345
:101420003449D3384DD2344E937DDFF7799EF77D22
:10143000DFFBBEEFFBBEEFFBBEEFFBBEEFE7BD9FEA
:10144000FBBEEFFBBEEFFBBEEFFBBEEFF779DFE7C6
:10145000BDEFFBBEEFFBBEEFFBBEEFFB7EDEFB7D19
:10146000DFFBBEEFFBBEEFFBBEEFFBBEDFE779DFCE
:10147000F7BDEFFB7DDFF7BEEFFBBEEFFBBEDFF797
:101480007DEFF77D9FE7BDEFFBBEEFFBBEEFFB7986
:10149000EEFBB9DFE779EEFBBEEFFBBEEFFB7E9E16
:1014A000E7B9EFFB7DEEFBBEEFFBBEEFFBBE9FE7B8
:1014B000799EFB7D9FE7BDEFFBBEEFFBBEEFE779BB
:1014C0009EE779DFE7799EE7BDEFFBBEEFFBBE9FAE
:1014D000E7799EE7BDDFE779DEFBBEEFFBBEEFFB02
:1014E000BEEFFB7D9EF7799EF7BEEFFBBEEFFBBE26
:1014F000EFFBBE9FE7BE9FE7BEEFFBBEEFFBBEEF7D
:10150000FBBEEFF7B9DFF779EFFBBEEFFBBEEFFBFA
:10151000BEEFFB799EFB7DDEF7BEEFFBBEEFFBBEB1
:10152000EFFBBE9FE77DDFE77D9FF7799EF7BEEF7C
:10153000FBBEEFE7799EF779EFFB7D9EE7BEEFFB01
:10154000BEEFFB7D9EE7799EE779DEF779EFFBBE84
:10155000EFFBBEDFE75555A96A555595AAAA6A550E
:101560005595AAAA5555A96A5555555555555555D8
:10157000555555555555555555555555555555551B
:10158000555555555555555555A5AA555555555566
:10159000555555555555A9AAAAAA5555555555A954
:1015A000AA5A555555A9AAAAFEAA5A555555A9BFD2
:1015B000AA565555A9AAAAAA6A5555555555AAAA73
:1015C000AA555555555555555555555555AAAA56CB
:1015D0005555555555555555555555A9AAAA5655BC
:1015E00055555555555555555555A9555555555557
:1015F0005595AAFEBF5A555555A95555555555559A
:1016000095AAAAAA5A555555A955555555555595B2
:10161000AA56555555555555AA5A5555555595AA35
:10162000565555A9AA5A55AA5A5555555555555561
:101630005555A9AAAAAA6A555555555555555555F2
:1016400055A9AAAAAA6A5555555555AAAAAA5555E3
:10165000A9AAAAAA555555555555AAAAAA5555A994
:10166000AAAAAA55555555555595AAAA5555A9AA98
:10167000AA56555555AA5A5595AAAA5555A9AAAA82
:1016800056FFF77DDFFF2DCBF7FFEFB22CCBB27CFF
:10169000DFF77DDFFF2DDBFF2DEFBF2CFFFFFFDF2F
:1016A000F77DDFF7FEFFBF2CDFFBFFEFFBFEDFF771
:1016B0007DDFF2FEFFBF2CDFFBBEDFF7FDDFF77D36
:1016C000DFB2FCFFB72CEFBF7CDFF7FDCBF77DCBA4
:1016D000F2BFDBFFFFFFBF7CDFF7FDFFB72CCBFFC7
:1016E0007DDFF77DDFF72FCBB22CFFB76CFFF77DE7
:1016F000DFF77DDFF72FCBB22CFFFBBEFFF27DDFE4
:10170000F77DDFF67ECBB22CFFFFFFDFF27DDFF748
:101710002DCBF2FDDBB22CCBB26CFFFF7DDFB72C03
:10172000DFF7FFDBFBFFDFF72DCBF7BFCBB2FCFF13
:10173000BF2CFFFF7DDFF72DCBF2BDEFF2BFDFB790
:101740002CDFFB7EDFF72DCBF2BDEFFB7FDFB27C22
:10175000DFFB7FDFF72DCBF27DDFFF2DCBB27CDF10
:10176000FB7FDFF72DCBF2FDFFF26FCBF27DDFF7D2
:10177000FDFFF72DCBF7BFCBF26FDFF77DDFF72D46
:10178000FFB72CDFFF7DDFF77FDFF77DDFF72DFF72
:10179000FB7EEFBB7DDFF77EDFF77DDFF72DFFFF01
:1017A000FFFFB27CDFF7FDEFF27DDFB72C755DD771
:1017B000355FD7755DD7355FD7755DD77559D63528
:1017C0005F977559D6355F977559D6655996355FC8
:1017D00097655996355F97655996755DD7355FD78B
:1017E000755DD7355FD7755DD73CEFFB3CEFF33CBC
:1017F000CFF3BECFF3BEEFF375CD97755DD7355FF1
:10180000D7755DD7355FD765CD977559D6355F9755
:101810007559D6355F9765C997655996355F976550
:101820005996355F9775CDD7755DD7355FD7755D9F
:10183000D7355FD7BCEFFB3ECFF33CCFFBBECFF33A
:10184000BCEFF3755DD7355FD7755DD7355FD7755D
:101850005DD76559D7355F977559D6355F977559F7
:10186000D66559D6355F97655996355F9765599610
:10187000755DD7355FD7755DD7355FD7755DD73C5B
:10188000EFFB3ECFF3BECFF33CEFF33CEFF365CD80
:10189000D7755DD7355FD7755DD7355FD765CDD740
:1018A000655D96355F977559D6355F9765C9D7657C
:1018B0005996255F97655996355F9775CDD7755DB4
:1018C000D7355FD7755DD7355FD7BECFF3BCEFFB9C
:1018D0003CCFF33CCFFBBEEFFB5555555555555509
:1018E0005555555555555555AAAAAAAAAAAA6AA545
:1018F000AAAAAAAAAAAAAAAAAAAAAAAAAA6AA5AA8D
:10190000AAAAAAAAAAAAAAAAAAAAFAFF7FF5ABAA71
:10191000AAAAAAAAFEAAAAAAEAFFFF7FF5ABAAAAC8
:10192000AAAAFAFFFFAFAAFFFFFF7FF5ABAAAAAAF8
:10193000EAFFFFFFFFFFFFFFFF7FF5FFFFFFFFFF56
:10194000FFFF5555555555555555555555555555F3
:1019500055AAAAAA95AAAAAAAAAAAAAAAA95AAAA66
:10196000AAAAAA95AAAAAAAAAAAAAAAA95AAAAAA01
:10197000FAFFD5AFAAAAAAAAAAAAFED5AFAAEAFFD9
:10198000FFD5AFAAAAAAAAFFFFFFD5AFAAFFFFFF04
:10199000D5AFAAAAAAFEFFFFFFD5AFAAFFFFFFD5CA
:1019A000FFFFBFFAFFFFFFFFD5FFAB55555555555C
:1019B00055555555555555555555AAAAAAAAAAAAD9
:1019C0006AA5AAAAAAAAAAAAAAAAAAAAAAAAAA6AFC
:1019D000A5AAAAAAAAAAAAAABFAAAAAAAAFE7FF5E3
:1019E000FFBFAAAAEAFFFFBFAAAAAAFAFF7FF5FFD4
:1019F000BFAAAAEAFFFFBFAAAAEAFFFF7FF5FFBFBF
:101A0000AAAAFFFFFF2008823C0CC3300CC3300C95
:101A1000F32008822008823C0CC3300CC3300CF346
:101A20002008822008823C0CC3300CC3300CF32009
:101A300008822008823C0CC3300CC3300CF3200811
:101A4000822008823C0CC3300CC3300CF320088287
:101A50002008823C0CC3300CC3300CF320088220D9
:101A600008823C0CC3300CC3300CF32008822008E1
:101A7000823C0CC3300CC3300CF320088220088257
:101A80003C0CC3300CC3300CF32008822008823C8D
:101A90000CC3300CC3300CF32008822008823C0CAD
:101AA000C3300CC3300CF32008822008823C0CC3E6
:101AB000300CC3300CF32008822008823C0CC33069
:101AC0000CC3300CF32008822008823C0CC3300C7D
:101AD000C3300CF32008822008823C0CC3300CC3B6
:101AE000300CF32008822008823C0CC3300CC33039
:101AF0000CF32008822008823C0CC3300CC3300C4D
:101B0000F32008822008823C0CC3300CC3300CF355
:101B10002008822008823C0CC3300CC3300CF32018
:101B200008822008823C0CC3300CC3300CF3200820
:101B300082AAAAAABFAAAAAAAAFEFFFFFFFFFFFFC6
:101B4000AAAAAAAAAAAAAAAAAAFFFFFFFFFFABAA4B
:101B5000AAAAAAAAAAFFAF56BFFAFFEAFFABAAAA8F
:101B60005695AAFEAAAAAA6AA5AAAAAA56AAAAFE2F
:101B7000BFAAFEAAAAAAAAAAAAAAFAFFAAAAAA6AF7
:101B8000F5FFBFAAAAAAAAAAAAAAAAAAAAAAEAFF6B
:101B9000FFBF5AFD95AAAAAAAAAAAAAAAAAAAAAA4D
:101BA000AAAAAAAAAAFEBFAAAAAAAAAAAAAAAAAA2C
:101BB000AAAAAAAAFEBFAAAAAAAAAAAAAAAAAAAA1C
:101BC000FEAAAAFEFFAFAAFFAFAAAAAAAAAAAAAA19
:101BD000AAAAFEFFAFAAAAFAFFAAAAAAAAAAAAAA12
:101BE000FAFFBF5AFD6AF5FFAAAAAAAAAAAAAAAA38
:101BF000AAAAFAFFAAFAAB95AAAAAAAAAAAAAAAA64
:101C0000AAFAFFBFAAAAAAAAAA6AA5AAAAAAAAAABF
:101C1000FAFFBFAAAAAAAAAAAAAAAAAAFAFFBFAAB0
:101C2000FEBFAAAAAAAAAAAAAAAAEAAFAAAAAAFE12
:101C3000BFAAAAAAAAAAAAAAFEEAFF57AAAAAAFF04
:101C4000AFAAAAAAAAFFAFFEAAAAAA955AA9FFAF4D
:101C5000AAAAAAAAFFAFFEFFFFFFAAAAAA388EE38C
:101C6000388EE3388EE3388EE3388EE3388EE338EF
:101C70008EE3388EE3388EE3388EE3388EE3388E89
:101C8000E3388EE3388EE3388EE3388EE3388EE324
:101C9000388EE3388EE3388EE3388EE3388EE338BF
:101CA0008EE3388EE3388EE3388EE3388EE3388E59
:101CB000E3388EE3388EE3388EE3388EE3388EE3F4
:101CC000388EE3388EE3388EE3388EE3388EE3388F
:101CD0008EE3388EE3388EE3388EE3388EE3388E29
:101CE000E3388EE3388EE3388EE3388EE3388EE3C4
:101CF000388EE3388EE3388EE3388EE3388EE3385F
:101D00008EE3388EE3388EE3388EE3388EE3388EF8
:101D1000E3388EE3388EE3388EE3388EE3388EE393
:101D2000388EE3388EE3388EE3388EE3388EE3382E
:101D30008EE3388EE3388EE3388EE3388EE3388EC8
:101D4000E3388EE3388EE3388EE3388EE3388EE363
:101D5000388EE3388EE3388EE3388EE3388EE338FE
:101D60008EE3388EE3388EE3388EE3388EE3388E98
:101D7000E3388EE3388EE3388EE3388EE3388EE333
:101D8000388EE3388EE3388EE3344DD3345CC32091
:101D900008F2344ED3340CD7344DD3340C8320089E
:101DA000D2300CD3344ED3344DD3300C8320088240
:101DB0002008C3300C82304DC3300C8320088220B1
:101DC0000882200882300CC3300C83200CC33008FA
:101DD00082200CC3300CC3300C82300CC3300C8218
:101DE000300CC7300CC33008C2304DD3340CC23075
:101DF0000CD32008822008C2344DD3300CC2300CE2
:101E0000D32008822008C3344DD33009C2300CD30C
:101E1000300C822008C3304DC33008C2300CD3319F
:101E20000CC33008C3300CC3200882200CD3300C04
:101E3000C33008C3300C82300CC3200882340CC37A
:101E40003008C2300882300CC3300CC3340DC330AC
:101E50000C82200882300EC3300CC3340DC3300C0A
:101E600082200882384DD3300CC3340DC33008C2F1
:101E7000300882604CD3345DD3380CC32008C330A3
:101E80000C83204CD3344DD3340C832008D3340C32
:101E900083204CD3344DD3340C82200CC3300CC37C
:101EA0002008D3344DD3200882300CC3300CC3300B
:101EB00008C2344DD3FFFFFFFFFFFFFFFFFFFFFF0F
:101EC000FFFFFFFFFFFFFFFFFFFFFFFFFFFFFFFF22
:101ED000FFFFFFFFFFFFFFFFFFFFFFFFFFFFFFFF12
:101EE000FFFFFFFFFFFFFFFFFFFFFFFFFFFFFFFF02
:101EF000FFFFFFFFFFFFFFFFFFFFFFFFFFFFFFFFF2
:101F0000FFFFFFFFFFFFFFFFFFFFFFFFFFFFFFFFE1
:101F1000FFFFFFFFFFFFFFFFFFFFFFFFFFFFFFFFD1
:101F2000FFFFFFFFFFFFFFFFFFFFFFFFFFFFFFFFC1
:101F3000FFFFFFFFFFFFFFFFFFFFFFFFFFFFFFFFB1
:101F4000FFFFFFFFFFFFFFFFFFFFFFFFFFFFFFFFA1
:101F5000FFFFFFFFFFFFFFFFFFFFFFFFFFFFFFFF91
:101F6000FFFFFFFFFFFFFFFFFFFFFFFFFFFFFFFF81
:101F7000FFFFFFFFFFFFFFFFFFFFFFFFFFFFFFFF71
:101F8000FFFFFFFFFFFFFFFFFFFFFFFFFFFFFFFF61
:101F9000FFFFFFFFFFFFFFFFFFFFFFFFFFFFFFFF51
:101FA000FFFFFFFFFFFFFFFFFFFFFFFFFFFFFFFF41
:101FB000FFFFFFFFFFFFFFFFFFFFFFFFFFFFFFFF31
:101FC000FFFFFFFFFFFFFFFFFFFFFFFFFFFFFFFF21
:101FD000FFFFFFFFFFFFFFFFFFFFFFFFFFFFFFFF11
:101FE000FFA99EA6699AE7799EA7699AE77A9EE774
:101FF00069AEE7799AA67A9EA7799AEBBAAEA769F5
:10200000AEE769AEA7699EA67A9AEAB9AEA7699AC1
:10201000EA69AEE7699AEA7A9EEA799EA6699AA683
:1020200069AEE7799EA67A9EE67A9AE67A9AA669DA
:10203000AAE77A9AA6699AE6799AEBB99EA6699A6E
:10204000E77A9AE6799AA6699AE7B99EA7699AE724
:10205000799AE6799EA669AEA765A99765599665AE
:102060005996655996655996655996655996655973
:1020700096655996655996655996655E9665599621
:10208000795E96795E966559966559966559966515
:102090005996655996655996655996655996659903
:1020A000976559E6655996655996655996655996A5
:1020B000655996799AE67A9AA7A9AEE7699AEB6983
:1020C0009AA7699AE6799AA7699AA7699AEA799A82
:1020D000A7699EE6799AA7799AA7799AEA799AA741
:1020E000699EE6799AA6799AA67A9EE6799AE76930
:1020F0009EE6799EA6799AE67A9EA6799EE6799ED4
:10210000A6799EE6799AEA799EA6799EE63C5FF2E8
:102110003CCFF77DDFF33CDFF77CC9F33C5FF23C5B
:102120008FE378DFF37D8FE378C9E33C58F27CDFFF
:10213000F3388EE338CEF37C09F2655996655996EB
:102140006559966559966559963CCFF33CCFF33C5B
:1021500058823CCFF33DCFF3388EE37DCFE33C5F35
:10216000F2388EE33DCFF33CCFE338CEE3385FF671
:102170007DDFE3388EF77DCFF77DDFF33C58823883
:10218000CEF33C8FF3655996655996655996655916
:10219000966559963C58823CCFF33CCFF33CCFF345
:1021A0007C09F23D5FF23CCFF77DDFE338DEF37C64
:1021B000C9E33D5FF238CEF73C8EE33D8FE37CC947
:1021C000E33D58823C8EF73CCFF73D8FF37C09F21C
:1021D0006559966559966559966559966559963C1F
:1021E000CFF33CCFF33C0F9620CFF73DCFF33C8F9E
:1021F000E3388EF73DCF977CDFE338DEF73CCFF353
:102200003CCFF33C0F9620CFF33D8EE365599665A6
:1022100059966559966559966559963858F23CCF46
:10222000F33CCFF33CCFF37C09F23D5EF23CCFE3CD
:1022300038DEF77DCFF37CC9E3FFFFFFFFFFFFFF31
:10224000FFFFFFFFFFFFFFFFFFFFFFFFFFFFFFFF9E
:10225000FFFFFFFFFFFFFFFFFFFFFFFFFFFFFFFF8E
:10226000FFFFFFFFFFFFFFFFFFFFFFFFFFFFFFFF7E
:10227000FFFFFFFFFFFFFFFFFFFFFFFFFFFFFFFF6E
:10228000FFFFFFFFFFFFFFFFFFFFFFFFFFFFFFFF5E
:10229000FFFFFFFFFFFFFFFFFFFFFFFFFFFFFFFF4E
:1022A000FFFFFFFFFFFFFFFFFFFFFFFFFFFFFFFF3E
:1022B000FFFFFFFFFFFFFFFFFFFFFFFFFFFFFFFF2E
:1022C000FFFFFFFFFFFFFFFFFFFFFFFFFFFFFFFF1E
:1022D000FFFFFFFFFFFFFFFFFFFFFFFFFFFFFFFF0E
:1022E000FFFFFFFFFFFFFFFFFFFFFFFFFFFFFFFFFE
:1022F000FFFFFFFFFFFFFFFFFFFFFFFFFFFFFFFFEE
:10230000FFFFFFFFFFFFFFFFFFFFFFFFFFFFFFFFDD
:10231000FFFFFFFFFFFFFFFFFFFFFFFFFFFFFFFFCD
:10232000FFFFFFFFFFFFFFFFFFFFFFFFFFFFFFFFBD
:10233000FFFFFFFFFFFFFFFFFFFFFFFFFFFFFFFFAD
:10234000FFFFFFFFFFFFFFFFFFFFFFFFFFFFFFFF9D
:10235000FFFFFFFFFFFFFFFFFFFFFFFFFFFFFFFF8D
:10236000FFFFFFFFFF000000000000000000000072
:1023700000C0FFFF000000000000000000C0FFFFE1
:10238000FFFFFF0000000000000000FCFFFFFFFF58
:10239000FFFF000000000000C0FFFFFFFFFFFFFF86
:1023A000FF000000000000FFFFFFFFFFFFFFFFFF37
:1023B0000000000000FCFFFFFFFFFFFFFFFFFF002A
:1023C000000000F0FFFFFFFFFFFFFFFFFFFF000027
:1023D00000C0FFFFFFFFFFFFFFFFFFFFFF00000048
:1023E000FFFFFFFFFFFFFFFFFFFFFFFF0000FCFFFE
:1023F000FFFFFFFFFFFFFFFFFFFFFF0000FCFFFFEE
:10240000FFFFFFFFFFFFFFFFFFFF00F0FFFFFFFFEA
:10241000FFFFFFFFFFFFFFFFFF00F0FFFFFFFFFFDA
:10242000FFFFFFFFFFFFFFFFC0FFFFFFFFFFFFFFFB
:10243000FFFFFFFFFFFFFFC0FFFFFFFFFFFFFFFFEB
:10244000FFFFFFFFFFFFC0FFFFFFFFFFFFFFFFFFDB
:10245000FFFFFFFFFFC0FFFFFFFFFFFFFFFFFFFFCB
:10246000FFFFFFFFFFFFFFFFFFFFFFFFFFFFFFFF7C
:10247000FFFFFFFFFFFFFFFFFFFFFFFFFFFFFFFF6C
:10248000FFFFFFFFFFFFFFFFFFFFFFFFFFFFFFFF5C
:10249000FF0000000000000000000000000000003D
:1024A0000000000000000000000000000000FC0030
:1024B000000000000000000000000000F0FF00002D
:1024C00000000000000000000000C0FFFF0000004E
:1024D000000000000000000000FFFFFF00000000FF
:1024E00000000000000000FCFFFFFF0000000000F3
:1024F0000000000000F0FFFFFFFF000000000000F0
:10250000000000C0FFFFFFFFFF0000000000000010
:102510000000FFFFFFFFFFFF0000000000000000C1
:10252000FCFFFFFFFFFFFF00000000000000F0FFC6
:10253000FFFFFFFFFFFF000000000000C0FFFFFFE4
:10254000FFFFFFFFFF000000000000FFFFFFFFFF95
:10255000FFFFFFFF0000000000FCFFFFFFFFFFFF89
:10256000FFFFFF00000000F0FFFFFFFFFFFFFFFF86
:10257000FFFF000000C0FFFFFFFFFFFFFFFFFFFFA7
:10258000FF000000FFFFFFFFFFFFFFFFFFFFFFFF58
:102590000000FCFFFFFFFFFFFFFFFFFFFFFFFF004B
:1025A000F0FFFFFFFFFFFFFFFFFFFFFFFFFFC0FF89
:1025B000FFFFFFFFFFFFFFFFFFFFFFFFFF00000028
:1025C000000000000000000000000000000000000B
:1025D00000000000000000000000000000000000FB
:1025E00000000000000000000000000000000000EB
:1025F00000000000000000000000000000000000DB
:1026000000000000000000000000000000000000CA
:1026100000000000000000000000000000000000BA
:1026200000000000000000000000000000000000AA
:10263000000000000000000000000000000000009A
:10264000000000000000000000000000000000008A
:1026500000000000000000000000F0FFFFFFFFFF8F
:10266000FFFF00000000000000F0FFFFFFFFFFFF82
:10267000FF00000000000000F0FFFFFFFFFFFFFF72
:1026800000000000000000F0FFFFFFFFFFFFFF0061
:10269000000000000000F0FFFFFFFFFFFFFF000051
:1026A0000000000000F0FFFFFFFFFFFFFF00000041
:1026B00000000000F0FFFFFFFFFFFFFF0000000031
:1026C000000000F0FFFFFFFFFFFFFF000000000021
:1026D0000000F0FFFFFFFFFFFFFF00000000000011
:1026E00000F0FFFFFFFFFFFFFF0000000000000001
:1026F00000000000000000000000000000000000DA
:1027000000000000000000000000000000000000C9
:1027100000000000000000000000000000000000B9
:1027200000000000000000000000000000000000A9
:102730000000000000000000000000000000000099
:102740000000000000000000000000000000000089
:102750000000000000000000000000000000000079
:102760000000000000000000000000000000000069
:102770000000000000000000000000000000000059
:102780000000000000000000000000C0FFFF00008B
:10279000000000000000000000FCFFFFFF00000040
:1027A000000000000000C0FFFFFFFFFF000000006E
:1027B0000000000000FFFFFFFFFFFF00000000001F
:1027C00000000000FFFFFFFFFFFF0000000000000F
:1027D0000000FCFFFFFFFFFFFF0000000000000003
:1027E00000FCFFFFFFFFFFFF00000000000000F003
:1027F000FFFFFFFFFFFFFF00000000000000F0FFF1
:10280000FFFFFFFFFFFF00000000000000F0FFFFE0
:10281000FFFFFFFFFF0000000000000000000000BD
:1028200000000000000000000000000000000000A8
:102830000000000000000000000000000000000098
:102840000000000000000000000000000000000088
:102850000000000000000000000000000000000078
:102860000000000000000000000000000000000068
:102870000000000000000000000000000000000058
:102880000000000000000000000000000000000048
:102890000000000000000000000000000000000038
:1028A0000000000000000000000000000000000028
:1028B0000000000000000000000000000000000018
:1028C0000000000000000000FC000000000000000C
:1028D000000000000000F0FF000000000000000009
:1028E00000000000C0FFFF0000000000000000002A
:1028F000000000FFFFFF00000000000000000000DB
:1029000000FCFFFFFF00000000000000000000F0DE
:10291000FFFFFFFF000000000000000000C0FFFFFD
:10292000FFFFFF000000000000000000FFFFFFFFAE
:10293000FFFF0000000000000000FCFFFFFFFFFFA2
:10294000FF00000000000000000000000000000088
:102950000000000000000000000000000000000077
:102960000000000000000000000000000000000067
:102970000000000000000000000000000000000057
:102980000000000000000000000000000000000047
:102990000000000000000000000000000000000037
:1029A0000000000000000000000000000000000027
:1029B0000000000000000000000000000000000017
:1029C0000000000000000000000000000000000007
:1029D00000000000000000FFFFFFFFFFFFFFFFFF00
:1029E000FFFFFFFFFFFFFFFFFFFFFFFFFFFFFFFFF7
:1029F000FFFFFFFFFFFFFFFFFFFFFFFFFFFFFFFFE7
:102A0000FFFFFFFFFFFFFFFFFFFFFFFFFFFFFFFFD6
:102A1000FFFFFFFFFFFFFFFFFFFFFFFFFFFFFFFFC6
:102A2000FFFFFFFFFFFFFFFFFFFFFFFFFFFFFFFFB6
:102A3000FFFFFFFFFFFFFFFFFFFFFFFFFFFFFFFFA6
:102A4000FFFFFFFFFFFFFFFFFFFFFFFFFFFFFFFF96
:102A5000FFFFFFFFFFFFFFFFFFFFFFFFFFFFFFFF86
:102A6000FFFFFFFFFFFFFFFFFFFFFFFFFF00000073
:102A700000000000F0FFFFFFFFFFFFFF000000006D
:102A8000000000F0FFFFFFFFFFFFFF00000000005D
:102A90000000F0FFFFFFFFFFFFFF0000000000004D
:102AA00000F0FFFFFFFFFFFFFF000000000000003D
:102AB000F0FFFFFFFFFFFFFF00000000000000F03D
:102AC000FFFFFFFFFFFFFF00000000000000F0FF1E
:102AD000FFFFFFFFFFFF00000000000000F0FFFF0E
:102AE000FFFFFFFFFF00000000000000F0FFFFFFFE
:102AF000FFFFFFFF00000000000000F0FFFFFFFFEE
:102B0000FFFFFF00000000000000F0FFFFFFFFFFDD
:102B1000FFFF00000000000000F0FFFFFFFFFFFFCD
:102B2000FF00000000000000F0FFFFFFFFFFFFFFBD
:102B300000000000000000F0FFFFFFFFFFFFFF00AC
:102B4000000000000000F0FFFFFFFFFFFFFF00009C
:102B50000000000000F0FFFFFFFFFFFFFF0000008C
:102B600000000000F0FFFFFFFFFFFFFF000000007C
:102B7000000000F0FFFFFFFFFFFFFF00000000006C
:102B80000000F0FFFFFFFFFFFFFF0000000000005C
:102B900000F0FFFFFFFFFFFFFF00000000A00200AA
:102BA00000000000A800A0026AA5562A00002AA082
:102BB000ABFF0F003F00006555A9BF5AA6EAAFFA68
:102BC000EAFFFF6A0554555955AAAAAAEA5FFEFE14
:102BD000AFAA6A5555955A9595AAFBAAAAFEBAAA14
:102BE000FE7F55A9555555A9AAAAEAFFFFBAAAEB37
:102BF000AA5A55555555BEAAAAFAAFFEFFAFFE6AAE
:102C0000A556955A5595AAA6AAAAAAAAAA5655A5FE
:102C1000566A555555A5AAEAAFEAAAAA9A55555536
:102C20006A55A9AAAAAA6AF557BA6A56955A559535
:102C30005AA9955AA9AA9AAA6A5555555555695936
:102C4000556AA556AA5AA9555555555555AA5A55C6
:102C500055A556A9AA56555555555555955A556ACF
:102C6000A5AA815A555555546A9956AA5AAAAAAA8C
:102C7000AA5555555550A9AAAAAB6665AAAAAAAAEB
:102C800055555555555569A5AAAAAAAA95AAFAAAAD
:102C90005A55955AA969A5AAAAAA56AAAAAA5555E3
:102CA000554595A66A99EA00000080EAAB550500F3
:102CB0003F0054AAAAAAC00F54000000005001000F
:102CC000000015000000000000004010410000015D
:102CD00010040000000000000041104410044100F6
:102CE00000000000000000000110001004010000BE
:102CF00000000000001000010000000401100000AE
:102D00000000000100040010410004410000000028
:102D10000000400004410000100401000000000019
:102D2000000010040000000004010000000000008A
:102D3000000004000000000401000000000000008A
:102D4000000400000010044100100000000000001A
:102D50000400004010044110000440100000100462
:102D600001000000040100000001100040100441B7
:102D7000000000000040000001000000000400000E
:102D800000000000001004400000000000001000DF
:102D90004000000100040100004000000000044069
:102DA000000040100400000001100041000001007C
:102DB00040000044000000010004410004100040F5
:102DC00010004100000441000401044040000010D4
:102DD0000401011004411000410401010400100429
:102DE000044100000100040010410000011004042F
:102DF00000000000104555145991644592000000F0
:102E00000000001045551455516445920000000023
:102E10000000104555145551544591000000000024
:102E200000505996655996655996000000000000BB
:102E300050A9966AA9966AA9960000000000005061
:102E400059966559966559960000000000001004D7
:102E50005510544150054100000000000010455538
:102E60001455515445510000000000001045551400
:102E700055515445510000000000001045551455AF
:102E800051544551000000000000104555145551A3
:102E900054A5FE0000000000001045551455515483
:102EA000A5AA0000000000001045551455515445D6
:102EB00051000000000000505996655996655996DA
:102EC00000000000000050A9966AA9966AA9960021
:102ED000000000000050599665599665599600000B
:102EE000000000001004551054415005410000003E
:102EF0000000001045551455515445510000000084
:102F00000000104555145551544551000000000073
:102F10000010455514555154455100000000000063
:102F200000000000000000000000000000000000A1
:102F30000000000000000000000000000000000091
:102F40000000000000000000000000000000000081
:102F50000000000000000000000000000000000071
:102F600000000000000000000000004055555555CD
:102F70005555550100000000000040F57DDFF77D4C
:102F8000DF570100000000000040F57DFFF77DFFE6
:102F9000570100000000000040F5FDDFF7FDDF579E
:102FA0000100000000000040F57DDFF77FDF5701E2
:102FB00000000000000040F57DDFFF7DDF570100CD
:102FC000000000000040F57DFFF77DFF5701000085
:102FD0000000000040F5FDDFF7FDDF5701000000B5
:102FE00000000040F57DDFF77DDF570100000000A5
:102FF000000040555555555555550100000000003D
:1030000000000000000000000000000000000000C0
:1030100000000000000000000000000000000000B0
:1030200000000000000000000000000000000000A0
:103030000000000000000000000000000000000090
:103040000000000000000000000000000000000080
:103050000000000000000000000000000000000070
:1030600000000000000000000000000000005055BB
:1030700000000000000000000040555555F5FF55C8
:10308000050000000000000095AAAAAAAAAAFF5FF6
:1030900001000000000054AAAAAAAAAAAAEA5F0195
:1030A000000000005055AAAAAAAAAAAAAAFA570084
:1030B00000000050A995AAAA555555AAAAFE1500C8
:1030C0000040A5566A5555AAFAFF95AAAA15000010
:1030D0004055A955A5AAAAAAFE95AAAA6A05000064
:1030E00000546AA5AAAAAAAA7F0500000000000051
:1030F00054955AA955555555555500000000505541
:103100006AA556AAAAAAAAFAFF1500000050A95556
:1031100055A995AAAAAAAAFE7F050000000055A5F8
:10312000566AA5AAAAAAAA6A0500000000955AA98B
:10313000955AA9AAAAAA6A05000000546AA5566A67
:10314000A556AAAAAAEA5F01000054955AA9955A61
:10315000A995AAAAAA5A01000000000000000000D8
:10316000000000000000000000000000000000005F
:10317000000000000000000000000000000000004F
:10318000000000000000000000000000000000003F
:10319000000000000000000000000000000000002F
:1031A000000000000000000000000000000000001F
:1031B000000000000000000000000000000000000F
:1031C00000000040A5AA95AA56AA5A0100000000D6
:1031D000000040A5AA95AA56AA5A010000000000C6
:1031E0000040A5AA95AA56AA5A01000000000000B6
:1031F00040A5AA95AA56AA5A010000000000004066
:10320000A5AA95AA56AA5A0100000000000040A5F0
:10321000AA95AA56AA5A0100000000000040A5AADB
:1032200095AA56AA5A0100000000000040A5AA95E0
:10323000AA56AA5A0100000000000040A5AA95AABB
:1032400056AA5A0100000000000040A5AA95AA56FF
:10325000AA5A010000000000000000000000000069
:10326000000000000000000000000000000000005E
:10327000000000000000000000000000000000004E
:10328000000000000000000000000000000000003E
:10329000000000000000000000000000000000002E
:1032A000000000000000000000000000000000001E
:1032B000000000000000000000000000000000000E
:1032C0000000000000005055000000000000000059
:1032D0000040555555F5FF55050000000000000061
:1032E0001541A8AAAAAAFF5F01000000000054042B
:1032F00041A8AAAAAAEA5F0100000000505504A153
:10330000AAAAAAAAAAFA570000000050A995AAAA38
:10331000555555AAAAFE15000040A5566A5555AA4E
:10332000FAFF954A101500004055A955A5AAAAAA6A
:10333000FE15411044050000005444A5AAAA4A10F5
:103340007F0500000000000054955AA955555555B9
:10335000555500000000505544A556044110AAFAE6
:10336000FF1500000050115555111541A8AAAAFEDD
:103370007F050000000055A5564445A8AAAAAA6AE0
:103380000500000000955AA9955AA9AAAAAA4405C1
:10339000000000546AA5566AA556AAAA12C45F0185
:1033A000000054955AA9955AA9954A100451010054
:1033B000000000000000000000000000000000000D
:1033C00000000000000000000000000000000000FD
:1033D00000000000C300000000000000000000002A
:1033E00000000CC3300000000000000000000000DE
:1033F0003008C3200C000000000000000000C020C6
:103400000C8230080300000000000000008030083B
:10341000C3200C02000000000000000083200CC349
:103420003008C2000000000000000CC230088220FA
:103430000C833000000000003008C32008C32008BF
:10344000C3200C00000000200C83300C82300CC222
:103450003008000000C03008C23008C3200C8320B0
:103460000C030000C3200C83200CC33008C23008BA
:10347000C3000083300CC2300882200C83300CC2A1
:103480000000003008C3200CC33008C3200C00002B
:1034900000000000832008822008C2000000000015
:1034A0000000000000000802000000000000000012
:1034B0000000000000080200000000000000000002
:1034C00000000000080200000000000000000000F2
:1034D0000000200882000000000000000000000042
:1034E0008020088220000000000000000000000092
:1034F00000080200000000000000000000000000C2
:103500000900000000000000000000000000244945
:1035100002400500000000000000190090244992BC
:1035200055550100000000006444060000094055A4
:103530005541000000009011199101000054100441
:10354000550000004046645946640050411554211E
:1035500015000040961104916500005515442004A3
:10356000000059961119916559554110841048056C
:1035700000194164594610590555104120040100B5
:103580004446100441640402411542100402645987
:1035900046644446640442400881100881640491F2
:1035A00065449611088100088110088110004010C0
:1035B0000441100442100442100442200000002480
:1035C000002004412004811008411000009024894B
:1035D0001008811008411004010000409224492085
:1035E00008812004009000000000000024821004E4
:1035F00041100842922400000000000042200442D2
:1036000020044292240900000000044110088210A6
:103610000441900000000000000000100441100070
:10362000000000000000000000000000000000009A
:10363000000000000000000000000000000000008A
:10364000000000000000000000000D00000000006D
:103650000000000000000000340000000000000036
:1036600000000000000000000DD00000000000007D
:10367000000000000000004D0300000000000000FA
:103680000000000000344D030000000000000000B6
:1036900000000000344FD3000000000000000000D4
:1036A000000000F4CFD30000000000000000000084
:1036B0000000405501000000000000000000000074
:1036C00000000401000000000000000000000000F5
:1036D00000040100000000000000000000000000E5
:1036E00004010000000000000000000000000004D1
:1036F00001000000000000000000000000000000C9
:1037000000000000000000000000000000000000B9
:1037100000000000000000000000000000000000A9
:103720000000000000000000000000000000000099
:103730000000000000000000000000000000000089
:103740000000000000000000000000000000000079
:103750000000000000000000000000000000000069
:103760000000000000000000000000000000000059
:103770000000000000000000000000000D0000003C
:1037800000000000000000000000004003000000F6
:1037900000000000000000000034000000000000F5
:1037A0000000000000000000000D0000000000000C
:1037B00000000000000000344D0300000000000085
:1037C000000000000000344F030000000000000073
:1037D0000000000000C00F0000000000000000001A
:1037E0000000000040050000000000000000000094
:1037F00000000000000100000000000000000000C8
:1038000000000000010000000000000000000000B7
:103810000000004000000000000000000000000068
:103820000000400000000000000000000000000058
:103830000000000000000000000000000000000088
:103840000000000000000000000000000000000078
:103850000000000000000000000000000000000068
:103860000000000000000000000000000000000058
:103870000000000000000000000000000000000048
:103880000000000000000000000000000000000038
:103890000000000000000000000000000000000028
:1038A0000000000000000000000000000000A0690F
:1038B0009AA66900000000000000000080B66BBB03
:1038C000B66B1A00000000000000009AB66BBBB691
:1038D0006BBB0600000000000068BBB66BBBB66B9C
:1038E000BBA601000000000068BBB66BBBB66BBB9B
:1038F000A601000000000068DAAEEDDAAEEDDAAE47
:1039000001000000000000DABEEFFBBEEFBB0600C6
:1039100000000000000080B6EFFBBEEF1A000000C0
:10392000000000000000A0EDFBBE6B0000000000E6
:1039300000000000000068FBAE0100000000000075
:103940000000000000009A060000000000000000D7
:103950000000000068FBAE01000000000000000055
:103960000000A0699AA669000000000000000000A5
:103970000000000000000000000000000000000047
:103980000000000000000000000000000000000037
:103990000000000000000000000000000000000027
:1039A0000000000000000000000000000000000017
:1039B0000000000000000000000000000000000007
:1039C00000000000000000000000000000000D00EA
:1039D00000000000000000000000000034000000B3
:1039E0000000000000000000000000000DD00000FA
:1039F00000000000000000000000004D0300400334
:103A0000000000000000000000344D030000D00062
:103A100000000000D0000000344FD300400300003D
:103A200000000000340000F4CFD3004DD3000000AC
:103A30000040D3000000F4FFF334CFD300000000B7
:103A400040030000D034FFFF3FCFD3000000000050
:103A5000D00040D3FCFFFFFFCFF33400000000D0C4
:103A60003440F3FFFFFFFFFFF33C0D000000003484
:103A7000CDF33CCFF33CCFD33C0D0000000034CD60
:103A8000F33C4DD3344DD3340D00000094255855EC
:103A9000555555555555605902000094250882200A
:103AA0000882200882605902000000000882600934
:103AB00000005082200800000000405996000000DD
:103AC00000009465090000000000000000000000F4
:103AD00000000000000000000000000000000000E6
:103AE00000000000000000000000000000000000D6
:103AF00000000000000000000000000000000000C6
:103B000000000000000000000000000000000000B5
:103B100000000000000000000000000000000000A5
:103B20000000000000000000000000000000000095
:103B30000000004D03004D03004D03000000000095
:103B400000004D03004D03004D0300000000000085
:103B5000004DD3344DD3344D03000000000000006D
:103B600040F33CCFF33C0D0000000000000000409B
:103B7000F33CCFF33C0D000000000000000040F3D8
:103B800034CDF33C0DD0000D000040033440F3343D
:103B9000CDF33C4DD3340D000040D3344DF33C4FB6
:103BA000D33CCDF33C0D000040F33C4FF33C4FD3EE
:103BB0003CCDF33C0D000040F33C4FF33C4FD33C75
:103BC000CDF33C0D000040F33C4FF33CCFF33CCD34
:103BD000F33C0D000040F33C4FF3344DD33CCDF3A8
:103BE0003C0D000040F33C4FF3344DD33CCDF33C4F
:103BF0000D000040F33C4FF3344DD33CCDF33C0D6E
:103C000000000000000000000000000000000000B4
:103C100000000000000000008000CF030000000052
:103C200000000000000000803CCF03000000000006
:103C30000000000000008200000000000000000002
:103C400000088220080200000000000000000020A0
:103C500008822008820000002008000000002008E0
:103C60000000088200008220000000008020080080
:103C700000088220080200000000008020080000E8
:103C800008822008020000000000822000000008D6
:103C9000822008020000000000F23C000000080240
:103CA0002008020000000000F03C000000080200B4
:103CB00008820000000000003C0000000802000034
:103CC000F22000000000000000000008020000F0E8
:103CD0003C00000000000000000008020000003C62
:103CE00000000000000000000008020000000000CA
:103CF00000000000000000000802000000000000BA
:103D00000000000000002008820000000000000009
:103D10000000000080200882200000000000000059
:103D20000000000000080200000000000000000089
:103D3000000000C0BE030000000000000000000002
:103D40000000FBBEEF0000000000000000000000CB
:103D5000ECFBBEFB3E000000000000000000B0EFE6
:103D6000FBBEEFFE0E0000000000000000B0FBFBF9
:103D7000BEEFFB0E00000000000000C0EEFBFEBE28
:103D8000EFFBBE03000000000000FBBEFBFBBEEF2C
:103D9000FBEEEF0000000000ECFBBEEFFBEEEFBB24
:103DA000EFFB3B00000000ECFBBEEFBBEFFBFBEECC
:103DB000EF3B000000E0FBFBEEEFFBEEEFFBBEEFA6
:103DC000FB0E00C0EEEFBBEFFBFBBEEFFBBEEFFB5D
:103DD000BE03C0BEEFFBEEEFFBBEFBFBBEEFFEBEC5
:103DE000030000ECFBBEEFFBEEFBFEBEFB3E000063
:103DF000000000C0BEEFFBBEFBFBBE0300000000E6
:103E000000000000000008020000000000000000A8
:103E10000000000000080200000000000000000098
:103E20000000000008020000000000000000000088
:103E300000002008820000000000000000000000D8
:103E40008020088220000000000000000000000028
:103E50000008020000000000000000000000000058
:103E6000CB020000000000000000000000002CCB8E
:103E7000B20000000000000000000000B008CB22EB
:103E80002C000000000000000000C0223082B008BA
:103E90000B000000000000000080C030CC222C028B
:103EA00000000000000000008BC030CCB208C2024D
:103EB0000000000000002CC2B2088220308BB0004D
:103EC00000000000B008CB2208CBC230CC222C006E
:103ED000000000202C8CB02C82C030CCB208000036
:103EE00000C0B2300CB308CB222C8B202C0B00006E
:103EF000CB22300C232CCBB208C2B208CB02008BF1
:103F0000B02CC2B20882202C8CB02CC2020000B0AF
:103F100008CB222CCBB2300C232C00000000000078
:103F20008B20088220300C030000000000000000FD
:103F30000000080200000000000000000000000077
:103F40000008020000000000000000000000000067
:103F5000080200000000000000000000000020082F
:103F600082000000000000000000000080200882A5
:103F70002000000000000000000000000008020017
:103F80000000000000000000000000000000000031
:103F90000000000000000000000000000000000021
:103FA0000000000000000000000000000000000011
:103FB0000000000000000000000000000000000001
:103FC00000000000000000000000000000000000F1
:103FD00000000000000000000000000000000000E1
:103FE00000000000000000000000000000000000D1
:103FF00000000000000000000000000000000000C1
:10400000000040100441100000000000000000000B
:1040100000411045411004000000000000000004B1
:1040200051104541140441000000000000104451AB
:1040300010454114054100000000000028CFF33C6A
:104040008FF33CCFA300000000000065599665592E
:104050009665599600000000000065A9966AA99629
:104060006AA996000000000000655996655996659A
:1040700059960000000000001004551054415005EE
:1040800041000000000000104555145551544551A1
:1040900000000000000010455514555154455100D2
:1040A00000000000001045551455515445510000C2
:1040B0000000000000000000000000000000000000
:1040C00000000000000000000000000000000000F0
:1040D00000000000000000000000000000000000E0
:1040E0000000505555552108010000000000000057
:1040F00040555555555515820000000000000055EB
:104100005555555555558520000000000000555562
:10411000555555555555210000000000545555552D
:10412000000000005021080000000054555555556E
:1041300055555555550800000000545555555555D1
:1041400055555555150000000054555555000000B3
:1041500000505515000000005455555555555555FE
:104160005555150000000054555555555555555594
:1041700055150000000054555555000000005055DD
:1041800008000000005455555555555555555508CE
:10419000000000005455555555555555551108000A
:1041A0000000005465599665599665599625040096
:1041B0000000946559926559962449966509010055
:1041C00050966559966559966559962459420050FE
:1041D00096655996655996655996655996000000F9
:1041E00000000000000000000000000000000000CF
:1041F00000000000000000000000000000000000BF
:1042000000000000000000000000000000000000AE
:104210000000000000000000000000000000002A74
:1042200000FC0000000000000000000000002A0464
:10423000FF0000000000000000000000401004C16A
:104240003000000000000000000000403F04FD308E
:104250000000000000000000000040100441300099
:104260000000000000000000004010044130000089
:1042700000000000000000000010044100000000E9
:104280000000000000000000000401000000000029
:10429000000000000000002A04FF000000000000F1
:1042A000000000C00F001004C1000000000000006A
:1042B0000000000043000401300000000000000086
:1042C0000000004030040130000000000000000049
:1042D00000000000040100000000000000000000D9
:1042E00000001000C00000000000000000000000FE
:1042F000001000C00000000000000000000000A846
:104300001000403F000000000000000000000055C9
:10431000A5020000000000000000000050555555A7
:10432000A9000000000000000000405555555555FB
:104330002A00000000000000000000545555552AD6
:104340000000000000000000000054F0FFC3150052
:1043500000000000000000000054FFFFFF150000F7
:10436000000000000000000054FFFFFF15000000E7
:104370000000000000000000D5FF57000000000012
:10438000000000000000545555552A0000000000B0
:104390000000000000545555552A000000000000A0
:1043A0000000005055555555950A000000000000CA
:1043B00000005055555555950A00000000000000BA
:1043C000005055555555950A0000000000000000AA
:1043D0005055555555950A0000000000000000504A
:1043E00055555555950A00000000000000000000DA
:1043F0005555A900000000000000000000005455C1
:1044000055552A00000000000000000000545555DA
:10441000552A0000000000000000000054555555CA
:104420002A00000000000000000050555555559529
:104430000A00000000000000000054409AA600009E
:10444000000000000000000000501499A6290000A0
:10445000000000000000004052BEEFFB690A0000AF
:1044600000000000000040F9BEEFFB7E9A02000051
:10447000000000000045FA86EF1B7E0A00000000E5
:104480000000000040F9BEEFFB7E9A020000000031
:1044900000000000F8BEEFFB3E000000000000003E
:1044A00000000000BEEFFB00000000000000000064
:1044B00000000080EF03000000000000000000008A
:1044C0000054FFFFFF150000000000000000000086
:1044D000FCFFFFFF3F000000000000000000F003B1
:1044E000FFFFFFC00F0000000000000000F003FF0E
:1044F000FFFFC00F0000000000000000E003FFFF0E
:10450000FF800F00000000000000000000044130A8
:1045100000000000000000000000000010049100F6
:1045200000000000000000000000001000900000EB
:1045300000000000000000000000100090000000DB
:1045400000000000000000000010009000000000CB
:1045500000000000000000A82A00A82A00000000B7
:1045600000000000000000EAFF033F000000000020
:104570000000000000A469FAFF3F000000000000F6
:10458000000000A0AABEEFFBFF0F0000000000002B
:1045900000409AFABEEFFBFE0F0000000000000092
:1045A00000A0FA95EF57FEFF030000000000008016
:1045B000AAFABEEFFBBE0A000000000000000000E7
:1045C000F8BEEFFB3E00000000000000000000000D
:1045D000BEEFFB00000000000000000000000080B3
:1045E000EF0300000000000000000000001445512F
:1045F0003C0F0000000000000000000014455114B2
:104600000F0000000000000000005000455114C0E1
:104610000300000000000000005000455114C003DA
:104620000000000000000000E003455114800F006E
:10463000000000000000000000AAAAAA000000007C
:104640000000000000000000AAAAAA00000000006C
:10465000000000000000002A00A800000000000088
:104660000000000000002A00A80000000000000078
:1046700000000000002A00A8000000000000000068
:104680000000005415005415000000000000000058
:10469000000000000000000000000000000000001A
:1046A000000095AAAA000000000000000000000021
:1046B000545555A92A0000000000000000000054D5
:1046C0005555552A00000000000000000000547FEE
:1046D00055FD2A0000000000000000000054555560
:1046E000552A0000000000000000000054555555F8
:1046F0002A00000000000000000000005555550091
:1047000000000000000000000000005555550000AA
:10471000000000000000000000545555552A00001C
:104720000000000000000000545555552A0000000C
:1047300000000000000000545555552A00000000FC
:10474000000000000000545555552A0000000000EC
:104750000000000000545555552A000000000000DC
:1047600000000000545555552A00000000000000CC
:10477000000000545555552A0000000000000000BC
:104780000000545555552A000000000000000000AC
:1047900000545555552A000000000000000000504C
:1047A00055555555AA0A0000000000000040555517
:1047B00055555595AA0200000000000000000000B9
:1047C00000000000000000000000000000000000E9
:1047D00000000000000000000000000000EAFFFFF1
:1047E0000000000000000000000000A8FFFFFF3FE5
:1047F00000000000000000000000A8F0FFC33F0020
:10480000000000000000000000A8FFFFFF3F0000C4
:104810000000000000000000A8EAFFFF3F000000C9
:104820000000000000000000AAFAFF0000000000E5
:104830000000000000000080FA03000000000000FB
:104840000000000000A82A00FC3F0000000000005B
:1048500000000000A880FA033F00000000000000F4
:104860000000A0022A00FCC00F00000000000000B1
:1048700000A00280FA03C00F00000000000000004A
:10488000A00280FA03C00F0000000000000000003A
:1048900000AAFAFF00000000000000000000000075
:1048A00080AA020000000000000000000000002AB2
:1048B00000FC0000000000000000000000002A00D2
:1048C000FC0000000000000000000000002A00FCC6
:1048D0000000000000000000000000A82A00A83F1F
:1048E0000000000000000000000000649AA6000024
:1048F000000000000000000000501499A6290000EC
:10490000000000000000004052BEEFFB690A0000FA
:1049100000000000000040F9BEEFFB7E0A0000002E
:10492000000000000040FA86EF1B7E0A0000000035
:104930000000000040F9BEEFFB7E0A00000000000E
:1049400000000040FABEEFFB7E0A000000000000FD
:1049500000005051BEEFFB550A00000000000000AF
:10496000004056A4EF93140900000000000000006E
:104970004051E4FF93540500000000000000004097
:1049800092CBF23C14090000000000000000002C53
:10499000CBB23C0F000000000000000000002CCB58
:1049A000B22C0F000000000000000000002CCBB271
:1049B0002C0F00000000000000000000A8CBB22C6B
:1049C0002A0000000000000000000000CBB22C0014
:1049D000000000000000000000002CCBB22C0F00F3
:1049E0000000000000000000002CCBB22C0F0000E3
:1049F00000000000000000002CCBB22C0F000000D3
:104A0000000000000000B02CCBB22CCF030000004F
:104A10000000000000000000000000000000000096
:104A20000000000000946559962500000000000079
:104A300000000050966559966509000000000000CE
:104A4000000050966559966559020000000000006C
:104A50000000F8BEEFFB3E00000000000000000078
:104A600000F895EF573E0000000000000000000035
:104A7000F82008823E000000000000000000000056
:104A8000A0EF8300000000000000000080EF97FF0F
:104A9000FFFFA5EF0300000000000080EF97FFFF7D
:104AA000FFA5EF0300000000000080EF977C59F2A3
:104AB000A5EF030000000000000008966559962548
:104AC000080200000000000080EF97655996A5EFEE
:104AD0000300000000000080EF97655996A5EF03E2
:104AE00000000000000000009465599625000000B9
:104AF0000000000000000094250094250000000044
:104B00000000000000009425009425000000000033
:104B10000000000000FC3F00FC3F0000000000001F
:104B200000000000FC3F00FC3F000000000000000F
:104B3000000000822000802008000000000000002B
:104B40000000000000000000000000000000000065
:104B50000000000000000000000000000000000055
:104B6000F03CCFF33C00000000000000000000F02B
:104B70003CCFF33C000000000000000000C0F33C0C
:104B8000CFFB3C0F0000000000000000C0F38BEFE3
:104B90002F3C0F0000000000000000CFF3BEEFFB31
:104BA0003C0F0000000000000000CFF3BFEFFF3C0F
:104BB000CF0300000000000000CF97FFFFFF25CFCC
:104BC0000300000000000000CF97FFFFFF25CF0388
:104BD00000000000000000CF9765599625E0030013
:104BE0000000000000800F9465599625E003000046
:104BF000000000000008946559962500020000009E
:104C00000000000008802008822000020000000050
:104C10000000000094655996250000000000000087
:104C200000005096655996650900000000000000DC
:104C300000509665599665090000000000000000CC
:104C400050966559966509000000000000000000BC
:104C5000003E00F80000000000000000000000829C
:104C600020008020080000000000000000C00300B9
:104C70000F003C000000000000000000C0037C02A8
:104C8000F03C000000000000000000C0F349C2F347
:104C90003C000000000000000000C0F33CCF273CB7
:104CA0000000000000000000005096BE5F96250046
:104CB000000000000000000050FAB0EFC3650900DA
:104CC0000000000000000000F8BEEFFB65090000D6
:104CD0000000000000000000BEEFFB00000000002C
:104CE000000000F8BE4FF3BEEFFB304D03000000A4
:104CF00000E0FBBEEFD3BEEFFB300F03000000006F
:104D0000E0FBBEEFC3BCEFC3300FD30000000000D8
:104D1000F8BEEFFB340CF3340DC30000000000F8C4
:104D2000BE0FC0344CF33C0CF3340000000000BE56
:104D30000FD0340CD3304CF3340F00000000CB0202
:104D4000C034CCC3304003304F03000000BE0FF02E
:104D5000304CF334C0033440030000000000D03C6A
:104D600040D33040033400030000000000C0340092
:104D7000D03C000000C0030000000000C0300FC0A5
:104D80003C000000C0030000000040D3300FD034CE
:104D90000C0000000000000000000000CF03000035
:104DA000000000000000000000F03CCFF33C0000D9
:104DB00000000000000000C0F33CCFF33C0F0000F7
:104DC000000000000000CFF33CCFF33CCF03000015
:104DD000000000000050FABEEFFB7E09000000005A
:104DE0000000000050FA95EF577E09000000000017
:104DF00000000000946559962500000000000000A6
:104E000000000000250C97000000000000000000DA
:104E100000081E7059C207080200000000000000D0
:104E20000C1F300CC3070C0300000000000000083A
:104E30001E3C0CF3070802000000000000000C1FDD
:104E4000C7711C070C0300000000000080EF1FC7A3
:104E5000711C87EF0300000000000080EF1FC77186
:104E60001C87EF0300000000000000001C07001C6E
:104E700007000000000000000000001C07001C07E5
:104E8000000000000000000000001C07001C0700DC
:104E90000000000000000000001C07001C070000CC
:104EA00000000000000000001C07001C07000000BC
:104EB00000000000000000822000802008000000A8
:104EC00000000000000000000000000000000000E2
:104ED0000000000000002CCBB20000000000000029
:104EE0000000000BB02CCBB22CC002000000000070
:104EF0000000CBB215CB562CCB0200000000000006
:104F000000C0B22CCBB22C0B00000000000000004F
:104F100000B0300CC32C00000000000000000000B6
:104F2000003FCBFE00000000000000000000000079
:104F300020088200000000000000000000CB962C3A
:104F4000CBB225CB0200000000000000CB962CCB9A
:104F5000B225CB0200000000000000CB96655996F8
:104F600025CB020000000000000008966559962538
:104F7000080200000000000000CB8220088220CB45
:104F80000200000000000000CB8220088220CB023B
:104F90000000000000000000946559962500000004
:104FA00000000000000000946559962500000000F4
:104FB000000000000000B06559962C0000000000C1
:104FC0000000000000B02C00B02C00000000000029
:104FD00000000000B02C00B02C0000000000000019
:104FE0000000C0B22C00B02C0B000000000000003C
:104FF00000000000000000000000000000000000B1
:10500000C0F300CF033C0F0000000000000000C010
:10501000C3FCB2F0300F0000000000000000C0F33D
:105020003CCFF33C0F000000000000000000F8BE81
:10503000EFFB3E00000000000000000000F895EFCC
:10504000573E00000000000000000000F86559967F
:105050003E0000000000000000000000A5EF9700E7
:1050600000000000000000007FF5577FF5577FF536
:1050700057000000000000D55FFDD55FFDD55FFD46
:1050800000000000000000FC9B26CF9BE60F030001
:105090000000000000C0FF9BE6FF9BE6FF0300004E
:1050A00000000000C0FF9B26CF9BE6FF030000002E
:1050B000000000C0FF9BE6FF9BE6FF03000000002E
:1050C0000000B0EF9B26CF9BA6EFC30000000000BE
:1050D00000300C9BA6699A260CC30000000000005B
:1050E000300C9B260098260CC30000000000003006
:1050F0000C9B260098260CC3000000000000000056
:10510000FC3F00FC3F0000000000000000000082A7
:10511000200080200800000000000000000000FFC8
:10512000FFFF0000000000000000000000FCFFFF87
:10513000FF3F000000000000000000F0FFFFFFFF45
:10514000FF0F0000000000000000F057555555D536
:105150000F0000000000000000F0FF7F55FDFF0F72
:105160000000000000000000F0FF7F55FDFF0F0071
:1051700000000000000000F0FFFFFFFFFF0F000035
:105180000000000000FF5F5555555555F5FF000024
:1051900000000000FFFFFFFFFFFFFFFFFF00000018
:1051A0000000004055FDD5FF577F5501000000006D
:1051B00000004055FDFFFFFF7F550100000000008B
:1051C000004055FDD5FF577F55010000000000004D
:1051D0004055FDFFFFFF7F5501000000000000C0AB
:1051E000FFFFD5FF57FFFF03000000000000000095
:1051F000FCFFFFFF3F000000000000000000005423
:10520000D5FF5715000000000000000000005415F5
:1052100000541500000000000000000000541500BC
:105220005415000000000000000000005415005458
:1052300015000000000000000000F0FF3F00FCFF30
:105240000F0000000000000000000000000000004F
:105250000000000000000000000000CF030000007C
:105260000000000000000000943CBCF0250000009D
:10527000000000000000C0F33CCFF33C0F00000032
:1052800000000000005096BE5FFA650900000000B3
:105290000000004059FA95EF577E590200000000C7
:1052A00000004059C2BEEFFB705902000000000030
:1052B000004059FA3E08FA7E590200000000000042
:1052C0004079FCBEEFFBFF510200000000000040EF
:1052D000791CBFEFFFC75102000000000000E5711C
:1052E0001CC7FF1FC77194000000000000E5711C7F
:1052F00007CF1FC77194000000000000E5011CC724
:10530000711C077094000000000000C0010007CF6E
:105310001F007000000000000000800F00FFFFFF72
:1053200000E00300000000000000001CC7711C0723
:10533000000000000000000000701CC7711CC701C5
:1053400000000000000000C07F1CC7711CC7F103F3
:1053500000000000000000F0FFFFFFFFFF0F000053
:1053600000000000000000802000802000000000FD
:105370000000000000000080690200000000000042
:10538000000000000000A669F2000000000000001C
:105390000000000098A6C9F33C00000000000000D7
:1053A000000060F2A669F2A60900000000000000FB
:1053B00000C0F3BC699AA6090000000000000000CC
:1053C00050F98BEF2F7E0500000000000000005018
:1053D000F9BEEFFB7E050000000000000000505504
:1053E000555555550500000000000000005055556A
:1053F00055555505000000000000008069565555C0
:105400005595C90300000000000080699A55555564
:1054100026CF03000000000000A6C99B665599A690
:10542000C99B00000000000026CFF3A6699AA66978
:105430009A000000000000A6C99BA6699AA6699A76
:10544000000000000000A6699AA669F2A6699A0009
:105450000000000000BE6F9AA6C9F3BCE9FB000083
:105460000000000000C09BA669F2A6090000000031
:1054700000000000C0F3A6699AA609000000000021
:1054800000000000F83E00F83E00000000000000B0
:1054900000005096250094650900000000000000FF
:1054A0000000E880AAEB00000000000000000000FF
:1054B00000A4699EA62900000000000000000090E2
:1054C000A7799AE7790E000000000000000090E63E
:1054D0007E9EA6799A02000000000000409AFBBE62
:1054E0009FE7690E000000000000000090FB95EFB0
:1054F000577EAE030000000000000000F8BEEFFB86
:105500003E0000000000000000000000BEEFFB00B5
:1055100000000000000000007F5DFFAAEFAB7F5D90
:10552000FF000000000000C05FD7BFAAFE75FD03AA
:1055300000000000000080EFD7B5AED7F5EF030004
:10554000000000000080EFD7755DD7B5EF030000C5
:1055500000000000405DD7755DD7755D0300000059
:1055600000000080EFE7F9FFE7B9EF03000000005B
:1055700000000000FC795DE73F0000000000000033
:10558000000000FC7E5EFB3F000000000000000009
:105590000000FC3F00FC3F00000000000000000095
:1055A00000E43900E43900000000000000000000C1
:1055B000D43500D43500000000000000000090E762
:1055C0003500D4790E0000000000004000104000BB
:1055D00020400030400040400050480060480070CB
:1055E0004800804800904800A04800B04800C048EB
:1055F00000D04800E04800F04800014000114000A1
:10560000214000314700414F00514F00614F0002DF
:105610004800624F00034800134300234300434304
:1056200000534300634F00834700B34B000448001E
:105630001443002443004443005443006450007466
:1056400050000548001543002543003542004543FE
:105650000055430065500006480007480008480010
:10566000384C000948000A48100048101048102023
:10567000481030481040481050481060481070489A
:1056800010804810904810A04810B04810C0481032
:10569000D04810E04810F048200048201048202052
:1056A000482030482040482050482060482070481A
:1056B00020804820904820A04820B04820C04820A2
:1056C000D04820E04820F04820914820A14820B14F
:1056D0004820C14820D14820E14820F14820D24844
:1056E00020E24820F24820E34820F34830004830C8
:1056F0001048302048303048304048305048306002
:105700004830704830804830904830A04830B04829
:1057100030C04830D04830E04830F04830014830A0
:1057200011483021483031483041483051483061CB
:105730004830714830814830914830A14830B148F4
:1057400030C14830D14830E14830F148300248306B
:105750001248302248303248304248305248306295
:105760004830724830824830924830A24830B248BF
:1057700030C24830D24830E24830F2483023483016
:10578000334830434830534830634830734830839F
:105790004830934830A34830B34830C34830D348EA
:1057A00030E34830F348307448308448309448300F
:1057B000A44830B44830C44830D44830E44830F4C9
:1057C0004830854830954830A54830B54830C54800
:1057D00030D54830E54830964830A64830B6483095
:1057E000C6484000484010484020484030484040AB
:1057F0004840504840604840704840804840904889
:1058000040A04840B04840C04840D04840E04840F0
:10581000F04840014840114840214840314840414B
:105820004840514840614840714840814840914853
:1058300040A14840B14840C14840D14840E14840BB
:10584000F148400248401248402248403248404215
:10585000484052484062484072484082484092481E
:1058600040A24840B24840C24840D24840E2484086
:10587000F2484003484013484023484033484043DF
:1058800048405348406348407348408348409348E9
:1058900040A34840B34840C34840D34840E3484051
:1058A000F3484004484014484024484034484044A9
:1058B00048405448406448407448408448409448B4
:1058C00040A44840B44840C44840D44840E448401C
:1058D000F4484025484035484045484055484065D3
:1058E0004840754840854840954840A5484036485E
:1058F0004046484056484066484076484047484001
:105900005748406748404848405848406848500019
:105910004850104850204850304850404850504857
:1059200050604850704850804850904850A04850AF
:10593000B04850C04850D04850E04850F04850015E
:105940004850114850214850314850E14850F148E2
:1059500050024850124850224850E24850F24850F5
:10596000034850134850F3486000486010486020D6
:105970004860304860404860504860604860704807
:1059800060804860904860A04860B04860C048604F
:10599000D04860E04860F0486001486011486021EC
:1059A0004860314860414860514860B14860C14832
:1059B00060D14860E14860F1486002486012486088
:1059C000224860324860424860C24860D24860E283
:1059D0004860F24860134860234860C34860D34879
:1059E00060E34860F34860D44860E44860F448707D
:1059F000004870104870204870304870404870501F
:105A00004870604870704870804870904870A04836
:105A100070B04870C04870D04870E04870F048706E
:105A2000714870814870914870A14870B14870C148
:105A30004870D14870E14870F14870B24870C2486F
:105A400070D24870E24870F24870C34870D3487012
:105A5000E34870F348800048801048802048803038
:105A60004880404880504880604880704880804826
:105A700080904880A04880B04880C04880D048804E
:105A8000E04880F0488001488011488021488031FA
:105A90004880414880514880A14880B14880C14831
:105AA00080D14880E14880F14880024880124880D7
:105AB000224880324880424880E24880F248800391
:105AC0004880134880234880F34880044880144865
:105AD00080F44880F54880F64880F74880F8488090
