:100000000C9422180C9441180C9441180C9441182B
:100010000C9441180C9441180C9441180C944118FC
:100020000C9441180C9441180C9441180C944118EC
:100030000C9441180C9441180C9441180C944118DC
:100040000C9441180C9441180C9441180C944118CC
:100050000C9441180C9441180C9441180C944118BC
:100060000C9441180C9441180C9441180C944118AC
:100070000C9441180C9441180C9441180C9441189C
:100080000C9441180C9441180C9441180C9441188C
:100090000C9441180C944118000000000000005F0F
:1000A00000000003000300143E143E14242A7F2A9B
:1000B000124333086661364955225000050300009B
:1000C000001C2241000041221C0014083E081408B4
:1000D000083E0808005030000008080808080060C2
:1000E00060000020100804023E5149453E00040211
:1000F0007F00426151494622414949361814127F16
:100100001027454545393E494949320101710907E2
:100110003649494936264949493E003636000000ED
:10012000563600000814224100141414141400411F
:1001300022140802015109063E4159555E7E090903
:10014000097E7F494949363E414141227F41414133
:100150003E7F494949417F090909013E4141493AE8
:100160007F0808087F00417F4100304040403F7FCA
:10017000081422417F404040407F020C027F7F02F2
:1001800004087F3E4141413E7F090909061E2121A5
:10019000215E7F09090976264949493201017F011B
:1001A000013F4040403F1F2040201F7F2010207F04
:1001B00041221C224107087008076151494543004C
:1001C0007F41000002040810200000417F0004026B
:1001D0000102044040404040000102040020545409
:1001E00054787F4444443838444444443844444474
:1001F0007F385454541804047E0505085454543C64
:100200007F0804047800447D40002040443D007F86
:100210001028440000417F40007C047804787C086A
:1002200004047838444444387C1414140808141422
:10023000147C007C080404485454542004043F44B3
:10024000443C4040207C1C2040201C3C4030403C32
:1002500044281028440C5050503C4464544C4400F2
:100260000836414100007F0000414136080002018C
:100270000204026000056000056000056000056082
:100280000005600005600005600005600005600075
:100290000560000560000560000560000560000560
:1002A00060000560000560000560000560000560F5
:1002B0000005600005600005600005600005600045
:1002C0000560000560000560000560000560000530
:1002D00060000560000560000560000560000560C5
:1002E0000005600005600005600005600005600015
:1002F0000560000560000560000560000560000500
:100300006000056000056000056000056000056094
:1003100000056000056000056000056000056000E4
:1003200005600005600005600005600005600005CF
:100330006000056000056000056000056000056064
:1003400000056000056000056000056000056000B4
:10035000056000056000056000056000056000059F
:100360006000056000056000056000056000056034
:100370000005600005600005600005600005600084
:10038000056000056000056000056000056000056F
:100390006000056000056000056000056000056004
:1003A0000005600005600005600005600005600054
:1003B000056000056000056000056000056000053F
:1003C00060000560000560000560000560000560D4
:1003D0000005600005600005600005600005600024
:1003E000056000056000056000056000056000050F
:1003F00060000560000560000560000560000560A4
:1004000000056000056000056000056000056000F3
:1004100005600005600005600005600005600005DE
:100420006000056000056000056000056000056073
:1004300000056000056000056000056000056000C3
:1004400005600005600005600005600005600005AE
:100450006000057000056000056000056000056033
:100460000005600005600005600005600005600093
:10047000056000056000056000056000056000057E
:100480006000050000000000000000000000000007
:10049000000000003F3F3F0000000000000000009F
:1004A000000000003F3F3F3F3F3F3F000000000093
:1004B0000000000000003F3F3F3F3F3F3F3F3F0005
:1004C00000000000000000003F3F3F3F3F3F3F3F34
:1004D0003F3F3F00000000000000003F3F3F3F3F24
:1004E0003F3F3F3F3F3F3F000000000000003F3FD5
:1004F0003F3F3F3F3F3F3F3F3F3F3F000000000047
:10050000003F3F3F3F3F3F3F3F3F3F3F3F3F3F0079
:10051000000000003F3F3F3F3F3F3F3F3F3F3F3FE7
:100520003F3F3F000000003F3F3F3F3F3F3F3F3FD7
:100530003F3F3F3F3F3F3F0000003F3F3F3F3F3F88
:100540003F3F3F3F3F3F3F3F3F3F3F0000003F3F78
:100550003F3F3F3F3F3F3F3F3F3F3F3F3F3F3F00EA
:10056000003F3F3F3F3F3F3F3F3F3F3F3F3F3F3FDA
:100570003F3F3F00003F3F3F3F3F3F3F3F3F3F3F09
:100580003F3F3F3F3F3F3F003F3F3F3F3F3F3F3FBA
:100590003F3F3F3F3F3F3F3F3F3F3F003F3F3F3FAA
:1005A0003F3F3F3F3F3F3F3F3F3F3F3F3F3F3F009A
:1005B0003F3F3F3F3F3F3F3F3F3F3F3F3F3F3F3F4B
:1005C0003F3F3F003F3F3F3F3F3F3F3F3F3F3F3F7A
:1005D0003F3F3F3F3F3F3F3F3F3F3F3F3F3F3F3F2B
:1005E0003F3F3F3F3F3F3F3F3F3F3F3F3F3F3F3F1B
:1005F0003F3F3F3F3F3F3F3F3F3F3F3F3F3F3F3F0B
:100600003F3F3F3F3F3F3F3F3F3F3F3F3F3F3F3FFA
:100610003F3F3F000000000000000000000000001D
:1006200000000000000000000000000000000000CA
:10063000000000000000000000003F00000000007B
:10064000000000000000000000000000003F3F002C
:10065000000000000000000000000000000000009A
:100660003F3F3F00000000000000000000000000CD
:100670000000003F3F3F3F0000000000000000007E
:100680000000000000003F3F3F3F3F00000000002F
:100690000000000000000000003F3F3F3F3F3F00E0
:1006A0000000000000000000000000003F3F3F3F4E
:1006B0003F3F3F0000000000000000000000003F3E
:1006C0003F3F3F3F3F3F3F00000000000000000071
:1006D00000003F3F3F3F3F3F3F3F3F0000000000E3
:1006E00000000000003F3F3F3F3F3F3F3F3F3F0094
:1006F00000000000000000003F3F3F3F3F3F3F3F02
:100700003F3F3F00000000000000003F3F3F3F3FF1
:100710003F3F3F3F3F3F3F000000000000003F3FA2
:100720003F3F3F3F3F3F3F3F3F3F3F000000000014
:10073000003F3F3F3F3F3F3F3F3F3F3F3F3F3F0047
:10074000000000003F3F3F3F3F3F3F3F3F3F3F3FB5
:100750003F3F3F000000003F3F3F3F3F3F3F3F3FA5
:100760003F3F3F3F3F3F3F0000003F3F3F3F3F3F56
:100770003F3F3F3F3F3F3F3F3F3F3F00003F3F3F07
:100780003F3F3F3F3F3F3F3F3F3F3F3F3F3F3F00B8
:100790003F3F3F3F3F3F3F3F3F3F3F3F3F3F3F3F69
:1007A0003F3F3F000000000000000000000000008C
:1007B0000000000000000000000000000000000039
:1007C0000000000000000000000000000000000029
:1007D0000000000000000000000000000000000019
:1007E0000000000000000000000000000000000009
:1007F00000000000000000000000000000000000F9
:1008000000000000000000000000000000000000E8
:1008100000000000000000000000000000000000D8
:1008200000000000000000000000000000000000C8
:1008300000000000000000000000000000000000B8
:1008400000000000000000000000000000000000A8
:100850000000000000000000000000000000000098
:100860000000000000000000000000000000000088
:1008700000000000003F3F3F3F3F3F3F3F3F3F0002
:100880000000000000000000003F3F3F3F3F3F3FAF
:100890003F3F3F000000000000000000003F3F3FDE
:1008A0003F3F3F3F3F3F3F0000000000000000008F
:1008B000003F3F3F3F3F3F3F3F3F3F0000000000C2
:1008C00000000000003F3F3F3F3F3F3F3F3F3F00B2
:1008D0000000000000000000003F3F3F3F3F3F3F5F
:1008E0003F3F3F000000000000000000003F3F3F8E
:1008F0003F3F3F3F3F3F3F0000000000000000003F
:10090000003F3F3F3F3F3F3F3F3F3F000000000071
:1009100000000000003F3F3F3F3F3F3F3F3F3F0061
:100920000000000000000000003F3F3F3F3F3F3F0E
:100930003F3F3F00000000000000000000000000FA
:1009400000000000000000000000000000000000A7
:100950000000000000000000000000000000000097
:100960000000000000000000000000000000000087
:100970000000000000000000000000000000000077
:100980000000000000000000000000000000000067
:100990000000000000000000000000000000000057
:1009A0000000000000000000000000000000000047
:1009B0000000000000000000000000000000000037
:1009C0000000000000000000000000000000000027
:1009D0000000000000000000000000000000000017
:1009E0000000000000000000000000000000000007
:1009F00000000000000000000000000000000000F7
:100A00000000000000000000000000003F3F3F0029
:100A100000000000000000000000000000003F3F58
:100A20003F3F3F0000000000000000000000000009
:100A30003F3F3F3F3F3F3F000000000000000000FD
:100A40000000003F3F3F3F3F3F3F3F0000000000AE
:100A5000000000000000003F3F3F3F3F3F3F3F009E
:100A6000000000000000000000003F3F3F3F3F3F0C
:100A70003F3F3F00000000000000000000003F3F3B
:100A80003F3F3F3F3F3F3F000000000000000000AD
:100A9000003F3F3F3F3F3F3F3F3F3F0000000000E0
:100AA00000000000003F3F3F3F3F3F3F3F3F3F00D0
:100AB0000000000000000000003F3F3F3F3F3F3F7D
:100AC0003F3F3F0000000000000000000000000069
:100AD0000000000000000000000000000000000016
:100AE0000000000000000000000000000000000006
:100AF00000000000000000000000000000000000F6
:100B000000000000000000000000000000000000E5
:100B100000000000000000000000000000000000D5
:100B200000000000000000000000000000000000C5
:100B300000000000000000000000000000000000B5
:100B400000000000000000000000000000000000A5
:100B50000000000000000000000000000000000095
:100B60000000000000000000000000000000000085
:100B70000000000000000000000000000000000075
:100B80000000000000000000000000000000000065
:100B90000000000000000000000000000000000055
:100BA0000000000000000000000000000000000045
:100BB00000003F00000000000000000000000000F6
:100BC00000000000003F3F000000000000000000A7
:100BD00000000000000000003F3F3F000000000058
:100BE00000000000000000000000003F3F3F3F0009
:100BF00000000000000000000000000000003F3F77
:100C00003F3F3F0000000000000000000000000027
:100C1000003F3F3F3F3F3F0000000000000000005A
:100C2000000000003F3F3F3F3F3F3F00000000000B
:100C3000000000000000003F3F3F3F3F3F3F3F00BC
:100C4000000000000000000000003F3F3F3F3F3F2A
:100C50003F3F3F00000000000000000000000000D7
:100C60000000000000000000000000000000000084
:100C70000000000000000000000000000000000074
:100C80000000000000000000000000000000000064
:100C90000000000000000000000000000000000054
:100CA0000000000000000000000000000000000044
:100CB0000000000000000000000000000000000034
:100CC0000000000000000000000000000000000024
:100CD0000000000000000000000000000000000014
:100CE0000000000000000000000000000000000004
:100CF00000000000000000000000000000000000F4
:100D000000000000000000000000000000000000E3
:100D100000000000000000000000003F3F3F3F3F98
:100D20003F3F3F3F3F3F3F3F3F3F3F3F3F3F3F3FD3
:100D30003F3F3F3F3F3F3F3F3F3F3F3F3F3F3F3FC3
:100D40003F3F3F3F3F3F3F3F3F3F3F3F3F3F3F3FB3
:100D50003F3F3F3F3F3F3F3F3F3F3F3F3F3F3F3FA3
:100D60003F3F3F3F3F3F3F3F3F3F3F3F3F3F3F3F93
:100D70003F3F3F3F3F3F3F3F3F3F3F3F3F3F3F3F83
:100D80003F3F3F3F3F3F3F3F3F3F3F3F3F3F3F3F73
:100D90003F3F3F3F3F3F3F3F3F3F3F3F3F3F3F3F63
:100DA0003F3F3F3F3F3F3F3F3F3F3F3F3F3F3F3F53
:100DB0003F3F3F3F3F3F3F3F3F3F3F3F3F3F3F3F43
:100DC0003F3F3F3F3F3F3F3F3F3F3F3F3F3F3F3F33
:100DD0003F3F3F3F3F3F3F3F3F3F3F3F3F3F3F3F23
:100DE0003F3F3F0000003F3F3F3F3F3F3F3F3F3FD0
:100DF0003F3F3F3F0000000000003F3F3F3F3F3F7D
:100E00003F3F3F3F3F3F3F3F0000000000003F3F6C
:100E10003F3F3F3F3F3F3F3F3F3F3F3F00000000DE
:100E200000003F3F3F3F3F3F3F3F3F3F3F3F3F3F50
:100E30000000000000003F3F3F3F3F3F3F3F3F3F3C
:100E40003F3F3F3F0000000000003F3F3F3F3F3F2C
:100E50003F3F3F3F3F3F3F3F0000000000003F3F1C
:100E60003F3F3F3F3F3F3F3F3F3F3F3F000000008E
:100E700000003F3F3F3F3F3F3F3F3F3F3F3F3F3F00
:100E80000000000000003F3F3F3F3F3F3F3F3F3FEC
:100E90003F3F3F3F0000000000003F3F3F3F3F3FDC
:100EA0003F3F3F3F3F3F3F3F0000000000003F3FCC
:100EB0003F3F3F3F3F3F3F3F3F3F3F3F000000003E
:100EC00000003F3F3F3F3F3F3F3F3F3F3F3F3F3FB0
:100ED0000000000000003F3F3F3F3F3F3F3F3F3F9C
:100EE0003F3F3F3F0000000000003F3F3F3F3F3F8C
:100EF0003F3F3F3F3F3F3F3F0000000000003F3F7C
:100F00003F3F3F3F3F3F3F3F3F3F3F3F00000000ED
:100F100000003F3F3F3F3F3F3F3F3F3F3F3F3F3F5F
:100F20000000000000003F3F3F3F3F3F3F3F3F3F4B
:100F30003F3F3F3F0000000000003F3F3F3F3F3F3B
:100F40003F3F3F3F3F3F3F3F0000000000003F3F2B
:100F50003F3F3F3F3F3F3F3F3F3F3F3F000000009D
:100F600000003F3F3F3F3F3F3F3F3F3F3F3F3F3F0F
:100F70000000000C0C0C0C0C0C0C0C0C0C000000F9
:100F8000000000000000000C0C0C0C0C0C0C0C0CF5
:100F90000C000000000000000000000C0C0C0C0C09
:100FA0000C0C0C0C0C000000000000000000000CF9
:100FB0000C0C0C0C0C0C0C0C0C00000000000000C5
:100FC0000000000C0C0C0C0C0C0C0C0C0C000000A9
:100FD000000000000000000C0C0C0C0C0C0C0C0CA5
:100FE0000C000000000000000000000C0C0C0C0CB9
:100FF0000C0C0C0C0C000000000000000000000CA9
:101000000C0C0C0C0C0C0C0C0C0000000000000074
:101010000000000C0C0C0C0C0C0C0C0C0C00000058
:10102000000000000000000C0C0C0C0C0C0C0C0C54
:101030000C000000000000000000000000000000A4
:1010400000000000000C0C0C0C0C0C0C0C0C0C0028
:101050000000000000000000000C0C0C0C0C0C0C3C
:101060000C0C0C000000000000000000000C0C0C38
:101070000C0C0C0C0C0C0C0000000000000000001C
:10108000000C0C0C0C0C0C0C0C0C0C0000000000E8
:1010900000000000000C0C0C0C0C0C0C0C0C0C00D8
:1010A0000000000000000000000C0C0C0C0C0C0CEC
:1010B0000C0C0C000000000000000000000C0C0CE8
:1010C0000C0C0C0C0C0C0C000000000000000000CC
:1010D000000C0C0C0C0C0C0C0C0C0C000000000098
:1010E00000000000000C0C0C0C0C0C0C0C0C0C0088
:1010F0000000000000000000000C0C0C0C0C0C0C9C
:101100000C0C0C152A2A152A2A2A152A2A2A152AED
:101110002A2A3F152A2A2A152A2A151515152A15AD
:1011200015151515152A2A152A2A2A152A152A2AC7
:101130003F152A152A2A3F3F151515151515153F78
:10114000152A2A2A3F3F15152A2A2A3F153F152A14
:101150003F152A3F3F152A2A2A152A2A15152A152E
:101160002A2A152A2A152A2A2A152A1515152A1572
:101170002A3F15152A2A15152A152A2A2A15152A4D
:101180003F3F15152A3F3F2A15153F3F153F1515BF
:1011900015152A2A2A2A15152A2A2A2A152A2A3F03
:1011A000152A3F3F152A152A2A152A3F15152A2ADE
:1011B000152A2A2A152A2A2A152A151515152A3F0D
:1011C0003F3F15152A2A2A153F152A2A1515153FBE
:1011D0003F152A2A2A2A153F1515152A3F152A15C3
:1011E00015152A2A3F152A2A2A2A152A3F3F152A89
:1011F0002A3F152A2A3F152A2A152A2A2A152A2A79
:101200002A2A152A2A2A15152A153F15153F152AA7
:101210002A152A2A2A2A151515152A3F152A2A15AC
:101220002A2A3F15152A15152A152A3F3F152A2A5D
:101230003F152A15152A2A2A152A3F3F152A2A2A38
:101240003F3F152A2A15153F15151515152A2A3F52
:101250003F152A2A2A2A1515153F152A3F152A2A2D
:101260003F152A2A3F152A2A2A2A15152A3F152A08
:101270001515152A15152A2A2A1515152A151515B5
:101280002A2A3F152A2A3F152A3F1515152A3F15E8
:10129000152A3F2F1F0F0F0F2F0B0B0B0F2F2F1F79
:1012A0000B0B0B0B0B0B0F0F0F0F0F0F2F0B0B0B52
:1012B0002F0F0B1F1F0B0B2F3F3F3F0F0F0F0F0F5A
:1012C0000B1F1F1F3F0B0B0B1F1F1F1F1F1F3F0F4E
:1012D0000F0F0F0F0B1F2F2F2F0B0B1F1F1F1F0F7A
:1012E0000F1F3F0F0F0F0F0F0B0B2F3F0F0B0B1F7E
:1012F0001F0B0F0F0F1F2F0B0F0F0F0B0B1F1F0BB2
:101300002F3F3F2F1F0B0F0F0B0B2F2F0B0B0B0B19
:101310002F0B0B0F0F0F0F0B0B3F0B0B0B0B0B2F91
:101320000B0B0B3F0B0F0F0F0F0F0F0B0B2F0B0B9D
:101330000B0B0B2F1F1F1F2F0B0F0F0F0F0F0B0B65
:101340000B1F1F0B0B0B0B2F3F3F3F0F0B0F0F0FF5
:101350000F0F0B0B0B0F2F0B0B0B0B0B0B0B0B3F79
:101360002F1F0F0F0F0B0B0B1F2F3F0B1F2F3F0FAD
:101370000F0B0B0B0F2F1F0B0B0B3F2F1F0B0B3FDD
:101380002F0F0F0F0F0B0B0B0B1F1F1F0B3F1F1FE1
:101390000B0B0B1B1F1F0F0F0F0B0B0B0B0F1F1F2D
:1013A0001F2F1F0B0B0B0B0B1F2F0F0F0F0B0B0BFD
:1013B0000B0F0F1F3F0F0B0B0B0B0F0F1F2F0F0FE1
:1013C0000F0B0B0B0B0F2F3F0B2F0B0B0B0F0F0FDD
:1013D0000F1F2F2F1F0B0B0B0F2F1F0B0B3F0B0B79
:1013E0000F0F0F0F0F0F0B3F1B0B0B0F1F1F0B0FC1
:1013F0000F2F0B0B0F0F0F0F0F0F0B3F2F1F1F1F69
:101400001F0B0B0F0F1F1F1F0B0F0F0F0F0B0B3F90
:101410003F3F2F2F0B0B0B0F0F0F2F1F0B0F0F0F1C
:101420000B0B0B3D3D3D3D3939393D3D3D3D3E3E8C
:101430003E3E3E3E3E3E3E3E3E3E3E3E3E3E393DD2
:101440003E393E3E3E3E3E3E3E3E3E3E3E3E3E3EC1
:101450003E3E3D393D3D393D3E3E3E3E3E3E3E3EBA
:101460003E3E3E3E3E3E3E3E393D3E3D3D3D3E3EA5
:101470003E3E3E3E3E3E3E3E3E3E3E3E3E3D393997
:101480003D3D3D3D3E3E3E3D3D3D3D3E3E3E3E3E84
:101490003E3E3E3E3E3D3D3D3D3E3D3D3D39393D7E
:1014A0003E3E3E3E3E3E3E3E3E3E3E39393E3E396B
:1014B0003E3D3939393E3E3E3E3E3E3E3E3E3E3E5C
:1014C000393939393E3E3E3D393E3E3E3E3E3E3E56
:1014D0003E3E3E3E3E39393939393E3D3D39393D52
:1014E0003E3E3E3E3E3E3E3E3E3E3939393939393A
:1014F0003D3D39393939393D3E3E3E3E3E3E3E3E28
:101500003E3939393939393D3E3D3939393D3E3E2B
:101510003E3E3E3E3E3E3E3E3E3E3E3D39393D39FC
:1015200039393D3E3E3E3E3E3E3E3E3E3E3E3E3EE6
:101530003E39393E3E39393E3E3E3E3E3E3E3E3EDF
:101540003E3E3E3E3E3E3D393E3D3D393D3E3E3EC9
:101550003E3E3E3E3E3E3E3E3E3E3E3939393E3DBB
:10156000393D3D3E3E3E3E3E3E3E3E3E3E3E3E3EA2
:101570003E39393D3D3D393D3D393D3939393D3EB5
:101580003E3E3E3E3E3E393939393D393D3E3E3D97
:101590003939393E3E3E3E3E3E3E3E3D393939398F
:1015A00039393939393D3D393D3E3E3E3E3E3E3E7C
:1015B0003E3D392034342410203434241020343477
:1015C00024102034342410203434241020343424C3
:1015D00010203434241020343424102034342410C7
:1015E00020343424102034342410203434241020A7
:1015F0003434241020343424102034342410203483
:101600003424102034342410203434241020343472
:101610002410203434241020343424102034342472
:101620001020343424102034342410203434241076
:101630002034342410203434241020343424102056
:101640003434241020343424102034342410203432
:101650003424102034342410203434241020343422
:101660002410203434241020343424102034342422
:101670001020343424102034342410203434241026
:101680002034342410203434241020343424102006
:1016900034342410203434241020343424102034E2
:1016A00034241020343424102034342410203434D2
:1016B00024102034342410203434241020343424D2
:1016C00010203434241020343424102034342410D6
:1016D00020343424102034342410203434241020B6
:1016E0003434241020343424102034342410203492
:1016F0003424102034342410203434241020343482
:101700002410203434241020343424102034342481
:101710001020343424102034342410203434241085
:101720002034342410203434241020343424102065
:101730003434241020343424102034342410203441
:1017400034241018181818181818181818181818F9
:10175000181818181818181804181818181818181D
:10176000181818181818182C1818181818181818E5
:101770001818183C181818041818181818181818D9
:101780001818182C181818181818181818181818C5
:1017900018181818181818181818181818181818C9
:1017A00018181818181818181818181818181818B9
:1017B0001818182C181818180418181818181818A9
:1017C0001804181818182C3C2C1818181818181861
:1017D00018181818181818181818182C1818181875
:1017E0001818181818183C18181818181818181855
:1017F00018181818181818181818181818182C1855
:101800001818181818181818181818181818181858
:10181000182C202C18181818183C181818181818F4
:101820001818181818182C18181818181818181824
:101830002C181818181818181818181818182C1800
:1018400018181818181818182C1818181818181804
:10185000181818181818181818181818181804181C
:1018600018181818181818181818181818181818F8
:10187000181818181818183C1818181818181818C4
:1018800018181818181818181818181818181818D8
:1018900018182C18181818181818181818181818B4
:1018A00018181818182C182C181818181818181890
:1018B0002C1818181818041818182C181818181894
:1018C0001818181818181818181818181818181898
:1018D00018181800000000000000000000000000C0
:1018E00000000000000000000000003F00000000B9
:1018F00000000000000000000000000000003F3F6A
:101900003F00000000000000000000000000000098
:10191000003F003F003F000000000000000000000A
:10192000000000003F00003F00003F0000000000FA
:1019300000000000000000000000003F0000000068
:101940000000000000000000000000000000003F58
:101950000000000000000000000000000000000087
:101960000000003F00000000000000000000000038
:10197000000000000000003F000000000000000028
:1019800000000000000000000000003F0000000018
:101990000000000000000000000000000000003F08
:1019A0000000000000000000000000000000000037
:1019B0000000003F000000000000000000000000E8
:1019C000000000000000003F0000000000000000D8
:1019D00000003F00000000000000003F0000000089
:1019E000000000000000003F000000000000003F79
:1019F0000000000000000000000000003F000000A8
:101A00000000003F3F3F3F3F3F3F3F3F3F3F3F3FA3
:101A10003F3F000000000000000000000000000048
:101A2000000000003F000000000000000000000077
:101A3000000000000000003F000000000000000067
:101A4000000000000000000000003F000000000057
:101A50000000000000000000000000000000000086
:101A6000000000000000000000003A002A3A3A009E
:101A70000000000000000000000000000000292914
:101A800039292929000000000000000000000000A2
:101A9000003929392939393939000000000000009E
:101AA000000000000029393E392929392929000080
:101AB000000000000000000029393E3E3E3939296F
:101AC00039000000000000000000000000393E1551
:101AD0003E3E153E393A00000000000000000000C4
:101AE00000003E3E3E3E3E3E000000000000000082
:101AF000000000000000003E3E3E3E0000000000EE
:101B0000000000000000003F35353F2A3E3E2A3FDE
:101B100035353F0000000000000000003F35353F34
:101B20002A2A3F35353F0000000000000000000079
:101B30003E3E35353A3A35353F3E00000000000064
:101B4000000000003E3E3535353535353E3E00005F
:101B500000000000000000003535353535353535DD
:101B60003535000000000000000000003E3E39391D
:101B70003F3F39393E3E00000000000000000000F9
:101B800000003F393535393F0000000000000000FB
:101B90000000000000003F3E39353E3F00000000DD
:101BA000000000000000000000003F3F00003F3F39
:101BB00000000000000000000000000000003939B3
:101BC00000003939000000000000000000000000A3
:101BD0000000353500003535000000000000000031
:101BE00000000000003939350000353939000000A7
:101BF000000000000000000000003A002A3A3A000D
:101C00000000000000000000000000000000292982
:101C10003929292900000000000000000000000010
:101C2000003929392939393939000000000000000C
:101C300000000000002939393929293929290000F3
:101C400000000000000000002939393939393929EC
:101C500039000000000000000000000000393929B0
:101C600029293939393A000000000000000000003D
:101C7000000039393929393900000000000000001E
:101C80000000000000000039393E3900000000006B
:101C9000000000000000003F35353F2A2A2A2A3F75
:101CA00035353F0000000000000000003F35353AA8
:101CB0003F3F3A35353F00000000000000000000C3
:101CC0003E3E3535353535353F3E000000000000DD
:101CD000000000003E3E3535353535353E3E0000CE
:101CE000000000000000000035353535353535354C
:101CF0003535000000000000000000003E3E39398C
:101D0000393A39393E3E0000000000000000000072
:101D100000003F3F00003F3F0000000000000000C7
:101D20000000000000003F3F00003F3F00000000B7
:101D3000000000000000000000003F3F00003F3FA7
:101D40000000000000000000000000000000393921
:101D50000000393900000000000000000000000011
:101D6000000035350000353500000000000000009F
:101D70000000000000353535000035353500000025
:101D8000000000000000000000003A002A3A3A007B
:101D900000000000000000000000000000002929F1
:101DA000392929290000000000000000000000007F
:101DB000003929392939393939000000000000007B
:101DC00000000000002939293929293E2900000096
:101DD0000000000000000000293929393E39393E51
:101DE0000000000000000000000000000039293958
:101DF0003E3E3E3E3E0000000000000000000000AD
:101E00000000393E3E3E3E3E000000000000000063
:101E1000000000000000003E3E3E3E0000000000CA
:101E200000000000000000000000003F3F3F3F00B6
:101E30000000000000000000000000000000003F63
:101E40003E3E3F00000000000000000000000000D7
:101E50000000003E3E3E3500000000000000000093
:101E60000000000000003E3E3E35353E0000000010
:101E70000000000000000000003E353E35353535DD
:101E80003E0000000000000000000000003E3E3563
:101E90003535353E3E000000000000000000000027
:101EA000000000353535350000000000000000005E
:101EB00000000000000000003F3F000000000000A4
:101EC00000000000000000000000003F3F3F3F0016
:101ED00000000000000000000000000000003F3F84
:101EE0003F3F3F3F000000000000000000000000F6
:101EF0000039353F00003F350000000000000000C1
:101F000000000000000039390000393939000000B4
:101F100000000000000000000000003A3A2A003AE9
:101F2000000000000000000000000000000029295F
:101F300029392929000000000000000000000000ED
:101F400000393939392939293900000000000000E9
:101F50000000000000293E29293929392900000004
:101F6000000000000000000000003E39393E392921
:101F7000392900000000000000000000003E3E3E45
:101F80003E3E39293900000000000000000000003A
:101F900000003E3E3E3E3E390000000000000000D2
:101FA000000000000000003E3E3E3E000000000039
:101FB00000000000000000000000003F3F3F3F0025
:101FC0000000000000000000000000000000003FD2
:101FD0003E3E3F0000000000000000000000000046
:101FE000000000353E3E3E00000000000000000002
:101FF0000000000000003E35353E3E3E000000007F
:102000000000000000000000003E353535353E354B
:102010003E0000000000000000000000003E3E35D1
:102020003535353E3E000000000000000000000095
:1020300000000035353535000000000000000000CC
:1020400000000000000000003F3F00000000000012
:1020500000000000000000000000003F3F3F3F0084
:1020600000000000000000000000000000003F3FF2
:102070003F3F3F3F00000000000000000000000064
:102080000000353F00003F3539000000000000002F
:102090000000000000393939000039390000000023
:1020A0000000000000000000000000000000000030
:1020B0000000000000000000000000000000000020
:1020C0000000000000000000000000000000000010
:1020D0000000000000000000000000000000000000
:1026E0000000000C0C0C0C0C0C0C0C0C0C00000072
:1026F000000000000000000C0C0C0C0C0C0C0C0C6E
:102700000C000000000000000000000C0C0C0C0C81
:102710000C0C0C0C0C000000000000000000000C71
:102720000C0C0C0C0C0C0C0C0C000000000000003D
:102730000000000C0C0C0C0C0C0C0C0C0C00000021
:10274000000000000000000C0C0C0C0C0C0C0C0C1D
:102750000C000000000000000000000C0C0C0C0C31
:102760000C0C0C0C0C000000000000000000000C21
:102770000C0C0C0C0C0C0C0C0C00000000000000ED
:102780000000000C0C0C0C0C0C0C0C0C0C000000D1
:10279000000000000000000C0C0C0C0C0C0C0C0CCD
:1027A0000C0000000000000000000000000000001D
:1027B00000000000000C0C0C0C0C0C0C0C0C0C00A1
:1027C0000000000000000000000C0C0C0C0C0C0CB5
:1027D0000C0C0C000000000000000000000C0C0CB1
:1027E0000C0C0C0C0C0C0C00000000000000000095
:1027F000000C0C0C0C0C0C0C0C0C0C000000000061
:1028000000000000000C0C0C0C0C0C0C0C0C0C0050
:102810000000000000000000000C0C0C0C0C0C0C64
:102820000C0C0C000000000000000000000C0C0C60
:102830000C0C0C0C0C0C0C00000000000000000044
:10284000000C0C0C0C0C0C0C0C0C0C000000000010
:1028500000000000000C0C0C0C0C0C0C0C0C0C0000
:102860000000000000000000000C0C0C0C0C0C0C14
:102870000C0C0C0000000000000000000000000034
:102880000000000000000000000000000000000048
:102890000000000000000000000000000000000038
:1028A0000000000000000000000000000000000028
:1028B0000000000000000000000000000000000018
:1028C0000000000000000000000000000000000008
:1028D00000000000000000000000000000000000F8
:1028E00000000000000000000000000000000000E8
:1028F00000000000000000000000000000000000D8
:1029000000000000000000000000000000000000C7
:1029100000000000000000000000000000000000B7
:1029200000000000000000000000000000000000A7
:102930000000000000000000000000000000000097
:102940000000000000000000000000000000000087
:102950000000000000000000000000000000000077
:102960000000000000000000000000000000000067
:102970000000000000000000000000000000000057
:102980000000000000000000000000000000000047
:102990000000000000000000000000000000000037
:1029A0000000000000000000000000000000000027
:1029B0000000000000000000000000000000000017
:1029C0000000000000000000000000000000000007
:1029D00000000000000000000000000000000000F7
:1029E00000000000000000000000000000000000E7
:1029F00000000000000000000000000000000000D7
:102A000000000000000000101414151424152424E4
:102A100015242400000000000000001014141514F8
:102A200014151424152424000000000000000010D8
:102A300014141514141514141514240000000000A7
:102A400000000010252525252525252525252500DF
:102A50000000000000000010252A252A252A252A2A
:102A6000252A25000000000000000010252525254E
:102A70002525252525252500000000000000001043
:102A80001010151010151010151010000000000087
:102A90000000001014141514141514141514140047
:102AA0000000000000000010141415141415141474
:102AB0001514140000000000000000101414151478
:102AC0001415141415141400000000000000001068
:102AD0001414151414151414152A3F0000000000D6
:102AE000000000101414151414151414152A2A00CB
:102AF0000000000000000010141415141415141424
:102B000015141400000000000000001025252525E4
:102B100025252525252525000000000000000010A2
:102B2000252A252A252A252A252A250000000000F5
:102B300000000010252525252525252525252500EE
:102B400000000000000000101010151010151010EB
:102B500015101000000000000000001014141514DF
:102B600014151414151414000000000000000010C7
:102B70001414151414151414151414000000000076
:102B80000000001014141514141514141514140056
:102B900000000000003F3F003F3F3F3F3F3F3F3FBF
:102BA0003F3F3F3F3F3F3F003F3F003F3F3F3F3FB3
:102BB0003F3F3F3F3F3F3F3F3F3F3F3F3F000000E2
:102BC0000000000000000000000000000000003FC6
:102BD00000000000000000000000000000000000F5
:102BE000000000003F0000000000000000000000A6
:102BF000000000000000003F3F0000000000000057
:102C000000000000000000000000003F3F00000046
:102C10000000000000000000000000000000003F75
:102C20003F00000000000000000000000000000065
:102C30000000003F3F000000000000000000000016
:102C4000000000000000003F3F0000000000000006
:102C500000000000000000000000003F3F000000F6
:102C60000000000000000000000000000000003F25
:102C70003F00000000000000000000000000000015
:102C80000000003F3F0000000000000000000000C6
:102C9000000000000000003F3F00000000000000B6
:102CA00000000000000000000000003F3F000000A6
:102CB0000000000000000000000000000000000014
:102CC0003F000000000000000000000000000000C5
:102CD0000000003F000000000000000000000000B5
:102CE000000000000000003F3F0000000000000066
:102CF0000000000000000000000000003F3F003F17
:102D00003F3F3F3F3F3F3F3F3F3F3F3F3F3F3F0012
:102D1000003F3F003F3F3F3F3F3F3F3F3F3F3F3F41
:102D20003F3F3F3F3F3F3F3F3F3F3F3F3F3F3F3FB3
:102D30003F3F3F3F3F3F3F3F3F3F3F3F3F3F3F3FA3
:102D40003F3F3F3F3F3F3F3F3F3F3F0000000000CE
:102D50000000000000000000000000000000000073
:102D60000000000000000000000000000000000063
:102D70000000000000000000000000000000000053
:102D80000000000000000000000000000000000043
:102D90000000000000000000000000000000000033
:102DA0000000000000000000000000000000000023
:102DB0000000000000000000000000000000000013
:102DC0000000000000000000000000000000000003
:102DD00000000000000000000000000000000000F3
:102DE00000000000000000000000000000000000E3
:102DF00000000000000000000000000000000000D3
:102E000000000000000000000000000000000000C2
:102E100000000000000000000000000000000000B2
:102E200000000000000000000000000000000000A2
:102E30000000000000000000000000000000000092
:102E40000000000000000000000000000000000082
:102E50000000000000000000000000000000000072
:102E60000000000000000000000000000000000062
:102E70000000000000000000000000000000000052
:102E800000000000000000000000003F3F3F3F3F07
:102E90003F3F3F3F3F3F3F3F3F3F3F3F3F3F3F3F42
:102EA0003F3F3F3F3F3F3F3F3F3F3F3F3F3F3F3F32
:102EB0003F3F3F3F3F3F3F3F3F3F3F3F3F3F3F3F22
:102EC0003F3F003F3F00003F3F3F3F3F3F3F3F3FCF
:102ED0003F3F3F3F3F3F3F003F3F000000000000BB
:102EE000000000000000000000000000003F3F0064
:102EF00000000000000000000000000000000000D2
:102F000000003F0000000000000000000000000082
:102F100000000000003F0000000000000000000072
:102F20000000000000000000003F3F000000000023
:102F3000000000000000000000000000003F3F0013
:102F40000000000000000000000000000000000081
:102F5000003F3F00000000000000000000000000F3
:102F600000000000003F3F000000000000000000E3
:102F70000000000000000000003F3F0000000000D3
:102F8000000000000000000000000000003F3F00C3
:102F90000000000000000000000000000000000031
:102FA000003F3F00000000000000000000000000A3
:102FB00000000000003F3F00000000000000000093
:102FC0000000000000000000003F3F000000000083
:102FD000000000000000000000000000003F3F0073
:102FE00000000000000000000000000000000000E1
:102FF000003F000000000000000000000000000092
:103000000000000000003F00000000000000000081
:103010000000000000000000003F3F3F3F3F3F3FF7
:103020003F3F3F3F3F3F3F3F3F3F3F003F3F003F2E
:103030003F3F3F3F3F3F3F3F3F3F3F3F3F3F003FDF
:103040003F00000011241FBECFEFD0E2DEBFCDBF96
:1030500012E0A0E0B1E0EEE7FDE500E00BBF02C04A
:1030600007900D92AC3EB107D9F713E0ACEEB2E099
:1030700001C01D92A431B107E1F70E941A1E0C9401
:10308000BD2E0C940000992787FD9095AC014073EC
:103090005070542F4427550F550F9C012C703070E1
:1030A0003695322F222737952795422B532B476E83
:1030B00059638370907023E0880F991F2A95E1F778
:1030C000482B592BCA01089593E89093B00091E0E2
:1030D0009093B1008093B30008959C0190930103F5
:1030E0008093000386E390E0809300402115310532
:1030F00089F480EF90E09093FD028093FC0280E4DD
:1031000091E09093FF028093FE0288E490E0809328
:1031100000413BC02130310589F480E491E0909377
:10312000FD028093FC0280EF90E09093FF02809379
:10313000FE0288EE90E08093004127C022303105E6
:1031400089F480EF90E09093FD028093FC0280E48C
:1031500091E09093FF028093FE0288E890E08093D4
:10316000004113C02330310581F480E491E0909355
:10317000FD028093FC0280EF90E09093FF02809329
:10318000FE0288E290E0809300418AE290E0809322
:10319000004020E030E030930041209300418091D6
:1031A000FC029091FD0201979093004180930041B1
:1031B0008BE290E0809300403093004120930041E7
:1031C0008091FE029091FF020197909300418093BD
:1031D000004108951F93682F873718F010E066E7C5
:1031E00011C0883010F468E00CC08D3310F010E08E
:1031F00009C08F3110F011E005C0803110F012E0ED
:1032000001C013E081EB90E08093004010930041F7
:1032100070E0882777FD8095982F0E94D0279B012A
:10322000AC0160E070E080EF94E40E94F4260E941C
:103230001E2570E002C0759567951A95E2F76093B8
:1032400000411F9108950F931F93DF93CF93CDB744
:10325000DEB728970FB6F894DEBF0FBECDBF298327
:103260003A834B835C836D837E838F8398876981E8
:103270007A812B813C81ED81FE814F8158858AE2E4
:1032800090E0809300407093004160930041309340
:103290000041209300418BE290E080930040F09346
:1032A0000041E093004150930041409300418CE283
:1032B00090E0809300402F5F3F4F261B370B4F5FFE
:1032C0005F4F4E1B5F0B24173507C8F4842F8770A0
:1032D00090E0829FB001839F700D929F700D11242A
:1032E00083E0569547958A95E1F7842F90E0829F79
:1032F000F001839FF00D929FF00D112418C0822FD2
:10330000877090E0849FB001859F700D949F700D31
:103310001124B3E036952795BA95E1F7822F90E016
:10332000849FF001859FF00D949FF00D1124862F4E
:10333000877005C01093004100930041815088239D
:10334000C9F7CB01A3E096958795AA95E1F78E0F73
:103350009F1F21C010930041009300411093004132
:1033600000930041109300410093004110930041ED
:1033700000930041109300410093004110930041DD
:1033800000930041109300410093004110930041CD
:103390000093004101970097E9F628960FB6F8943C
:1033A000DEBF0FBECDBFCF91DF911F910F9108956A
:1033B000EF92FF920F931F93DF93CF93CDB7DEB7BA
:1033C00028970FB6F894DEBF0FBECDBF29833A838E
:1033D0004B835C836D837E838F83988729813A81B9
:1033E000AB81BC81ED80FE806F8178858AE290E0C0
:1033F000809300403093004120930041B0930041FE
:10340000A09300418BE290E080930040F092004155
:10341000E092004170930041609300418CE290E0A3
:10342000809300400FC0F801819191918F0190939A
:103430000041809300414F5F5F4F6417750798F715
:103440002F5F3F4FA217B30710F0A701F6CF2896C2
:103450000FB6F894DEBF0FBECDBFCF91DF911F91A5
:103460000F91FF90EF900895EF92FF920F931F93AB
:10347000CF93DF9379012AE230E0209300409093CC
:103480000041809300410197840F951F9093004164
:10349000809300418BE290E0809300407093004164
:1034A0006093004161507040640F751F709300413C
:1034B000609300418CE290E080930040449F800143
:1034C000459F100D549F100D1124C0E0D0E00CC09A
:1034D000F701EC0FFD1FE4918E2F0E94431890938B
:1034E0000041809300412196C017D10788F3DF91F6
:1034F000CF911F910F91FF90EF9008952F923F92DF
:103500004F925F926F927F928F929F92AF92BF92F3
:10351000CF92DF92EF92FF920F931F93CF93DF939F
:103520006C012901EB01AA24BB2421973E01640E02
:10353000751E21960894C108D1084601840E951E77
:103540000894C11CD11C9CE2292E312C30C08AE287
:1035500090E080930040109300410093004110934D
:10356000004100930041EBE2F0E0E0930040D09393
:103570000041C0930041D0930041C093004120928C
:103580000040F7018491882331F00E944318909302
:103590000041809300410F5F1F4F0894A11CB11C94
:1035A0000894E11CF11C8016910688F621966C1691
:1035B0007D0628F07201EA0CFB1C8601F4CFDF9136
:1035C000CF911F910F91FF90EF90DF90CF90BF9020
:1035D000AF909F908F907F906F905F904F903F90B3
:1035E0002F9008952F923F924F925F926F927F9209
:1035F0008F929F92AF92BF92CF92DF92EF92FF9203
:103600000F931F93DF93CF93CDB7DEB762970FB6BB
:10361000F894DEBF0FBECDBF9E838D8358874F8346
:103620003A8729871C870B878E2D5A010894A10899
:10363000B1082E2D28702C833E2D30713B834E2DEA
:1036400040764A83807889837B01250180E090E081
:1036500088249924B5016E0D7F1D7E876D87AD810D
:10366000BE81AA0DBB1DB88BAF8791C00D811E8195
:103670001C0169847A84680E791E65011A8A198A88
:1036800073C0BA81B03421F4920189899A890FC03C
:10369000EA81E03619F49601C20109C0FA81F032DC
:1036A00021F029893A89C40102C0C60194014B81E5
:1036B000403121F4B501681B790BCB017C81783056
:1036C00021F4D501A21BB30B9D01EAE2F0E0E093E7
:1036D000004010930041009300411093004100937B
:1036E00000414BE250E040930040F0920041E092F4
:1036F0000041F0920041E09200416CE270E0609382
:103700000040F3014491442311F16F817885869F35
:10371000F001879FF00D969FF00D1124E20FF31F2B
:103720008B859C85E80FF91F8491882319F0998176
:10373000903831F48491882351F4A981A03839F468
:10374000842F0E94431890930041809300410F5FA3
:103750001F4FE989FA893196FA8BE98B0894611C2D
:10376000711C0894C108D10889899A89820D931D1A
:103770002F8538892017310708F083CF0894E11C82
:10378000F11C0894811C911C0894410851084D8536
:103790005E854E155F0508F069CF62960FB6F89406
:1037A000DEBF0FBECDBFCF91DF911F910F91FF9074
:1037B000EF90DF90CF90BF90AF909F908F907F90D1
:1037C0006F905F904F903F902F9008950F931F93AD
:1037D000DF93CF93CDB7DEB728970FB6F894DEBF4F
:1037E0000FBECDBF10920303109202031092050387
:1037F000109204032091FC023091FD0221503040D0
:103800008091FE029091FF0201971A821982422F45
:103810003C832B831E821D8298878F83009108032F
:103820001091090329813A815C816D817E8198859F
:103830000E94231928960FB6F894DEBF0FBECDBFA5
:10384000CF91DF911F910F91089586E080937500CD
:1038500080E8809374003F9A249A80ED97E0019766
:10386000F1F7479880E49CE90197F1F7479A80EBDC
:1038700094E028EC30E0F9013197F1F70197D9F79E
:1038800088E290E08093004081E190E080930040E6
:1038900088E592E028EC30E0F9013197F1F70197E3
:1038A000D9F741E050E08BEC90E0809300404093EA
:1038B000004180EC90E08093004088E096E2909395
:1038C00000418093004120E130E081EC90E0809362
:1038D00000402093004185EC90E0809300408EE30F
:1038E00095E3909300418093004125EB30E087EC15
:1038F00090E0809300402093004186EF90E0809319
:1039000000404093004180E090E09093004180931C
:10391000004125E530E08AE390E080930040209369
:10392000004181E090E00E946D180E94E61B109219
:1039300003031092020310920503109204031092E5
:103940000903109208038FEF9FEF90930703809372
:10395000060389E290E08093004084EF91E028EC38
:1039600030E0F9013197F1F70197D9F780E090E065
:1039700025E330E0209300408093004180916A006D
:10398000806280936A002C9A0895CF92DF92EF9222
:10399000FF920F931F93CF93DF93982F40910203D1
:1039A000509103038A010C5F1F4F20910403309153
:1039B00005038A30A9F41092030310920203285FD2
:1039C0003F4F30930503209304038091FE029091B2
:1039D000FF022817390708F489C00E94E61B86C039
:1039E00080528F3508F082C0E901279685E0980261
:1039F000F0011124E850F0408BE290E08093004009
:103A00003093004120930041D0930041C093004186
:103A10007AE2C72ED12C6CE2E62EF12C29C0C0929E
:103A20000040509300414093004150930041409327
:103A30000041E0920040B491B901A1E013C08A2F87
:103A40008B2329F0809106039091070304C0809195
:103A500008039091090390930041809300416F5FA8
:103A60007F4FAA0FC617D70750F731964F5F5F4FAA
:103A700004171507A0F68AE290E080930040509367
:103A800000414093004150930041409300418CE23B
:103A900090E0809300400AC0809108039091090350
:103AA00090930041809300412F5F3F4FC217D3078F
:103AB00098F7809102039091030306969093030375
:103AC000809302032091FC023091FD02821793073C
:103AD00068F0109203031092020380910403909106
:103AE000050308969093050380930403DF91CF911B
:103AF0001F910F91FF90EF90DF90CF9008951F934B
:103B0000CF93DF93EC0110E003C00E94C51C1F5F40
:103B1000FE01E10FF11D80818823B9F7DF91CF917C
:103B20001F9108951F93CF93DF93EC0170930303CC
:103B300060930203509305034093040310E003C015
:103B40000E94C51C1F5FFE01E10FF11D80818823CB
:103B5000B9F7DF91CF911F910895EF92FF920F93E4
:103B60001F93CF93DF93C0E0D0E0E0E8EE2EF12C7E
:103B7000082F10E0C7010C2E02C0959587950A9476
:103B8000E2F780239123892B11F081E301C08EE2BB
:103B90000E94C51C2196C830D10561F7DF91CF91F5
:103BA0001F910F91FF90EF900895FC01849108956B
:103BB000FC0125913491C9010895FC018081828323
:103BC000818183830895FA01EE0FFF1FE40FF51F33
:103BD000E20FF11D90E0860F911D20E132E0AC0173
:103BE000429FC001439F900D529F900D1124E80FFA
:103BF000F91FED58FD4F25913491C9010895FA013F
:103C0000EE0FFF1FE40FF51FE20FF11D90E0860F8E
:103C1000911D20E132E0AC01429FC001439F900D15
:103C2000529F900D1124E80FF91FED58FD4FE491BC
:103C30008E2F0895CF92DF92EF920F931F93CF9321
:103C4000DF9380E880936100109261000E94251C40
:103C50000E94F8248DE30E94EA1881E090E00E941F
:103C60006D1889E10E946418279A2F98109280009D
:103C700088E0809381008091810081608093810041
:103C800080916F00826080936F0010929900109273
:103C9000980080E190E00E94E12A80930A039093CB
:103CA0000B03C3E8D4E0CC24DD2484E190E0B6012A
:103CB00044E150E023E932E18E01F0E2EF2E0E9470
:103CC000F21A88E290E0B60144E150E023E932E1E3
:103CD000E0E6EE2E0E94F21A8CE390E0B60144E199
:103CE00050E023E932E1B0E4EB2E0E94F21A80E5C5
:103CF00090E0B60144E150E023E932E1A8E0EA2E89
:103D00000E94F21A84E690E0B60144E150E023E913
:103D100032E1F0E1EF2E0E94F21A8CE890E0B60159
:103D200044E150E023E932E1E0EAEE2E0E94F21A8B
:103D300080EA90E0B60144E150E023E932E1B0EEE0
:103D4000EB2E0E94F21A84EB90E0B60144E150E0C1
:103D500023E932E1A0ECEA2E0E94F21A88EC90E00E
:103D6000B60144E150E023E932E1F8E8EF2E0E9489
:103D7000F21A8CED90E0B60144E150E023E932E123
:103D8000E0E9EE2E0E94F21A84E190E0C80ED91EFE
:103D9000C057DE4F9CE8C916D10409F086CF81E0F8
:103DA00090E0DF91CF911F910F91EF90DF90CF9036
:103DB00008952F923F924F925F926F927F928F92CF
:103DC0009F92AF92BF92CF92DF92EF92FF920F93AA
:103DD0001F93DF93CF9300D000D00F92CDB7DEB703
:103DE000482E562E742E622E622F70E08091D501DF
:103DF000841719F020E030E008C020E030E0809126
:103E0000D601861511F421E030E02D83CB01F4E0DA
:103E1000880F991FFA95E1F7E72DE80F83E0E89FF7
:103E2000D0011124842D90E0850D911D20E132E018
:103E3000AC01429FC001439F900D529F900D1124F1
:103E4000A80FB91FAD014D585D4FFA014491CD0146
:103E50008C589D4FFC015491AB58BD4FFD01A4916E
:103E6000252F30E08A2F8F718983C901837090706C
:103E7000880F991F880F991FA295A695A770A82B48
:103E8000AA832C77307035952795359527952B8308
:103E9000842F8F70551F5527551F852B8C83E42E3B
:103EA000FF24F0E6EF22FF2484E1789E50011124E4
:103EB00084E190E0689F6001699FD00C789FD00CEE
:103EC000112400E010E080E9882E81E0982EB5E012
:103ED000F694E794BA95E1F7A0E42A2EA6E03A2EEC
:103EE000E1E0F0E0EC0FFD1FE00FF11F808188237F
:103EF00081F090E0889D9001899D300D989D300D56
:103F000011242D58304FC501B60144E150E00E9404
:103F10007E1A8091B60190E08017910711F580918B
:103F2000B3018415F1F48091B4018515D1F4809129
:103F3000B1018715B1F48091B201861591F4809199
:103F4000B70190E0889D9001899D300D989D300DBE
:103F500011242D51394DC501B60144E150E00E94B4
:103F60007E1A0E151F0509F051C08091AD01841510
:103F700059F58091AE01851539F58091A901871514
:103F800019F58091AA018615F9F48091AF0190E0AE
:103F9000889D9001899D300D989D300D1124809150
:103FA000B00190E0AC01429DC001439D900D529D37
:103FB000900D1124280F391F2D59354EC501B6011A
:103FC00044E150E00E947E1A5D815523F9F0809112
:103FD000DB0190E0889D9001899D300D989D300D0A
:103FE00011248091DC0190E0FC01E29DC001E39D81
:103FF000900DF29D900D1124280F391F2D59354E2B
:10400000C501B60144E150E00E947E1A0F5F1F4FC8
:104010000430110509F064CF0F900F900F900F90AE
:104020000F90CF91DF911F910F91FF90EF90DF9054
:10403000CF90BF90AF909F908F907F906F905F9048
:104040004F903F902F900895CF93DF93EC014A81DA
:104050008881481721F49B818981981729F08C81E8
:104060006D812B810E94D91E8C816D8148812981AF
:104070000E94D91EDF91CF910895EF92FF920F9386
:104080001F93E82EF62E00E00CC08E2D6F2D402FD2
:10409000212F0E94D91E1F5F1B30B9F70F5F00311F
:1040A00011F010E0F2CF1F910F91FF90EF90089563
:1040B000CF93DF93C0E0D0E0CE016CED70E044E13F
:1040C00050E023E23DE20E94341A649681E0C0345D
:1040D000D80791F780E090E06CED70E044E150E0AB
:1040E00023E93BE20E94341A8CE291E06CED70E02F
:1040F00044E150E023EB3EE20E94341ADF91CF917D
:10410000089580EE9FEF909307038093060300D0FD
:1041100000D000D0EDB7FEB7319680910A039091A0
:104120000B03ADB7BEB712969C938E93119780E0A8
:1041300091E0938382838BEC91E0958384830E944A
:10414000E62B8DB79EB706960FB6F8949EBF0FBEAE
:104150008DBF80910A0390910B0363E070E04EEDF8
:1041600050E00E94921D8FEF9FEF90930703809382
:104170000603ADB7BEB71C970FB6F894BEBF0FBE0F
:10418000ADBFEDB7FEB7319680910A0390910B0356
:1041900012969C938E93119785E091E0938382838E
:1041A0008091C001848315828091EE029091EF028C
:1041B000978386838091C7019091C80191878087FA
:1041C0008091C9019091CA01938782870E94E62B52
:1041D0008DB79EB70C960FB6F8949EBF0FBE8DBFDD
:1041E00080910A0390910B0362E370E04EED50E082
:1041F0000E94921DADB7BEB750970FB6F894BEBFE0
:104200000FBEADBFEDB7FEB7319680910A03909116
:104210000B0312969C938E93119785E291E0938302
:1042200082838091C101848315828091C20186833B
:1042300017828091C301808711868091C401828793
:1042400013868091C501848715868091C601868773
:1042500017860E94E62B8DB79EB740960FB6F8944E
:104260009EBF0FBE8DBF80910A0390910B0363E048
:1042700070E046EE50E00E94921D08958DB79EB703
:1042800008970FB6F8949EBF0FBE8DBFEDB7FEB76F
:10429000319680910A0390910B03ADB7BEB7129689
:1042A0009C938E93119781E691E093838283809112
:1042B000D501848315828091D601868317820E945E
:1042C000E62B8DB79EB708960FB6F8949EBF0FBE2B
:1042D0008DBF80910A0390910B0360E070E040E095
:1042E00050E00E94921DADB7BEB718970FB6F89474
:1042F000BEBF0FBEADBFEDB7FEB7319680910A03CA
:1043000090910B0312969C938E9311978AE791E0FC
:10431000938382838091D501848315828091D60115
:10432000868317820E94E62B8DB79EB708960FB63C
:10433000F8949EBF0FBE8DBF80910A0390910B032E
:1043400060E070E048E050E00E94921DADB7BEB75B
:1043500018970FB6F894BEBF0FBEADBFEDB7FEB74E
:10436000319680910A0390910B0312969C938E9341
:10437000119783E991E0938382838091D9018483AB
:1043800015828091DA01868317820E94E62B8DB711
:104390009EB708960FB6F8949EBF0FBE8DBF809152
:1043A0000A0390910B0360E070E040E150E00E944E
:1043B000921D0895BF92CF92DF92EF92FF920F93DA
:1043C0001F93CF93DF9300E0E8ECEE2EF12C73E027
:1043D000B72EDD24D39462E0C62EC0E1D2E084EF94
:1043E00091E0F7013197F1F70197D9F70E94B624D0
:1043F000892B11F410E00EC08091D5018093D70174
:104400009091D6019093D80181508093D501B092BC
:10441000DB0111E00E948724892B71F08091D50186
:104420008093D7019091D6019093D8018F5F8093AC
:10443000D501C092DB0111E00E942924892B71F083
:104440008091D5018093D7018091D6018093D801C6
:1044500081508093D601D092DB0111E00E94582454
:10446000892B71F08091D5018093D7018091D6017D
:104470008093D8018F5F8093D6011092DB0111E009
:104480000E94FA23892B41F08091EC026091ED02A9
:104490000E943D200E945820112309F4A0CF609172
:1044A000DD01802F0E94772A992309F07BC090912B
:1044B000AD018091D901981709F074C09091AE01B7
:1044C0008091DA01981709F06DC09091A90190933D
:1044D000AB018091AA018093AC018091D701891B27
:1044E00018162CF49F5F9093A901C092AF0187FF2B
:1044F00007C08091A90181508093A901B092AF01BA
:104500008091AA019091D801981B19162CF48F5F05
:104510008093AA011092AF0197FF07C08091AA0172
:1045200081508093AA01D092AF018091AA0190E0BE
:1045300054E0880F991F5A95E1F72091A901820F45
:10454000911DFC01EE0FFF1FE80FF91F2091AE0136
:104550008091AD0190E0820F911D9C012C9FC001C4
:104560002D9F900D3C9F900D1124E80FF91FED58E1
:10457000FD4FE4918E2F90E08071907034E095951E
:1045800087953A95E1F7882349F08091AB018093B4
:10459000A9018091AC018093AA0104C089EA91E04D
:1045A0000E9424201091DD018091D501803110F40A
:1045B00090E008C01092D5018091D9018F5F80935F
:1045C000D90191E08091D6018B3040F01092D60154
:1045D0008091DA018F5F8093DA0102C0992341F064
:1045E0008091D9016091DA010E943D200E945820FB
:1045F0008091D60190E024E0880F991F2A95E1F779
:104600002091D501820F911DFC01EE0FFF1FE80FD5
:10461000F91F2091DA018091D90190E0820F911D5C
:104620009C012C9FC0012D9F900D3C9F900D11244B
:10463000E80FF91FED58FD4FE4918E2F90E0807147
:104640009070A4E095958795AA95E1F7882349F0A5
:104650008091D7018093D5018091D8018093D601B4
:1046600004C085ED91E00E942420802F90E0019607
:10467000612F70E00E94832A082F0E9481200E94EF
:104680003E21ADCE00D000D000D0EDB7FEB73196C0
:1046900020910A0330910B03ADB7BEB712963C933D
:1046A0002E93119726EA31E0338322839583848306
:1046B0000E94E62B8DB79EB706960FB6F8949EBF64
:1046C0000FBE8DBF80910A0390910B030E947F1D46
:1046D000089540910E0350910F0320E030E0FA015D
:1046E000E20FF31F80819181892B19F021E030E0E6
:1046F00007C02E5F3F4F2A30310589F720E030E0B8
:10470000C9010895CF93DF9340910C0350910D039D
:10471000C0910E03D0910F0320E030E0FA01E20FC8
:10472000F31FDE01A20FB31F8D919C9191838083B3
:104730002E5F3F4F2A30310589F78CB190E080958C
:10474000909580789070998788878CB190E080955B
:10475000909588709070998388838CB190E0809553
:104760009095847090709B838A838CB190E0809543
:104770009095807290709F838E838CB190E080952D
:104780009095807190709D838C830E946923909393
:10479000FB028093FA02DF91CF910895AC01440FA0
:1047A000551FE0910E03F0910F03E40FF51F808178
:1047B0009181892B19F420E030E00FC020E0E091D6
:1047C0000C03F0910D03E40FF51F80819181892B7B
:1047D00009F021E081E0282730E0C9010895880F21
:1047E000991FE0910E03F0910F03E80FF91F8081EC
:1047F00091810895679919C08091F0029091F1021A
:10480000892B99F48091FA029091FB02892B69F42B
:1048100081E090E09093F1028093F0029093FB028C
:104820008093FA0221E030E012C0679B0EC08091B5
:10483000F0029091F102892B41F01092F102109256
:10484000F0021092FB021092FA0220E030E0C9015F
:104850000895329919C08091F2029091F302892B48
:1048600099F48091FA029091FB02892B69F481E01E
:1048700090E09093F3028093F2029093FB02809376
:10488000FA0221E030E012C0329B0EC08091F202A9
:104890009091F302892B41F01092F3021092F202F0
:1048A0001092FB021092FA0220E030E0C901089554
:1048B000349919C08091F4029091F502892B99F4F2
:1048C0008091FA029091FB02892B69F481E090E0DB
:1048D0009093F5028093F4029093FB028093FA0286
:1048E00021E030E012C0349B0EC08091F402909120
:1048F000F502892B41F01092F5021092F402109209
:10490000FB021092FA0220E030E0C90108953399C9
:1049100019C08091F6029091F702892B99F4809149
:10492000FA029091FB02892B69F481E090E0909368
:10493000F7028093F6029093FB028093FA0221E043
:1049400030E012C0339B0EC08091F6029091F702C6
:10495000892B41F01092F7021092F6021092FB029E
:104960001092FA0220E030E0C9010895359919C08B
:104970008091F8029091F902892B99F48091FA02C2
:104980009091FB02892B69F481E090E09093F90209
:104990008093F8029093FB028093FA0221E030E0CA
:1049A00012C0359B0EC08091F8029091F902892BBC
:1049B00041F01092F9021092F8021092FB0210924C
:1049C000FA0220E030E0C9010895359909C08091CC
:1049D000FA029091FB02892B19F421E030E006C025
:1049E0001092FB021092FA0220E030E0C901089513
:1049F0006F98779A87B1837C87B988B18C6388B9BF
:104A00006F98779A87B1837C87B988B18C6388B9AE
:104A1000EAE6F0E08081856880838AE090E00E9489
:104A2000E12A80930C0390930D038AE090E00E94AA
:104A3000E12A80930E0390930F030895EF92FF9263
:104A40000F931F937B018C0120E030E040E05FE496
:104A50000E94A02788238CF0C801B70120E030E035
:104A600040E05FE40E9496260E942E289B01AC0144
:104A7000205030404040504806C0C801B7010E9455
:104A80002E289B01AC01B901CA011F910F91FF9023
:104A9000EF900895A0E0B0E0E0E5F5E20C94AA2ADA
:104AA000DC012B01FA019C91923008F439C1EB0131
:104AB0008881823008F433C1943069F4843009F07D
:104AC0002FC111969C9111978981981709F428C1DB
:104AD000AEEDB1E025C1843009F421C18230A9F4E2
:104AE000923009F01DC19A01AD0188E0EA010990F8
:104AF000AE01E90109929E018150C1F7E20189816D
:104B000011969C918923818308C1923009F407C1D1
:104B100012962D903C901397EB018A819B811496FD
:104B2000AD90BD90CD90DC901797EC80FD800E810C
:104B30001F819101281B390BB90137FF04C066277B
:104B40007727621B730B603271050CF061C012167F
:104B500013066CF537014801062E04C0969487941D
:104B6000779467940A94D2F721E030E040E050E077
:104B700004C0220F331F441F551F6A95D2F72150DE
:104B80003040404050402E213F21402351232115E9
:104B900031054105510521F021E030E040E050E0D1
:104BA00079018A01E628F728082919293CC0232B16
:104BB000D1F1260E371E35014601062E04C096940B
:104BC0008794779467940A94D2F721E030E040E02C
:104BD00050E004C0220F331F441F551F6A95D2F7BF
:104BE00021503040404050402A213B214C215D2142
:104BF000211531054105510521F021E030E040E06B
:104C000050E059016A01A628B728C828D9280BC046
:104C1000821593052CF01C01AA24BB24650103C056
:104C2000EE24FF24870111969C91D20111968C915C
:104C3000981709F445C0992339F0A80197012A195A
:104C40003B094C095D0906C0A60195012E193F09D3
:104C5000400B510B57FD08C01182338222822483FE
:104C60003583468357831DC081E08183338222824E
:104C700088279927DC01821B930BA40BB50B848337
:104C80009583A683B7830DC0220F331F441F551F82
:104C9000248335834683578382819381019793834D
:104CA00082832481358146815781DA01C9010197C8
:104CB000A109B1098F5F9F4FAF4FBF4328F30BC0CE
:104CC000918333822282EA0CFB1C0C1D1D1DE482A1
:104CD000F5820683178383E08083248135814681B2
:104CE000578157FF1AC0C901AA2797FDA095BA2F6F
:104CF00081709070A070B070569547953795279544
:104D0000822B932BA42BB52B84839583A683B78307
:104D100082819381019693838283DF0101C0D20156
:104D2000CD01CDB7DEB7E2E10C94C62AA0E2B0E037
:104D3000ECE9F6E20C94B62A69837A838B839C8330
:104D40002D833E834F835887E9E0EE2EF12CEC0E45
:104D5000FD1ECE010196B7010E94A6298E010F5EAD
:104D60001F4FCE010596B8010E94A6298A8991E0BD
:104D700089278A8BC701B801AE01475E5F4F0E9449
:104D80004A250E94D128A096E6E00C94D22AA0E2FF
:104D9000B0E0EDECF6E20C94B62A69837A838B835B
:104DA0009C832D833E834F835887F9E0EF2EF12CAF
:104DB000EC0EFD1ECE010196B7010E94A6298E01C0
:104DC0000F5E1F4FCE010596B8010E94A629C701AC
:104DD000B801AE01475E5F4F0E944A250E94D1286C
:104DE000A096E6E00C94D22AA8E1B0E0EAEFF6E261
:104DF0000C94B22A69837A838B839C832D833E83B0
:104E00004F835887B9E0EB2EF12CEC0EFD1ECE013E
:104E10000196B7010E94A6298E010F5E1F4FCE0199
:104E20000596B8010E94A6292985223008F47EC083
:104E30003989323010F4B8017CC08A859A89892773
:104E40008A87243011F0223031F4231709F06EC024
:104E50006EED71E06EC0343039F41D861E861F86FB
:104E6000188A1C861B8604C0323021F484E08987AE
:104E7000B7015FC02B853C858B899C89281B390B2A
:104E80003C872B87ED84FE840F851889AD88BE880A
:104E9000CF88D88CEA14FB040C051D0540F4EE0CF9
:104EA000FF1C001F111F215030403C872B8720E042
:104EB00030E040E050E080E090E0A0E0B0E460E06E
:104EC00070E0EA14FB040C051D0540F0282B392B7B
:104ED0004A2B5B2BEA18FB080C091D09B695A79510
:104EE00097958795EE0CFF1C001F111F6F5F7F4F7A
:104EF0006F31710531F7DA01C9018F779070A070B9
:104F0000B07080349105A105B10561F427FD0AC098
:104F1000E114F1040105110529F0205C3F4F4F4FCA
:104F20005F4F20782D873E874F87588BBE01675F84
:104F30007F4FCB010E94D1286896EAE00C94CE2ADC
:104F4000A8E1B0E0E6EAF7E20C94B62A69837A8336
:104F50008B839C832D833E834F83588789E0E82E83
:104F6000F12CEC0EFD1ECE010196B7010E94A62980
:104F70008E010F5E1F4FCE010596B8010E94A62933
:104F80008985823040F08989823028F0C701B801D4
:104F90000E941E2A01C08FEF6896E6E00C94D22A88
:104FA000A8E0B0E0E6EDF7E20C94B32A9B01AC0177
:104FB00083E08983DA01C9018827B7FD83959927A2
:104FC000AA27BB27B82E211531054105510519F433
:104FD00082E089833AC08823A9F0203080E0380736
:104FE00080E0480780E8580729F460E070E080E03E
:104FF0009FEC30C0EE24FF248701E21AF30A040B71
:10500000150B02C079018A018EE1C82ED12CDC82F9
:10501000CB82ED82FE820F831887C801B7010E9400
:10502000822801971816190684F4082E04C0EE0C85
:10503000FF1C001F111F0A94D2F7ED82FE820F831E
:105040001887C81AD90ADC82CB82BA82CE010196AF
:105050000E94D1282896E9E00C94CF2AACE0B0E079
:10506000E4E3F8E20C94BA2A69837A838B839C8305
:10507000CE010196BE016B5F7F4F0E94A6298D81F4
:10508000823061F1823050F1843021F48E818823A6
:1050900051F12EC02F81388537FD20C06E812F3110
:1050A00031051CF06623F9F023C08EE190E0821BED
:1050B000930B29853A854B855C8504C056954795A9
:1050C000379527958A95D2F76623B1F0509540958C
:1050D000309521953F4F4F4F5F4F0EC020E030E09D
:1050E00040E050E009C02FEF3FEF4FEF5FE704C013
:1050F00020E030E040E050E8B901CA012C96E2E03F
:105100000C94D62AEF92FF920F931F937B018C0190
:1051100080E0E81680E0F80681E0080780E01807E4
:1051200088F48FEFE816F1040105110531F028F03D
:1051300088E090E0A0E0B0E017C080E090E0A0E060
:10514000B0E012C080E0E81680E0F80680E00807D2
:1051500081E0180728F088E190E0A0E0B0E004C00A
:1051600080E190E0A0E0B0E020E230E040E050E0FC
:10517000281B390B4A0B5B0B04C016950795F79457
:10518000E7948A95D2F7F701EA51FE4F8081281BF8
:10519000310941095109C9011F910F91FF90EF9009
:1051A0000895DF92EF92FF920F931F93FC01E4802A
:1051B000F58006811781D1808081823048F480E0BB
:1051C00090E0A0E1B0E0E82AF92A0A2B1B2BA5C049
:1051D000843009F49FC0823021F4EE24FF2487013B
:1051E00005C0E114F1040105110519F4E0E0F0E057
:1051F00096C0628173819FEF623879070CF05BC0C3
:1052000022E83FEF261B370B2A3131052CF020E036
:1052100030E040E050E02AC0B801A701022E04C0EF
:1052200076956795579547950A94D2F781E090E077
:10523000A0E0B0E004C0880F991FAA1FBB1F2A95E9
:10524000D2F70197A109B1098E219F21A023B12393
:105250000097A105B10521F081E090E0A0E0B0E069
:105260009A01AB01282B392B4A2B5B2BDA01C901A0
:105270008F779070A070B07080349105A105B10552
:1052800039F427FF09C0205C3F4F4F4F5F4F04C0E8
:10529000215C3F4F4F4F5F4FE0E0F0E02030A0E057
:1052A0003A07A0E04A07A0E45A0710F0E1E0F0E076
:1052B00079018A0127C06038710564F5FB01E15866
:1052C000FF4FD801C7018F779070A070B070803405
:1052D0009105A105B10539F4E7FE0DC080E490E029
:1052E000A0E0B0E004C08FE390E0A0E0B0E0E80E02
:1052F000F91E0A1F1B1F17FF05C016950795F79487
:10530000E794319687E016950795F794E7948A9588
:10531000D1F705C0EE24FF248701EFEFF0E06E2FF8
:10532000679566276795902F9F77D794DD24D7944C
:105330008E2F8695492F462B582F5D29B701CA011C
:105340001F910F91FF90EF90DF900895FC01DB011A
:10535000408151812281622F6F7770E0221F2227C6
:10536000221F9381892F880F822B282F30E0991FCD
:105370009927991F11969C93119721153105A9F52D
:10538000411551056105710511F482E037C082E8CD
:105390009FEF13969C938E9312979A01AB0167E04F
:1053A000220F331F441F551F6A95D1F783E08C935A
:1053B0000DC0220F331F441F551F12968D919C91D3
:1053C0001397019713969C938E931297203080E049
:1053D000380780E0480780E4580758F314962D9367
:1053E0003D934D935C93179708952F3F310579F4C2
:1053F000411551056105710519F484E08C930895F8
:1054000064FF03C081E08C9312C01C9210C02F5720
:10541000304013963C932E93129783E08C9387E051
:10542000440F551F661F771F8A95D1F77064149635
:105430004D935D936D937C93179708951F93DC01B3
:10544000FB019C91923008F447C08081823008F4BF
:1054500043C0943051F411961C91843099F58181A8
:10546000682F70E0611B71093FC0843021F09230D9
:1054700031F48230B9F18181882389F12DC01196F0
:105480001C9111978230F1F081811817D9F412968E
:105490002D913C911397828193818217930794F009
:1054A00028173907BCF014968D919D910D90BC91F1
:1054B000A02D2481358146815781281739074A0755
:1054C0005B0718F4112341F00AC082179307A40761
:1054D000B50740F4112319F061E070E005C06FEFEB
:1054E0007FEF02C060E070E0CB011F910895991B2F
:1054F00079E004C0991F961708F0961B881F7A95CB
:10550000C9F78095089597FB092E07260AD077FDE5
:1055100004D00CD006D000201AF4709561957F4F0E
:105520000895F6F7909581959F4F0895AA1BBB1B90
:1055300051E107C0AA1FBB1FA617B70710F0A61B93
:10554000B70B881F991F5A95A9F780959095BC01B4
:10555000CD0108952F923F924F925F926F927F926A
:105560008F929F92AF92BF92CF92DF92EF92FF9273
:105570000F931F93CF93DF93CDB7DEB7CA1BDB0B1F
:105580000FB6F894DEBF0FBECDBF09942A883988C4
:1055900048885F846E847D848C849B84AA84B984CB
:1055A000C884DF80EE80FD800C811B81AA81B981D7
:1055B000CE0FD11D0FB6F894DEBF0FBECDBFED01EB
:1055C0000895CF93DF93BC018230910510F462E01F
:1055D00070E0A0911203B0911303ED01E0E0F0E060
:1055E00040E050E021C0888199818617970769F4CF
:1055F0008A819B81309719F09383828304C09093B2
:10560000130380931203FE0134C06817790738F43E
:105610004115510519F08417950708F4AC01FE01F6
:105620008A819B819C01E9012097E9F6411551058A
:10563000A9F1CA01861B970B049708F4BA01E0E0B0
:10564000F0E02AC08D919C91119784179507F9F489
:105650006417750781F412968D919C91139730977A
:1056600019F09383828304C09093130380931203F1
:10567000FD0132964FC0CA01861B970BFD01E80F52
:10568000F91F6193719302978D939C9343C0FD0121
:10569000828193819C01D9011097A1F6809110031A
:1056A00090911103892B41F48091E8029091E902D5
:1056B00090931103809310034091EA025091EB0202
:1056C0004115510541F44DB75EB78091E6029091C6
:1056D000E702481B590B2091100330911103241746
:1056E0003507B0F4CA01821B930B8617970780F029
:1056F000AB014E5F5F4F8417950750F0420F531F69
:105700005093110340931003F9016193719302C008
:10571000E0E0F0E0CF01DF91CF910895CF93DF93E8
:10572000009709F450C0EC0122971B821A82A091C5
:105730001203B0911303109709F140E050E0AC1749
:10574000BD0708F1BB83AA83FE0121913191E20FCD
:10575000F31FAE17BF0779F48D919C911197280F15
:10576000391F2E5F3F4F3983288312968D919C916C
:1057700013979B838A834115510571F4D0931303CA
:10578000C093120320C012968D919C911397AD0186
:10579000009711F0DC01D3CFFA01D383C2832191AA
:1057A0003191E20FF31FCE17DF0769F488819981E9
:1057B000280F391F2E5F3F4FFA01318320838A81E2
:1057C0009B8193838283DF91CF9108950F931F93E1
:1057D000DF93CF93CDB7DEB72E970FB6F894DEBF29
:1057E0000FBECDBF0D891E8986E08C831A83098385
:1057F0008FEF9FE79E838D839E01275E3F4FCE01F3
:1058000001966F89788DA9010E94172C2F81388508
:10581000020F131FF80110822E960FB6F894DEBF08
:105820000FBECDBFCF91DF911F910F9108952F92A1
:105830003F924F925F926F927F928F929F92AF9220
:10584000BF92CF92DF92EF92FF920F931F93DF935D
:10585000CF93CDB7DEB72B970FB6F894DEBF0FBE50
:10586000CDBF3C012B015A01FC01178216828381B6
:1058700081FD03C06FEF7FEFC6C19AE0892E1E0144
:105880000894211C311CF3012381F20123FD859131
:1058900023FF81912F01882309F4B2C1853239F4A5
:1058A00023FD859123FF81912F01853229F490E01A
:1058B000B3010E94332EE7CF982FFF24EE249924C2
:1058C000FFE1FF15D0F09B3269F09C3228F4903252
:1058D00059F0933291F40EC09D3249F0903369F43F
:1058E00041E024C052E0F52A84E0F82A28C098E07C
:1058F000F92A25C0E0E1FE2A22C0F7FC29C0892F41
:1059000080538A3070F4F6FE05C0989C902C1124C8
:10591000980E15C0E89CE02C1124E80EF0E2FF2A56
:105920000EC09E3229F4F6FC6BC140E4F42A07C095
:105930009C3619F450E8F52A02C0983649F4F20171
:1059400023FD959123FF91912F01992309F0B8CF61
:10595000892F8554833018F08052833038F444E026
:1059600050E0A40EB51E5FE359830FC0933631F0AB
:10597000933779F0933509F056C020C0F501808146
:10598000898342E050E0A40EB51E610101E010E001
:1059900012C0F501C080D180F6FC03C06FEF7FEF2D
:1059A00002C0692D70E042E050E0A40EB51EC601B1
:1059B0000E94282E8C015FE7F52214C0F501C080FB
:1059C000D180F6FC03C06FEF7FEF02C0692D70E05D
:1059D00042E050E0A40EB51EC6010E941D2E8C01AF
:1059E00050E8F52AF3FE07C01AC080E290E0B30148
:1059F0000E94332EEA948E2D90E008171907A8F321
:105A00000EC0F601F7FC8591F7FE81916F0190E0E1
:105A1000B3010E94332EE110EA94015010400115A9
:105A2000110579F7EAC0943611F0993669F5F7FE59
:105A300008C0F501208131814281538184E090E0EA
:105A40000AC0F501808191819C01442737FD409572
:105A5000542F82E090E0A80EB91E9FE6F92257FF6E
:105A600009C050954095309521953F4F4F4F5F4F5E
:105A7000E0E8FE2ACA01B901A1012AE030E00E9453
:105A80005F2ED82ED21840C0953729F41F2D1F7EC7
:105A90002AE030E01DC01F2D197F9F3661F090373E
:105AA00020F4983509F0ACC00FC0903739F0983722
:105AB00009F0A6C004C028E030E00AC0106114FD5F
:105AC000146020E130E004C014FD166020E132E0F3
:105AD00017FF08C0F501608171818281938144E0E4
:105AE00050E008C0F50180819181BC0180E090E028
:105AF00042E050E0A40EB51EA1010E945F2ED82EF8
:105B0000D2188FE7F82EF122F6FE0BC05EEFF522D9
:105B1000D91438F4F4FE07C0F2FC05C08FEEF82269
:105B200002C01D2D01C0192DF4FE0DC0FE01ED0DAA
:105B3000F11D8081803319F499EEF92208C01F5FAE
:105B4000F2FE05C003C08F2D867809F01F5F0F2D70
:105B5000F3FC14C0F0FE0FC01E1510F09D2C0BC0FE
:105B60009D2C9E0C911A1E2D06C080E290E0B30180
:105B70000E94332E1F5F1E15C0F304C01E1510F4C3
:105B8000E11A01C0EE2404FF0FC080E390E0B301EE
:105B90000E94332E02FF1DC001FD03C088E790E084
:105BA0000EC088E590E00BC0802F867891F001FF51
:105BB00002C08BE201C080E2F7FC8DE290E0B3010D
:105BC0000E94332E06C080E390E0B3010E94332E82
:105BD0009A94D914C0F3DA94F101ED0DF11D80818E
:105BE00090E0B3010E94332EDD20A9F706C080E2C9
:105BF00090E0B3010E94332EEA94EE20C1F743CE29
:105C0000F30166817781CB012B960FB6F894DEBF46
:105C10000FBECDBFCF91DF911F910F91FF90EF90FD
:105C2000DF90CF90BF90AF909F908F907F906F90BC
:105C30005F904F903F902F900895FC010590615028
:105C400070400110D8F7809590958E0F9F1F089592
:105C5000FC016150704001900110D8F7809590953B
:105C60008E0F9F1F08950F931F93CF93DF938C0187
:105C7000EB018B8181FF1BC082FF0DC02E813F8114
:105C80008C819D812817390764F4E881F98101939B
:105C9000F983E88306C0E885F985802F0995892B6B
:105CA00031F48E819F8101969F838E8302C00FEF16
:105CB0001FEFC801DF91CF911F910F910895FA0155
:105CC000AA27283051F1203181F1E8946F936E7F3B
:105CD0006E5F7F4F8F4F9F4FAF4FB1E03ED0B4E02C
:105CE0003CD0670F781F891F9A1FA11D680F791F6D
:105CF0008A1F911DA11D6A0F711D811D911DA11D7E
:105D000020D009F468943F912AE0269F112430198D
:105D1000305D3193DEF6CF010895462F4770405D28
:105D20004193B3E00FD0C9F7F6CF462F4F70405DD7
:105D30004A3318F0495D31FD4052419302D0A9F732
:105D4000EACFB4E0A6959795879577956795BA952C
:105D5000C9F700976105710508959B01AC010A2EF2
:105D600006945795479537952795BA95C9F7620FC9
:0E5D7000731F841F951FA01D0895F894FFCF88
:105D7E00252D3673007C4C6966653A252D33697C7A
:105D8E0058503A252D34697C252D3469637C4C7628
:105D9E00252D32690053746174737C4174743A25F5
:105DAE002D32697C5374723A252D32697C53746D91
:105DBE003A252D32697C4465663A252D32697C5729
:105DCE0069733A252D32697C496E743A252D3269F4
:105DDE0000506C6179657220436F6F72643A2020B7
:105DEE0020202025642C202564004F6C6420506CEC
:105DFE006179657220436F6F72643A2025642C209E
:105E0E00256400526F6F6D20436F6F72643A2025C8
:105E1E00642C2025640025640003030303000000A6
:105E2E00000505000000010214100B01070301011B
:105E3E000A0101010101012A0001006D616C6C6F04
:105E4E0063100006000202020200000000020000C1
:105E5E00000000000000000102020303030304041B
:105E6E0004040404040405050505050505050505DA
:105E7E0005050505050506060606060606060606BA
:105E8E0006060606060606060606060606060606A4
:105E9E00060606060606070707070707070707078A
:105EAE000707070707070707070707070707070774
:105EBE000707070707070707070707070707070764
:105ECE000707070707070707070707070707070754
:105EDE00070707070707080808080808080808083A
:105EEE000808080808080808080808080808080824
:105EFE000808080808080808080808080808080814
:105F0E000808080808080808080808080808080803
:105F1E0008080808080808080808080808080808F3
:105F2E0008080808080808080808080808080808E3
:105F3E0008080808080808080808080808080808D3
:105F4E0008080808080808080808080808080808C3
:0C5F5E00080808080808200014030000D0
:00000001FF
