:100000000C94FF1E0C941E1F0C941E1F0C941E1F9C
:100010000C941E1F0C941E1F0C941E1F0C941E1F6C
:100020000C941E1F0C941E1F0C941E1F0C941E1F5C
:100030000C941E1F0C941E1F0C941E1F0C941E1F4C
:100040000C941E1F0C941E1F0C941E1F0C941E1F3C
:100050000C941E1F0C941E1F0C941E1F0C941E1F2C
:100060000C941E1F0C941E1F0C941E1F0C941E1F1C
:100070000C941E1F0C941E1F0C941E1F0C941E1F0C
:100080000C941E1F0C941E1F0C941E1F0C941E1FFC
:100090000C941E1F0C941E1F000000000000005F47
:1000A00000000003000300143E143E14242A7F2A9B
:1000B000124333086661364955225000050300009B
:1000C000001C2241000041221C0014083E081408B4
:1000D000083E0808005030000008080808080060C2
:1000E00060000020100804023E5149453E00040211
:1000F0007F00426151494622414949361814127F16
:100100001027454545393E494949320101710907E2
:100110003649494936264949493E003636000000ED
:10012000563600000814224100141414141400411F
:1001300022140802015109063E4159555E7E090903
:10014000097E7F494949363E414141227F41414133
:100150003E7F494949417F090909013E4141493AE8
:100160007F0808087F00417F4100304040403F7FCA
:10017000081422417F404040407F020C027F7F02F2
:1001800004087F3E4141413E7F090909061E2121A5
:10019000215E7F09090976264949493201017F011B
:1001A000013F4040403F1F2040201F7F2010207F04
:1001B00041221C224107087008076151494543004C
:1001C0007F41000002040810200000417F0004026B
:1001D0000102044040404040000102040020545409
:1001E00054787F4444443838444444443844444474
:1001F0007F385454541804047E0505085454543C64
:100200007F0804047800447D40002040443D007F86
:100210001028440000417F40007C047804787C086A
:1002200004047838444444387C1414140808141422
:10023000147C007C080404485454542004043F44B3
:10024000443C4040207C1C2040201C3C4030403C32
:1002500044281028440C5050503C4464544C4400F2
:100260000836414100007F0000414136080002018C
:10027000020402000102010011000102011100014B
:1002800004061100010A14110002000811005400B4
:1002900000401000420000000000000000000000CC
:1002A000000000000000000000000000000000004E
:1002B000000000000000000000000000000000003E
:1002C000000000000000000000000000000000002E
:1002D000000000000000000000000000000000001E
:1002E000000000000000000000000000000000000E
:1002F00000000000000000000000000000000000FE
:1003000000000000000000000000000000000000ED
:1003100000000000000000000000000000000000DD
:1003200000000000000000000000000000000000CD
:1003300000000000000000000000000000000000BD
:1003400000000000000000000000000000000000AD
:10035000000000000000000000000000000000009D
:10036000000000000000000000000000000000008D
:10037000000000000000000000000000000000007D
:10038000000000000000000000000000000000006D
:10039000000000000000000000000000000000005D
:1003A000000000000000000000000000000000004D
:1003B000000000000000000000000000000000003D
:1003C000000000000000000000000000000000002D
:1003D000000000000000000000000000000000001D
:1003E000000000000000000000000000000000000D
:1003F00000000000000001000100010001000100F8
:1004000001000100010001000100010001000100E4
:1004100001000100010001000100010001000100D4
:1004200001000100010001000100010001000100C4
:1004300001000100010001000100010001000100B4
:1004400001000100010001000100010001000100A4
:100450000100010001000100010001000100010094
:100460000100010001000100010001000100010084
:100470000100010001000100010001000100010074
:100480000100010001000100010001000100010064
:100490000100010001000100010001000100010054
:1004A0000100010001000100010001000100010044
:1004B0000100010001000100010001000100010034
:1004C0000100010001000100010001000100010024
:1004D0000100010001000100010001000100010014
:1004E0000100010001000100010001000100010004
:1004F00001000100010001000100010001000100F4
:1005000001000100010001000100010001000100E3
:1005100001000100010001000100010001000100D3
:1005200001000100010001000100010001000100C3
:1005300001000100010001000100010001000100B3
:1005400001000100010001000100010001000100A3
:10055000010001000100020002000200020002008E
:10056000020002000200020002000200020002007B
:10057000020002000200020002000200020002006B
:10058000020002000200020002000200020002005B
:10059000020002000200020002000200020002004B
:1005A000020002000200020002000200020002003B
:1005B000020002000200020002000200020002002B
:1005C000020002000200020002000200020002001B
:1005D000020002000200020002000200020002000B
:1005E00002000200020002000200020002000200FB
:1005F00002000200020002000200020002000200EB
:1006000002000200020002000200020002000200DA
:1006100002000200020002000200020002000200CA
:1006200002000200020002000200020002000200BA
:1006300002000200020002000200020002000200AA
:10064000020002000200020002000200020002009A
:10065000020002000200020002000200020002008A
:10066000020002000200020002000200020002007A
:10067000020002000200020002000200020002006A
:10068000020002000200020002000200020002005A
:10069000020002000200020002000200020002004A
:1006A000020002000200020002000200020002003A
:1006B0000200020002000300030003000300030025
:1006C0000300030003000300030003000300030012
:1006D0000300030003000300030003000300030002
:1006E00003000300030003000300030003000300F2
:1006F00003000300030003000300030003000300E2
:1007000003000300030003000300030003000300D1
:1007100003000300030003000300030003000300C1
:1007200003000300030003000300030003000300B1
:1007300003000300030003000300030003000300A1
:100740000300030003000300030003000300030091
:100750000300030003000300030003000300030081
:100760000300030003000300030003000300030071
:100770000300030003000300030003000300030061
:100780000300030003000300030003000300030051
:100790000300030003000300030003000300030041
:1007A0000300030003000300030003000300030031
:1007B0000300030003000300030003000300030021
:1007C0000300030003000300030003000300030011
:1007D0000300030003000300030003000300030001
:1007E00003000300030003000300030003000300F1
:1007F00003000300030003000300030003000300E1
:1008000003000300030003000300030003000300D0
:1008100003000300030000000000000000000000CF
:1008200000000000000000000000000000000000C8
:1008300000000000000000000000000000000000B8
:1008400000000000000000000000000000000000A8
:100850000000000000000000000000000000000098
:100860000000000000000000000000000000000088
:100870000000000000000000000000000000000078
:100880000000000000000000000000000000000068
:100890000000000000000000000000000000000058
:1008A0000000000000000000000000000000000048
:1008B0000000000000000000000000000000000038
:1008C0000000000000000000000000000000000028
:1008D0000000000000000000000000000000000018
:1008E0000000000000000000000000000000000008
:1008F00000000000000000000000000000000000F8
:1009000000000000000000000000000000000000E7
:1009100000000000000000000000000000000000D7
:1009200000000000000000000000000000000000C7
:1009300000000000000000000000000000000000B7
:100940000000000000000000F0FFFFFFFFFFFFFFBE
:1009500000000000000000F0FFFFFFFFFFFFFF00AE
:10096000000000000000F0FFFFFFFFFFFFFF00009E
:100970000000000000F0FFFFFFFFFFFFFF0000008E
:1009800000000000F0FFFFFFFFFFFFFF000000007E
:10099000000000F0FFFFFFFFFFFFFF00000000006E
:1009A0000000F0FFFFFFFFFFFFFF0000000000005E
:1009B00000F0FFFFFFFFFFFFFF000000000000004E
:1009C000F0FFFFFFFFFFFFFF00000000000000F04E
:1009D000FFFFFFFFFFFFFF00000000000000F0FF2F
:1009E000FFFFFFFFFFFF00000000000000F0FFFF1F
:1009F000FFFFFFFFFF00000000000000F0FFFFFF0F
:100A0000FFFFFFFF00000000000000F0FFFFFFFFFE
:100A1000FFFFFF00000000000000F0FFFFFFFFFFEE
:100A2000FFFF00000000000000F0FFFFFFFFFFFFDE
:100A3000FF00000000000000F0FFFFFFFFFFFFFFCE
:100A400000000000000000F0FFFFFFFFFFFFFF00BD
:100A5000000000000000F0FFFFFFFFFFFFFF0000AD
:100A60000000000000F0FFFFFFFFFFFFFF0000009D
:100A7000000000000000000000C0FFFF00000000B8
:100A80000000000000C0FFFFFFFFFF0000000000AB
:100A9000000000FCFFFFFFFFFFFF00000000000060
:100AA000C0FFFFFFFFFFFFFFFF000000000000FF8F
:100AB000FFFFFFFFFFFFFFFF0000000000FCFFFF44
:100AC000FFFFFFFFFFFFFF00000000F0FFFFFFFF41
:100AD000FFFFFFFFFFFF000000C0FFFFFFFFFFFF62
:100AE000FFFFFFFFFF000000FFFFFFFFFFFFFFFF13
:100AF000FFFFFFFF0000FCFFFFFFFFFFFFFFFFFF07
:100B0000FFFFFF0000FCFFFFFFFFFFFFFFFFFFFFF6
:100B1000FFFF00F0FFFFFFFFFFFFFFFFFFFFFFFFF3
:100B2000FF00F0FFFFFFFFFFFFFFFFFFFFFFFFFFE3
:100B3000C0FFFFFFFFFFFFFFFFFFFFFFFFFFFFC043
:100B4000FFFFFFFFFFFFFFFFFFFFFFFFFFFFC0FFF4
:100B5000FFFFFFFFFFFFFFFFFFFFFFFFFFC0FFFFE4
:100B6000FFFFFFFFFFFFFFFFFFFFFFFFFFFFFFFF95
:100B7000FFFFFFFFFFFFFFFFFFFFFFFFFFFFFFFF85
:100B8000FFFFFFFFFFFFFFFFFFFFFFFFFFFFFFFF75
:100B9000FFFFFFFFFFFFFFFFFF000000000000005E
:100BA0000000000000000000000000000000000045
:100BB000000000000000FC00000000000000000039
:100BC00000000000F0FF0000000000000000000036
:100BD0000000C0FFFF000000000000000000000057
:100BE00000FFFFFF0000000000000000000000FC0C
:100BF000FFFFFF00000000000000000000F0FFFF0A
:100C0000FFFF000000000000000000C0FFFFFFFF2A
:100C1000FF000000000000000000FFFFFFFFFFFFDB
:100C20000000000000000000FCFFFFFFFFFFFF00CE
:100C3000000000000000F0FFFFFFFFFFFFFF0000CB
:100C400000000000C0FFFFFFFFFFFFFFFF000000EC
:100C5000000000FFFFFFFFFFFFFFFFFF000000009D
:100C600000FCFFFFFFFFFFFFFFFFFF00000000F0A1
:100C7000FFFFFFFFFFFFFFFFFFFF000000C0FFFFC0
:100C8000FFFFFFFFFFFFFFFFFF000000FFFFFFFF71
:100C9000FFFFFFFFFFFFFFFF0000FCFFFFFFFFFF65
:100CA000FFFFFFFFFFFFFF00F0FFFFFFFFFFFFFF62
:100CB000FFFFFFFFFFFFC0FFFFFFFFFFFFFFFFFF83
:100CC000FFFFFFFFFF000000000000000000000029
:100CD0000000000000000000000000000000000014
:100CE0000000000000000000000000000000000004
:100CF00000000000000000000000000000000000F4
:100D000000000000000000000000000000000000E3
:100D100000000000000000000000000000000000D3
:100D200000000000000000000000000000000000C3
:100D300000000000000000000000000000000000B3
:100D400000000000000000000000000000000000A3
:100D50000000000000000000000000000000000093
:100D60000000F0FFFFFFFFFFFFFF0000000000009A
:100D700000F0FFFFFFFFFFFFFF000000000000008A
:100D8000F0FFFFFFFFFFFFFF00000000000000F08A
:100D9000FFFFFFFFFFFFFF00000000000000F0FF6B
:100DA000FFFFFFFFFFFF00000000000000F0FFFF5B
:100DB000FFFFFFFFFF00000000000000F0FFFFFF4B
:100DC000FFFFFFFF00000000000000F0FFFFFFFF3B
:100DD000FFFFFF00000000000000F0FFFFFFFFFF2B
:100DE000FFFF00000000000000F0FFFFFFFFFFFF1B
:100DF000FF000000000000000000000000000000F4
:100E000000000000000000000000000000000000E2
:100E100000000000000000000000000000000000D2
:100E200000000000000000000000000000000000C2
:100E300000000000000000000000000000000000B2
:100E400000000000000000000000000000000000A2
:100E50000000000000000000000000000000000092
:100E60000000000000000000000000000000000082
:100E70000000000000000000000000000000000072
:100E80000000000000000000000000000000000062
:100E9000000000C0FFFF0000000000000000000094
:100EA00000FCFFFFFF000000000000000000C0FF8A
:100EB000FFFFFFFF000000000000000000FFFFFF39
:100EC000FFFFFF000000000000000000FFFFFFFF29
:100ED000FFFF0000000000000000FCFFFFFFFFFF1D
:100EE000FF0000000000000000FCFFFFFFFFFFFF0D
:100EF00000000000000000F0FFFFFFFFFFFFFF0009
:100F0000000000000000F0FFFFFFFFFFFFFF0000F8
:100F10000000000000F0FFFFFFFFFFFFFF000000E8
:100F200000000000000000000000000000000000C1
:100F300000000000000000000000000000000000B1
:100F400000000000000000000000000000000000A1
:100F50000000000000000000000000000000000091
:100F60000000000000000000000000000000000081
:100F70000000000000000000000000000000000071
:100F80000000000000000000000000000000000061
:100F90000000000000000000000000000000000051
:100FA0000000000000000000000000000000000041
:100FB0000000000000000000000000000000000031
:100FC0000000000000000000000000000000000021
:100FD000FC00000000000000000000000000F0FF26
:100FE000000000000000000000000000C0FFFF0043
:100FF0000000000000000000000000FFFFFF0000F4
:10100000000000000000000000FCFFFFFF000000E7
:1010100000000000000000F0FFFFFFFF00000000E4
:101020000000000000C0FFFFFFFFFF000000000005
:1010300000000000FFFFFFFFFFFF000000000000B6
:101040000000FCFFFFFFFFFFFF00000000000000AA
:101050000000000000000000000000000000000090
:101060000000000000000000000000000000000080
:101070000000000000000000000000000000000070
:101080000000000000000000000000000000000060
:101090000000000000000000000000000000000050
:1010A0000000000000000000000000000000000040
:1010B0000000000000000000000000000000000030
:1010C0000000000000000000000000000000000020
:1010D000000000000000000000000000000000FF11
:1010E000FFFFFFFFFFFFFFFFFFFFFFFFFFFFFFFF10
:1010F000FFFFFFFFFFFFFFFFFFFFFFFFFFFFFFFF00
:10110000FFFFFFFFFFFFFFFFFFFFFFFFFFFFFFFFEF
:10111000FFFFFFFFFFFFFFFFFFFFFFFFFFFFFFFFDF
:10112000FFFFFFFFFFFFFFFFFFFFFFFFFFFFFFFFCF
:10113000FFFFFFFFFFFFFFFFFFFFFFFFFFFFFFFFBF
:10114000FFFFFFFFFFFFFFFFFFFFFFFFFFFFFFFFAF
:10115000FFFFFFFFFFFFFFFFFFFFFFFFFFFFFFFF9F
:10116000FFFFFFFFFFFFFFFFFFFFFFFFFFFFFFFF8F
:10117000FFFFFFFFFF000000000000000000000074
:10118000000000000000000000000000000000005F
:10119000000000000000000000000000000000004F
:1011A000000000000000000000000000000000003F
:1011B000000000000000000000000000000000002F
:1011C000000000000000000000000000000000001F
:1011D000000000000000000000000000000000000F
:1011E00000000000000000000000000000000000FF
:1011F00000000000000000000000000000000000EF
:1012000000000000000000000000000000000000DE
:1012100000000000000000000000000000000000CE
:1012200000000000000000000000000000000000BE
:1012300000000000000000000000000000000000AE
:10124000000000000000000000000000000000009E
:10125000000000000000000000000000000000008E
:10126000000000000000000000000000000000007E
:10127000000000000000000000000000000000006E
:10128000000000000000000000000000000000005E
:10129000000000000000000000000000000000004E
:1012A00000BAAEEBBAAEEBBAAEEBBAAEEBBAAEEB9F
:1012B0007AA9EBBAAEEBBAAEEBBAAEEBBEAEEBBA16
:1012C000AEEBBAAEEBBFAEEBA5AEEBBAAEEBBAAEE1
:1012D000EBBEAEEBA9AEEBBAAEEBBAAEEBBAAEEB91
:1012E000BAAEEBA9AEEBBAAEEBBAAEEBBAAEEBBAB6
:1012F000AEEBBAAEEBBEAEEB7AA9EBBAAEEBBA5E32
:10130000EABAAEFBBFAFEBBAAEEBBAAEEBBAAEEB3E
:10131000BAAEEBBEAEEBBAAEEBBAAEFFBAAEEBBA5C
:10132000AEEBA9AEEBBAAEEBBAAEA7BAAEFBBAAEB5
:10133000EBBAAEEBBAAEEBBAAEA7BAEE97BEAEEB77
:10134000BAFEEBBAAEEBBAAEEBBAAEFBBAAEEBBAE4
:101350009EEABAAFEBBAAEEBBAAEEBBAAEFBBA9E50
:10136000EABAAEEBBAAFEBBAAEEBBAAEEBBAAEEBF3
:10137000BAAEEBBAAE97BAAEEBBAAEEBBAAEEBBA68
:10138000AEEBBAAEEBBAAEEBBFAEEBBAAEEBBAAE0B
:10139000EBBAAEEBBAAEEBA9AEEBBAAEFBBAAEEBC4
:1013A000BAAEEBBAAEEBA9AEEBBAEEEBBEAEEBBAB1
:1013B000AEEBBAAFEBBAAE97BAAEFBBAAEEBBAAE23
:1013C000EBBAAEEBBAAEEBBAAEEBBAAEEB188661E7
:1013D00018866118866118866118866118816118FF
:1013E00086611886611886612C8661188661188668
:1013F000613C86610486611886611886612C86616D
:1014000018866118866118866118866118866118C9
:10141000866118866118866118866118866118864B
:10142000612C86611881611886611846601886B142
:101430003C8B611886611886611886611886612C5C
:1014400086611886611886F118866118866118868B
:10145000611886611886611886B1188661188661E0
:1014600018866118866118C6822C866118C66318B2
:1014700086611886611886B1188661188661188B96
:10148000611886611886611886B1188661188661B0
:10149000188B611886611886611886611886611834
:1014A000861118866118866118866118866118860B
:1014B000611886613C8661188661188661188661AC
:1014C0001886611886611886B118866118866118B9
:1014D000866118866118C6622C8661188661188B31
:1014E000611886111886B1188661188661188661A0
:1014F0001886611886611886617F55557F55FD6A8B
:10150000A5AAEAAFAA55F5575555A9D55F416AA5D1
:1015100056AAAE5695FA576AF5ABEAFFFF6995A948
:10152000AA9A56655A56BE5A557EAAAA6AA5AA55BF
:10153000A5567AA556955EAA95FAABFFAF567F558C
:1015400055D59FEA5555A995AA56AA5A55BF5AA9E5
:1015500055AA5695FAFBAA5A56BE5A55BFAAFA95ED
:10156000AAAA955A556AA556AAFEFF6A55E97F951B
:10157000AA7F55556AA9AA6AA5AAD55FA9D5FFA7CA
:10158000955E5595AFAA95AFABAAAA56AAAAA6553D
:10159000A5AA6AA5EAD5AF567EA5ABBFAA96FEFF5F
:1015A000575555555555A5E9AFAA6AF5FF6A5555E2
:1015B000D55FA9955E5595AAFAD5EF57D55FA9BA1B
:1015C000FA576A59F97FA5AA5555A9EAFF57BF5A94
:1015D000A9AAAAAA7FA556BFEAAB5555557F55556E
:1015E00055A556E95FAA7F5AFEA55B557FF5A7BFB3
:1015F000FA57955AAAFF5F557AE5AB7F55A5E99F43
:10160000FE95FA577FA5AA55955655F557BEAA5689
:10161000EAAF56959AAAAAFAAB7FA556BF9A5695F5
:101620005AA9955FE9695E971495E7799AE66999F1
:10163000E77995E76599A73995E7799EE779995311
:101640002595E7799ED77999E7799E571495E669AC
:101650005EE5799E975099E7794995799AE76949C6
:10166000955459A5795595549EE7659EE779995209
:10167000794995545995795EE6799EE7799E427944
:101680005EE6654A55659EE7799EE7794995799EBC
:10169000E7699E575499E7799E526999A7799DE722
:1016A000799EE62545556595E7795EE67999E7796E
:1016B00099E7795A52659AE7799EE73995E7799ED5
:1016C000E7799A93654951649AE72595E7655EE65F
:1016D000799E97549EE7799E972995E7799EA7650D
:1016E0009EE7549EE7799E53659AE7799EE7799E37
:1016F000A7559E97799E53545551799EE7799EE759
:10170000549EE7795EEA105956544555555555543F
:101710009EE7794EE5659EE76599A66559A65555FC
:10172000E6794EE5799EE7795EE6799956549E967C
:101730001045E5799EE7799EE7795956799AE779D8
:1017400059E5799EE7799EE7795E56799EE7399566
:10175000A7BAAE976559A6695AA6BAAEA7699AA75D
:101760005555556559967999EABAAEEB799AEB5584
:101770005996A59E97795A96B99EEB7E9E96B9EF9B
:10178000EB79AEFBBEEFEBBA9EE7659996BEAEFB7A
:10179000FEFFFFFFEFFBBEEFFB7A9EEB69AEFB7A2D
:1017A0005E9665555555559665A9FB555555555940
:1017B000EABEEFFBBEAFE7799AFB5599E6BEAFFBF9
:1017C000BFEEEB7E9EEBBAEEEB7A9EEB6999A6BA82
:1017D000EEEBBAAFFBBEEEFB55555655555555557C
:1017E00055555555555555A9AAFAFAEFFBBA9F9686
:1017F0006559AAA59A966599A6A9AAA6695AFABE94
:10180000EEE7B9AE97BEEEEBBAAEEBAA5AEA69596B
:1018100096A9AEA7BEAEEB6A9AA669A9E7BAAEFBD7
:101820007AAEFBBAAEA6655A966599EABA9EEBAA5D
:101830009AA66599EABA9EA669AAEB7AAAEBBAAE0D
:10184000EB6559966599EA6555F9BEAEEBBAFEFFB0
:10185000FFEFEB699AEABA5EA5BAEEEBBAEFEB6975
:10186000AAFBBEAEEBAAAA96659AA6BAAEE75555F4
:101870005555595555A5AB5555555555953445D1E3
:10188000244D51344953144DD2144593148D53248F
:1018900045E31449D1384552344E91348DD3244D0B
:1018A000E33449D3384DD2344E93348DD3244DE3B1
:1018B0003449D3384DD2344E933445D1244D51342C
:1018C0004953144DD2144593148D532445E31449C0
:1018D000D1384552344E91348DD3244DE33449D31D
:1018E000384DD2344E93348DD3244DE33449D3381C
:1018F0004DD2344E933445D1244D51344953144D77
:10190000D2144593148D532445E31449D1384552DC
:10191000344E91348DD3244DE33449D3384DD234F1
:101920004E93348DD3244DE33449D3384DD2344EC5
:10193000933445D1244D51344953144DD214459319
:10194000148D532445E31449D1384552344E913413
:101950008DD3244DE33449D3384DD2344E93348D56
:10196000D3244DE33449D3384DD2344E933445D14A
:10197000244D51344953144DD2144593148D53249E
:1019800045E31449D1384552344E91348DD3244D1A
:10199000E33449D3384DD2344E93348DD3244DE3C0
:1019A0003449D3384DD2344E937DDFF7799EF77D9D
:1019B000DFFBBEEFFBBEEFFBBEEFFBBEEFE7BD9F65
:1019C000FBBEEFFBBEEFFBBEEFFBBEEFF779DFE741
:1019D000BDEFFBBEEFFBBEEFFBBEEFFB7EDEFB7D94
:1019E000DFFBBEEFFBBEEFFBBEEFFBBEDFE779DF49
:1019F000F7BDEFFB7DDFF7BEEFFBBEEFFBBEDFF712
:101A00007DEFF77D9FE7BDEFFBBEEFFBBEEFFB7900
:101A1000EEFBB9DFE779EEFBBEEFFBBEEFFB7E9E90
:101A2000E7B9EFFB7DEEFBBEEFFBBEEFFBBE9FE732
:101A3000799EFB7D9FE7BDEFFBBEEFFBBEEFE77935
:101A40009EE779DFE7799EE7BDEFFBBEEFFBBE9F28
:101A5000E7799EE7BDDFE779DEFBBEEFFBBEEFFB7C
:101A6000BEEFFB7D9EF7799EF7BEEFFBBEEFFBBEA0
:101A7000EFFBBE9FE7BE9FE7BEEFFBBEEFFBBEEFF7
:101A8000FBBEEFF7B9DFF779EFFBBEEFFBBEEFFB75
:101A9000BEEFFB799EFB7DDEF7BEEFFBBEEFFBBE2C
:101AA000EFFBBE9FE77DDFE77D9FF7799EF7BEEFF7
:101AB000FBBEEFE7799EF779EFFB7D9EE7BEEFFB7C
:101AC000BEEFFB7D9EE7799EE779DEF779EFFBBEFF
:101AD000EFFBBEDFE75555A96A555595AAAA6A5589
:101AE0005595AAAA5555A96A555555555555555553
:101AF0005555555555555555555555555555555596
:101B0000555555555555555555A5AA5555555555E0
:101B1000555555555555A9AAAAAA5555555555A9CE
:101B2000AA5A555555A9AAAAFEAA5A555555A9BF4C
:101B3000AA565555A9AAAAAA6A5555555555AAAAED
:101B4000AA555555555555555555555555AAAA5645
:101B50005555555555555555555555A9AAAA565536
:101B600055555555555555555555A95555555555D1
:101B70005595AAFEBF5A555555A955555555555514
:101B800095AAAAAA5A555555A9555555555555952D
:101B9000AA56555555555555AA5A5555555595AAB0
:101BA000565555A9AA5A55AA5A55555555555555DC
:101BB0005555A9AAAAAA6A5555555555555555556D
:101BC00055A9AAAAAA6A5555555555AAAAAA55555E
:101BD000A9AAAAAA555555555555AAAAAA5555A90F
:101BE000AAAAAA55555555555595AAAA5555A9AA13
:101BF000AA56555555AA5A5595AAAA5555A9AAAAFD
:101C000056FFF77DDFFF2DCBF7FFEFB22CCBB27C79
:101C1000DFF77DDFFF2DDBFF2DEFBF2CFFFFFFDFA9
:101C2000F77DDFF7FEFFBF2CDFFBFFEFFBFEDFF7EB
:101C30007DDFF2FEFFBF2CDFFBBEDFF7FDDFF77DB0
:101C4000DFB2FCFFB72CEFBF7CDFF7FDCBF77DCB1E
:101C5000F2BFDBFFFFFFBF7CDFF7FDFFB72CCBFF41
:101C60007DDFF77DDFF72FCBB22CFFB76CFFF77D61
:101C7000DFF77DDFF72FCBB22CFFFBBEFFF27DDF5E
:101C8000F77DDFF67ECBB22CFFFFFFDFF27DDFF7C3
:101C90002DCBF2FDDBB22CCBB26CFFFF7DDFB72C7E
:101CA000DFF7FFDBFBFFDFF72DCBF7BFCBB2FCFF8E
:101CB000BF2CFFFF7DDFF72DCBF2BDEFF2BFDFB70B
:101CC0002CDFFB7EDFF72DCBF2BDEFFB7FDFB27C9D
:101CD000DFFB7FDFF72DCBF27DDFFF2DCBB27CDF8B
:101CE000FB7FDFF72DCBF2FDFFF26FCBF27DDFF74D
:101CF000FDFFF72DCBF7BFCBF26FDFF77DDFF72DC1
:101D0000FFB72CDFFF7DDFF77FDFF77DDFF72DFFEC
:101D1000FB7EEFBB7DDFF77EDFF77DDFF72DFFFF7B
:101D2000FFFFB27CDFF7FDEFF27DDFB72C55555595
:101D30005555556AA5A66AA5AA6A55556AA5565568
:101D40005555AAFA575555556A5555AAAAAA69551F
:101D5000A9AA5AA95555555555A96A5A55555555C3
:101D600055A55695AAAA95AA5655555580AAAABF13
:101D70005A556A5555AAAAAA555555A9AAAA5555FC
:101D8000555955A9E9FFFF555555EAFFFF6A55A971
:101D900055F5A7EAAFAA6AA5FEEAAF56955A55EAE5
:101DA000AF56555555555555555555BF5A55D5AF3F
:101DB000AA55555595AAAAAAFAFFAAEAAB6A55A54B
:101DC000AA5A5595AAAAFFAFAAAAAAFEFFAFFEEA91
:101DD000FFABA5AAAAFAAFFEFFAFFEFF5F555555B0
:101DE000557FA55655FAABBF5AA9AAAA56555555BF
:101DF00055A556FFFF576AE5AB55A5565555A9FFA2
:101E00005FA97F55555555A9EAFFFFAA5AAAFFFFBA
:101E1000ABA5FAABFF5F554055E9EAAFA65555555E
:101E2000AA9AAAAAFAABFFFFFB695555D55FA96A22
:101E3000A5AA7FA9FAEAFFFF55A556BF9AFEFFAFF4
:101E4000FEFF5F5555F55755A556AAAF56BF5AA97F
:101E5000FFFFABAA5A555555A995AAAA5555A9559C
:101E600055957FF5FF55F5AB55A5A655555595AA42
:101E7000AA55F5FFD5AFFA95AA565555A995AAAA20
:101E8000AA5AFD5595AA55A5565555FD95AAAA5588
:101E9000A5AA95FA5755955640AAAA95FAEBD5FFEB
:101EA00097AAFAFF555555AAFAFF95FAFFE95FA9D7
:101EB0006AF5AB555555AAFAABD5AFAAFF5FFDA998
:101EC000AA5655A556AAFA57D5AFFE6A55A9AAFA39
:101ED000ABAAAA567FA556BFAAFEBF5AFDEAFFFFCE
:101EE00095AA566A55A9AAAAFE6A55FD6AF9FFEA9B
:101EF0005FA955555595AFAA955F55BF5AFD69A580
:101F00005655A55695FAFFAAAA56AA5FA96A55552D
:101F10006A56A995FAFF6AA502BF5AA95555A9554F
:101F200055FD7FF5FF6AF557FF5FA96A55A955F57D
:101F3000AB6AA556AAFA57FFFF576A55A9959A5654
:101F40006AFA5755F5EBFE5F55AA5A556AAA569597
:101F5000AA5655A5AA6955555555A9EAFF5795FAA8
:101F60005755A5FE5555555555A9EAAF5655F55740
:101F70005555AA95AA5655A556EAAF5655A5569554
:101F8000AAA65555A95A511485160441A1694510B0
:101F90000441101445511485160481560485160415
:101FA0009AAAAA455114455169961A0445A1694552
:101FB00051A94551144550685A150445515545518C
:101FC000A84551144510546A1104851614455168EA
:101FD00041511441A01581A6AAAA16144510685AA9
:101FE000100481160445511441A0064110045A10F2
:101FF0000455511445511441A0054110045A55147B
:102000005550144551144150154110049AAAAA453F
:102010005014455104415068411004411004AA561F
:102020001445110441A1A941A1A945510441A1159B
:102030004110A8AA16046A5514455104415054553C
:10204000505545110445A1154551044150145551B1
:102050001541100441A115455104415014855A04FD
:1020600041101445A5154551044150546AA005413D
:1020700050144551685A510441A11541A0064151DF
:10208000144551046A110485561445A105415114A3
:102090004551046A551445150445511545511445DB
:1020A0005104AAAA6A5A10044551684550144510B3
:1020B0000400000000000055A50200000000000020
:1020C0000000000050555555A90000000000000018
:1020D00000004055555555552A00000000000000ED
:1020E000000000545555552A000000000000000073
:1020F0000000545555551500000000000000000078
:102100000054555555150000000000000000000067
:102110005455555515000000000000000000000057
:102120005555550000000000000000000000545507
:1021300055552A00000000000000000000545555CD
:10214000552A00000000000000000050555555556C
:10215000950A0000000000000000505555555595A7
:102160000A00000000000000005055555555950A22
:1021700000000000000000005055555555950A001C
:10218000000000000000005055555555950A00000C
:1021900000000000000000005555A90000000000EC
:1021A000000000000000545555552A0000000000B2
:1021B0000000000000545555552A000000000000A2
:1021C00000000000545555552A0000000000000092
:1021D00000005055555555950A00000000000000BC
:1021E00000000055A50200000000000000000000F3
:1021F00050555555A9000000000000000000405552
:10220000555555552A0000000000000000000054FC
:102210005555552A0000000000000000000054F051
:10222000FFC3150000000000000000000054FFFF85
:10223000FF150000000000000000000054FFFFFF39
:10224000150000000000000000000000D5FF57004E
:1022500000000000000000000000545555552A0001
:10226000000000000000000000545555552A0000F1
:10227000000000000000005055555555950A00001B
:102280000000000000005055555555950A0000000B
:1022900000000000005055555555950A00000000FB
:1022A000000000005055555555950A0000000000EB
:1022B0000000005055555555950A000000000000DB
:1022C000000000005555A9000000000000000000BB
:1022D0000000545555552A00000000000000000081
:1022E00000545555552A0000000000000000000071
:1022F000545555552A0000000000000000005055BC
:10230000555555950A0000000000000000000055DA
:10231000A5020000000000000000000050555555C7
:10232000A92A000000000000000000505555555536
:10233000950A00000000000000005055555555005A
:1023400000000000000000000000FF30FC5700000B
:10235000000000000000000000FF30FCAB000000A7
:1023600000000000000000F0FFFFFFAB00000000D5
:1023700000000000000000FCFF5FA900000000005A
:10238000000000000000005555A9000000000000FA
:102390000000000000545555552A000000000000C0
:1023A00000000000545555552A00000000000000B0
:1023B00000005055555555950A00000000000000DA
:1023C000005055555555950A0000000000000000CA
:1023D0005055555555950A0000000000000000506A
:1023E00055555555950A00000000000000000000FA
:1023F0005555A900000000000000000000005455E1
:1024000055552A00000000000000000000545555FA
:10241000552A0000000000000000000054555555EA
:102420002A00000000000000000050555555559549
:102430000A0000000000000000000040A5AA000003
:1024400000000000000000000054555555AA0A0085
:10245000000000000000005055555555950A000039
:102460000000000000000000555555950A000000CE
:1024700000000000000000D50FC33F0C000000006A
:10248000000000000000D50FC33F0C00000000005A
:102490000000000000D5FFFFFF0F0000000000005B
:1024A0000000000055F5FF3F0000000000000000A4
:1024B0000000005555A900000000000000000000C9
:1024C00000545555552A000000000000000000008F
:1024D000545555552A0000000000000000005055DA
:1024E000555555950A000000000000000050555554
:1024F0005555950A00000000000000005055555544
:1025000055950A0000000000000000505555555533
:10251000950A000000000000000000005555A900C9
:1025200000000000000000000000545555552A002E
:10253000000000000000000000545555552A00001E
:102540000000000000000000545555552A0000000E
:102550000000000000005055555555950A00000038
:10256000000000000000E880AAEB0000000000006E
:102570000000000000A4699EA629000000000000E1
:1025800000000090A7799AE7790E00000000000093
:10259000000090E6799EA6799A02000000000000F3
:1025A000409AE7799EE7690E0000000000000000F5
:1025B00090E7699AE679AE03000000000000000091
:1025C000E4799EE6390000000000000000000000F1
:1025D00079EEE70000000000000000007F5DFFAA28
:1025E000AAAA7F5DFF000000000000C05FD7FAFFCD
:1025F000EB75FD0300000000000080EFD7755DD78C
:10260000F5EF0300000000000080EFD7755DD7B53F
:10261000EF03000000000000405DD7755DD7755DD9
:102620000300000000000080EFE779AEE7B9EF0398
:102630000000000000000000FC3F00FC3F00000024
:1026400000000000000000FC3F00FC3F0000000014
:10265000000000000000FC3F00FC3F000000000004
:102660000000000000E43900E43900000000000030
:1026700000000000D43500D4350000000000000048
:10268000000050D73500D4750D0000000000000098
:102690000000E880AAEB000000000000000000003D
:1026A00000A4699EA6290000000000000000009020
:1026B000A7799AE7790E000000000000000090E67C
:1026C0007E9EA6799A02000000000000409AFBBEA0
:1026D0009FE7690E000000000000000090FB95EFEE
:1026E000577EAE030000000000000000F8BEEFFBC4
:1026F0003E0000000000000000000000BEEFFB00F4
:1027000000000000000000007F5DFFAAEFAB7F5DCE
:10271000FF000000000000C05FD7BFAAFE75FD03E8
:1027200000000000000080EFD7B5AED7F5EF030042
:10273000000000000080EFD7755DD7B5EF03000003
:1027400000000000405DD7755DD7755D0300000097
:1027500000000080EFE7F9FFE7B9EF030000000099
:1027600000000000FC795DE73F0000000000000071
:10277000000000FC7E5EFB3F000000000000000047
:102780000000FC3F00FC3F000000000000000000D3
:1027900000E43900E43900000000000000000000FF
:1027A000D43500D43500000000000000000090E7A0
:1027B0003500D4790E00000000000000000000BACF
:1027C000AE023A00000000000000000000A4699A78
:1027D000A72900000000000000000090E7799EE6B5
:1027E000690E000000000000000090FA699AA779C5
:1027F0000A000000000000000000F879EEE7699E82
:102800000200000000000000E0FBBEEFE7690E00E0
:102810000000000000000000F8BEEFFB39000000DF
:102820000000000000000000BEEFFB000000000000
:1028300000000000000000FFFFFF0000000000009B
:10284000000000000000BFEFFF00000000000000DB
:102850000000000000B5EFFB0000000000000000D9
:10286000000000F875EDFB3E0000000000000000D5
:1028700000E0D7755DFBB50F000000000000000010
:10288000E0FB755DD7BE0F000000000000000000F7
:1028900000755DD70000000000000000000000008F
:1028A000C0FF03000000000000000000000000FF67
:1028B000FFFF0000000000000000000000FCFFFF20
:1028C000FF3F00000000000000000000D43F00FCBB
:1028D000750E000000000000000090E73900E439A8
:1028E00000000000000000000000E880AAEB0000EB
:1028F000000000000000000000A4699EA62900005E
:102900000000000000000090A7799AE7790E00000F
:1029100000000000000090E6699EA67E0A0000000C
:1029200000000000409AA7B99FE73E0000000000A9
:102930000000000090A7B9EFFBBE0F0000000000F0
:1029400000000000E4BEEFFB3E00000000000000BD
:1029500000000000BEEFFB000000000000000000CF
:10296000000000FFFFFF000000000000000000006A
:102970000000BFEFFF0000000000000000000000AA
:1029800000BEEFD70000000000000000000000F8CB
:10299000BE5FD73E000000000000000000E0D77ED0
:1029A0005DD7B50F0000000000000000E0FB755D82
:1029B000D7BE0F00000000000000000000755DD7CA
:1029C000000000000000000000000000C0FF030045
:1029D0000000000000000000000000FFFFFF0000FA
:1029E000000000000000000000FCFFFFFF3F0000AF
:1029F0000000000000000090D73F00FC3500000000
:102A000000000000000000E43900E4790E0000003E
:102A100000000000000000000000000000000000B6
:102A200000000000000000000000000000000000A6
:102A30000000000000EAFFFF0000000000000000AE
:102A4000000000A8FFFFFF3F0000000000000000A2
:102A50000000A8FFFFFF3F00000000000000000092
:102A600000A8FFFFFF3F0000000000000000000082
:102A7000A8EAFFFF3F000000000000000000000087
:102A8000AAFAFF0000000000000000000000008023
:102A9000FA030000000000000000000000A82A0067
:102AA000FC3F00000000000000000000A880FA03C6
:102AB0003F000000000000000000A0022A00FCC04F
:102AC0000F0000000000000000A00280FA03C00F09
:102AD0000000000000000000A00280FA03C00F0008
:102AE000000000000000000000AAFAFF0000000043
:102AF000000000000000000080AA020000000000AA
:102B0000000000000000002A00FC0000000000009F
:102B10000000000000002A00FC000000000000008F
:102B200000000000002A00FC00000000000000007F
:102B3000000000A82A00A83F0000000000000000DC
:102B40000000000000000000000000000000000085
:102B50000000000000000000000000000000000075
:102B600000EAFFFF0000000000000000000000A8D5
:102B7000FFFFFF3F00000000000000000000A8F081
:102B8000FFC33F00000000000000000000A8FFFF9E
:102B9000FF3F00000000000000000000A8EAFFFF67
:102BA0003F0000000000000000000000AAFAFF0043
:102BB000000000000000000000000080FA03000098
:102BC000000000000000000000A82A00FC3F0000F8
:102BD0000000000000000000A880FA033F00000091
:102BE000000000000000A0022A00FCC00F0000004E
:102BF0000000000000A00280FA03C00F00000000E7
:102C000000000000A00280FA03C00F0000000000D6
:102C10000000000000AAFAFF000000000000000011
:102C20000000000080AA0200000000000000000078
:102C30000000002A00FC000000000000000000006E
:102C400000002A00FC00000000000000000000005E
:102C5000002A00FC0000000000000000000000A8A6
:102C60002A00A83F00000000000000000000000053
:102C70000000000000000000000000000000000054
:102C8000000000000000000000000000A8FFFF039B
:102C900000000000000000000000A0FEFFFFFF0099
:102CA00000000000000000000000FF30FCFF0000FA
:102CB000000000000000000000FF30FCFF000000EA
:102CC00000000000000000A0AAFFFFFF00000000BD
:102CD00000000000000000A8EAFF03000000000060
:102CE00000000000000000EA0F00000000000000EB
:102CF000000000000000C0FF030000000000000012
:102D000000002A0000EA0FFC0000000000000000A4
:102D10000080AAAA00F0FF000000000000000000F0
:102D2000000000800AFC000000000000000000001D
:102D300000000000A80000000000000000000000EB
:102D40000000A002000000000000000000000000E1
:102D500000A0020000000000000000000000008051
:102D60000AFC0000000000000000000000002A0033
:102D7000FC0000000000000000000000002A00002D
:102D80003F00000000000000000000A82A00A82A60
:102D90000000000000000000000000000000000033
:102DA0000000000000000000000000000000000023
:102DB00000000000000000000080FAFF3F0000005B
:102DC0000000000000000000EAFFFFFF0F0000000D
:102DD00000000000000000EA0FC33F0C00000000EC
:102DE000000000000000EA0FC33F0C0000000000DC
:102DF0000000000000AAFAFFFF0F00000000000022
:102E00000000000080AAFE3F00000000000000005B
:102E100000000000A0FE0000000000000000000014
:102E2000000080AA02000000000000000000000076
:102E3000002AA0FE0000FC000000000000000000CE
:102E4000AA0A00FFFF030000000000000000002AA3
:102E5000A0020000000000000000000000002A00A6
:102E600000000000000000000000000000800A00D8
:102E7000000000000000000000000000C00F000083
:102E800000000000000000000000002AF003000025
:102E9000000000000000000000002A00FC0000000C
:102EA0000000000000000000A80000FC000000007E
:102EB00000000000000000A82A00A83F0000000059
:102EC000000000001045551459916445920000001F
:102ED0000000001045551455516445920000000053
:102EE0000000104555145551544591000000000054
:102EF00000505996655996655996000000000000EB
:102F000050A9966AA9966AA9960000000000005090
:102F10005996655996655996000000000000100406
:102F20005510544150054100000000000010455567
:102F3000145551544551000000000000104555142F
:102F400055515445510000000000001045551455DE
:102F500051544551000000000000104555145551D2
:102F600054A5FE00000000000010455514555154B2
:102F7000A5AA000000000000104555145551544505
:102F80005100000000000050599665599665599609
:102F900000000000000050A9966AA9966AA9960050
:102FA000000000000050599665599665599600003A
:102FB000000000001004551054415005410000006D
:102FC00000000010455514555154455100000000B3
:102FD00000001045551455515445510000000000A3
:102FE0000010455514555154455100000000000093
:102FF00000000000000000000000000000000000D1
:1030000000000000000000000000000000000000C0
:1030100000000000000000000000000000000000B0
:1030200000000000000000000000000000000000A0
:1030300000000000000000000000004055555555FC
:103040005555550100000000000040F57DDFF77D7B
:10305000DF570100000000000040F57DFFF77DFF15
:10306000570100000000000040F5FDDFF7FDDF57CD
:103070000100000000000040F57DDFF77FDF570111
:1030800000000000000040F57DDFFF7DDF570100FC
:10309000000000000040F57DFFF77DFF57010000B4
:1030A0000000000040F5FDDFF7FDDF5701000000E4
:1030B00000000040F57DDFF77DDF570100000000D4
:1030C000000040555555555555550100000000006C
:1030D00000000000000000000000000000000000F0
:1030E00000000000000000000000000000000000E0
:1030F00000000000000000000000000000000000D0
:1031000000000000000000000000000000000000BF
:1031100000000000000000000000000000000000AF
:10312000000000000000000000000000000000009F
:1031300000000000000000000000000000005055EA
:1031400000000000000000000040555555F5FF55F7
:10315000050000000000000095AAAAAAAAAAFF5F25
:1031600001000000000054AAAAAAAAAAAAEA5F01C4
:10317000000000005055AAAAAAAAAAAAAAFA5700B3
:1031800000000050A995AAAA555555AAAAFE1500F7
:103190000040A5566A5555AAFAFF95AAAA1500003F
:1031A0004055A955A5AAAAAAFE95AAAA6A05000093
:1031B00000546AA5AAAAAAAA7F0500000000000080
:1031C00054955AA955555555555500000000505570
:1031D0006AA556AAAAAAAAFAFF1500000050A95586
:1031E00055A995AAAAAAAAFE7F050000000055A528
:1031F000566AA5AAAAAAAA6A0500000000955AA9BB
:10320000955AA9AAAAAA6A05000000546AA5566A96
:10321000A556AAAAAAEA5F01000054955AA9955A90
:10322000A995AAAAAA5A0100000000000000000007
:10323000000000000000000000000000000000008E
:10324000000000000000000000000000000000007E
:10325000000000000000000000000000000000006E
:10326000000000000000000000000000000000005E
:10327000000000000000000000000000000000004E
:10328000000000000000000000000000000000003E
:1032900000000040A5AA95AA56AA5A010000000005
:1032A000000040A5AA95AA56AA5A010000000000F5
:1032B0000040A5AA95AA56AA5A01000000000000E5
:1032C00040A5AA95AA56AA5A010000000000004095
:1032D000A5AA95AA56AA5A0100000000000040A520
:1032E000AA95AA56AA5A0100000000000040A5AA0B
:1032F00095AA56AA5A0100000000000040A5AA9510
:10330000AA56AA5A0100000000000040A5AA95AAEA
:1033100056AA5A0100000000000040A5AA95AA562E
:10332000AA5A010000000000000000000000000098
:10333000000000000000000000000000000000008D
:10334000000000000000000000000000000000007D
:10335000000000000000000000000000000000006D
:10336000000000000000000000000000000000005D
:103370000000000000000000C3000000000000008A
:103380000000000000000CC330000000000000003E
:10339000000000003008C3200C0000000000000006
:1033A0000000C0200C823008030000000000000074
:1033B00000803008C3200C02000000000000000064
:1033C00083200CC33008C2000000000000000CC2C3
:1033D000300882200C833000000000003008C32039
:1033E00008C32008C3200C00000000200C83300C10
:1033F00082300CC23008000000C03008C23008C360
:10340000200C83200C030000C3200C83200CC3304D
:1034100008C23008C3000083300CC2300882200C80
:1034200083300CC20000003008C3200CC33008C336
:10343000200C000000000000832008822008C20049
:103440000000000000000000000008020000000072
:103450000000000000000000000802000000000062
:103460000000000000000000080200000000000052
:1034700000000000000020088200000000000000A2
:1034800000000000802008822000000000000000F2
:103490000000000000080200000000000000000022
:1034A000000000000000000000000000000000001C
:1034B000000000000000000000000000000000000C
:1034C00000000D00000000000000000000000000EF
:1034D00034000000000000000000000000000000B8
:1034E0000DD0000000000000000000000000004DB2
:1034F00003000000000000000000000000344D0345
:10350000000000000000000000000000344FD30065
:103510000000000000000000000000F4CFD3000015
:103520000000000000000000000040550100000005
:103530000000000000000000000004010000000086
:103540000000000000000000000401000000000076
:103550000000000000000000040100000000000066
:103560000000000000000004010000000000000056
:10357000000000000000000000000000000000004B
:10358000000000000000000000000000000000003B
:10359000000000000000000000000000000000002B
:1035A000000000000000000000000000000000001B
:1035B000000000000000000000000000000000000B
:1035C00000000000000000000000000000000000FB
:1035D00000000000000000000000000000000000EB
:1035E00000000000000000000000000000000000DB
:1035F000000000000D0000000000000000000000BE
:103600000000004003000000000000000000000077
:103610000034000000000000000000000000000076
:10362000000D000000000000000000000000003459
:103630004D03000000000000000000000000344FB7
:1036400003000000000000000000000000C00F00A8
:103650000000000000000000000000004005000025
:103660000000000000000000000000000001000059
:103670000000000000000000000000000100000049
:1036800000000000000000000000004000000000FA
:1036900000000000000000000000400000000000EA
:1036A000000000000000000000000000000000001A
:1036B000000000000000000000000000000000000A
:1036C00000000000000000000000000000000000FA
:1036D00000000000000000000000000000000000EA
:1036E00000000000000000000000000000000000DA
:1036F00000000000000000000000000000000000CA
:1037000000000000000000000000000000000000B9
:1037100000000000000000000000000000000000A9
:103720000000000000000000AAAAAA00000000009B
:103730000000000000A0AAAAAAAAEA0F0000000048
:1037400000000080AAAAAAAAAABFAA02000000003C
:103750000000AAAAAAAAAAAAAAAAAA00000000006F
:1037600000AAAAAAAAAAAAAAAAAA0000000000005F
:10377000AAAA02AAAAAA80AAAA000000000000AA77
:103780000A0080AA0200A0AA000000000000AA0A05
:103790000000000000A0AA000000000000AAAA0289
:1037A00000000080AAAA000000000000AAAAAA2A1D
:1037B00000A8AAAAAA000000000000AAAAAA2A003B
:1037C000A8AAAAAA000000000000AAAAAA2A00A883
:1037D000AAAAAA000000000000AAAAAA2A00A8AA71
:1037E000AAAA000000000000AAAAAA2A00A8AAAA61
:1037F000AA0000000000000000000000000000001F
:1038000000000000000000000000000000000000B8
:1038100000000000000000000000000000000000A8
:103820000000000000000000000000000000000098
:103830000000000000000000000000000000000088
:103840000000000000000000000000000000000078
:1038500000FC7100000000C071F0000000000000DA
:1038600085AA1E07001CC7FF1F000000000000857E
:10387000AAAAEA51FCFFFF1F00000000000045A1BA
:10388000AA6A51FCFF7F1C000000000000855AA8B6
:103890006A51A8FFF11F00000000000085AA166A07
:1038A00051A8C7FF1F00000000000085AAAA4551CB
:1038B00014EAFF1F00000000000040A1AA6A51A8FE
:1038C000AA7A0000000000000040A1AA6A51A8AA3C
:1038D0005A000000000000000050A86A51A86A01C8
:1038E000000000000000000050A86A51A86A010012
:1038F0000000000000000000146A51A8050000004C
:10390000000000000000000005CF170000000000CC
:1039100000000000000000000000000000000000A7
:103920000000000000000000000000000000000097
:103930000000000000000000000000000000000087
:103940000000000000000000000000000000000077
:103950000000000000000000000000000000000067
:103960000000000000000000000000000000000057
:10397000000000000000000000000000FC3F00000C
:103980000000000000000000000000FCFF0F00002D
:103990000000000000000000000000FFFF03000026
:1039A00000000000000000000000C0FFFF00000059
:1039B00000000000000000000000F0FF3F000000D9
:1039C00000000000000000000000FCFF0F000000ED
:1039D00000000000000000000000FFFF03000000E6
:1039E000000000000000000000C0FFFF0000000019
:1039F000000000000000000000F0FFFF0F000000CA
:103A0000000000000000000000FCFFFF03000000B9
:103A10000000000000000000FC3F05000000000066
:103A200000000000000000003F4001000000000016
:103A3000000000000000000000503F0000000000F7
:103A40000000000000000000FC3C0000000000003E
:103A50000000000000000000000000000000000066
:103A60000000000000000000000000000000000056
:103A7000000000000000000000FFFFFFFFFFFFFF4D
:103A8000FFFFFFFFFFFFFFFFFFFFFFFFFFFFFFFF46
:103A9000FFFFFFFFFFFFFF0000000000000000002D
:103AA0000000000000000000000000000000000016
:103AB0000000000000000000000000000000000006
:103AC00000000000000000000000000000000000F6
:103AD00000000000000000000000000000000000E6
:103AE00000000000000000000000000000000000D6
:103AF00000000000000000000000000000000000C6
:103B000000000000000000000000000000000000B5
:103B100000000000000000000000000000000000A5
:103B20000000000000000000000000000000000095
:103B30000000000000000000000000000000000085
:103B40000000000000000000000000000000000075
:103B50000000000000000000000000000000000065
:103B60000000000000000000000000000000000055
:103B70000000000000000000000000000000000045
:103B800000000000000000FFFFFFFFFFFFFFFFFF3E
:103B9000FFFFFFFFFFFFFFFFFFFFFFFFFFFFFFFF35
:103BA000FFFFFFFFFFFFFFFFFFFFFFFFFFFFFFFF25
:103BB00003FF0F00FFFFFFFFFFFFFFFFFFFFFFFF00
:103BC000C0FF030000000000000000000000000033
:103BD000F0FF0000000000000000000000000000F6
:103BE000FC00000000000000000000000000F003E6
:103BF00000000000000000000000000000F0FF00D6
:103C0000000000000000000000000000F0FF0000C5
:103C10000000000000000000000000F0FF000000B5
:103C200000000000000000000000F0FF00000000A5
:103C3000000000000000000000F0FF000000000095
:103C40000000000000000000F0FF00000000000085
:103C500000000000000000F0FF0000000000000075
:103C6000000000000000F0FF000000000000000065
:103C70000000000000F0FF00000000000000000055
:103C800000000000F0FF0000000000000000000045
:103C9000000000F003000000000000000000000031
:103CA000000000FC00000000000000000000000018
:103CB00000F0FFFFFFFFFFFFFFFFFFFFFFFFFFC061
:103CC000FF03FFFFFFFFFFFFFFFFFFFFFF03FF0FEC
:103CD0000000F0FFC0FFFFFFFFFFFFFFFFFFFFFF40
:103CE000C0FF03FFFFFFFFFFFFFFFFFFFFFFFFFF1F
:103CF0000F000000000000000000000000003F0076
:103D000000000000000000000000000000C00F00E4
:103D1000000000000000000000000000FF0F000095
:103D20000000000000000000000000FF0F00000085
:103D300000000000000000000000FF0F0000000075
:103D4000000000000000000000FF0F000000000065
:103D50000000000000000000FF0F00000000000055
:103D600000000000000000FF0F0000000000000045
:103D7000000000000000FF0F000000000000000035
:103D80000000000000FF0F00000000000000000025
:103D900000000000FF0F0000000000000000000015
:103DA000000000FF0F000000000000000000000005
:103DB0000000C00F00000000000000000000000034
:103DC000003F0000000000000000000000000000B4
:103DD000FF0F00000000000000000000000000C015
:103DE000FF03FFFFFFFFFFFFFFFFFFFFFFFF00F0ED
:103DF000FFC0FFFFFFFFFFFFFFFFFFFFFF001124DA
:103E00001FBECFEFD0E2DEBFCDBF14E0A0E0B1E037
:103E1000E4ECFDE800E00BBF02C007900D92A83D66
:103E2000B107D9F715E0A8EDB4E001C01D92A730A5
:103E3000B107E1F70E94FD380C94E0460C940000B5
:103E400093E89093B00091E09093B1008093B30019
:103E500008959C019093F4048093F30486E390E02A
:103E6000809300402115310589F480EF90E0909314
:103E7000F0048093EF0480E491E09093F204809347
:103E8000F10488E490E0809300413BC0213031058B
:103E900089F480E491E09093F0048093EF0480EF44
:103EA00090E09093F2048093F10488EE90E0809388
:103EB000004127C02230310589F480EF90E09093D3
:103EC000F0048093EF0480E491E09093F2048093F7
:103ED000F10488E890E08093004113C0233031055D
:103EE00081F480E491E09093F0048093EF0480EFFC
:103EF00090E09093F2048093F10488E290E0809344
:103F000000418AE290E08093004020E030E030936E
:103F10000041209300418091EF049091F0040197BB
:103F200090930041809300418BE290E080930040A9
:103F300030930041209300418091F1049091F2046C
:103F40000197909300418093004108951F93682F3B
:103F5000873718F010E066E711C0883010F468E089
:103F60000CC08D3310F010E009C08F3110F011E05B
:103F700005C0803110F012E001C013E081EB90E049
:103F8000809300401093004170E0882777FD809572
:103F9000982F0E949F3E9B01AC0160E070E080EF93
:103FA00094E40E94C33D0E94F33A70E002C075950C
:103FB00067951A95E2F7609300411F9108950F935A
:103FC0001F93DF93CF93CDB7DEB728970FB6F89442
:103FD000DEBF0FBECDBF29833A834B835C836D83E5
:103FE0007E838F83988769817A812B813C81ED81E3
:103FF000FE814F8158858AE290E080930040709363
:1040000000416093004130930041209300418BE2D6
:1040100090E080930040F0930041E0930041509382
:104020000041409300418CE290E0809300402F5F7C
:104030003F4F261B370B4F5F5F4F4E1B5F0B241705
:104040003507C8F4842F877090E0829FB001839F6A
:10405000700D929F700D1124F3E056954795FA95D7
:10406000E1F7842F90E0829FF001839FF00D929FF3
:10407000F00D112418C0822F877090E0849FB0014A
:10408000859F700D949F700D1124E3E03695279560
:10409000EA95E1F7822F90E0849FF001859FF00D73
:1040A000949FF00D1124862F877005C01093004156
:1040B0000093004181508823C9F7CB0123E09695F6
:1040C00087952A95E1F78E0F9F1F21C0109300411D
:1040D0000093004110930041009300411093004170
:1040E0000093004110930041009300411093004160
:1040F0000093004110930041009300411093004150
:1041000000930041109300410093004101970097F4
:10411000E9F628960FB6F894DEBF0FBECDBFCF915B
:10412000DF911F910F910895EF92FF920F931F93CC
:10413000DF93CF93CDB7DEB728970FB6F894DEBFE5
:104140000FBECDBF29833A834B835C836D837E830F
:104150008F83988729813A81AB81BC81ED80FE8075
:104160006F8178858AE290E080930040309300412F
:1041700020930041B0930041A09300418BE290E076
:1041800080930040F0920041E09200417093004122
:10419000609300418CE290E0809300400FC0F801F2
:1041A000819191918F0190930041809300414F5FE5
:1041B0005F4F6417750798F72F5F3F4FA217B3073C
:1041C00010F0A701F6CF28960FB6F894DEBF0FBE09
:1041D000CDBFCF91DF911F910F91FF90EF90089588
:1041E0000F931F93DF93CF93CDB7DEB728970FB60A
:1041F000F894DEBF0FBECDBF1092F6041092F50406
:104200001092F8041092F7042091EF043091F0041A
:10421000215030408091F1049091F20401971A826C
:104220001982422F3C832B831E821D8298878F83A5
:104230000091FB041091FC0429813A815C816D811D
:104240007E8198850E94DF1F28960FB6F894DEBF06
:104250000FBECDBFCF91DF911F910F91089586E0E2
:104260008093750080E8809374003F9A249A80EDD3
:1042700097E00197F1F7479880E49CE90197F1F7FF
:10428000479A80EB94E028EC30E0F9013197F1F7A0
:104290000197D9F788E290E08093004081E190E0B7
:1042A0008093004088E592E028EC30E0F9013197F6
:1042B000F1F70197D9F741E050E08BEC90E0809363
:1042C00000404093004180EC90E08093004088E003
:1042D00096E2909300418093004120E130E081EC30
:1042E00090E0809300402093004185EC90E0809323
:1042F00000408EE395E3909300418093004125EBCD
:1043000030E087EC90E0809300402093004186EFFE
:1043100090E0809300404093004180E090E09093D3
:1043200000418093004125E530E08AE390E08093EE
:1043300000402093004181E090E00E94291F0E94EC
:10434000F0201092F6041092F5041092F8041092E6
:10435000F7041092FC041092FB048FEF9FEF9093F0
:10436000FA048093F90489E290E08093004084EF9E
:1043700091E028EC30E0F9013197F1F70197D9F796
:1043800080E090E025E330E02093004080930041FE
:1043900080916A00806280936A002C9A0895CF927F
:1043A000DF92EF92FF920F931F93CF93DF93982F9B
:1043B0004091F5045091F6048A010C5F1F4F209143
:1043C000F7043091F8048A30A9F41092F6041092A0
:1043D000F504285F3F4F3093F8042093F704809151
:1043E000F1049091F2042817390708F489C00E945B
:1043F000F02086C080528F3508F082C0E9012796F0
:1044000085E09802F0011124E850F0408BE290E042
:10441000809300403093004120930041D0930041AD
:10442000C0930041BAE2CB2ED12CACE2EA2EF12CA3
:1044300029C0C092004050930041409300415093E6
:10444000004140930041E0920040B491B901A1E0E5
:1044500013C08A2F8B2329F08091F9049091FA04DC
:1044600004C08091FB049091FC04909300418093E0
:1044700000416F5F7F4FAA0FC617D70750F73196DD
:104480004F5F5F4F04171507A0F68AE290E0809314
:1044900000405093004140930041509300414093AD
:1044A00000418CE290E0809300400AC08091FB04C0
:1044B0009091FC0490930041809300412F5F3F4F07
:1044C000C217D30798F78091F5049091F6040696E9
:1044D0009093F6048093F5042091EF043091F0045A
:1044E0008217930768F01092F6041092F5048091F9
:1044F000F7049091F80408969093F8048093F704D9
:10450000DF91CF911F910F91FF90EF90DF90CF90AF
:1045100008951F93CF93DF93EC0110E003C00E9436
:10452000CF211F5FFE01E10FF11D80818823B9F7C4
:10453000DF91CF911F9108951F93CF93DF93EC01EB
:104540007093F6046093F5045093F8044093F704D5
:1045500010E003C00E94CF211F5FFE01E10FF11D9B
:1045600080818823B9F7DF91CF911F910895EF9251
:10457000FF920F931F93CF93DF93C0E0D0E010E83A
:10458000E12EF12C082F10E0C7010C2E02C09595EA
:1045900087950A94E2F780239123892B11F081E318
:1045A00001C08EE20E94CF212196C830D10561F76B
:1045B000DF91CF911F910F91FF90EF90089590E0C0
:1045C000AC0140735070542F4427550F550F9C0178
:1045D0002C7030703695322F222737952795422B35
:1045E000532B476E59638370907023E0880F991F97
:1045F0002A95E1F7482B592BCA0108950F931F9371
:10460000CF93DF938B019C01220F331F280F391F9B
:10461000220F331FE901C770D07040E050E0CA019B
:10462000B9010E94513F20E030E040E05EE30E948B
:10463000C93C0E94F33AAB01F801E60FF71FE49181
:104640006E2F70E0AFE3B0E0CD010C2E02C0880FFA
:10465000991F0A94E2F7682379230C2E02C07595FE
:1046600067950A94E2F7C330D105D0F04F5F5F4FF2
:10467000400F511FFA01849128E030E02C1B3D0BC4
:1046800090E0022E02C0B595A7950A94E2F78A231E
:104690009B2302C0880F991F2A95E2F7682B792B7C
:1046A000862FDF91CF911F910F910895EF92FF9286
:1046B0000F931F93CF93DF9379012AE230E0209389
:1046C000004090930041809300410197840F951F13
:1046D00090930041809300418BE290E080930040F2
:1046E000709300416093004161507040640F751FEA
:1046F00070930041609300418CE290E08093004011
:10470000449F8001459F100D549F100D1124C0E05F
:10471000D0E00CC0F701EC0FFD1FE4918E2F0E943A
:10472000DF2290930041809300412196C017D1076A
:1047300088F3DF91CF911F910F91FF90EF90089533
:104740008F929F92AF92BF92CF92DF92EF92FF92A1
:104750000F931F93CF93DF9379012AE230E02093E8
:10476000004090930041809300410197840F951F72
:1047700090930041809300418BE290E08093004051
:10478000709300416093004161507040640F751F49
:1047900070930041609300418CE290E08093004070
:1047A000449F6001459FD00C549FD00C112400E021
:1047B00010E0C0E0D0E08FE3A82EB12CB8E08B2E43
:1047C000912C45C0BE0167707070AE01A3E0569594
:1047D0004795AA95E1F7F701E40FF51FE491AE2F95
:1047E000B0E0C501062E02C0880F991F0A94E2F7B7
:1047F000A823B923062E02C0B595A7950A94E2F71F
:1048000063307105D0F04F5F5F4F4E0D5F1DFA01B1
:104810008491A401461B570B90E09501042E02C021
:10482000359527950A94E2F78223932302C0880FD7
:10483000991F4A95E2F7A82BB92B8A2F0E94DF22F5
:1048400090930041809300410F5F1F4F26960C15F7
:104850001D0508F4B7CFDF91CF911F910F91FF9005
:10486000EF90DF90CF90BF90AF909F908F90089582
:104870002F923F924F925F926F927F928F929F9270
:10488000AF92BF92CF92DF92EF92FF920F931F935E
:10489000DF93CF93CDB7DEB760970FB6F894DEBF46
:1048A0000FBECDBF9E838D8338872F835801415023
:1048B0005040069F9001079F300D169F300D112428
:1048C0003A8329837C836B8322243324CB01840F96
:1048D000951F9A878987ED81FE810E9FD0010F9FDA
:1048E000B00D1E9FB00D1124BC87AB87E40FF51FE0
:1048F000FE87ED87A1C0B70167707070A70133E034
:10490000569547953A95E1F7EF81F885E40FF51F45
:10491000E4918E2F90E0988B8F878FE390E0062EA6
:1049200002C0880F991F0A94E2F7AF85B889A823BF
:10493000B923062E02C0B595A7950A94E2F7B88B65
:10494000AF876330710500F14F5F5F4FEF81F885EE
:104950004E0F5F1FFA01849148E050E0461B570B51
:1049600090E02FE330E0042E02C0359527950A949D
:10497000E2F78223932302C0880F991F4A95E2F73A
:10498000A82BB92BB88BAF87CC24DD242EC02AE20C
:1049900030E020930040C801840D951D90930041A4
:1049A0008093004190930041809300418BE290E01E
:1049B000809300409092004180920041909200418B
:1049C00080920041ACE2B0E0A09300408F850E944D
:1049D000DF2290930041809300410F5F1F4F0A1523
:1049E0001B05A8F20894C11CD11CCA14DB0438F4BE
:1049F00089809A808C0C9D1C00E010E0F0CF089418
:104A0000611C711C0894211C311C4A0C5B1CE6E0E3
:104A1000F0E0EE0EFF1E2D853E852615370508F0C9
:104A20006ACF8B819C8101969C838B83A981BA81FB
:104A3000AA0DBB1DBA83A983EB81FC8129853A8528
:104A40002E173F0760F04B845C847101EE0CFF1C55
:104A5000E20CF31CEE0CFF1C6D807E80DCCF6096B8
:104A60000FB6F894DEBF0FBECDBFCF91DF911F917F
:104A70000F91FF90EF90DF90CF90BF90AF909F90FD
:104A80008F907F906F905F904F903F902F90089500
:104A90002F923F924F925F926F927F928F929F924E
:104AA000AF92BF92CF92DF92EF92FF920F931F933C
:104AB000CF93DF935C012901415050408B01CC24FE
:104AC000DD243A01660E771E4A018A0C9B1C4CE2DB
:104AD000242E312C30C0F70184912AE230E020935B
:104AE0000040D0930041C0930041D0930041C09357
:104AF0000041EBE2F0E0E0930040109300410093AE
:104B0000004110930041009300412092004088230F
:104B100031F00E94DF229093004180930041219662
:104B20000894C11CD11C0894E11CF11C8C169D0634
:104B300090F60F5F1F4F6016710628F07201EC0CA3
:104B4000FD1CE501F3CFDF91CF911F910F91FF90F5
:104B5000EF90DF90CF90BF90AF909F908F907F901D
:104B60006F905F904F903F902F9008952F923F92BB
:104B70004F925F926F927F928F929F92AF92BF926D
:104B8000CF92DF92EF92FF920F931F93CF93DF9319
:104B90004C015901415050407B01CC24DD242A01B5
:104BA000460E571E3A01680C791CFFE32F2E312C5C
:104BB0006EC08AE290E08093004010930041009321
:104BC00000411093004100930041EBE2F0E0E093DC
:104BD0000040F0920041E0920041F0920041E092EA
:104BE00000418CE290E080930040BE0167707070DD
:104BF000AE01E3E056954795EA95E1F7F501E40F3C
:104C0000F51FE491AE2FB0E0C101062E02C0880F5F
:104C1000991F0A94E2F7A823B923062E02C0B5957E
:104C2000A7950A94E2F763307105D8F04F5F5F4FA4
:104C30004A0D5B1DFA01849148E050E0461B570B7A
:104C400090E09101042E02C0359527950A94E2F771
:104C50008223932302C0880F991F4A95E2F7A82B5D
:104C6000B92B109739F08A2F0E94DF2290930041D0
:104C7000809300410F5F1F4F0894C11CD11C2696E2
:104C80006016710608F095CF0894E11CF11C4E14D3
:104C90005F0448F0E601CC0FDD1FCC0DDD1DCC0F0D
:104CA000DD1F8401EDCFDF91CF911F910F91FF9018
:104CB000EF90DF90CF90BF90AF909F908F907F90BC
:104CC0006F905F904F903F902F9008952F923F925A
:104CD0004F925F926F927F928F929F92AF92BF920C
:104CE000CF92DF92EF92FF920F931F93DF93CF93B8
:104CF000CDB7DEB763970FB6F894DEBF0FBECDBF5A
:104D00009F838E83598748873B872A871D870C8717
:104D10004A010894810891082E2D28702B833E2D7E
:104D200030713A834E2D40724983AE2DB0E0A770AA
:104D3000B070BD83AC838B011401442455246624D8
:104D40007724F401E60FF71FFF87EE872E813F815E
:104D5000280D391D398B288B82C04E815F815B8B7A
:104D60004A8BAA84BB84A40CB51C6401EE24FF24E6
:104D700066C05A81503111F0930101C091016B81DD
:104D8000683011F0C70101C0C601AAE2B0E0A093EB
:104D90000040EA89FB89F0930041E0930041F093E1
:104DA0000041E09300414BE250E0409300401093FB
:104DB00000410093004110930041009300416CE2D8
:104DC00070E060930040F5014491442331F16C811F
:104DD0007D81672BD9F0A885B9852A9FF0012B9F8B
:104DE000F00D3A9FF00D1124E80FF91F2C853D8539
:104DF000E20FF31F8491882319F03981303231F4A6
:104E00008491882351F45981503239F4842F0E94BF
:104E1000DF2290930041809300416A897B896F5F14
:104E20007F4F7B8B6A8B0894E11CF11C0894411C1A
:104E3000511C0894C108D1080894A11CB11C8A898E
:104E40009B89A889B989A817B90708F092CF0F5F85
:104E50001F4F0894611C711C089421083108EE85CD
:104E6000FF85E017F10708F078CF63960FB6F89446
:104E7000DEBF0FBECDBFCF91DF911F910F91FF908D
:104E8000EF90DF90CF90BF90AF909F908F907F90EA
:104E90006F905F904F903F902F9008952F923F9288
:104EA0004F925F926F927F928F929F92AF92BF923A
:104EB000CF92DF92EF92FF920F931F93DF93CF93E6
:104EC000CDB7DEB767970FB6F894DEBF0FBECDBF84
:104ED0009D878C873F872E87198B088B9A012150DD
:104EE00030403C832B833E2D387039879E2D907146
:104EF0009887AE2DA072AF83EE2DF0E0E770F070D2
:104F0000FB87EA875B014A01880C991C840E951E79
:104F1000880C991C2B813C813A8329836624772451
:104F20001E821D82C901860F971F9B8B8A8BD90118
:104F3000EC85FD85AE0FBF1FBD8BAC8B07C1CC844C
:104F4000DD847301EE0CFF1CE60CF71CEE0CFF1C5D
:104F50002B803C8044245524E5C0A7014770507045
:104F60009701A3E035952795AA95E1F7EE85FF8592
:104F7000E20FF31FE4910E2F10E08FE390E0042E78
:104F800002C0880F991F0A94E2F708231923042E00
:104F900002C0159507950A94E2F743305105FCF0DD
:104FA0002F5F3F4F8E859F85280F391FF901849110
:104FB00028E030E0241B350BA90190E02FE330E01E
:104FC000042E02C0359527950A94E2F78223932395
:104FD00002C0880F991F4A95E2F7082B192B01157B
:104FE000110509F48FC03885303119F04D815E818B
:104FF00002C049815A818985883011F0C20101C0FF
:10500000C101489D9001499D300D589D300D1124DE
:10501000280F391FC90168E070E00E940B428E8B97
:105020009F8BC90168E070E00E940B429B01E889F8
:10503000F989E60FF71FE491AFE3B0E00E8802C0F4
:10504000AA0FBB1F0A94E2F78E2F90E0A823B92382
:105050000E8802C0B595A7950A94E2F7EE89FF89FC
:10506000339704F12F5F3F4F88899989280F391FA3
:10507000F901849148E050E02E893F89421B530B8F
:1050800090E02FE330E0042E02C0359527950A9476
:10509000E2F78223932302C0880F991F4A95E2F713
:1050A000A82BB92B8A859B85892B49F0AB2B21F046
:1050B0009F81903221F426C0AF81A03219F5EAE237
:1050C000F0E0E0930040D0920041C0920041D092C5
:1050D0000041C09200412BE230E020930040B092AA
:1050E0000041A0920041B0920041A09200418CE2A8
:1050F00090E080930040802F0E94DF229093004137
:10510000809300410894C11CD11C0894411C511C7F
:105110000894611C711C089421083108A6E0B0E0D5
:10512000EA0EFB1EEC89FD89EC15FD0508F015CF94
:105130000894A11CB11C2D813E812F5F3F4F3E83FF
:105140002D8389819A8101979A838983AA89BB8952
:10515000AA15BB0508F0F3CE67960FB6F894DEBF2C
:105160000FBECDBFCF91DF911F910F91FF90EF90B8
:10517000DF90CF90BF90AF909F908F907F906F9077
:105180005F904F903F902F900895A0E0B0E0809303
:10519000DE049093DF04A093E004B093E10481E087
:1051A0008093E2040895FC0184910895FC01259107
:1051B0003491C90108958091180390911903909337
:1051C0001D0380931C0380911A0390911B039093FD
:1051D0001F0380931E03089590E09C01229FC0014D
:1051E000239F900D329F900D1124889F9001899FDD
:1051F000300D989F300D11242C5E3F4FC90108954A
:10520000660F771F681B790B6230710510F462E03E
:1052100070E0CB01089570E0660F771F680F711D75
:1052200080EB90E0689FF001699FF00D789FF00D92
:105230001124E40FF51FEE0FFF1FE20FF11DEB56D7
:10524000FD4F25913491C901089570E0660F771FD5
:10525000680F711D80EB90E0689FF001699FF00D71
:10526000789FF00D1124E40FF51FEE0FFF1FE20FE2
:10527000F11DEB56FD4FE4918E2F089508958DB7E3
:105280009EB708970FB6F8949EBF0FBE8DBFEDB7BF
:10529000FEB731968091FD049091FE04ADB7BEB784
:1052A00012969C938E93119780E091E09383828372
:1052B00080911803909119039583848380911A0338
:1052C00090911B03978386830E94CC438DB79EB732
:1052D00008960FB6F8949EBF0FBE8DBF8091FD0457
:1052E0009091FE0460E070E040E050E00E949C225B
:1052F000ADB7BEB718970FB6F894BEBF0FBEADBF1F
:10530000EDB7FEB731968091FD049091FE041296A0
:105310009C938E93119787E191E093838283809190
:105320001803909119039583848380911A039091B7
:105330001B03978386830E94CC438DB79EB7089644
:105340000FB6F8949EBF0FBE8DBF8091FD04909163
:10535000FE0460E070E048E050E00E949C22ADB79F
:10536000BEB718970FB6F894BEBF0FBEADBFEDB76E
:10537000FEB731968091FD049091FE0412969C93A5
:105380008E9311978EE291E0938382838091200324
:10539000909121039583848380912203909123032C
:1053A000978386830E94CC438DB79EB708960FB62D
:1053B000F8949EBF0FBE8DBF8091FD049091FE04B6
:1053C00060E070E040E150E00E949C220895CF939D
:1053D000DF93882321F1C0E0D0E0CE016CED70E0D6
:1053E00044E150E029E73AE30E94A023649681E07B
:1053F000C034D80791F780E090E06CED70E044E1B4
:1054000050E021ED3CE30E94A0238CE291E06CEDA2
:1054100070E044E150E025EA3BE30E94A02380EEE7
:1054200097E09093FA048093F90400D000D000D064
:10543000EDB7FEB731968091FD049091FE04ADB7B3
:10544000BEB712969C938E93119781E491E093835B
:1054500082838CE293E0958384830E94CC438DB752
:105460009EB706960FB6F8949EBF0FBE8DBF809173
:10547000FD049091FE0463E070E04EED50E00E9468
:105480009C228FEF9FEF9093FA048093F904ADB7BD
:10549000BEB71C970FB6F894BEBF0FBEADBFEDB739
:1054A000FEB731968091FD049091FE0412969C9374
:1054B0008E93119786E491E09383828380912403F5
:1054C00090912503958384838091590390915A0389
:1054D00097838683809157039091580391878087A3
:1054E00080911703828713860E94CC438DB79EB7A5
:1054F0000C960FB6F8949EBF0FBE8DBF8091FD0431
:105500009091FE0462E370E04EED50E00E949C2218
:10551000DF91CF9108952F923F924F925F926F92B9
:105520007F928F929F92AF92BF92CF92DF92EF9233
:10553000FF920F931F93DF93CF93CDB7DEB72897DA
:105540000FB6F894DEBF0FBECDBF382F522F022FFB
:1055500010E0A42FB0E080911803909119038A17EE
:105560009B0719F0E0E0F0E00BC0E0E0F0E0809194
:105570001A0390911B038017910711F4E1E0F0E00A
:10558000E887232F30E0762F7F70C901E4E0880F91
:10559000991FEA95E1F7782B7F835F70CD01F4E0E6
:1055A000880F991FFA95E1F7582B5E83C801E4E054
:1055B000880F991FEA95E1F7480F862F90E0880F32
:1055C000991F820F931F20EB30E0829FF001839F91
:1055D000F00D929FF00D1124E40FF11DEE0FFF1F4F
:1055E000EA56FD4FE4918E2F8F7089838E2F82951E
:1055F0008F708A831B821C82EF73ED8384E190E0BD
:10560000A89F4001A99F900CB89F900C1124089F5F
:105610005001099FB00C189FB00C11248E2F90E000
:10562000877090702CE231E0829F3001839F700C74
:10563000929F700C112485E198E0680E791ECC24AD
:10564000DD245CE2452E51E0552E40EB242E44E053
:10565000342E97C091E0C916D10409F092C00FE82A
:1056600012E039EBE32E33E0F32E0E5F1F4FF8010B
:10567000849102501040482F50E086FF25C0F7016A
:105680008581682F70E082FF4FC0F8018491FF810F
:105690008F1709F049C0F7018081FE818F1709F04B
:1056A00043C04F705070429D9001439D300D529DFC
:1056B000300D112463707070649DC001659D900D64
:1056C000749D900D112426C0F8018491FF818F17DD
:1056D00059F50F5F1F4FF801849101501040FE8172
:1056E0008F1711F5CA01807C907024E095958795FD
:1056F0002A95E1F7849D9001859D300D949D300D94
:1057000011244F705070429DC001439D900D529DD9
:10571000900D1124280F391F2F543F4DC401B5019E
:1057200044E150E00E94B6250D5F1F4F46E050E077
:10573000E40EF51E52E00539150709F096CF78857D
:105740007723F9F08091120390E0849D9001859D6C
:10575000300D949D300D11248091130390E0FC01D5
:10576000E29DC001E39D900DF29D900D1124280F44
:10577000391F2F543F4DC401B50144E150E00E9450
:10578000B625E1E0F0E0EC0FFD1FEC0DFD1D808182
:10579000882351F1C114D10489F490E0849D9001D3
:1057A000859D300D949D300D11242B583E4EC40123
:1057B000B50144E150E00E94A02316C0F1E0CF16ED
:1057C000D10491F490E0849D9001859D300D949DCD
:1057D000300D11242B583E4EC401B50144E150E078
:1057E0008301ED800E944E270894C11CD11C24E047
:1057F000C216D10409F02ECF28960FB6F894DEBF5A
:105800000FBECDBFCF91DF911F910F91FF90EF9011
:10581000DF90CF90BF90AF909F908F907F906F90D0
:105820005F904F903F902F9008958091200360915A
:10583000220340911C0320911E030E948B2A809119
:105840002003609122034091180320911A030E94C3
:105850008B2A0895EF92FF920F931F93E82EF62E56
:105860008FEF9FEF9093FA048093F90488E691E01C
:1058700064E071E044ED50E00E949C2200E00CC026
:105880008E2D6F2D402F212F0E948B2A1F5F1B30E2
:10589000B9F70F5F003111F010E0F2CF1F910F91B7
:1058A000FF90EF9008952F923F924F925F926F92E8
:1058B0007F928F929F92AF92BF92DF92EF92FF9270
:1058C0000F931F93CF93DF930E94F020DD2463E7B3
:1058D000462E61E0562E50EE652E5FEF752E40EE9F
:1058E000842E47E0942E3FE8232E31E0332E80EDC6
:1058F00097E00197F1F7AD2CBB24A7FCB094F5011C
:10590000EE0FFF1FEE5EFC4F85A18F3FC1F0992780
:1059100087FD90954CE251E0849F9001859F300D6A
:10592000949F300D11242B50394C8AEF90E06AE09F
:1059300070E044E150E003E010E00E94382400D021
:1059400000D000D0EDB7FEB731968091FD04909164
:10595000FE04ADB7BEB712969C938E9311975382F7
:10596000428249E751E0558344830E94CC438DB77E
:105970009EB706960FB6F8949EBF0FBE8DBF80915E
:10598000FD049091FE0460E070E040E050E00E9471
:105990009C22C7E3D3E000E010E090E1E92EF12C77
:1059A000A016B10629F49092FA048092F90404C07A
:1059B0007092FA046092F904ADB7BEB718970FB6AB
:1059C000F894BEBF0FBEADBF11968091FD049091BB
:1059D000FE04EDB7FEB79283818343E851E013964E
:1059E0005C934E931297E881FF27E7FDF095EE0F49
:1059F000FF1FED58FC4F8081918115969C938E93EB
:105A000014978981992787FD909517969C938E937B
:105A100016970E94CC438DB79EB708960FB6F894A0
:105A20009EBF0FBE8DBF8091FD049091FE0460E08B
:105A300070E0A7010E949C220F5F1F4F2296A8E0F2
:105A4000B0E0EA0EFB1E0031110509F0A9CFB0E16C
:105A5000DB1629F49092FA048092F90404C0709243
:105A6000FA046092F90400D000D000D0EDB7FEB780
:105A700031968091FD049091FE04ADB7BEB71296A9
:105A80009C938E93119753824282358224820E9486
:105A9000CC43EDB7FEB736960FB6F894FEBF0FBEF7
:105AA000EDBF8091FD049091FE0460E070E048E954
:105AB00050E00E949C220E942D3A892B39F08D2DB6
:105AC0008F5F61E10E94EA41D92E11CF0E94FE3919
:105AD000892B31F0DA94D7FE0ACFF1E1DF2E07CF20
