:100000000C943A010C9459010C9459010C94590127
:100010000C9459010C9459010C9459010C945901F8
:100020000C9459010C9459010C9459010C945901E8
:100030000C9459010C9459010C9459010C945901D8
:100040000C9459010C9459010C9459010C945901C8
:100050000C9459010C9459010C9459010C945901B8
:100060000C9459010C9459010C9459010C945901A8
:100070000C9459010C9459010C9459010C94590198
:100080000C9459010C9459010C9459010C94590188
:100090000C9459010C945901000000000000005F0D
:1000A00000000003000300143E143E14242A7F2A9B
:1000B000124333086661364955225000050300009B
:1000C000001C2241000041221C0014083E081408B4
:1000D000083E0808005030000008080808080060C2
:1000E00060000020100804023E5149453E00040211
:1000F0007F00426151494622414949361814127F16
:100100001027454545393E494949320101710907E2
:100110003649494936264949493E003636000000ED
:10012000563600000814224100141414141400411F
:1001300022140802015109063E4159555E7E090903
:10014000097E7F494949363E414141227F41414133
:100150003E7F494949417F090909013E4141493AE8
:100160007F0808087F00417F4100304040403F7FCA
:10017000081422417F404040407F020C027F7F02F2
:1001800004087F3E4141413E7F090909061E2121A5
:10019000215E7F09090976264949493201017F011B
:1001A000013F4040403F1F2040201F7F2010207F04
:1001B00041221C224107087008076151494543004C
:1001C0007F41000002040810200000417F0004026B
:1001D0000102044040404040000102040020545409
:1001E00054787F4444443838444444443844444474
:1001F0007F385454541804047E0505085454543C64
:100200007F0804047800447D40002040443D007F86
:100210001028440000417F40007C047804787C086A
:1002200004047838444444387C1414140808141422
:10023000147C007C080404485454542004043F44B3
:10024000443C4040207C1C2040201C3C4030403C32
:1002500044281028440C5050503C4464544C4400F2
:100260000836414100007F0000414136080002018C
:100270000204020011241FBECFEFD0E2DEBFCDBFCB
:1002800012E1A0E0B1E0E0E3FAE200E00BBF02C05F
:1002900007900D92A231B107D9F712E1A2E1B2E1C4
:1002A00001C01D92A933B107E1F70E9493090C9494
:1002B00016150C94000093E89093B00091E0909391
:1002C000B1008093B30008959C019093261280930F
:1002D000251286E390E0809300402115310589F4D2
:1002E00080EF90E0909322128093211280E491E0BD
:1002F000909324128093231288E490E0809300412D
:100300003BC02130310589F480E491E090932212C2
:100310008093211280EF90E0909324128093231217
:1003200088EE90E08093004127C02230310589F4A7
:1003300080EF90E0909322128093211280E491E06C
:10034000909324128093231288E890E080930041D8
:1003500013C02330310581F480E491E090932212A0
:100360008093211280EF90E09093241280932312C7
:1003700088E290E0809300418AE290E08093004020
:1003800020E030E030930041209300418091211221
:1003900090912212019790930041809300418BE24B
:1003A00090E0809300403093004120930041809181
:1003B0002312909124120197909300418093004161
:1003C00008951F93682F873718F010E066E711C073
:1003D000883010F468E00CC08D3310F010E009C0D4
:1003E0008F3110F011E005C0803110F012E001C033
:1003F00013E081EB90E0809300401093004170E0A7
:10040000882777FD8095982F0E945C0E9B01AC0198
:1004100060E070E080EF94E40E94800D0E94AA0BDF
:1004200070E002C0759567951A95E2F760930041F8
:100430001F9108950F931F93DF93CF93CDB7DEB72E
:1004400028970FB6F894DEBF0FBECDBF29833A833D
:100450004B835C836D837E838F83988769817A81E8
:100460002B813C81ED81FE814F8158858AE290E0AD
:1004700080930040709300416093004130930041AD
:10048000209300418BE290E080930040F093004184
:10049000E093004150930041409300418CE290E092
:1004A000809300402F5F3F4F261B370B4F5F5F4FFE
:1004B0004E1B5F0B24173507C8F4842F877090E01C
:1004C000829FB001839F700D929F700D1124F3E005
:1004D00056954795FA95E1F7842F90E0829FF001B9
:1004E000839FF00D929FF00D112418C0822F87700A
:1004F00090E0849FB001859F700D949F700D112432
:10050000E3E036952795EA95E1F7822F90E0849F06
:10051000F001859FF00D949FF00D1124862F8770B8
:1005200005C0109300410093004181508823C9F712
:10053000CB0123E0969587952A95E1F78E0F9F1FB3
:1005400021C010930041009300411093004100939B
:10055000004110930041009300411093004100932B
:10056000004110930041009300411093004100931B
:10057000004110930041009300411093004100930B
:10058000004101970097E9F628960FB6F894DEBF70
:100590000FBECDBFCF91DF911F910F910895AC0198
:1005A000437050709A01322F22273295307F81702C
:1005B0009070A6E0880F991FAA95E1F7282B392B98
:1005C000242B352BC9010895992787FD9095AC01FF
:1005D00040735070542F4427550F550F9C012C70B9
:1005E00030703695322F222737952795422B532B83
:1005F000476E59638370907023E0880F991F2A9586
:10060000E1F7482B592BCA010895EF92FF920F93FF
:100610001F93DF93CF93CDB7DEB728970FB6F8942B
:10062000DEBF0FBECDBF29833A834B835C836D83CE
:100630007E838F83988729813A81AB81BC81ED804D
:10064000FE806F8178858AE290E08093004030934D
:10065000004120930041B0930041A09300418BE200
:1006600090E080930040F0920041E092004170934E
:100670000041609300418CE290E0809300400FC005
:10068000F801819191918F019093004180930041F5
:100690004F5F5F4F6417750798F72F5F3F4FA217A3
:1006A000B30710F0A701F6CF28960FB6F894DEBF77
:1006B0000FBECDBFCF91DF911F910F91FF90EF90B3
:1006C0000895EF92FF920F931F93CF93DF937901D9
:1006D0002AE230E020930040909300418093004153
:1006E0000197840F951F90930041809300418BE206
:1006F00090E080930040709300416093004161500E
:100700007040640F751F70930041609300418CE24C
:1007100090E080930040449F8001459F100D549FBE
:10072000100D1124C0E0D0E00CC0F701EC0FFD1F4C
:1007300080818F730E94E402909300418093004176
:100740002196C017D10788F3DF91CF911F910F91A8
:10075000FF90EF9008952F923F924F925F926F9289
:100760007F928F929F92AF92BF92CF92DF92EF9241
:10077000FF920F931F93CF93DF936C012901EB013D
:10078000AA24BB2421973E01640E751E219608946D
:10079000C108D1084601840E951E0894C11CD11CC5
:1007A000ECE22E2E312C31C08AE290E080930040A2
:1007B00010930041009300411093004100930041C9
:1007C000EBE2F0E0E0930040D0930041C0930041A1
:1007D000D0930041C093004120920040F7018081F6
:1007E00018163CF48F730E94E402909300418093AA
:1007F00000410894A11CB11C0F5F1F4F0894E11C1D
:10080000F11C8016910680F621966C167D0628F064
:100810007201EA0CFB1C8601F4CFDF91CF911F918E
:100820000F91FF90EF90DF90CF90BF90AF909F908F
:100830008F907F906F905F904F903F902F90089592
:100840000F931F93DF93CF93CDB7DEB728970FB6E3
:10085000F894DEBF0FBECDBF10922812109227125F
:1008600010922A12109229122091211230912212F4
:1008700021503040809123129091241201971A82C6
:100880001982422F3C832B831E821D8298878F837F
:1008900000912D1210912E1229813A815C816D8177
:1008A0007E8198850E941A0228960FB6F894DEBFC2
:1008B0000FBECDBFCF91DF911F910F91089586E0BC
:1008C0008093750080E8809374003F9A249A80EDAD
:1008D00097E00197F1F7479880E49CE90197F1F7D9
:1008E000479A80EB94E028EC30E0F9013197F1F77A
:1008F0000197D9F788E290E08093004081E190E091
:100900008093004088E592E028EC30E0F9013197CF
:10091000F1F70197D9F741E050E08BEC90E080933C
:1009200000404093004180EC90E08093004088E0DC
:1009300096E2909300418093004120E130E081EC09
:1009400090E0809300402093004185EC90E08093FC
:1009500000408EE395E3909300418093004125EBA6
:1009600030E087EC90E0809300402093004186EFD8
:1009700090E0809300404093004180E090E09093AD
:1009800000418093004125E530E08AE390E08093C8
:1009900000402093004181E090E00E9464010E94A9
:1009A0002004109228121092271210922A121092EC
:1009B000291210922E1210922D128FEF9FEF90930A
:1009C0002C1280932B1289E290E08093004084EFF8
:1009D00091E028EC30E0F9013197F1F70197D9F770
:1009E00080E090E025E330E02093004080930041D8
:1009F00080916A00806280936A002C9A0895CF9259
:100A0000DF92EF92FF920F931F93CF93DF93982F74
:100A100040912712509128128A010C5F1F4F20919C
:100A2000291230912A128A30A9F4109228121092B9
:100A30002712285F3F4F30932A122093291280916A
:100A40002312909124122817390708F489C00E94B4
:100A5000200486C080528F3508F082C0E9012796B5
:100A600085E09802F0011124E850F0408BE290E01C
:100A7000809300403093004120930041D093004187
:100A8000C0930041BAE2CB2ED12CACE2EA2EF12C7D
:100A900029C0C092004050930041409300415093C0
:100AA000004140930041E0920040B491B901A1E0BF
:100AB00013C08A2F8B2329F080912B1290912C1236
:100AC00004C080912D1290912E129093004180933A
:100AD00000416F5F7F4FAA0FC617D70750F73196B7
:100AE0004F5F5F4F04171507A0F68AE290E08093EE
:100AF0000040509300414093004150930041409387
:100B000000418CE290E0809300400AC080912D1259
:100B100090912E1290930041809300412F5F3F4FA0
:100B2000C217D30798F78091271290912812069642
:100B30009093281280932712209121123091221233
:100B40008217930768F01092281210922712809152
:100B5000291290912A12089690932A1280932912B2
:100B6000DF91CF911F910F91FF90EF90DF90CF9089
:100B700008951F93CF93DF93EC0110E003C00E9410
:100B8000FF041F5FFE01E10FF11D80818823B9F78B
:100B9000DF91CF911F9108951F93CF93DF93EC01C5
:100BA000709328126093271250932A1240932912AF
:100BB00010E003C00E94FF041F5FFE01E10FF11D62
:100BC00080818823B9F7DF91CF911F910895EF922B
:100BD000FF920F931F93CF93DF93C0E0D0E010E814
:100BE000E12EF12C082F10E0C7010C2E02C09595C4
:100BF00087950A94E2F780239123892B11F081E3F2
:100C000001C08EE20E94FF042196C830D10561F731
:100C1000DF91CF911F910F91FF90EF900895409138
:100C20001212552747FD5095A091EF10BB27A7FD45
:100C3000B09526E130E0429FF001439FF00D529FB6
:100C4000F00D11242BE030E0A901A49F9001A59F95
:100C5000300DB49F300D1124E20FF31FE60FF11D8C
:100C600094E0EE0FFF1F9A95E1F7E80FF11DE75DA5
:100C7000F14F808108958091EB108093ED10809169
:100C8000EC108093EE100895CF93DF93C0E0D0E096
:100C9000CE016CED70E044E150E029E536E00E94C1
:100CA0006103649681E0C034D80791F780E090E05A
:100CB0006CED70E044E150E029EC34E00E94610307
:100CC0008CE291E06CED70E044E150E029EE37E019
:100CD0000E946103DF91CF9108956F927F928F926E
:100CE0009F92AF92BF92CF92DF92EF92FF920F93BB
:100CF0001F93CF93DF93EE24FF24CC24DD2440E622
:100D0000642E41E0742E30EB832E912C20E9A22E2C
:100D100021E0B22E43C020911212332727FD3095D7
:100D20008091EF10992787FD9095269DF001279DD2
:100D3000F00D369DF00D11249C01289DC001299DC8
:100D4000900D389D900D1124E80FF91FE75DF14FCC
:100D5000EC0FFD1FEE0DFF1D808190E08A9D90013C
:100D60008B9D300D9A9D300D112427553E4FC601A5
:100D7000B80144E150E00E94610360960C5E1F4F91
:100D8000C03BD10541F60894E11CF11C84E190E0E0
:100D9000C80ED91E90E1E916F10429F0C0E0D0E0B8
:100DA00000E010E0B8CFDF91CF911F910F91FF903D
:100DB000EF90DF90CF90BF90AF909F908F907F90FB
:100DC0006F9008950F931F938091EB1004E18002C0
:100DD000C00111246091EC106002B001112444E1C3
:100DE00050E029E333E00E94AB03B091ED10A091F5
:100DF000EE10B002C0011124A00280011124409124
:100E00001212552747FD50956091EF10772767FD27
:100E1000709526E130E0429FF001439FF00D529F14
:100E2000F00D11242BE030E0A901649F9001659F33
:100E3000300D749F300D1124E20FF31FEA0FF11DE6
:100E400054E0EE0FFF1F5A95E1F7EB0FF11DE75D40
:100E5000F14F208130E040E951E0B901649F9001F9
:100E6000659F300D749F300D112427553E4FB801FA
:100E700044E150E00E9461038DB79EB708970FB61A
:100E8000F8949EBF0FBE8DBFEDB7FEB7319680912F
:100E90002F1290913012ADB7BEB712969C938E93DD
:100EA000119780E091E0938382838091EB109927E2
:100EB00087FD9095958384838091EC10992787FD19
:100EC0009095978386830E943F124DB75EB7485F27
:100ED0005F4F0FB6F8945EBF0FBE4DBF80912F12CB
:100EE0009091301260E070E040E050E00E94CC054C
:100EF0006DB77EB7685070400FB6F8947EBF0FBED6
:100F00006DBFEDB7FEB7319680912F1290913012E0
:100F1000ADB7BEB712969C938E93119789E191E07D
:100F2000938382838091ED10992787FD9095958317
:100F300084838091EE10992787FD9095978386830F
:100F40000E943F124DB75EB7485F5F4F0FB6F894EF
:100F50005EBF0FBE4DBF80912F129091301260E0A6
:100F600070E048E050E00E94CC056DB77EB7685055
:100F700070400FB6F8947EBF0FBE6DBFEDB7FEB7E1
:100F8000319680912F1290913012ADB7BEB7129664
:100F90009C938E93119782E391E093838283809157
:100FA0001212992787FD9095958384838091EF1085
:100FB000992787FD9095978386830E943F124DB7AE
:100FC0005EB7485F5F4F0FB6F8945EBF0FBE4DBF70
:100FD00080912F129091301260E070E040E150E07B
:100FE0000E94CC0580EE9FEF90932C1280932B12E1
:100FF00000D000D000D0EDB7FEB7319680912F120F
:1010000090913012ADB7BEB712969C938E93119704
:1010100085E491E0938382838DEF90E195838483CF
:101020000E943F124DB75EB74A5F5F4F0FB6F8940C
:101030005EBF0FBE4DBF80912F129091301263E0C2
:1010400070E04EED50E00E94CC058FEF9FEF909343
:101050002C1280932B126DB77EB76C5070400FB678
:10106000F8947EBF0FBE6DBFEDB7FEB7319680918D
:101070002F1290913012ADB7BEB712969C938E93FB
:1010800011978AE491E0938382838091F2108483A4
:101090001582809113129091141297838683809108
:1010A000F9109091FA10918780878091FB109091B0
:1010B000FC10938782870E943F124DB75EB7445F52
:1010C0005F4F0FB6F8945EBF0FBE4DBF80912F12D9
:1010D0009091301262E370E04EED50E00E94CC053A
:1010E0006DB77EB7605170400FB6F8947EBF0FBEEB
:1010F0006DBFEDB7FEB7319680912F1290913012EF
:10110000ADB7BEB712969C938E9311978AE691E085
:10111000938382838091F310848315828091F410ED
:10112000868317828091F510808711868091F61052
:10113000828713868091F710848715868091F81036
:10114000868717860E943F124DB75EB7405F5F4F9C
:101150000FB6F8945EBF0FBE4DBF80912F129091D5
:10116000301263E070E046EE50E00E94CC0581E072
:1011700090E01F910F910895BF92CF92DF92EF926E
:10118000FF920F931F93CF93DF93F8ECCF2ED12CC8
:10119000E6E1EE2EF12CCBE0D0E00AE07FE0B72EC6
:1011A00084EF91E0F6013197F1F70197D9F70E94AA
:1011B000420B892B11F410E00CC08091EB1080934E
:1011C000ED109091EC109093EE1081508093EB1005
:1011D00011E00E94130B892B61F08091EB1080933A
:1011E000ED109091EC109093EE108F5F8093EB10C8
:1011F00011E00E94B50A892B61F08091EB10809379
:10120000ED108091EC108093EE1081508093EC10E3
:1012100011E00E94E40A892B61F08091EB10809329
:10122000ED108091EC108093EE108F5F8093EC10A6
:1012300003C0112309F4B4CF8091EB10803114F472
:1012400090E008C01092EB10809112128F5F809393
:10125000121291E08091EB1087FF08C0B092EB1062
:101260008091121281508093121291E08091EC10C3
:101270008B3044F01092EC108091EF108F5F8093D0
:10128000EF1091E08091EC1087FF08C00093EC1004
:101290008091EF1081508093EF1002C0992351F09C
:1012A000809112126091EF100E946D060E94440618
:1012B0000E94E2064091EC1020911212332727FD84
:1012C00030958091EF10992787FD90952E9DF00124
:1012D0002F9DF00D3E9DF00D11249C012C9FC0010F
:1012E0002D9F900D3C9F900D1124E80FF91FE40FE6
:1012F000F11D8091EB1064E0EE0FFF1F6A95E1F79E
:10130000E80FF11DE75DF14F8081863049F480914F
:10131000ED108093EB108091EE108093EC1040CF95
:101320000E94E2063DCFE1E6F0E080E88083108293
:101330000E945F040E94840B8DE30E94E10181E022
:1013400090E00E946401279A2F9810928000E1E8B3
:10135000F0E088E08083808181608083EFE6F0E0C8
:10136000808182608083109299001092980080E1C1
:1013700090E00E943A1180932F1290933012809146
:1013800012126091EF100E946D060E9444060E94A6
:10139000E2060E94BC0881E090E0089500D000D0F1
:1013A00000D0EDB7FEB7319620912F123091301258
:1013B000ADB7BEB712963C932E93119726EA31E053
:1013C00033832283958384830E943F128DB79EB717
:1013D00006960FB6F8949EBF0FBE8DBF80912F1258
:1013E000909130120E94B9050895409133125091A6
:1013F000341220E030E0FA01E20FF31F8081918186
:10140000892B19F021E030E007C02E5F3F4F2A30D2
:10141000310589F720E030E0C9010895CF93DF93CB
:101420004091311250913212C0913312D091341246
:1014300020E030E0FA01E20FF31FDE01A20FB31F3C
:101440008D919C91918380832E5F3F4F2A3031058F
:1014500089F78CB190E0809590958078907099870D
:1014600088878CB190E08095909588709070998372
:1014700088838CB190E080959095847090709B8368
:101480008A838CB190E080959095807290709F8354
:101490008E838CB190E080959095807190709D8343
:1014A0008C830E94F5099093201280931F12DF9184
:1014B000CF910895AC01440F551FE0913312F09184
:1014C0003412E40FF51F80819181892B19F420E0FB
:1014D00030E00FC020E0E0913112F0913212E40FC1
:1014E000F51F80819181892B09F021E081E0282777
:1014F00030E0C9010895880F991FE0913312F091EF
:101500003412E80FF91F808191810895679919C0FD
:101510008091151290911612892B99F480911F12C7
:1015200090912012892B69F481E090E0909316123B
:10153000809315129093201280931F1221E030E0C7
:1015400012C0679B0EC08091151290911612892BC4
:1015500041F0109216121092151210922012109251
:101560001F1220E030E0C9010895329919C080911E
:10157000171290911812892B99F480911F12909153
:101580002012892B69F481E090E0909318128093E7
:1015900017129093201280931F1221E030E012C0A6
:1015A000329B0EC08091171290911812892B41F036
:1015B00010921812109217121092201210921F12ED
:1015C00020E030E0C9010895349919C080911912C2
:1015D00090911A12892B99F480911F1290912012E8
:1015E000892B69F481E090E090931A12809319128C
:1015F0009093201280931F1221E030E012C0349BA0
:101600000EC08091191290911A12892B41F01092FC
:101610001A12109219121092201210921F1220E02A
:1016200030E0C9010895339919C080911B1290913F
:101630001C12892B99F480911F1290912012892BF2
:1016400069F481E090E090931C1280931B129093B8
:10165000201280931F1221E030E012C0339B0EC095
:1016600080911B1290911C12892B41F010921C1238
:1016700010921B121092201210921F1220E030E0E4
:10168000C9010895359919C080911D1290911E12BB
:10169000892B99F480911F1290912012892B69F463
:1016A00081E090E090931E1280931D12909320127F
:1016B00080931F1221E030E012C0359B0EC0809154
:1016C0001D1290911E12892B41F010921E12109241
:1016D0001D121092201210921F1220E030E0C9015A
:1016E0000895359909C080911F1290912012892B7D
:1016F00019F421E030E006C01092201210921F125F
:1017000020E030E0C90108956F98779A87B1837C13
:1017100087B988B18C6388B96F98779A87B1837CD1
:1017200087B988B18C6388B9EAE6F0E08081856882
:1017300080838AE090E00E943A1180933112909366
:1017400032128AE090E00E943A1180933312909313
:1017500034120895EF92FF920F931F937B018C0137
:1017600020E030E040E05FE40E942C0E88238CF003
:10177000C801B70120E030E040E05FE40E94220DA4
:101780000E94BA0E9B01AC012050304040405048AE
:1017900006C0C801B7010E94BA0E9B01AC01B90195
:1017A000CA011F910F91FF90EF900895A0E0B0E063
:1017B000ECEDFBE00C940311DC012B01FA019C9190
:1017C000923008F439C1EB018881823008F433C1CA
:1017D000943069F4843009F02FC111969C911197CF
:1017E0008981981709F428C1A3E0B1E125C18430AB
:1017F00009F421C18230A9F4923009F01DC19A0187
:10180000AD0188E0EA010990AE01E90109929E016B
:101810008150C1F7E201898111969C9189238183CE
:1018200008C1923009F407C112962D903C9013978D
:10183000EB018A819B811496AD90BD90CD90DC9098
:101840001797EC80FD800E811F819101281B390BB9
:10185000B90137FF04C066277727621B730B60321C
:1018600071050CF061C0121613066CF537014801C2
:10187000062E04C096948794779467940A94D2F7BE
:1018800021E030E040E050E004C0220F331F441F4D
:10189000551F6A95D2F721503040404050402E21CC
:1018A0003F2140235123211531054105510521F0E8
:1018B00021E030E040E050E079018A01E628F72895
:1018C000082919293CC0232BD1F1260E371E3501DA
:1018D0004601062E04C096948794779467940A94E0
:1018E000D2F721E030E040E050E004C0220F331F87
:1018F000441F551F6A95D2F7215030404040504058
:101900002A213B214C215D2121153105410551053D
:1019100021F021E030E040E050E059016A01A628C2
:10192000B728C828D9280BC0821593052CF01C01B4
:10193000AA24BB24650103C0EE24FF24870111966D
:101940009C91D20111968C91981709F445C0992366
:1019500039F0A80197012A193B094C095D0906C015
:10196000A60195012E193F09400B510B57FD08C0E8
:1019700011823382228224833583468357831DC09C
:1019800081E081833382228288279927DC01821BB0
:10199000930BA40BB50B84839583A683B7830DC0EB
:1019A000220F331F441F551F2483358346835783DB
:1019B000828193810197938382832481358146813B
:1019C0005781DA01C9010197A109B1098F5F9F4FC2
:1019D000AF4FBF4328F30BC0918333822282EA0CBE
:1019E000FB1C0C1D1D1DE482F5820683178383E01A
:1019F0008083248135814681578157FF1AC0C901F0
:101A0000AA2797FDA095BA2F81709070A070B07032
:101A10005695479537952795822B932BA42BB52B5D
:101A200084839583A683B783828193810196938370
:101A30008283DF0101C0D201CD01CDB7DEB7E2E183
:101A40000C941F11A0E2B0E0E8E2FDE00C940F114D
:101A500069837A838B839C832D833E834F8358874E
:101A6000E9E0EE2EF12CEC0EFD1ECE010196B70141
:101A70000E9432108E010F5E1F4FCE010596B801F5
:101A80000E9432108A8991E089278A8BC701B801A8
:101A9000AE01475E5F4F0E94D60B0E945D0FA0967D
:101AA000E6E00C942B11A0E2B0E0E9E5FDE00C9437
:101AB0000F1169837A838B839C832D833E834F83AD
:101AC0005887F9E0EF2EF12CEC0EFD1ECE010196A9
:101AD000B7010E9432108E010F5E1F4FCE01059696
:101AE000B8010E943210C701B801AE01475E5F4FD6
:101AF0000E94D60B0E945D0FA096E6E00C942B117D
:101B0000A8E1B0E0E6E8FDE00C940B1169837A836C
:101B10008B839C832D833E834F835887B9E0EB2EC4
:101B2000F12CEC0EFD1ECE010196B7010E94321081
:101B30008E010F5E1F4FCE010596B8010E94321034
:101B40002985223008F47EC03989323010F4B8017A
:101B50007CC08A859A8989278A87243011F02230AF
:101B600031F4231709F06EC063E071E16EC03430C8
:101B700039F41D861E861F86188A1C861B8604C0A3
:101B8000323021F484E08987B7015FC02B853C8522
:101B90008B899C89281B390B3C872B87ED84FE841D
:101BA0000F851889AD88BE88CF88D88CEA14FB04CD
:101BB0000C051D0540F4EE0CFF1C001F111F2150E9
:101BC00030403C872B8720E030E040E050E080E070
:101BD00090E0A0E0B0E460E070E0EA14FB040C05E3
:101BE0001D0540F0282B392B4A2B5B2BEA18FB08EC
:101BF0000C091D09B695A79597958795EE0CFF1CC6
:101C0000001F111F6F5F7F4F6F31710531F7DA01D0
:101C1000C9018F779070A070B07080349105A105D4
:101C2000B10561F427FD0AC0E114F10401051105B5
:101C300029F0205C3F4F4F4F5F4F20782D873E8724
:101C40004F87588BBE01675F7F4FCB010E945D0FAE
:101C50006896EAE00C942711A8E1B0E0E2E3FEE028
:101C60000C940F1169837A838B839C832D833E832D
:101C70004F83588789E0E82EF12CEC0EFD1ECE0133
:101C80000196B7010E9432108E010F5E1F4FCE01E8
:101C90000596B8010E9432108985823040F089890A
:101CA000823028F0C701B8010E94AA1001C08FEF4E
:101CB0006896E6E00C942B11A8E0B0E0E2E6FEE0C6
:101CC0000C940C119B01AC0183E08983DA01C901FA
:101CD0008827B7FD83959927AA27BB27B82E2115FA
:101CE00031054105510519F482E089833AC0882302
:101CF000A9F0203080E0380780E0480780E85807E6
:101D000029F460E070E080E09FEC30C0EE24FF2416
:101D10008701E21AF30A040B150B02C079018A014C
:101D20008EE1C82ED12CDC82CB82ED82FE820F8325
:101D30001887C801B7010E940E0F019718161906DF
:101D400084F4082E04C0EE0CFF1C001F111F0A941F
:101D5000D2F7ED82FE820F831887C81AD90ADC8277
:101D6000CB82BA82CE0101960E945D0F2896E9E0EF
:101D70000C942811ACE0B0E0E0ECFEE00C94131100
:101D800069837A838B839C83CE010196BE016B5F4E
:101D90007F4F0E9432108D81823061F1823050F18C
:101DA000843021F48E81882351F12EC02F81388513
:101DB00037FD20C06E812F3131051CF06623F9F00C
:101DC00023C08EE190E0821B930B29853A854B85D9
:101DD0005C8504C056954795379527958A95D2F727
:101DE0006623B1F050954095309521953F4F4F4F68
:101DF0005F4F0EC020E030E040E050E009C02FEF20
:101E00003FEF4FEF5FE704C020E030E040E050E8F4
:101E1000B901CA012C96E2E00C942F11EF92FF92C7
:101E20000F931F937B018C0180E0E81680E0F80699
:101E300081E0080780E0180788F48FEFE816F104C6
:101E40000105110531F028F088E090E0A0E0B0E055
:101E500017C080E090E0A0E0B0E012C080E0E8169B
:101E600080E0F80680E0080781E0180728F088E1A4
:101E700090E0A0E0B0E004C080E190E0A0E0B0E03D
:101E800020E230E040E050E0281B390B4A0B5B0BAE
:101E900004C016950795F794E7948A95D2F7F70151
:101EA000E55FFE4E8081281B310941095109C901B6
:101EB0001F910F91FF90EF900895DF92EF92FF92A4
:101EC0000F931F93FC01E480F58006811781D18078
:101ED0008081823048F480E090E0A0E1B0E0E82A20
:101EE000F92A0A2B1B2BA5C0843009F49FC082302D
:101EF00021F4EE24FF24870105C0E114F10401055B
:101F0000110519F4E0E0F0E096C0628173819FEF63
:101F1000623879070CF05BC022E83FEF261B370BD5
:101F20002A3131052CF020E030E040E050E02AC0BA
:101F3000B801A701022E04C076956795579547957D
:101F40000A94D2F781E090E0A0E0B0E004C0880FEE
:101F5000991FAA1FBB1F2A95D2F70197A109B109A2
:101F60008E219F21A023B1230097A105B10521F067
:101F700081E090E0A0E0B0E09A01AB01282B392B82
:101F80004A2B5B2BDA01C9018F779070A070B0707B
:101F900080349105A105B10539F427FF09C0205C03
:101FA0003F4F4F4F5F4F04C0215C3F4F4F4F5F4F3C
:101FB000E0E0F0E02030A0E03A07A0E04A07A0E42B
:101FC0005A0710F0E1E0F0E079018A0127C060389B
:101FD000710564F5FB01E158FF4FD801C7018F7708
:101FE0009070A070B07080349105A105B10539F4EE
:101FF000E7FE0DC080E490E0A0E0B0E004C08FE315
:1020000090E0A0E0B0E0E80EF91E0A1F1B1F17FFCA
:1020100005C016950795F794E794319687E01695D5
:102020000795F794E7948A95D1F705C0EE24FF242D
:102030008701EFEFF0E06E2F679566276795902F89
:102040009F77D794DD24D7948E2F8695492F462BE2
:10205000582F5D29B701CA011F910F91FF90EF9092
:10206000DF900895FC01DB01408151812281622FC4
:102070006F7770E0221F2227221F9381892F880FFC
:10208000822B282F30E0991F9927991F11969C9336
:10209000119721153105A9F5411551056105710506
:1020A00011F482E037C082E89FEF13969C938E93E1
:1020B00012979A01AB0167E0220F331F441F551F8F
:1020C0006A95D1F783E08C930DC0220F331F441F14
:1020D000551F12968D919C911397019713969C937F
:1020E0008E931297203080E0380780E0480780E424
:1020F000580758F314962D933D934D935C9317977F
:1021000008952F3F310579F4411551056105710599
:1021100019F484E08C93089564FF03C081E08C93EC
:1021200012C01C9210C02F57304013963C932E9330
:10213000129783E08C9387E0440F551F661F771F2B
:102140008A95D1F7706414964D935D936D937C934B
:10215000179708951F93DC01FB019C91923008F4BE
:1021600047C08081823008F443C0943051F4119606
:102170001C91843099F58181682F70E0611B710991
:102180003FC0843021F0923031F48230B9F1818146
:10219000882389F12DC011961C9111978230F1F09E
:1021A00081811817D9F412962D913C911397828151
:1021B00093818217930794F028173907BCF014967F
:1021C0008D919D910D90BC91A02D248135814681EA
:1021D0005781281739074A075B0718F4112341F084
:1021E0000AC082179307A407B50740F4112319F01A
:1021F00061E070E005C06FEF7FEF02C060E070E06B
:10220000CB011F9108952F923F924F925F926F9250
:102210007F928F929F92AF92BF92CF92DF92EF9276
:10222000FF920F931F93CF93DF93CDB7DEB7CA1BF7
:10223000DB0B0FB6F894DEBF0FBECDBF09942A8822
:10224000398848885F846E847D848C849B84AA84CA
:10225000B984C884DF80EE80FD800C811B81AA8157
:10226000B981CE0FD11D0FB6F894DEBF0FBECDBF22
:10227000ED010895CF93DF93BC018230910510F4F6
:1022800062E070E0A0913712B0913812ED01E0E009
:10229000F0E040E050E021C08881998186179707DF
:1022A00069F48A819B81309719F09383828304C0FB
:1022B0009093381280933712FE0134C06817790763
:1022C00038F44115510519F08417950708F4AC014D
:1022D000FE018A819B819C01E9012097E9F6411565
:1022E0005105A9F1CA01861B970B049708F4BA019E
:1022F000E0E0F0E02AC08D919C911197841795073A
:10230000F9F46417750781F412968D919C911397D7
:10231000309719F09383828304C09093381280938E
:102320003712FD0132964FC0CA01861B970BFD0183
:10233000E80FF91F6193719302978D939C9343C0AB
:10234000FD01828193819C01D9011097A1F68091B2
:10235000351290913612892B41F480910D12909193
:102360000E12909336128093351240910F125091B5
:1023700010124115510541F44DB75EB780910B1213
:1023800090910C12481B590B209135123091361246
:1023900024173507B0F4CA01821B930B86179707E1
:1023A00080F0AB014E5F5F4F8417950750F0420FEE
:1023B000531F5093361240933512F9016193719374
:1023C00002C0E0E0F0E0CF01DF91CF910895CF931C
:1023D000DF93009709F450C0EC0122971B821A8208
:1023E000A0913712B0913812109709F140E050E0F7
:1023F000AC17BD0708F1BB83AA83FE01219131917F
:10240000E20FF31FAE17BF0779F48D919C911197DE
:10241000280F391F2E5F3F4F3983288312968D91E5
:102420009C9113979B838A834115510571F4D09336
:102430003812C093371220C012968D919C91139739
:10244000AD01009711F0DC01D3CFFA01D383C28331
:1024500021913191E20FF31FCE17DF0769F48881D4
:102460009981280F391F2E5F3F4FFA013183208356
:102470008A819B8193838283DF91CF9108950F930B
:102480001F93DF93CF93CDB7DEB72E970FB6F89497
:10249000DEBF0FBECDBF0D891E8986E08C831A83F7
:1024A00009838FEF9FE79E838D839E01275E3F4FB9
:1024B000CE0101966F89788DA9010E9470122F813B
:1024C0003885020F131FF80110822E960FB6F8946C
:1024D000DEBF0FBECDBFCF91DF911F910F91089549
:1024E0002F923F924F925F926F927F928F929F9224
:1024F000AF92BF92CF92DF92EF92FF920F931F9312
:10250000DF93CF93CDB7DEB72B970FB6F894DEBF2E
:102510000FBECDBF3C012B015A01FC011782168270
:10252000838181FD03C06FEF7FEFC6C19AE0892EE2
:102530001E010894211C311CF3012381F20123FDAB
:10254000859123FF81912F01882309F4B2C185323F
:1025500039F423FD859123FF81912F01853229F4E0
:1025600090E0B3010E948C14E7CF982FFF24EE2453
:102570009924FFE1FF15D0F09B3269F09C3228F4DA
:10258000903259F0933291F40EC09D3249F090335D
:1025900069F441E024C052E0F52A84E0F82A28C01A
:1025A00098E0F92A25C0E0E1FE2A22C0F7FC29C004
:1025B000892F80538A3070F4F6FE05C0989C902CC9
:1025C0001124980E15C0E89CE02C1124E80EF0E2CE
:1025D000FF2A0EC09E3229F4F6FC6BC140E4F42AB7
:1025E00007C09C3619F450E8F52A02C0983649F421
:1025F000F20123FD959123FF91912F01992309F079
:10260000B8CF892F8554833018F08052833038F446
:1026100044E050E0A40EB51E5FE359830FC093362B
:1026200031F0933779F0933509F056C020C0F501A9
:102630008081898342E050E0A40EB51E610101E073
:1026400010E012C0F501C080D180F6FC03C06FEF2E
:102650007FEF02C0692D70E042E050E0A40EB51E8D
:10266000C6010E9481148C015FE7F52214C0F501B8
:10267000C080D180F6FC03C06FEF7FEF02C0692DF0
:1026800070E042E050E0A40EB51EC6010E94761430
:102690008C0150E8F52AF3FE07C01AC080E290E0F2
:1026A000B3010E948C14EA948E2D90E0081719074C
:1026B000A8F30EC0F601F7FC8591F7FE81916F013A
:1026C00090E0B3010E948C14E110EA940150104094
:1026D0000115110579F7EAC0943611F0993669F5BC
:1026E000F7FE08C0F501208131814281538184E0E9
:1026F00090E00AC0F501808191819C01442737FD5B
:102700004095542F82E090E0A80EB91E9FE6F92272
:1027100057FF09C050954095309521953F4F4F4F39
:102720005F4FE0E8FE2ACA01B901A1012AE030E0CA
:102730000E94B814D82ED21840C0953729F41F2D06
:102740001F7E2AE030E01DC01F2D197F9F3661F0EB
:10275000903720F4983509F0ACC00FC0903739F0AD
:10276000983709F0A6C004C028E030E00AC0106124
:1027700014FD146020E130E004C014FD166020E177
:1027800032E017FF08C0F501608171818281938179
:1027900044E050E008C0F50180819181BC0180E0F7
:1027A00090E042E050E0A40EB51EA1010E94B814D2
:1027B000D82ED2188FE7F82EF122F6FE0BC05EEF6E
:1027C000F522D91438F4F4FE07C0F2FC05C08FEEF0
:1027D000F82202C01D2D01C0192DF4FE0DC0FE010E
:1027E000ED0DF11D8081803319F499EEF92208C0B6
:1027F0001F5FF2FE05C003C08F2D867809F01F5FB2
:102800000F2DF3FC14C0F0FE0FC01E1510F09D2C10
:102810000BC09D2C9E0C911A1E2D06C080E290E0EC
:10282000B3010E948C141F5F1E15C0F304C01E1557
:1028300010F4E11A01C0EE2404FF0FC080E390E021
:10284000B3010E948C1402FF1DC001FD03C088E784
:1028500090E00EC088E590E00BC0802F867891F064
:1028600001FF02C08BE201C080E2F7FC8DE290E044
:10287000B3010E948C1406C080E390E0B3010E9473
:102880008C149A94D914C0F3DA94F101ED0DF11D72
:10289000808190E0B3010E948C14DD20A9F706C06E
:1028A00080E290E0B3010E948C14EA94EE20C1F71C
:1028B00043CEF30166817781CB012B960FB6F89456
:1028C000DEBF0FBECDBFCF91DF911F910F91FF9063
:1028D000EF90DF90CF90BF90AF909F908F907F90C0
:1028E0006F905F904F903F902F900895FC0105905E
:1028F000615070400110D8F7809590958E0F9F1F02
:102900000895FC016150704001900110D8F7809546
:1029100090958E0F9F1F08950F931F93CF93DF9372
:102920008C01EB018B8181FF1BC082FF0DC02E81CA
:102930003F818C819D812817390764F4E881F981F2
:102940000193F983E88306C0E885F985802F09950E
:10295000892B31F48E819F8101969F838E8302C0E3
:102960000FEF1FEFC801DF91CF911F910F910895D5
:10297000FA01AA27283051F1203181F1E8946F93B0
:102980006E7F6E5F7F4F8F4F9F4FAF4FB1E03ED056
:10299000B4E03CD0670F781F891F9A1FA11D680FF4
:1029A000791F8A1F911DA11D6A0F711D811D911D27
:1029B000A11D20D009F468943F912AE0269F11249C
:1029C0003019305D3193DEF6CF010895462F477000
:1029D000405D4193B3E00FD0C9F7F6CF462F4F705B
:1029E000405D4A3318F0495D31FD4052419302D0B9
:1029F000A9F7EACFB4E0A69597958795779567955F
:102A0000BA95C9F700976105710508959B01AC015E
:102A10000A2E06945795479537952795BA95C9F785
:102A2000620F731F841F951FA01D0895F894FFCF98
:102A3000506C6179657220436F6F72643A20202078
:102A4000202025642C202564004F6C6420506C618C
:102A500079657220436F6F72643A2025642C2025BB
:102A60006400526F6F6D20436F6F72643A2025646B
:102A70002C20256400252D3673007C4C6966653A50
:102A8000252D33697C58503A252D34697C252D3409
:102A900069637C4C76252D32690053746174737CB4
:102AA0004174743A252D32697C5374723A252D3263
:102AB000697C53746D3A252D32697C4465663A25EC
:102AC0002D32697C5769733A252D32697C496E74C1
:102AD0003A252D3269002564000C0C0C0C0C0C0CF2
:102AE0000C0C0C000000000000000000000C0C0C9E
:102AF0000C0C0C0C0C0C0C00000000000000000082
:102B0000000C0C0C0C0C0C0C0C0C0C00000000004D
:102B100000000000000C0C0C0C0C0C0C0C0C0C003D
:102B20000000000000000000000C0C0C0C0C0C0C51
:102B30000C0C0C000000000000000000000C0C0C4D
:102B40000C0C0C0C0C0C0C00000000000000000031
:102B5000000C0C0C0C0C0C0C0C0C0C0000000000FD
:102B600000000000000C0C0C0C0C0C0C0C0C0C00ED
:102B70000000000000000000000C0C0C0C0C0C0C01
:102B80000C0C0C000000000000000000000C0C0CFD
:102B90000C0C0C0C0C0C0C000000000000000000E1
:102BA00000000000000000000000000C0C0C0C0CE9
:102BB0000C0C0C0C0C000000000000000000000CCD
:102BC0000C0C0C0C0C0C0C0C0C0000000000000099
:102BD0000000000C0C0C0C0C0C0C0C0C0C0000007D
:102BE000000000000000000C0C0C0C0C0C0C0C0C79
:102BF0000C000000000000000000000C0C0C0C0C8D
:102C00000C0C0C0C0C000000000000000000000C7C
:102C10000C0C0C0C0C0C0C0C0C0000000000000048
:102C20000000000C0C0C0C0C0C0C0C0C0C0000002C
:102C3000000000000000000C0C0C0C0C0C0C0C0C28
:102C40000C000000000000000000000C0C0C0C0C3C
:102C50000C0C0C0C0C000000000000000000000C2C
:102C60000C0C0C0C0C0C0C0C0C00000000000000F8
:102C70003A002A3A3A00000000000000000000007C
:102C8000000000002929392929290000000000003E
:102C9000000000000000003929392939393939008C
:102CA000000000000000000000000029393E392922
:102CB00029392929000000000000000000002939FE
:102CC0003E3E3E3939293900000000000000000076
:102CD000000000393E153E3E153E393A0000000026
:102CE00000000000000000003E3E3E3E3E3E000070
:102CF000000000000000000000000000003E3E3E1A
:102D00003E0000000000000000000000003F3535DC
:102D10003F2A3E3E2A3F35353F00000000000000BC
:102D200000003F35353F2A2A3F35353F000000007F
:102D30000000000000003E3E35353A3A35353F3E52
:102D4000000000000000000000003E3E3535353533
:102D500035353E3E00000000000000000000353523
:102D600035353535353535350000000000000000BB
:102D700000003E3E39393F3F39393E3E00000000F9
:102D800000000000000000003F393535393F0000E9
:102D90000000000000000000000000003F3E393548
:102DA0003E3F0000000000000000000000000000A6
:102DB0003F3F00003F3F0000000000000000000017
:102DC000000000003939000039390000000000001F
:102DD000000000000000000035350000353500001F
:102DE000000000000000000000000039393500003C
:102DF00035393900000000000000003F3F003F3F30
:102E00003F3F3F3F3F3F3F3F3F3F3F3F3F003F3F11
:102E1000003F3F3F3F3F3F3F3F3F3F3F3F3F3F3F01
:102E20003F3F3F00000000000000000000000000E5
:102E300000000000003F0000000000000000000053
:102E4000000000000000000000003F000000000043
:102E5000000000000000000000000000003F3F00F4
:102E60000000000000000000000000000000000062
:102E7000003F3F00000000000000000000000000D4
:102E800000000000003F3F000000000000000000C4
:102E90000000000000000000003F3F0000000000B4
:102EA000000000000000000000000000003F3F00A4
:102EB0000000000000000000000000000000000012
:102EC000003F3F0000000000000000000000000084
:102ED00000000000003F3F00000000000000000074
:102EE0000000000000000000003F3F000000000064
:102EF000000000000000000000000000003F3F0054
:102F000000000000000000000000000000000000C1
:102F1000003F3F0000000000000000000000000033
:102F20000000000000003F00000000000000000062
:102F30000000000000000000003F00000000000052
:102F4000000000000000000000000000003F3F0003
:102F50000000000000000000000000000000000071
:102F600000003F3F003F3F3F3F3F3F3F3F3F3F3F2E
:102F70003F3F3F3F3F00003F3F003F3F3F3F3F3F1E
:102F80003F3F3F3F3F3F3F3F3F3F3F3F3F3F3F3F51
:102F90003F3F3F3F3F3F3F3F3F3F3F3F3F3F3F3F41
:102FA0003F3F3F3F3F3F3F3F3F3F3F3F3F3F3F3F31
:102FB0003F000000000000000000000000000000D2
:102FC0000000000000000000000000000000000001
:102FD00000000000000000000000000000000000F1
:102FE00000000000000000000000000000000000E1
:102FF00000000000000000000000000000000000D1
:1030000000000000000000000000000000000000C0
:1030100000000000000000000000000000000000B0
:1030200000000000000000000000000000000000A0
:103030000000000000000000000000000000000090
:103040000000000000000000000000000000000080
:103050000000000000000000000000000000000070
:103060000000000000000000000000000000000060
:103070000000000000000000000000000000000050
:103080000000000000000000000000000000000040
:103090000000000000000000000000000000000030
:1030A0000000000000000000000000000000000020
:1030B0000000000000000000000000000000000010
:1030C0000000000000000000000000000000000000
:1030D00000000000000000000000000000000000F0
:1030E00000000000000000000000000000000000E0
:1030F000003F3F3F3F3F3F3F3F3F3F3F3F3F3F3F1F
:103100003F3F3F3F3F3F3F3F3F3F3F3F3F3F3F3FCF
:103110003F3F3F3F3F3F3F3F3F3F3F3F3F3F3F3FBF
:103120003F3F3F3F3F3F3F3F003F3F00003F3F3F6C
:103130003F3F3F3F3F3F3F3F3F3F3F3F3F003F3FDE
:10314000000000000000000000000000000000007F
:103150000000003F3F0000000000000000000000F1
:1031600000000000000000003F0000000000000020
:1031700000000000000000000000003F0000000010
:103180000000000000000000000000000000003F00
:103190003F000000000000000000000000000000F0
:1031A0000000003F3F0000000000000000000000A1
:1031B000000000000000003F3F0000000000000091
:1031C00000000000000000000000003F3F00000081
:1031D0000000000000000000000000000000003FB0
:1031E0003F000000000000000000000000000000A0
:1031F0000000003F3F000000000000000000000051
:10320000000000000000003F3F0000000000000040
:1032100000000000000000000000003F3F00000030
:103220000000000000000000000000000000003F5F
:103230003F0000000000000000000000000000004F
:103240000000003F3F000000000000000000000000
:10325000000000000000003F00000000000000002F
:103260000000000000000000000000003F0000001F
:103270000000000000000000000000000000003F0F
:103280003F3F3F3F3F3F3F3F3F3F3F3F3F3F3F3F4E
:103290003F003F3F003F3F3F3F3F3F3F3F3F3F3FBC
:1032A0003F3F3F3F003F3F0000152A2A152A2A2AA8
:1032B000152A2A2A152A2A2A3F152A2A2A152A2AAD
:1032C000151515152A1515151515152A2A152A2A45
:1032D0002A152A152A2A3F152A152A2A3F3F15158D
:1032E00015151515153F152A2A2A3F3F15152A2AA7
:1032F0002A3F153F152A3F152A3F3F152A2A2A152E
:103300002A2A15152A152A2A152A2A152A2A2A159B
:103310002A1515152A152A3F15152A2A15152A15B5
:103320002A2A2A15152A3F3F15152A3F3F2A151527
:103330003F3F153F151515152A2A2A2A15152A2A41
:103340002A2A152A2A3F152A3F3F152A152A2A1507
:103350002A3F15152A2A152A2A2A152A2A2A152A21
:10336000151515152A3F3F3F15152A2A2A153F1511
:103370002A2A1515153F3F152A2A2A2A153F151501
:10338000152A3F152A1515152A2A3F152A2A2A2AF1
:10339000152A3F3F152A2A3F152A2A3F152A2A15A2
:1033A0002A2A2A152A2A2A2A152A2A2A15152A15E6
:1033B0003F15153F152A2A152A2A2A2A15151515EB
:1033C0002A3F152A2A152A2A3F15152A15152A15C6
:1033D0002A3F3F152A2A3F152A15152A2A2A152A77
:1033E0003F3F152A2A2A3F3F152A2A15153F151552
:1033F0001515152A2A3F3F152A2A2A2A1515153F81
:10340000152A3F152A2A3F152A2A3F152A2A2A2A31
:1034100015152A3F152A1515152A15152A2A2A15B4
:1034200015152A1515152A2A3F152A2A3F152A3F50
:103430001515152A3F15152A3F2F1F0F0F0F2F0B9C
:103440000B0B0F2F2F1F0B0B0B0B0B0B0F0F0F0F5C
:103450000F0F2F0B0B0B2F0F0B1F1F0B0B2F3F3FB4
:103460003F0F0F0F0F0F0B1F1F1F3F0B0B0B1F1FCC
:103470001F1F1F1F3F0F0F0F0F0F0B1F2F2F2F0B84
:103480000B1F1F1F1F0F0F1F3F0F0F0F0F0F0B0BD8
:103490002F3F0F0B0B1F1F0B0F0F0F1F2F0B0F0FAC
:1034A0000F0B0B1F1F0B2F3F3F2F1F0B0F0F0B0B74
:1034B0002F2F0B0B0B0B2F0B0B0F0F0F0F0B0B3FAC
:1034C0000B0B0B0B0B2F0B0B0B3F0B0F0F0F0F0FE0
:1034D0000F0B0B2F0B0B0B0B0B2F1F1F1F2F0B0F8C
:1034E0000F0F0F0F0B0B0B1F1F0B0B0B0B2F3F3F68
:1034F0003F0F0B0F0F0F0F0F0B0B0B0F2F0B0B0BA8
:103500000B0B0B0B0B3F2F1F0F0F0F0B0B0B1F2F5B
:103510003F0B1F2F3F0F0F0B0B0B0F2F1F0B0B0B17
:103520003F2F1F0B0B3F2F0F0F0F0F0B0B0B0B1F03
:103530001F1F0B3F1F1F0B0B0B1B1F1F0F0F0F0B13
:103540000B0B0B0F1F1F1F2F1F0B0B0B0B0B1F2F1B
:103550000F0F0F0B0B0B0B0F0F1F3F0F0B0B0B0B5B
:103560000F0F1F2F0F0F0F0B0B0B0B0F2F3F0B2FDF
:103570000B0B0B0F0F0F0F1F2F2F1F0B0B0B0F2FF3
:103580001F0B0B3F0B0B0F0F0F0F0F0F0B3F1B0BE7
:103590000B0F1F1F0B0F0F2F0B0B0F0F0F0F0F0F0B
:1035A0000B3F2F1F1F1F1F0B0B0F0F1F1F1F0B0F7B
:1035B0000F0F0F0B0B3F3F3F2F2F0B0B0B0F0F0F5F
:1035C0002F1F0B0F0F0F0B0B0B3D3D3D3D393939B5
:1035D0003D3D3D3D3E3E3E3E3E3E3E3E3E3E3E3E0F
:1035E0003E3E3E3E393D3E393E3E3E3E3E3E3E3E06
:1035F0003E3E3E3E3E3E3E3E3D393D3D393D3E3EF9
:103600003E3E3E3E3E3E3E3E3E3E3E3E3E3E393DE0
:103610003E3D3D3D3E3E3E3E3E3E3E3E3E3E3E3ECD
:103620003E3E3E3D39393D3D3D3D3E3E3E3D3D3DCC
:103630003D3E3E3E3E3E3E3E3E3E3E3D3D3D3D3EAF
:103640003D3D3D39393D3E3E3E3E3E3E3E3E3E3EA8
:103650003E39393E3E393E3D3939393E3E3E3E3EA9
:103660003E3E3E3E3E3E393939393E3E3E3D393E94
:103670003E3E3E3E3E3E3E3E3E3E3E393939393983
:103680003E3D3D39393D3E3E3E3E3E3E3E3E3E3E67
:103690003939393939393D3D39393939393D3E3E84
:1036A0003E3E3E3E3E3E3E3939393939393D3E3D5A
:1036B0003939393D3E3E3E3E3E3E3E3E3E3E3E3E3A
:1036C0003E3D39393D3939393D3E3E3E3E3E3E3E36
:1036D0003E3E3E3E3E3E3E39393E3E39393E3E3E1E
:1036E0003E3E3E3E3E3E3E3E3E3E3E3E3D393E3D01
:1036F0003D393D3E3E3E3E3E3E3E3E3E3E3E3E3EF1
:103700003E3939393E3D393D3D3E3E3E3E3E3E3EF0
:103710003E3E3E3E3E3E3E39393D3D3D393D3D39E2
:103720003D3939393D3E3E3E3E3E3E3E39393939DE
:103730003D393D3E3E3D3939393E3E3E3E3E3E3EC0
:103740003E3D3939393939393939393D3D393D3ECF
:103750003E3E3E3E3E3E3E3D390606060606060617
:1037600006060606060606060606060606060606F9
:1037700006060606060606060606060606060606E9
:1037800006060606060606060606060606060606D9
:1037900006060606060606060606060606060606C9
:1037A00006060606060606060606060606060606B9
:1037B00006060606060606060606060707070706A5
:1037C0000606060607070707070606070606070692
:1037D0000606060607060606060606070606070785
:1037E0000707070707060606060607070606060672
:1037F0000606060607060606060607060606060667
:103800000606060607060606060607060606060656
:103810000606060607060606060607060606060646
:103820000606070707060606060607070606060633
:10383000060707070707070706060707070707071B
:103840000707070707070707060607070705050510
:103850000507070707070707070607050505050505
:1038600005050507070707070706070705050505F7
:1038700005050505050707070706070707070707E3
:1038800007050505050707070706060607070707D3
:1038900007070707070707070706060607070607BC
:1038A00007060707070707070706060606060606B0
:1038B00006060606060606060606060606060606A8
:1038C0000606060606060606060606060606060698
:1038D0000606060606060606060606060606060688
:1038E0000606060606060606060606060606060678
:1038F0000606060606060606060606060606060668
:103900000606060606060606060606060606060657
:103910000606060606060606060707070707070740
:103920000606060606060606060606060606060736
:103930000606060606060606060606060606060726
:103940000706060606060606060606060606060616
:103950000706060606060606060606060606060606
:1039600007060606060606060606060606060606F6
:1039700007060606060606060606060606070707E3
:1039800007070707070707060606060607070707CC
:1039900007070707070707070606070707070707B9
:1039A00007070707070707070607070707070707A8
:1039B0000707070707070707060707070707070798
:1039C0000707070707070707060707070707070788
:1039D0000707070707070707060707070707070778
:1039E0000707070707070707060707070707070768
:1039F0000707070707070706060707070707070759
:103A00000707070707070606060606060606060650
:103A10000606060606060606061414010101010143
:103A200010000A0101010101012A0001006D616C11
:103A30006C6F630000000000000000000102020340
:103A40000303030404040404040404050505050534
:103A50000505050505050505050505060606060611
:103A600006060606060606060606060606060606F6
:103A700006060606060606060606060707070707E1
:103A800007070707070707070707070707070707C6
:103A900007070707070707070707070707070707B6
:103AA00007070707070707070707070707070707A6
:103AB0000707070707070707070707080808080891
:103AC0000808080808080808080808080808080876
:103AD0000808080808080808080808080808080866
:103AE0000808080808080808080808080808080856
:103AF0000808080808080808080808080808080846
:103B00000808080808080808080808080808080835
:103B10000808080808080808080808080808080825
:103B20000808080808080808080808080808080815
:103B300008080808080808080808082000391200C2
:023B4000000083
:00000001FF
