:100000000C943CA80C945BA80C945BA80C945BA883
:100010000C945BA80C945BA80C945BA80C945BA854
:100020000C945BA80C945BA80C945BA80C945BA844
:100030000C945BA80C945BA80C945BA80C945BA834
:100040000C945BA80C945BA80C945BA80C945BA824
:100050000C945BA80C945BA80C945BA80C945BA814
:100060000C945BA80C945BA80C945BA80C945BA804
:100070000C945BA80C945BA80C945BA80C945BA8F4
:100080000C945BA80C945BA80C945BA80C945BA8E4
:100090000C945BA80C945BA8000000000000005FBB
:1000A00000000003000300143E143E14242A7F2A9B
:1000B000124333086661364955225000050300009B
:1000C000001C2241000041221C0014083E081408B4
:1000D000083E0808005030000008080808080060C2
:1000E00060000020100804023E5149453E00040211
:1000F0007F00426151494622414949361814127F16
:100100001027454545393E494949320101710907E2
:100110003649494936264949493E003636000000ED
:10012000563600000814224100141414141400411F
:1001300022140802015109063E4159555E7E090903
:10014000097E7F494949363E414141227F41414133
:100150003E7F494949417F090909013E4141493AE8
:100160007F0808087F00417F4100304040403F7FCA
:10017000081422417F404040407F020C027F7F02F2
:1001800004087F3E4141413E7F090909061E2121A5
:10019000215E7F09090976264949493201017F011B
:1001A000013F4040403F1F2040201F7F2010207F04
:1001B00041221C224107087008076151494543004C
:1001C0007F41000002040810200000417F0004026B
:1001D0000102044040404040000102040020545409
:1001E00054787F4444443838444444443844444474
:1001F0007F385454541804047E0505085454543C64
:100200007F0804047800447D40002040443D007F86
:100210001028440000417F40007C047804787C086A
:1002200004047838444444387C1414140808141422
:10023000147C007C080404485454542004043F44B3
:10024000443C4040207C1C2040201C3C4030403C32
:1002500044281028440C5050503C4464544C4400F2
:100260000836414100007F0000414136080002018C
:10027000020402000102010011000102011100014B
:1002800004061100010A14110002000811005400B4
:10029000000000000000000000000000000000005E
:1002A000000000000000000000000000000000004E
:1002B000000000000000000000000000000000003E
:1002C0000000AAAAAA00000000000000000000A090
:1002D000AAAAAAAAEA0F0000000000000080AAAAA9
:1002E000AAAAAABFAA02000000000000AAAAAAAAFD
:1002F000AAAAAAAAAA000000000000AAAAAAAAAA5A
:10030000AAAAAAAA000000000000AAAA02AAAAAAF1
:1003100080AAAA000000000000AA0A0080AA020029
:10032000A0AA000000000000AA0A0000000000A02F
:10033000AA000000000000AAAA0200000080AAAAE9
:10034000000000000000AAAAAA2A00A8AAAAAA00DF
:100350000000000000AAAAAA2A00A8AAAAAA0000CF
:1003600000000000AAAAAA2A00A8AAAAAA000000BF
:10037000000000AAAAAA2A00A8AAAAAA00000000AF
:100380000000AAAAAA2A00A8AAAAAA00000000009F
:10039000000000000000000000000000000000005D
:1003A000000000000000000000000000000000004D
:1003B000000000000000000000000000000000003D
:1003C000000000000000000000000000000000002D
:1003D000000000000000000000000000000000001D
:1003E0000000000000000000000000FC71000000A0
:1003F00000C071F000000000000085AA1E07001C6C
:10040000C7FF1F00000000000085AAAAEA51FCFFF8
:10041000FF1F00000000000045A1AA6A51FCFF7FF9
:100420001C000000000000855AA86A51A8FFF11FB7
:1004300000000000000085AA166A51A8C7FF1F002F
:10044000000000000085AAAA455114EAFF1F000021
:100450000000000040A1AA6A51A8AA7A000000008A
:1004600000000040A1AA6A51A8AA5A00000000009A
:1004700000000050A86A51A86A01000000000000B6
:10048000000050A86A51A86A0100000000000000A6
:100490000000146A51A805000000000000000000E0
:1004A000000005CF17000000000000000000000061
:1004B000000000000000000000000000000000003C
:1004C000000000000000000000000000000000002C
:1004D000000000000000000000000000000000001C
:1004E000000000000000000000000000000000000C
:1004F00000000000000000000000000000000000FC
:1005000000000000000000000000000000000000EB
:10051000000000000000FC3F0000000000000000A0
:100520000000000000FCFF0F0000000000000000C1
:100530000000000000FFFF030000000000000000BA
:1005400000000000C0FFFF000000000000000000ED
:1005500000000000F0FF3F0000000000000000006D
:1005600000000000FCFF0F00000000000000000081
:1005700000000000FFFF030000000000000000007A
:10058000000000C0FFFF00000000000000000000AD
:10059000000000F0FFFF0F0000000000000000005E
:1005A000000000FCFFFF030000000000000000004E
:1005B0000000FC3F050000000000000000000000FB
:1005C00000003F40010000000000000000000000AB
:1005D000000000503F00000000000000000000008C
:1005E0000000FC3C000000000000000000000000D3
:1005F00000000000000000000000000000000000FB
:1006000000000000000000000000000000000000EA
:10061000000000FFFFFFFFFFFFFFFFFFFFFFFFFFE7
:10062000FFFFFFFFFFFFFFFFFFFFFFFFFFFFFFFFDA
:10063000FF000000000000000000000000000000BB
:1006400000000000000000000000000000000000AA
:10065000000000000000000000000000000000009A
:10066000000000000000000000000000000000008A
:10067000000000000000000000000000000000007A
:10068000000000000000000000000000000000006A
:10069000000000000000000000000000000000005A
:1006A000000000000000000000000000000000004A
:1006B000000000000000000000000000000000003A
:1006C000000000000000000000000000000000002A
:1006D000000000000000000000000000000000001A
:1006E000000000000000000000000000000000000A
:1006F00000000000000000000000000000000000FA
:1007000000000000000000000000000000000000E9
:1007100000000000000000000000000000000000D9
:1007200000FFFFFFFFFFFFFFFFFFFFFFFFFFFFFFD8
:10073000FFFFFFFFFFFFFFFFFFFFFFFFFFFFFFFFC9
:10074000FFFFFFFFFFFFFFFFFFFF03FF0F00FFFFA4
:10075000FFFFFFFFFFFFFFFFFFFFC0FF03000000E1
:1007600000000000000000000000F0FF000000009A
:1007700000000000000000000000FC00000000007D
:100780000000000000000000F00300000000000076
:1007900000000000000000F0FF000000000000006A
:1007A000000000000000F0FF00000000000000005A
:1007B0000000000000F0FF0000000000000000004A
:1007C00000000000F0FF000000000000000000003A
:1007D000000000F0FF00000000000000000000002A
:1007E0000000F0FF0000000000000000000000001A
:1007F00000F0FF000000000000000000000000000A
:10080000F0FF00000000000000000000000000F009
:10081000FF00000000000000000000000000F0FFEA
:1008200000000000000000000000000000F00300D5
:1008300000000000000000000000000000FC0000BC
:100840000000000000000000000000F0FFFFFFFFBC
:10085000FFFFFFFFFFFFFFFFFFC0FF03FFFFFFFFE3
:10086000FFFFFFFFFFFFFF03FF0F0000F0FFC0FFD0
:10087000FFFFFFFFFFFFFFFFFFFFC0FF03FFFFFFC3
:10088000FFFFFFFFFFFFFFFFFFFF0F000000000063
:1008900000000000000000003F0000000000000019
:1008A00000000000000000C00F0000000000000079
:1008B000000000000000FF0F00000000000000002A
:1008C0000000000000FF0F0000000000000000001A
:1008D00000000000FF0F000000000000000000000A
:1008E000000000FF0F0000000000000000000000FA
:1008F0000000FF0F000000000000000000000000EA
:1009000000FF0F00000000000000000000000000D9
:10091000FF0F00000000000000000000000000FFCA
:100920000F00000000000000000000000000FF0FAA
:1009300000000000000000000000000000FF0F00A9
:10094000000000000000000000000000C00F0000D8
:1009500000000000000000000000003F0000000058
:1009600000000000000000000000FF0F0000000079
:10097000000000000000000000C0FF03FFFFFFFFB9
:10098000FFFFFFFFFFFFFFFF00F0FFC0FFFFFFFFC4
:10099000FFFFFFFFFFFFFF0000400010400020406E
:1009A0000030400040400001400011400021400064
:1009B000314700414F00514F00614F000248006233
:1009C0004F000348001343002343004343005343B5
:1009D00000634F00834700B34B0004480004480005
:1009E0001443002443004443005443006450007403
:1009F0005000154300254300354200454300554350
:100A000000655000384C00874D003703555555554B
:100A100055556AA5A66AA5AA6A55556AA55655559B
:100A200055AAFA575555556A5555AAAAAA6955A9FE
:100A3000AA5AA95555555555A96A5A55555555554A
:100A4000A55695AAAA95AA5655555580AAAABF5A41
:100A5000556A5555AAAAAA555555A9AAAA55555534
:100A60005955A9E9FFFF555555EAFFFF6A55A955A4
:100A7000F5A7EAAFAA6AA5FEEAAF56955A55EAAFBE
:100A800056555555555555555555BF5A55D5AFAA77
:100A900055555595AAAAAAFAFFAAEAAB6A55A5AA7E
:100AA0005A5595AAAAFFAFAAAAAAFEFFAFFEEAFF6F
:100AB000ABA5AAAAFAAFFEFFAFFEFF5F555555558D
:100AC0007FA55655FAABBF5AA9AAAA5655555555F2
:100AD000A556FFFF576AE5AB55A5565555A9FF5FCB
:100AE000A97F55555555A9EAFFFFAA5AAAFFFFABA2
:100AF000A5FAABFF5F554055E9EAAFA6555555AA93
:100B00009AAAAAFAABFFFFFB695555D55FA96AA55A
:100B1000AA7FA9FAEAFFFF55A556BF9AFEFFAFFECE
:100B2000FF5F5555F55755A556AAAF56BF5AA9FFB1
:100B3000FFABAA5A555555A995AAAA5555A9555579
:100B4000957FF5FF55F5AB55A5A655555595AAAA20
:100B500055F5FFD5AFFA95AA565555A995AAAAAA53
:100B60005AFD5595AA55A5565555FD95AAAA55A5C0
:100B7000AA95FA5755955640AAAA95FAEBD5FF972C
:100B8000AAFAFF555555AAFAFF95FAFFE95FA96A37
:100B9000F5AB555555AAFAABD5AFAAFF5FFDA9AA8B
:100BA0005655A556AAFA57D5AFFE6A55A9AAFAAB6B
:100BB000AAAA567FA556BFAAFEBF5AFDEAFFFF9517
:100BC000AA566A55A9AAAAFE6A55FD6AF9FFEA5F04
:100BD000A955555595AFAA955F55BF5AFD69A556BC
:100BE00055A55695FAFFAAAA56AA5FA96A55556A4D
:100BF00056A995FAFF6AA502BF5AA95555A9555598
:100C0000FD7FF5FF6AF557FF5FA96A55A955F5AB5A
:100C10006AA556AAFA57FFFF576A55A9959A566AC8
:100C2000FA5755F5EBFE5F55AA5A556AAA5695AA8A
:100C30005655A5AA6955555555A9EAFF5795FA572E
:100C400055A5FE5555555555A9EAAF5655F5575575
:100C500055AA95AA5655A556EAAF5655A55695AA32
:100C6000A65555A95A511485160441A16945100489
:100C70004110144551148516048156048516049AB2
:100C8000AAAA455114455169961A0445A1694551CE
:100C9000A94551144550685A15044551554551A868
:100CA0004551144510546A11048516144551684184
:100CB000511441A01581A6AAAA16144510685A100D
:100CC0000481160445511441A0064110045A100431
:100CD00055511445511441A0054110045A5514555D
:100CE00050144551144150154110049AAAAA455078
:100CF00014455104415068411004411004AA56148F
:100D000045110441A1A941A1A945510441A11541A1
:100D100010A8AA16046A5514455104415054555060
:100D20005545110445A1154551044150145551151F
:100D300041100441A115455104415014855A044104
:100D4000101445A5154551044150546AA005415061
:100D5000144551685A510441A11541A0064151144E
:100D60004551046A110485561445A10541511445A5
:100D700051046A5514451504455115455114455102
:100D800004AAAA6A5A100445516845501445100433
:100D9000BAAEEBBAAEEBBAAEEBBAAEEBBAAEEB7A3A
:100DA000A9EBBAAEEBBAAEEBBAAEEBBEAEEBBAAEF7
:100DB000EBBAAEEBBFAEEBA5AEEBBAAEEBBAAEEBB9
:100DC000BEAEEBA9AEEBBAAEEBBAAEEBBAAEEBBAD7
:100DD000AEEBA9AEEBBAAEEBBAAEEBBAAEEBBAAED7
:100DE000EBBAAEEBBEAEEB7AA9EBBAAEEBBA5EEA0B
:100DF000BAAEFBBFAFEBBAAEEBBAAEEBBAAEEBBA84
:100E0000AEEBBEAEEBBAAEEBBAAEFFBAAEEBBAAE7D
:100E1000EBA9AEEBBAAEEBBAAEA7BAAEFBBAAEEB8D
:100E2000BAAEEBBAAEEBBAAEA7BAEE97BEAEEBBABD
:100E3000FEEBBAAEEBBAAEEBBAAEFBBAAEEBBA9E15
:100E4000EABAAFEBBAAEEBBAAEEBBAAEFBBA9EEA19
:100E5000BAAEEBBAAFEBBAAEEBBAAEEBBAAEEBBA38
:100E6000AEEBBAAE97BAAEEBBAAEEBBAAEEBBAAE89
:100E7000EBBAAEEBBAAEEBBFAEEBBAAEEBBAAEEBE3
:100E8000BAAEEBBAAEEBA9AEEBBAAEFBBAAEEBBA0A
:100E9000AEEBBAAEEBA9AEEBBAEEEBBEAEEBBAAED2
:100EA000EBBAAFEBBAAE97BAAEFBBAAEEBBAAEEBFB
:100EB000BAAEEBBAAEEBBAAEEBBAAEEB18866118CF
:100EC00086611886611886611886611881611886A6
:100ED000611886611886612C8661188661188661A2
:100EE0003C86610486611886611886612C866118CB
:100EF0008661188661188661188661188661188671
:100F00006118866118866118866118866118866185
:100F10002C86611881611886611846601886B13C7C
:100F20008B611886611886611886611886612C8627
:100F3000611886611886F1188661188661188661C5
:100F40001886611886611886B1188661188661183E
:100F5000866118866118C6822C866118C663188659
:100F6000611886611886B1188661188661188B61D0
:100F70001886611886611886B1188661188661180E
:100F80008B611886611886611886611886611886DB
:100F90001118866118866118866118866118866145
:100FA0001886613C8661188661188661188661180A
:100FB00086611886611886B1188661188661188660
:100FC0006118866118C6622C8661188661188B616B
:100FD0001886111886B118866118866118866118FE
:100FE00086611886611886617F55557F55FD6AA513
:100FF000AAEAAFAA55F5575555A9D55F416AA55636
:10100000AAAE5695FA576AF5ABEAFFFF6995A9AA09
:101010009A56655A56BE5A557EAAAA6AA5AA55A5D9
:10102000567AA556955EAA95FAABFFAF567F5555F1
:10103000D59FEA5555A995AA56AA5A55BF5AA955FA
:10104000AA5695FAFBAA5A56BE5A55BFAAFA95AAAD
:10105000AA955A556AA556AAFEFF6A55E97F95AA30
:101060007F55556AA9AA6AA5AAD55FA9D5FFA795F4
:101070005E5595AFAA95AFABAAAA56AAAAA655A542
:10108000AA6AA5EAD5AF567EA5ABBFAA96FEFF57C2
:101090005555555555A5E9AFAA6AF5FF6A5555D579
:1010A0005FA9955E5595AAFAD5EF57D55FA9BAFA0B
:1010B000576A59F97FA5AA5555A9EAFF57BF5AA9FA
:1010C000AAAAAA7FA556BFEAAB5555557F555555D7
:1010D000A556E95FAA7F5AFEA55B557FF5A7BFFA23
:1010E00057955AAAFF5F557AE5AB7F55A5E99FFE54
:1010F00095FA577FA5AA55955655F557BEAA56EAB3
:10110000AF56959AAAAAFAAB7FA556BF9A56955A9A
:10111000A9955FE9695E971495E7799AE66999E779
:101120007995E76599A73995E7799EE779995325E8
:1011300095E7799ED77999E7799E571495E6695E88
:10114000E5799E975099E7794995799AE7694995A4
:101150005459A5795595549EE7659EE7799952793A
:101160004995545995795EE6799EE7799E42795E74
:10117000E6654A55659EE7799EE7794995799EE748
:10118000699E575499E7799E526999A7799DE779A5
:101190009EE62545556595E7795EE67999E7799963
:1011A000E7795A52659AE7799EE73995E7799EE79C
:1011B000799A93654951649AE72595E7655EE679E2
:1011C0009E97549EE7799E972995E7799EA7659EFD
:1011D000E7549EE7799E53659AE7799EE7799EA743
:1011E000559E97799E53545551799EE7799EE754C1
:1011F0009EE7795EEA105956544555555555549E0B
:10120000E7794EE5659EE76599A66559A65555E6C9
:10121000794EE5799EE7795EE6799956549E961067
:1012200045E5799EE7799EE7795956799AE77959A4
:10123000E5799EE7799EE7795E56799EE73995A72D
:10124000BAAE976559A6695AA6BAAEA7699AA755C4
:1012500055556559967999EABAAEEB799AEB555995
:1012600096A59E97795A96B99EEB7E9E96B9EFEB1E
:1012700079AEFBBEEFEBBA9EE7659996BEAEFBFE7C
:10128000FFFFFFEFFBBEEFFB7A9EEB69AEFB7A5EE2
:101290009665555555559665A9FB5555555559EAC9
:1012A000BEEFFBBEAFE7799AFB5599E6BEAFFBBF39
:1012B000EEEB7E9EEBBAEEEB7A9EEB6999A6BAEE68
:1012C000EBBAAFFBBEEEFB5555565555555555552A
:1012D000555555555555A9AAFAFAEFFBBA9F96658B
:1012E00059AAA59A966599A6A9AAA6695AFABEEE20
:1012F000E7B9AE97BEEEEBBAAEEBAA5AEA695996D9
:10130000A9AEA7BEAEEB6A9AA669A9E7BAAEFB7A08
:10131000AEFBBAAEA6655A966599EABA9EEBAA9A52
:10132000A66599EABA9EA669AAEB7AAAEBBAAEEBD1
:101330006559966599EA6555F9BEAEEBBAFEFFFFB1
:10134000EFEB699AEABA5EA5BAEEEBBAEFEB69AADF
:10135000FBBEAEEBAAAA96659AA6BAAEE75555555E
:1013600055595555A5AB5555555555953445D12429
:101370004D51344953144DD2144593148D53244583
:10138000E31449D1384552344E91348DD3244DE382
:101390003449D3384DD2344E93348DD3244DE33475
:1013A00049D3384DD2344E933445D1244D5134492C
:1013B00053144DD2144593148D532445E31449D14D
:1013C000384552344E91348DD3244DE33449D338CB
:1013D0004DD2344E93348DD3244DE33449D3384D1C
:1013E000D2344E933445D1244D51344953144DD207
:1013F000144593148D532445E31449D13845523490
:101400004E91348DD3244DE33449D3384DD2344EEC
:1014100093348DD3244DE33449D3384DD2344E9395
:101420003445D1244D51344953144DD214459314AD
:101430008D532445E31449D1384552344E91348DAF
:10144000D3244DE33449D3384DD2344E93348DD325
:10145000244DE33449D3384DD2344E933445D1240E
:101460004D51344953144DD2144593148D53244592
:10147000E31449D1384552344E91348DD3244DE391
:101480003449D3384DD2344E93348DD3244DE33484
:1014900049D3384DD2344E937DDFF7799EF77DDF07
:1014A000FBBEEFFBBEEFFBBEEFFBBEEFE7BD9FFB5E
:1014B000BEEFFBBEEFFBBEEFFBBEEFF779DFE7BD94
:1014C000EFFBBEEFFBBEEFFBBEEFFB7EDEFB7DDF87
:1014D000FBBEEFFBBEEFFBBEEFFBBEDFE779DFF746
:1014E000BDEFFB7DDFF7BEEFFBBEEFFBBEDFF77DA1
:1014F000EFF77D9FE7BDEFFBBEEFFBBEEFFB79EEA5
:10150000FBB9DFE779EEFBBEEFFBBEEFFB7E9EE7AC
:10151000B9EFFB7DEEFBBEEFFBBEEFFBBE9FE779B5
:101520009EFB7D9FE7BDEFFBBEEFFBBEEFE7799E25
:10153000E779DFE7799EE7BDEFFBBEEFFBBE9FE7F4
:10154000799EE7BDDFE779DEFBBEEFFBBEEFFBBEBA
:10155000EFFB7D9EF7799EF7BEEFFBBEEFFBBEEF84
:10156000FBBE9FE7BE9FE7BEEFFBBEEFFBBEEFFB00
:10157000BEEFF7B9DFF779EFFBBEEFFBBEEFFBBEC7
:10158000EFFB799EFB7DDEF7BEEFFBBEEFFBBEEF10
:10159000FBBE9FE77DDFE77D9FF7799EF7BEEFFB00
:1015A000BEEFE7799EF779EFFB7D9EE7BEEFFBBECE
:1015B000EFFB7D9EE7799EE779DEF779EFFBBEEFE3
:1015C000FBBEDFE75555A96A555595AAAA6A555538
:1015D00095AAAA5555A96A55555555555555555568
:1015E00055555555555555555555555555555555AB
:1015F0005555555555555555A5AA555555555555F6
:101600005555555555A9AAAAAA5555555555A9AA8E
:101610005A555555A9AAAAFEAA5A555555A9BFAA61
:10162000565555A9AAAAAA6A5555555555AAAAAA02
:10163000555555555555555555555555AAAA5655AF
:1016400055555555555555555555A9AAAA5655554B
:10165000555555555555555555A9555555555555E6
:1016600095AAFEBF5A555555A955555555555595E9
:10167000AAAAAA5A555555A955555555555595AA2D
:1016800056555555555555AA5A5555555595AA5619
:101690005555A9AA5A55AA5A5555555555555555F2
:1016A00055A9AAAAAA6A5555555555555555555582
:1016B000A9AAAAAA6A5555555555AAAAAA5555A91F
:1016C000AAAAAA555555555555AAAAAA5555A9AA23
:1016D000AAAA55555555555595AAAA5555A9AAAA28
:1016E00056555555AA5A5595AAAA5555A9AAAA5666
:1016F000FFF77DDFFF2DCBF7FFEFB22CCBB27CDF06
:10170000F77DDFFF2DDBFF2DEFBF2CFFFFFFDFF7A6
:101710007DDFF7FEFFBF2CDFFBFFEFFBFEDFF77D7A
:10172000DFF2FEFFBF2CDFFBBEDFF7FDDFF77DDF63
:10173000B2FCFFB72CEFBF7CDFF7FDCBF77DCBF220
:10174000BFDBFFFFFFBF7CDFF7FDFFB72CCBFF7DCB
:10175000DFF77DDFF72FCBB22CFFB76CFFF77DDF14
:10176000F77DDFF72FCBB22CFFFBBEFFF27DDFF75B
:101770007DDFF67ECBB22CFFFFFFDFF27DDFF72DA2
:10178000CBF2FDDBB22CCBB26CFFFF7DDFB72CDFE1
:10179000F7FFDBFBFFDFF72DCBF7BFCBB2FCFFBFC3
:1017A0002CFFFF7DDFF72DCBF2BDEFF2BFDFB72CB3
:1017B000DFFB7EDFF72DCBF2BDEFFB7FDFB27CDFFF
:1017C000FB7FDFF72DCBF27DDFFF2DCBB27CDFFB84
:1017D0007FDFF72DCBF2FDFFF26FCBF27DDFF7FD60
:1017E000FFF72DCBF7BFCBF26FDFF77DDFF72DFFD4
:1017F000B72CDFFF7DDFF77FDFF77DDFF72DFFFB06
:101800007EEFBB7DDFF77EDFF77DDFF72DFFFFFF8C
:10181000FFB27CDFF7FDEFF27DDFB72C755DD735CA
:101820005FD7755DD7355FD7755DD77559D6355F8D
:10183000977559D6355F977559D6655996355F971F
:10184000655996355F97655996755DD7355FD7753C
:101850005DD7355FD7755DD73CEFFB3CEFF33CCFF1
:10186000F3BECFF3BEEFF375CD97755DD7355FD778
:10187000755DD7355FD765CD977559D6355F977547
:1018800059D6355F9765C997655996355F976559FC
:1018900096355F9775CDD7755DD7355FD7755DD7B1
:1018A000355FD7BCEFFB3ECFF33CCFFBBECFF3BCE5
:1018B000EFF3755DD7355FD7755DD7355FD7755D4C
:1018C000D76559D7355F977559D6355F977559D60E
:1018D0006559D6355F97655996355F976559967501
:1018E0005DD7355FD7755DD7355FD7755DD73CEF71
:1018F000FB3ECFF3BECFF33CEFF33CEFF365CDD728
:10190000755DD7355FD7755DD7355FD765CDD76541
:101910005D96355F977559D6355F9765C9D7655917
:1019200096255F97655996355F9775CDD7755DD7C5
:10193000355FD7755DD7355FD7BECFF3BCEFFB3CC6
:10194000CFF33CCFFBBEEFFB55555555555555557F
:1019500055555555555555AAAAAAAAAAAA6AA5AA7F
:10196000AAAAAAAAAAAAAAAAAAAAAAAA6AA5AAAA1C
:10197000AAAAAAAAAAAAAAAAAAFAFF7FF5ABAAAA01
:10198000AAAAAAFEAAAAAAEAFFFF7FF5ABAAAAAA58
:10199000AAFAFFFFAFAAFFFFFF7FF5ABAAAAAAEA48
:1019A000FFFFFFFFFFFFFFFF7FF5FFFFFFFFFFFFD1
:1019B000FF5555555555555555555555555555552D
:1019C000AAAAAA95AAAAAAAAAAAAAAAA95AAAAAAA1
:1019D000AAAA95AAAAAAAAAAAAAAAA95AAAAAAFA41
:1019E000FFD5AFAAAAAAAAAAAAFED5AFAAEAFFFF64
:1019F000D5AFAAAAAAAAFFFFFFD5AFAAFFFFFFD5BE
:101A0000AFAAAAAAFEFFFFFFD5AFAAFFFFFFD5FF2F
:101A1000FFBFFAFFFFFFFFD5FFAB55555555555595
:101A2000555555555555555555AAAAAAAAAAAA6A53
:101A3000A5AAAAAAAAAAAAAAAAAAAAAAAAAA6AA550
:101A4000AAAAAAAAAAAAAABFAAAAAAAAFE7FF5FF18
:101A5000BFAAAAEAFFFFBFAAAAAAFAFF7FF5FFBFA3
:101A6000AAAAEAFFFFBFAAAAEAFFFF7FF5FFBFAA63
:101A7000AAFFFFFF2008823C0CC3300CC3300CF3DC
:101A80002008822008823C0CC3300CC3300CF320A9
:101A900008822008823C0CC3300CC3300CF32008B1
:101AA000822008823C0CC3300CC3300CF320088227
:101AB0002008823C0CC3300CC3300CF32008822079
:101AC00008823C0CC3300CC3300CF3200882200881
:101AD000823C0CC3300CC3300CF3200882200882F7
:101AE0003C0CC3300CC3300CF32008822008823C2D
:101AF0000CC3300CC3300CF32008822008823C0C4D
:101B0000C3300CC3300CF32008822008823C0CC385
:101B1000300CC3300CF32008822008823C0CC33008
:101B20000CC3300CF32008822008823C0CC3300C1C
:101B3000C3300CF32008822008823C0CC3300CC355
:101B4000300CF32008822008823C0CC3300CC330D8
:101B50000CF32008822008823C0CC3300CC3300CEC
:101B6000F32008822008823C0CC3300CC3300CF3F5
:101B70002008822008823C0CC3300CC3300CF320B8
:101B800008822008823C0CC3300CC3300CF32008C0
:101B9000822008823C0CC3300CC3300CF320088236
:101BA000AAAAAABFAAAAAAAAFEFFFFFFFFFFFFAA2E
:101BB000AAAAAAAAAAAAAAAAFFFFFFFFFFABAAAADB
:101BC000AAAAAAAAFFAF56BFFAFFEAFFABAAAA5673
:101BD00095AAFEAAAAAA6AA5AAAAAA56AAAAFEBF56
:101BE000AAFEAAAAAAAAAAAAAAFAFFAAAAAA6AF551
:101BF000FFBFAAAAAAAAAAAAAAAAAAAAAAEAFFFFF1
:101C0000BF5AFD95AAAAAAAAAAAAAAAAAAAAAAAA31
:101C1000AAAAAAAAFEBFAAAAAAAAAAAAAAAAAAAABB
:101C2000AAAAAAFEBFAAAAAAAAAAAAAAAAAAAAFE57
:101C3000AAAAFEFFAFAAFFAFAAAAAAAAAAAAAAAAFC
:101C4000AAFEFFAFAAAAFAFFAAAAAAAAAAAAAAFA51
:101C5000FFBF5AFD6AF5FFAAAAAAAAAAAAAAAAAA17
:101C6000AAFAFFAAFAAB95AAAAAAAAAAAAAAAAAAF3
:101C7000FAFFBFAAAAAAAAAA6AA5AAAAAAAAAAFAFF
:101C8000FFBFAAAAAAAAAAAAAAAAAAFAFFBFAAFE3C
:101C9000BFAAAAAAAAAAAAAAAAEAAFAAAAAAFEBFE1
:101CA000AAAAAAAAAAAAAAFEEAFF57AAAAAAFFAFA4
:101CB000AAAAAAAAFFAFFEAAAAAA955AA9FFAFAAE2
:101CC000AAAAAAFFAFFEFFFFFFAAAAAA388EE3388E
:101CD0008EE3388EE3388EE3388EE3388EE3388E29
:101CE000E3388EE3388EE3388EE3388EE3388EE3C4
:101CF000388EE3388EE3388EE3388EE3388EE3385F
:101D00008EE3388EE3388EE3388EE3388EE3388EF8
:101D1000E3388EE3388EE3388EE3388EE3388EE393
:101D2000388EE3388EE3388EE3388EE3388EE3382E
:101D30008EE3388EE3388EE3388EE3388EE3388EC8
:101D4000E3388EE3388EE3388EE3388EE3388EE363
:101D5000388EE3388EE3388EE3388EE3388EE338FE
:101D60008EE3388EE3388EE3388EE3388EE3388E98
:101D7000E3388EE3388EE3388EE3388EE3388EE333
:101D8000388EE3388EE3388EE3388EE3388EE338CE
:101D90008EE3388EE3388EE3388EE3388EE3388E68
:101DA000E3388EE3388EE3388EE3388EE3388EE303
:101DB000388EE3388EE3388EE3388EE3388EE3389E
:101DC0008EE3388EE3388EE3388EE3388EE3388E38
:101DD000E3388EE3388EE3388EE3388EE3388EE3D3
:101DE000388EE3388EE3388EE3388EE3388EE3386E
:101DF0008EE3388EE3388EE3344DD3345CC3200851
:101E0000F2344ED3340CD7344DD3340C832008D263
:101E1000300CD3344ED3344DD3300C832008822081
:101E200008C3300C82304DC3300C83200882200858
:101E300082200882300CC3300C83200CC33008820F
:101E4000200CC3300CC3300C82300CC3300C8230F9
:101E50000CC7300CC33008C2304DD3340CC2300C28
:101E6000D32008822008C2344DD3300CC2300CD3AA
:101E70002008822008C3344DD33009C2300CD3303F
:101E80000C822008C3304DC33008C2300CD3310C53
:101E9000C33008C3300CC3200882200CD3300CC3DD
:101EA0003008C3300C82300CC3200882340CC3309D
:101EB00008C2300882300CC3300CC3340DC3300C60
:101EC00082200882300EC3300CC3340DC3300C8224
:101ED000200882384DD3300CC3340DC33008C230D3
:101EE0000882604CD3345DD3380CC32008C3300C57
:101EF00083204CD3344DD3340C832008D3340C834B
:101F0000204CD3344DD3340C82200CC3300CC3206E
:101F100008D3344DD3200882300CC3300CC33008B2
:101F2000C2344DD3FFFFFFFFFFFFFFFFFFFFFFFFA7
:101F3000FFFFFFFFFFFFFFFFFFFFFFFFFFFFFFFFB1
:101F4000FFFFFFFFFFFFFFFFFFFFFFFFFFFFFFFFA1
:101F5000FFFFFFFFFFFFFFFFFFFFFFFFFFFFFFFF91
:101F6000FFFFFFFFFFFFFFFFFFFFFFFFFFFFFFFF81
:101F7000FFFFFFFFFFFFFFFFFFFFFFFFFFFFFFFF71
:101F8000FFFFFFFFFFFFFFFFFFFFFFFFFFFFFFFF61
:101F9000FFFFFFFFFFFFFFFFFFFFFFFFFFFFFFFF51
:101FA000FFFFFFFFFFFFFFFFFFFFFFFFFFFFFFFF41
:101FB000FFFFFFFFFFFFFFFFFFFFFFFFFFFFFFFF31
:101FC000FFFFFFFFFFFFFFFFFFFFFFFFFFFFFFFF21
:101FD000FFFFFFFFFFFFFFFFFFFFFFFFFFFFFFFF11
:101FE000FFFFFFFFFFFFFFFFFFFFFFFFFFFFFFFF01
:101FF000FFFFFFFFFFFFFFFFFFFFFFFFFFFFFFFFF1
:10200000FFFFFFFFFFFFFFFFFFFFFFFFFFFFFFFFE0
:10201000FFFFFFFFFFFFFFFFFFFFFFFFFFFFFFFFD0
:10202000FFFFFFFFFFFFFFFFFFFFFFFFFFFFFFFFC0
:10203000FFFFFFFFFFFFFFFFFFFFFFFFFFFFFFFFB0
:10204000FFFFFFFFFFFFFFFFFFFFFFFFFFFFFFFFA0
:10205000A99EA6699AE7799EA7699AE77A9EE76999
:10206000AEE7799AA67A9EA7799AEBBAAEA769AE3F
:10207000E769AEA7699EA67A9AEAB9AEA7699AEA15
:1020800069AEE7699AEA7A9EEA799EA6699AA66994
:10209000AEE7799EA67A9EE67A9AE67A9AA669AA29
:1020A000E77A9AA6699AE6799AEBB99EA6699AE7C1
:1020B0007A9AE6799AA6699AE7B99EA7699AE77922
:1020C0009AE6799EA669AEA765A99765599665595E
:1020D00096655996655996655996655996655996C6
:1020E000655996655996655996655E9665599679CE
:1020F0005E96795E966559966559966559966559C5
:102100009665599665599665599665599665999754
:102110006559E66559966559966559966559966566
:102120005996799AE67A9AA7A9AEE7699AEB699ADD
:10213000A7699AE6799AA7699AA7699AEA799AA704
:10214000699EE6799AA7799AA7799AEA799AA7690E
:102150009EE6799AA6799AA67A9EE6799AE7699E8A
:10216000E6799EA6799AE67A9EA6799EE6799EA65B
:10217000799EE6799AEA799EA6799EE63C5FF23CE2
:10218000CFF77DDFF33CDFF77CC9F33C5FF23C8F98
:10219000E378DFF37D8FE378C9E33C58F27CDFF32B
:1021A000388EE338CEF37C09F26559966559966509
:1021B00059966559966559963CCFF33CCFF33C58F8
:1021C000823CCFF33DCFF3388EE37DCFE33C5FF22B
:1021D000388EE33DCFF33CCFE338CEE3385FF67D76
:1021E000DFE3388EF77DCFF77DDFF33C588238CEC2
:1021F000F33C8FF3655996655996655996655996DE
:102200006559963C58823CCFF33CCFF33CCFF37CEE
:1022100009F23D5FF23CCFF77DDFE338DEF37CC9A6
:10222000E33D5FF238CEF73C8EE33D8FE37CC9E3BC
:102230003D58823C8EF73CCFF73D8FF37C09F26529
:1022400059966559966559966559966559963CCF44
:10225000F33CCFF33C0F9620CFF73DCFF33C8FE319
:10226000388EF73DCF977CDFE338DEF73CCFF33C89
:10227000CFF33C0F9620CFF33D8EE3655996655919
:10228000966559966559966559963858F23CCFF33C
:102290003CCFF33CCFF37C09F23D5EF23CCFE33818
:1022A000DEF77DCFF37CC9E3FFFFFFFFFFFFFFFFFA
:1022B000FFFFFFFFFFFFFFFFFFFFFFFFFFFFFFFF2E
:1022C000FFFFFFFFFFFFFFFFFFFFFFFFFFFFFFFF1E
:1022D000FFFFFFFFFFFFFFFFFFFFFFFFFFFFFFFF0E
:1022E000FFFFFFFFFFFFFFFFFFFFFFFFFFFFFFFFFE
:1022F000FFFFFFFFFFFFFFFFFFFFFFFFFFFFFFFFEE
:10230000FFFFFFFFFFFFFFFFFFFFFFFFFFFFFFFFDD
:10231000FFFFFFFFFFFFFFFFFFFFFFFFFFFFFFFFCD
:10232000FFFFFFFFFFFFFFFFFFFFFFFFFFFFFFFFBD
:10233000FFFFFFFFFFFFFFFFFFFFFFFFFFFFFFFFAD
:10234000FFFFFFFFFFFFFFFFFFFFFFFFFFFFFFFF9D
:10235000FFFFFFFFFFFFFFFFFFFFFFFFFFFFFFFF8D
:10236000FFFFFFFFFFFFFFFFFFFFFFFFFFFFFFFF7D
:10237000FFFFFFFFFFFFFFFFFFFFFFFFFFFFFFFF6D
:10238000FFFFFFFFFFFFFFFFFFFFFFFFFFFFFFFF5D
:10239000FFFFFFFFFFFFFFFFFFFFFFFFFFFFFFFF4D
:1023A000FFFFFFFFFFFFFFFFFFFFFFFFFFFFFFFF3D
:1023B000FFFFFFFFFFFFFFFFFFFFFFFFFFFFFFFF2D
:1023C000FFFFFFFFFFFFFFFFFFFFFFFFFFFFFFFF1D
:1023D000FFFFFFFF00000000000000000000000001
:1023E000C0FFFF000000000000000000C0FFFFFF72
:1023F000FFFF0000000000000000FCFFFFFFFFFFE8
:10240000FF000000000000C0FFFFFFFFFFFFFFFF15
:10241000000000000000FFFFFFFFFFFFFFFFFF00C5
:1024200000000000FCFFFFFFFFFFFFFFFFFF0000B9
:102430000000F0FFFFFFFFFFFFFFFFFFFF000000B6
:10244000C0FFFFFFFFFFFFFFFFFFFFFF000000FFD8
:10245000FFFFFFFFFFFFFFFFFFFFFF0000FCFFFF8D
:10246000FFFFFFFFFFFFFFFFFFFF0000FCFFFFFF7D
:10247000FFFFFFFFFFFFFFFFFF00F0FFFFFFFFFF7A
:10248000FFFFFFFFFFFFFFFF00F0FFFFFFFFFFFF6A
:10249000FFFFFFFFFFFFFFC0FFFFFFFFFFFFFFFF8B
:1024A000FFFFFFFFFFFFC0FFFFFFFFFFFFFFFFFF7B
:1024B000FFFFFFFFFFC0FFFFFFFFFFFFFFFFFFFF6B
:1024C000FFFFFFFFC0FFFFFFFFFFFFFFFFFFFFFF5B
:1024D000FFFFFFFFFFFFFFFFFFFFFFFFFFFFFFFF0C
:1024E000FFFFFFFFFFFFFFFFFFFFFFFFFFFFFFFFFC
:1024F000FFFFFFFFFFFFFFFFFFFFFFFFFFFFFFFFEC
:1025000000000000000000000000000000000000CB
:1025100000000000000000000000000000FC0000BF
:102520000000000000000000000000F0FF000000BC
:10253000000000000000000000C0FFFF00000000DD
:102540000000000000000000FFFFFF00000000008E
:10255000000000000000FCFFFFFF00000000000082
:1025600000000000F0FFFFFFFF000000000000007F
:102570000000C0FFFFFFFFFF0000000000000000A0
:1025800000FFFFFFFFFFFF0000000000000000FC55
:10259000FFFFFFFFFFFF00000000000000F0FFFF53
:1025A000FFFFFFFFFF000000000000C0FFFFFFFF74
:1025B000FFFFFFFF000000000000FFFFFFFFFFFF25
:1025C000FFFFFF0000000000FCFFFFFFFFFFFFFF19
:1025D000FFFF00000000F0FFFFFFFFFFFFFFFFFF16
:1025E000FF000000C0FFFFFFFFFFFFFFFFFFFFFF37
:1025F000000000FFFFFFFFFFFFFFFFFFFFFFFF00E7
:1026000000FCFFFFFFFFFFFFFFFFFFFFFFFF00F0EA
:10261000FFFFFFFFFFFFFFFFFFFFFFFFFFC0FFFF09
:10262000FFFFFFFFFFFFFFFFFFFFFFFF00000000B6
:10263000000000000000000000000000000000009A
:10264000000000000000000000000000000000008A
:10265000000000000000000000000000000000007A
:10266000000000000000000000000000000000006A
:10267000000000000000000000000000000000005A
:10268000000000000000000000000000000000004A
:10269000000000000000000000000000000000003A
:1026A000000000000000000000000000000000002A
:1026B000000000000000000000000000000000001A
:1026C000000000000000000000F0FFFFFFFFFFFF20
:1026D000FF00000000000000F0FFFFFFFFFFFFFF12
:1026E00000000000000000F0FFFFFFFFFFFFFF0001
:1026F000000000000000F0FFFFFFFFFFFFFF0000F1
:102700000000000000F0FFFFFFFFFFFFFF000000E0
:1027100000000000F0FFFFFFFFFFFFFF00000000D0
:10272000000000F0FFFFFFFFFFFFFF0000000000C0
:102730000000F0FFFFFFFFFFFFFF000000000000B0
:1027400000F0FFFFFFFFFFFFFF00000000000000A0
:10275000F0FFFFFFFFFFFFFF000000000000000090
:102760000000000000000000000000000000000069
:102770000000000000000000000000000000000059
:102780000000000000000000000000000000000049
:102790000000000000000000000000000000000039
:1027A0000000000000000000000000000000000029
:1027B0000000000000000000000000000000000019
:1027C0000000000000000000000000000000000009
:1027D00000000000000000000000000000000000F9
:1027E00000000000000000000000000000000000E9
:1027F00000000000000000000000C0FFFF0000001B
:102800000000000000000000FCFFFFFF00000000CF
:102810000000000000C0FFFFFFFFFF0000000000FD
:1028200000000000FFFFFFFFFFFF000000000000AE
:10283000000000FFFFFFFFFFFF000000000000009E
:1028400000FCFFFFFFFFFFFF000000000000000092
:10285000FCFFFFFFFFFFFF00000000000000F0FF93
:10286000FFFFFFFFFFFF00000000000000F0FFFF80
:10287000FFFFFFFFFF00000000000000F0FFFFFF70
:10288000FFFFFFFF0000000000000000000000004C
:102890000000000000000000000000000000000038
:1028A0000000000000000000000000000000000028
:1028B0000000000000000000000000000000000018
:1028C0000000000000000000000000000000000008
:1028D00000000000000000000000000000000000F8
:1028E00000000000000000000000000000000000E8
:1028F00000000000000000000000000000000000D8
:1029000000000000000000000000000000000000C7
:1029100000000000000000000000000000000000B7
:1029200000000000000000000000000000000000A7
:1029300000000000000000FC00000000000000009B
:102940000000000000F0FF00000000000000000098
:10295000000000C0FFFF00000000000000000000B9
:102960000000FFFFFF00000000000000000000006A
:10297000FCFFFFFF00000000000000000000F0FF6F
:10298000FFFFFF000000000000000000C0FFFFFF8D
:10299000FFFF000000000000000000FFFFFFFFFF3E
:1029A000FF0000000000000000FCFFFFFFFFFFFF32
:1029B0000000000000000000000000000000000017
:1029C0000000000000000000000000000000000007
:1029D00000000000000000000000000000000000F7
:1029E00000000000000000000000000000000000E7
:1029F00000000000000000000000000000000000D7
:102A000000000000000000000000000000000000C6
:102A100000000000000000000000000000000000B6
:102A200000000000000000000000000000000000A6
:102A30000000000000000000000000000000000096
:102A4000000000000000FFFFFFFFFFFFFFFFFFFF90
:102A5000FFFFFFFFFFFFFFFFFFFFFFFFFFFFFFFF86
:102A6000FFFFFFFFFFFFFFFFFFFFFFFFFFFFFFFF76
:102A7000FFFFFFFFFFFFFFFFFFFFFFFFFFFFFFFF66
:102A8000FFFFFFFFFFFFFFFFFFFFFFFFFFFFFFFF56
:102A9000FFFFFFFFFFFFFFFFFFFFFFFFFFFFFFFF46
:102AA000FFFFFFFFFFFFFFFFFFFFFFFFFFFFFFFF36
:102AB000FFFFFFFFFFFFFFFFFFFFFFFFFFFFFFFF26
:102AC000FFFFFFFFFFFFFFFFFFFFFFFFFFFFFFFF16
:102AD000FFFFFFFFFFFFFFFFFFFFFFFF0000000002
:102AE000000000F0FFFFFFFFFFFFFF0000000000FD
:102AF0000000F0FFFFFFFFFFFFFF000000000000ED
:102B000000F0FFFFFFFFFFFFFF00000000000000DC
:102B1000F0FFFFFFFFFFFFFF00000000000000F0DC
:102B2000FFFFFFFFFFFFFF00000000000000F0FFBD
:102B3000FFFFFFFFFFFF00000000000000F0FFFFAD
:102B4000FFFFFFFFFF00000000000000F0FFFFFF9D
:102B5000FFFFFFFF00000000000000F0FFFFFFFF8D
:102B6000FFFFFF00000000000000F0FFFFFFFFFF7D
:102B7000FFFF00000000000000F0FFFFFFFFFFFF6D
:102B8000FF00000000000000F0FFFFFFFFFFFFFF5D
:102B900000000000000000F0FFFFFFFFFFFFFF004C
:102BA000000000000000F0FFFFFFFFFFFFFF00003C
:102BB0000000000000F0FFFFFFFFFFFFFF0000002C
:102BC00000000000F0FFFFFFFFFFFFFF000000001C
:102BD000000000F0FFFFFFFFFFFFFF00000000000C
:102BE0000000F0FFFFFFFFFFFFFF000000000000FC
:102BF00000F0FFFFFFFFFFFFFF00000000000000EC
:102C0000F0FFFFFFFFFFFFFF00000000A002000039
:102C1000000000A800A0026AA5562A00002AA0AB66
:102C2000FF0F003F00006555A9BF5AA6EAAFFAEAB8
:102C3000FFFF6A0554555955AAAAAAEA5FFEFEAFDE
:102C4000AA6A5555955A9595AAFBAAAAFEBAAAFE54
:102C50007F55A9555555A9AAAAEAFFFFBAAAEBAA1A
:102C60005A55555555BEAAAAFAAFFEFFAFFE6AA542
:102C700056955A5595AAA6AAAAAAAAAA5655A556DD
:102C80006A555555A5AAEAAFEAAAAA9A5555556AB2
:102C900055A9AAAAAA6AF557BA6A56955A55955AD5
:102CA000A9955AA9AA9AAA6A5555555555695955CB
:102CB0006AA556AA5AA9555555555555AA5A555556
:102CC000A556A9AA56555555555555955A556AA50F
:102CD000AA815A555555546A9956AA5AAAAAAAAA17
:102CE0005555555550A9AAAAAB6665AAAAAAAA55D0
:102CF000555555555569A5AAAAAAAA95AAFAAA5A38
:102D000055955AA969A5AAAAAA56AAAAAA55555577
:102D10004595A66A99EA00000080EAAB5505003F98
:102D20000054AAAAAAC00F540000000050010000DD
:102D300000150000000000000040104100000110DC
:102D40000400000000000000411044100441000095
:102D5000000000000000000110001004010000004D
:102D6000000000001000010000000401100000003D
:102D700000000100040010410004410000000000B8
:102D800000400004410000100401000000000000A9
:102D9000001004000000000401000000000000001A
:102DA000000400000000040100000000000000001A
:102DB00004000000100441001000000000000004A6
:102DC00000004010044110000440100000100401F5
:102DD0000000000401000000011000401004410048
:102DE000000000004000000100000000040000009E
:102DF000000000001004400000000000001000402F
:102E00000000010004010000400000000004400038
:102E100000401004000000011000410000010040CB
:102E200000004400000001000441000410004010B4
:102E3000004100000441000401044040000010046F
:102E400001011004411000410401010400100404B8
:102E500041000001000400104100000110040400C2
:102E6000000000104555145991644592000000007F
:102E700000001045551455516445920000000000B3
:102E800000104555145551544591000000000000B4
:102E900050599665599665599600000000000050FB
:102EA000A9966AA9966AA9960000000000005059E8
:102EB000966559966559960000000000001004556B
:102EC0001054415005410000000000001045551409
:102ED000555154455100000000000010455514554F
:102EE0005154455100000000000010455514555143
:102EF0005445510000000000001045551455515430
:102F0000A5FE00000000000010455514555154A5C1
:102F1000AA000000000000104555145551544551B9
:102F200000000000000050599665599665599600BA
:102F3000000000000050A9966AA9966AA9960000B0
:102F4000000000005059966559966559960000009A
:102F500000000010045510544150054100000000CD
:102F60000000104555145551544551000000000013
:102F70000010455514555154455100000000000003
:102F800010455514555154455100000000000000F3
:102F90000000000000000000000000000000000031
:102FA0000000000000000000000000000000000021
:102FB0000000000000000000000000000000000011
:102FC0000000000000000000000000000000000001
:102FD0000000000000000000000040555555555508
:102FE00055550100000000000040F57DDFF77DDF52
:102FF000570100000000000040F57DFFF77DFF57FE
:103000000100000000000040F5FDDFF7FDDF570183
:1030100000000000000040F57DDFF77FDF57010072
:10302000000000000040F57DDFFF7DDF570100005C
:103030000000000040F57DFFF77DFF570100000014
:1030400000000040F5FDDFF7FDDF57010000000044
:10305000000040F57DDFF77DDF5701000000000034
:1030600000405555555555555501000000000000CC
:103070000000000000000000000000000000000050
:103080000000000000000000000000000000000040
:103090000000000000000000000000000000000030
:1030A0000000000000000000000000000000000020
:1030B0000000000000000000000000000000000010
:1030C0000000000000000000000000000000000000
:1030D000000000000000000000000000005055004B
:1030E000000000000000000040555555F5FF550553
:1030F0000000000000000095AAAAAAAAAAFF5F018A
:10310000000000000054AAAAAAAAAAAAEA5F010025
:103110000000005055AAAAAAAAAAAAAAFA57000013
:10312000000050A995AAAA555555AAAAFE15000057
:1031300040A5566A5555AAFAFF95AAAA150000405F
:1031400055A955A5AAAAAAFE95AAAA6A0500000033
:10315000546AA5AAAAAAAA7F05000000000000548C
:10316000955AA95555555555550000000050556ABA
:10317000A556AAAAAAAAFAFF1500000050A95555FB
:10318000A995AAAAAAAAFE7F050000000055A55687
:103190006AA5AAAAAAAA6A0500000000955AA995DC
:1031A0005AA9AAAAAA6A05000000546AA5566AA5E7
:1031B00056AAAAAAEA5F01000054955AA9955AA9ED
:1031C00095AAAAAA5A010000000000000000000011
:1031D00000000000000000000000000000000000EF
:1031E00000000000000000000000000000000000DF
:1031F00000000000000000000000000000000000CF
:1032000000000000000000000000000000000000BE
:1032100000000000000000000000000000000000AE
:10322000000000000000000000000000000000009E
:10323000000040A5AA95AA56AA5A01000000000065
:103240000040A5AA95AA56AA5A0100000000000055
:1032500040A5AA95AA56AA5A010000000000004005
:10326000A5AA95AA56AA5A0100000000000040A590
:10327000AA95AA56AA5A0100000000000040A5AA7B
:1032800095AA56AA5A0100000000000040A5AA9580
:10329000AA56AA5A0100000000000040A5AA95AA5B
:1032A00056AA5A0100000000000040A5AA95AA569F
:1032B000AA5A0100000000000040A5AA95AA56AA3B
:1032C0005A010000000000000000000000000000A3
:1032D00000000000000000000000000000000000EE
:1032E00000000000000000000000000000000000DE
:1032F00000000000000000000000000000000000CE
:1033000000000000000000000000000000000000BD
:1033100000000000000000000000000000000000AD
:10332000000000000000000000000000000000009D
:1033300000000000005055000000000000000000E8
:1033400040555555F5FF55050000000000000015DB
:1033500041A8AAAAAAFF5F0100000000005404418E
:10336000A8AAAAAAEA5F0100000000505504A1AA79
:10337000AAAAAAAAFA570000000050A995AAAA551D
:103380005555AAAAFE15000040A5566A5555AAFA39
:10339000FF954A101500004055A955A5AAAAAAFEF6
:1033A00015411044050000005444A5AAAA4A107F04
:1033B0000500000000000054955AA9555555555573
:1033C0005500000000505544A556044110AAFAFFCC
:1033D0001500000050115555111541A8AAAAFE7FED
:1033E000050000000055A5564445A8AAAAAA6A05EA
:1033F00000000000955AA9955AA9AAAAAA44050056
:103400000000546AA5566AA556AAAA12C45F010014
:103410000054955AA9955AA9954A100451010000E3
:10342000000000000000000000000000000000009C
:10343000000000000000000000000000000000008C
:10344000000000C3000000000000000000000000B9
:10345000000CC3300000000000000000000000303D
:1034600008C3200C000000000000000000C0200C79
:10347000823008030000000000000000803008C314
:10348000200C02000000000000000083200CC3306C
:1034900008C2000000000000000CC2300882200CAE
:1034A000833000000000003008C32008C32008C398
:1034B000200C00000000200C83300C82300CC23045
:1034C00008000000C03008C23008C3200C83200C64
:1034D000030000C3200C83200CC33008C23008C393
:1034E000000083300CC2300882200C83300CC200F4
:1034F00000003008C3200CC33008C3200C000000BB
:10350000000000832008822008C2000000000000A4
:1035100000000000000802000000000000000000A1
:103520000000000008020000000000000000000091
:103530000000000802000000000000000000000081
:103540000020088200000000000000000000008051
:1035500020088220000000000000000000000000A1
:103560000802000000000000000000000000000948
:1035700000000000000000000000000000244902DC
:1035800040050000000000000019009024499255F9
:103590005501000000000064440600000940555534
:1035A00041000000009011199101000054100455D1
:1035B00000000040466459466400504115542115EE
:1035C0000000409611049165000055154420040048
:1035D00000599611199165595541108410480500FC
:1035E0001941645946105905551041200401004401
:1035F0004610044164040241154210040264594615
:103600006444466404424008811008816404916562
:1036100044961108810008811008811000401004B0
:103620004110044210044210044220000000240013
:1036300020044120048110084110000090248910CA
:10364000088110084110040100004092244920081C
:10365000812004009000000000000024821004413A
:103660001008429224000000000000422004422082
:103670000442922409000000000441100882100452
:103680004190000000000000000010044110000004
:10369000000000000000000000000000000000002A
:1036A000000000000000000000000000000000001A
:1036B0000000000000000000000D000000000000FD
:1036C00000000000000000340000000000000000C6
:1036D000000000000000000DD0000000000000000D
:1036E0000000000000004D0300000000000000008A
:1036F00000000000344D0300000000000000000046
:10370000000000344FD30000000000000000000063
:103710000000F4CFD3000000000000000000000013
:103720000040550100000000000000000000000003
:103730000004010000000000000000000000000084
:103740000401000000000000000000000000000470
:103750000100000000000000000000000000040163
:103760000000000000000000000000000000000059
:103770000000000000000000000000000000000049
:103780000000000000000000000000000000000039
:103790000000000000000000000000000000000029
:1037A0000000000000000000000000000000000019
:1037B0000000000000000000000000000000000009
:1037C00000000000000000000000000000000000F9
:1037D00000000000000000000000000000000000E9
:1037E00000000000000000000000000D00000000CC
:1037F0000000000000000000000040030000000086
:103800000000000000000000340000000000000084
:1038100000000000000000000D000000000000009B
:10382000000000000000344D030000000000000014
:103830000000000000344F03000000000000000002
:1038400000000000C00F00000000000000000000A9
:103850000000004005000000000000000000000023
:103860000000000001000000000000000000000057
:103870000000000100000000000000000000000047
:1038800000004000000000000000000000000000F8
:1038900000400000000000000000000000000000E8
:1038A0000000000000000000000000000000000018
:1038B0000000000000000000000000000000000008
:1038C00000000000000000000000000000000000F8
:1038D00000000000000000000000000000000000E8
:1038E00000000000000000000000000000000000D8
:1038F00000000000000000000000000000000000C8
:1039000000000000000000000000000000000000B7
:1039100000000000000000000000000000A0699A04
:10392000A66900000000000000000080B66BBBB676
:103930006B1A00000000000000009AB66BBBB66B6B
:10394000BB0600000000000068BBB66BBBB66BBBDB
:10395000A601000000000068BBB66BBBB66BBBA63F
:1039600001000000000068DAAEEDDAAEEDDAAE017B
:10397000000000000000DABEEFFBBEEFBB06000057
:10398000000000000080B6EFFBBEEF1A0000000050
:103990000000000000A0EDFBBE6B00000000000076
:1039A000000000000068FBAE010000000000000005
:1039B00000000000009A0600000000000000000067
:1039C00000000068FBAE01000000000000000000E5
:1039D00000A0699AA6690000000000000000000035
:1039E00000000000000000000000000000000000D7
:1039F00000000000000000000000000000000000C7
:103A000000000000000000000000000000000000B6
:103A100000000000000000000000000000000000A6
:103A20000000000000000000000000000000000096
:103A3000000000000000000000000000000D000079
:103A40000000000000000000000000340000000042
:103A500000000000000000000000000DD000000089
:103A6000000000000000000000004D0300400300C3
:103A70000000000000000000344D030000D00000F2
:103A8000000000D0000000344FD3004003000000CD
:103A9000000000340000F4CFD3004DD3000000003C
:103AA00040D3000000F4FFF334CFD3000000004007
:103AB000030000D034FFFF3FCFD30000000000D050
:103AC0000040D3FCFFFFFFCFF33400000000D034F0
:103AD00040F3FFFFFFFFFFF33C0D0000000034CD7B
:103AE000F33CCFF33CCFD33C0D0000000034CDF3CA
:103AF0003C4DD3344DD3340D00000094255855551A
:103B000055555555556059020000942508822008E6
:103B100082200882605902000000000882600900CB
:103B2000005082200800000000405996000000006C
:103B30000094650900000000000000000000000083
:103B40000000000000000000000000000000000075
:103B50000000000000000000000000000000000065
:103B60000000000000000000000000000000000055
:103B70000000000000000000000000000000000045
:103B80000000000000000000000000000000000035
:103B90000000000000000000000000000000000025
:103BA00000004D03004D03004D0300000000000025
:103BB000004D03004D03004D030000000000000015
:103BC0004DD3344DD3344D030000000000000040BD
:103BD000F33CCFF33C0D000000000000000040F378
:103BE0003CCFF33C0D000000000000000040F33427
:103BF000CDF33C0DD0000D000040033440F334CD34
:103C0000F33C4DD3340D000040D3344DF33C4FD33F
:103C10003CCDF33C0D000040F33C4FF33C4FD33C14
:103C2000CDF33C0D000040F33C4FF33C4FD33CCD73
:103C3000F33C0D000040F33C4FF33CCFF33CCDF39D
:103C40003C0D000040F33C4FF3344DD33CCDF33CEE
:103C50000D000040F33C4FF3344DD33CCDF33C0D0D
:103C6000000040F33C4FF3344DD33CCDF33C0D000A
:103C70000000000000000000000000000000000044
:103C8000000000000000008000CF030000000000E2
:103C9000000000000000803CCF0300000000000096
:103CA0000000000000820000000000000000000092
:103CB0000882200802000000000000000000200828
:103CC0008220088200000020080000000020080078
:103CD0000008820000822000000000802008000010
:103CE0000882200802000000000080200800000870
:103CF00082200802000000000082200000000882EC
:103D00002008020000000000F23C00000008022031
:103D100008020000000000F03C000000080200085B
:103D2000820000000000003C00000008020000F2D9
:103D30002000000000000000000008020000F03C2D
:103D400000000000000000000008020000003C002D
:103D50000000000000000000080200000000000059
:103D60000000000000000008020000000000000049
:103D70000000000000200882000000000000000099
:103D800000000080200882200000000000000000E9
:103D90000000000008020000000000000000000019
:103DA0000000C0BE03000000000000000000000092
:103DB00000FBBEEF0000000000000000000000EC6F
:103DC000FBBEFB3E000000000000000000B0EFFB67
:103DD000BEEFFE0E0000000000000000B0FBFBBEC6
:103DE000EFFB0E00000000000000C0EEFBFEBEEF87
:103DF000FBBE03000000000000FBBEFBFBBEEFFBB0
:103E0000EEEF0000000000ECFBBEEFFBEEEFBBEFBF
:103E1000FB3B00000000ECFBBEEFBBEFFBFBEEEF5B
:103E20003B000000E0FBFBEEEFFBEEEFFBBEEFFB29
:103E30000E00C0EEEFBBEFFBFBBEEFFBBEEFFBBE29
:103E400003C0BEEFFBEEEFFBBEFBFBBEEFFEBE030F
:103E50000000ECFBBEEFFBEEFBFEBEFB3E000000F5
:103E60000000C0BEEFFBBEFBFBBE03000000000075
:103E70000000000000080200000000000000000038
:103E80000000000008020000000000000000000028
:103E90000000000802000000000000000000000018
:103EA00000200882000000000000000000000080E8
:103EB0002008822000000000000000000000000038
:103EC000080200000000000000000000000000CB1D
:103ED000020000000000000000000000002CCBB237
:103EE0000000000000000000000000B008CB222C01
:103EF000000000000000000000C0223082B0080B6B
:103F0000000000000000000080C030CC222C020025
:103F1000000000000000008BC030CCB208C20200DC
:103F200000000000002CC2B2088220308BB00000DC
:103F3000000000B008CB2208CBC230CC222C0000FD
:103F40000000202C8CB02C82C030CCB208000000C5
:103F5000C0B2300CB308CB222C8B202C0B0000CB32
:103F600022300C232CCBB208C2B208CB02008BB09B
:103F70002CC2B20882202C8CB02CC2020000B008E7
:103F8000CB222CCBB2300C232C0000000000008B85
:103F900020088220300C0300000000000000000018
:103FA0000008020000000000000000000000000007
:103FB00008020000000000000000000000000008EF
:103FC0000200000000000000000000000020088245
:103FD0000000000000000000000000802008822097
:103FE00000000000000000000000000008020000C7
:103FF00000000000000000000000000000000000C1
:1040000000000000000000000000000000000000B0
:1040100000000000000000000000000000000000A0
:104020000000000000000000000000000000000090
:104030000000000000000000000000000000000080
:104040000000000000000000000000000000000070
:104050000000000000000000000000000000000060
:104060000000000000000000000000000000000050
:10407000004010044110000000000000000000009B
:1040800041104541100400000000000000000451F0
:10409000104541140441000000000000104451107C
:1040A000454114054100000000000028CFF33C8F7B
:1040B000F33CCFA3000000000000655996655996B7
:1040C00065599600000000000065A9966AA9966AE5
:1040D000A99600000000000065599665599665593B
:1040E0009600000000000010045510544150054196
:1040F0000000000000001045551455515445510072
:104100000000000000104555145551544551000061
:104110000000000010455514555154455100000051
:10412000000000000000000000000000000000008F
:10413000000000000000000000000000000000007F
:10414000000000000000000000000000000000006F
:1041500000505555552108010000000000000040A6
:104160005555555555158200000000000000555565
:1041700055555555558520000000000000555555F2
:104180005555555555210000000000545555550012
:1041900000000050210800000000545555555555A9
:1041A0005555555508000000005455555555555561
:1041B0005555551500000000545555550000000098
:1041C0005055150000000054555555555555555539
:1041D0005515000000005455555555555555555524
:1041E00015000000005455555500000000505508BA
:1041F0000000000054555555555555555555080066
:104200000000005455555555555555551108000099
:104210000000546559966559966559962504000025
:104220000094655992655996244996650901005094
:104230009665599665599665599624594200509647
:10424000655996655996655996655996000000001E
:10425000000000000000000000000000000000005E
:10426000000000000000000000000000000000004E
:10427000000000000000000000000000000000003E
:1042800000000000000000000000000000002A0004
:10429000FC0000000000000000000000002A04FFF5
:1042A0000000000000000000000000401004C130C9
:1042B00000000000000000000000403F04FD30004E
:1042C0000000000000000000004010044130000029
:1042D0000000000000000000401004413000000019
:1042E0000000000000000000100441000000000079
:1042F00000000000000000000401000000000000B9
:104300000000000000002A04FF0000000000000080
:104310000000C00F001004C10000000000000000F9
:104320000000004300040130000000000000000015
:1043300000004030040130000000000000000000D8
:104340000000000401000000000000000000000068
:10435000001000C00000000000000000000000008D
:104360001000C00000000000000000000000A810C5
:1043700000403F000000000000000000000055A5C4
:10438000020000000000000000000050555555A933
:104390000000000000000000004055555555552A0A
:1043A00000000000000000000000545555552A0090
:1043B00000000000000000000054F0FFC3150000E2
:1043C000000000000000000054FFFFFF1500000087
:1043D0000000000000000054FFFFFF150000000077
:1043E00000000000000000D5FF57000000000000A2
:1043F0000000000000545555552A00000000000040
:1044000000000000545555552A000000000000002F
:1044100000005055555555950A0000000000000059
:10442000005055555555950A000000000000000049
:104430005055555555950A000000000000000050E9
:1044400055555555950A00000000000000005055D4
:10445000555555950A000000000000000000005569
:1044600055A9000000000000000000000054555550
:10447000552A00000000000000000000545555556A
:104480002A00000000000000000000545555552A85
:104490000000000000000000005055555555950AD9
:1044A00000000000000000000054409AA600000038
:1044B0000000000000000000501499A62900000030
:1044C0000000000000004052BEEFFB690A0000003F
:1044D000000000000040F9BEEFFB7E9A02000000E1
:1044E0000000000045FA86EF1B7E0A000000000075
:1044F00000000040F9BEEFFB7E9A020000000000C1
:10450000000000F8BEEFFB3E0000000000000000CD
:10451000000000BEEFFB00000000000000000000F3
:10452000000080EF03000000000000000000000019
:1045300054FFFFFF1500000000000000000000FC19
:10454000FFFFFF3F000000000000000000F003FF3D
:10455000FFFFC00F0000000000000000F003FFFF9D
:10456000FFC00F0000000000000000E003FFFFFF9D
:10457000800F000000000000000000000441300037
:104580000000000000000000000000100491000086
:10459000000000000000000000001000900000007B
:1045A000000000000000000000100090000000006B
:1045B000000000000000000010009000000000005B
:1045C000000000000000A82A00A82A000000000047
:1045D000000000000000EAFF033F000000000000B0
:1045E00000000000A469FAFF3F0000000000000086
:1045F0000000A0AABEEFFBFF0F00000000000000BB
:10460000409AFABEEFFBFE0F000000000000000021
:10461000A0FA95EF57FEFF0300000000000080AAFB
:10462000FABEEFFBBE0A000000000000000000F828
:10463000BEEFFB3E0000000000000000000000BED6
:10464000EFFB00000000000000000000000080EF11
:104650000300000000000000000000001445513C71
:104660000F00000000000000000000144551140F6E
:104670000000000000000000005000455114C0037D
:1046800000000000000000005000455114C003006D
:1046900000000000000000E003455114800F0000FE
:1046A0000000000000000000AAAAAA00000000000C
:1046B00000000000000000AAAAAA000000000000FC
:1046C0000000000000002A00A80000000000000018
:1046D00000000000002A00A8000000000000000008
:1046E000000000002A00A8000000000000000000F8
:1046F00000005415005415000000000000000000E8
:1047000000000000000000000000000000000000A9
:104710000095AAAA0000000000000000000000545C
:104720005555A92A00000000000000000000545563
:1047300055552A00000000000000000000547F557D
:10474000FD2A0000000000000000000054555555EF
:104750002A00000000000000000000545555552AB2
:10476000000000000000000000000055555500004A
:10477000000000000000000000005555550000003A
:104780000000000000000000545555552A000000AC
:1047900000000000000000545555552A000000009C
:1047A000000000000000545555552A00000000008C
:1047B0000000000000545555552A0000000000007C
:1047C00000000000545555552A000000000000006C
:1047D000000000545555552A00000000000000005C
:1047E0000000545555552A0000000000000000004C
:1047F00000545555552A000000000000000000003C
:10480000545555552A000000000000000000505586
:10481000555555AA0A0000000000000040555555A6
:10482000555595AA0200000000000000000000009D
:104830000000000000000000000000000000000078
:10484000000000000000000000000000EAFFFF0080
:1048500000000000000000000000A8FFFFFF3F0074
:10486000000000000000000000A8F0FFC33F0000AF
:104870000000000000000000A8FFFFFF3F00000054
:1048800000000000000000A8EAFFFF3F0000000059
:1048900000000000000000AAFAFF00000000000075
:1048A00000000000000080FA03000000000000008B
:1048B00000000000A82A00FC3F00000000000000EB
:1048C000000000A880FA033F000000000000000084
:1048D00000A0022A00FCC00F000000000000000041
:1048E000A00280FA03C00F0000000000000000A03A
:1048F0000280FA03C00F000000000000000000006A
:10490000AAFAFF0000000000000000000000008084
:10491000AA020000000000000000000000002A00C1
:10492000FC0000000000000000000000002A00FC65
:104930000000000000000000000000002A00FC0051
:1049400000000000000000000000A82A00A83F00AE
:1049500000000000000000000000649AA6000000B3
:104960000000000000000000501499A6290000007B
:104970000000000000004052BEEFFB690A0000008A
:10498000000000000040F9BEEFFB7E0A00000000BE
:104990000000000040FA86EF1B7E0A0000000000C5
:1049A00000000040F9BEEFFB7E0A0000000000009E
:1049B000000040FABEEFFB7E0A000000000000008D
:1049C000005051BEEFFB550A00000000000000003F
:1049D0004056A4EF931409000000000000000040BE
:1049E00051E4FF93540500000000000000004092D5
:1049F000CBF23C14090000000000000000002CCBAA
:104A0000B23C0F000000000000000000002CCBB200
:104A10002C0F000000000000000000002CCBB22C86
:104A20000F00000000000000000000A8CBB22C2AFC
:104A30000000000000000000000000CBB22C0000CD
:104A40000000000000000000002CCBB22C0F000082
:104A500000000000000000002CCBB22C0F00000072
:104A6000000000000000002CCBB22C0F0000000062
:104A70000000000000B02CCBB22CCF0300000000DF
:104A80000000000000000000000000000000000026
:104A90000000000094655996250000000000000009
:104AA000000050966559966509000000000000005E
:104AB00000509665599665590200000000000000FC
:104AC00000F8BEEFFB3E0000000000000000000008
:104AD000F895EF573E00000000000000000000F8CD
:104AE0002008823E0000000000000000000000A03E
:104AF000EF8300000000000000000080EF97FFFF40
:104B0000FFA5EF0300000000000080EF97FFFFFF0C
:104B1000A5EF0300000000000080EF977C59F2A58C
:104B2000EF03000000000000000896655996250874
:104B30000200000000000080EF97655996A5EF0382
:104B400000000000000080EF97655996A5EF030074
:104B50000000000000000094655996250000000048
:104B600000000000000094250094250000000000D3
:104B700000000000009425009425000000000000C3
:104B800000000000FC3F00FC3F00000000000000AF
:104B9000000000FC3F00FC3F00000000000000009F
:104BA00000008220008020080000000000000000BB
:104BB00000000000000000000000000000000000F5
:104BC000000000000000000000000000000000F0F5
:104BD0003CCFF33C00000000000000000000F03C6F
:104BE000CFF33C000000000000000000C0F33CCF09
:104BF000FB3C0F0000000000000000C0F38BEF2F13
:104C00003C0F0000000000000000CFF3BEEFFB3CB3
:104C10000F0000000000000000CFF3BFEFFF3CCF0B
:104C20000300000000000000CF97FFFFFF25CF0327
:104C300000000000000000CF97FFFFFF25CF03001A
:104C4000000000000000CF9765599625E0030000A2
:104C500000000000800F9465599625E003000000D5
:104C6000000000000894655996250002000000002D
:104C700000000008802008822000020000000000E0
:104C80000000009465599625000000000000000017
:104C9000005096655996650900000000000000006C
:104CA000509665599665090000000000000000500C
:104CB000966559966509000000000000000000009C
:104CC0003E00F8000000000000000000000082200C
:104CD000008020080000000000000000C003000F5A
:104CE000003C000000000000000000C0037C02F057
:104CF0003C000000000000000000C0F349C2F33C8B
:104D0000000000000000000000C0F33CCF273C0082
:104D100000000000000000005096BE5F96250000D5
:104D20000000000000000050FAB0EFC36509000069
:104D300000000000000000F8BEEFFB650900000065
:104D400000000000000000BEEFFB000000000000BB
:104D50000000F8BE4FF3BEEFFB304D030000000033
:104D6000E0FBBEEFD3BEEFFB300F0300000000E01E
:104D7000FBBEEFC3BCEFC3300FD30000000000F850
:104D8000BEEFFB340CF3340DC30000000000F8BE8E
:104D90000FC0344CF33C0CF3340000000000BE0F95
:104DA000D0340CD3304CF3340F00000000CB02C0E1
:104DB00034CCC3304003304F03000000BE0FF0304E
:104DC0004CF334C0033440030000000000D03C40EA
:104DD000D33040033400030000000000C03400D092
:104DE0003C000000C0030000000000C0300FC03CC9
:104DF000000000C0030000000040D3300FD0340C8E
:104E00000000000000000000000000CF03000000D0
:104E10000000000000000000F03CCFF33C00000068
:104E2000000000000000C0F33CCFF33C0F00000086
:104E30000000000000CFF33CCFF33CCF03000000A4
:104E40000000000050FABEEFFB7E090000000000E9
:104E500000000050FA95EF577E09000000000000A6
:104E60000000009465599625000000000000000035
:104E7000000000250C97000000000000000000006A
:104E8000081E7059C2070802000000000000000C54
:104E90001F300CC3070C0300000000000000081EB8
:104EA0003C0CF3070802000000000000000C1FC7C4
:104EB000711C070C0300000000000080EF1FC77189
:104EC0001C87EF0300000000000080EF1FC7711C6B
:104ED00087EF0300000000000000001C07001C0713
:104EE000000000000000000000001C07001C07007C
:104EF0000000000000000000001C07001C0700006C
:104F000000000000000000001C07001C070000005B
:104F1000000000000000001C07001C07000000004B
:104F20000000000000008220008020080000000037
:104F30000000000000000000000000000000000071
:104F400000000000002CCBB20000000000000000B8
:104F500000000BB02CCBB22CC002000000000000FF
:104F600000CBB215CB562CCB020000000000000095
:104F7000C0B22CCBB22C0B000000000000000000DF
:104F8000B0300CC32C000000000000000000000046
:104F90003FCBFE00000000000000000000000020E9
:104FA000088200000000000000000000CB962CCB1F
:104FB000B225CB0200000000000000CB962CCBB243
:104FC00025CB0200000000000000CB966559962515
:104FD000CB020000000000000008966559962508E5
:104FE0000200000000000000CB8220088220CB02DB
:104FF00000000000000000CB8220088220CB0200CD
:105000000000000000000094655996250000000093
:105010000000000000009465599625000000000083
:105020000000000000B06559962C00000000000050
:1050300000000000B02C00B02C00000000000000B8
:10504000000000B02C00B02C0000000000000000A8
:1050500000C0B22C00B02C0B0000000000000000CB
:10506000000000000000000000000000000000C080
:10507000F300CF033C0F0000000000000000C0C39D
:10508000FCB2F0300F0000000000000000C0F33C54
:10509000CFF33C0F000000000000000000F8BEEF5E
:1050A000FB3E00000000000000000000F895EF57F4
:1050B0003E00000000000000000000F86559963E28
:1050C0000000000000000000000000A5EF970000B5
:1050D000000000000000007FF5577FF5577FF5576F
:1050E000000000000000D55FFDD55FFDD55FFD002D
:1050F000000000000000FC9B26CF9BE60F03000091
:1051000000000000C0FF9BE6FF9BE6FF03000000DD
:10511000000000C0FF9B26CF9BE6FF0300000000BD
:105120000000C0FF9BE6FF9BE6FF030000000000BD
:1051300000B0EF9B26CF9BA6EFC30000000000004D
:10514000300C9BA6699A260CC300000000000030BA
:105150000C9B260098260CC3000000000000300CB9
:105160009B260098260CC30000000000000000FCF5
:105170003F00FC3F00000000000000000000822013
:105180000080200800000000000000000000FFFF79
:10519000FF0000000000000000000000FCFFFFFF17
:1051A0003F000000000000000000F0FFFFFFFFFFD5
:1051B0000F0000000000000000F057555555D50FB6
:1051C0000000000000000000F0FF7F55FDFF0F0011
:1051D00000000000000000F0FF7F55FDFF0F000001
:1051E000000000000000F0FFFFFFFFFF0F000000C5
:1051F00000000000FF5F5555555555F5FF000000B4
:10520000000000FFFFFFFFFFFFFFFFFF00000000A7
:1052100000004055FDD5FF577F55010000000000FC
:10522000004055FDFFFFFF7F55010000000000001A
:105230004055FDD5FF577F5501000000000000409C
:1052400055FDFFFFFF7F5501000000000000C0FF7B
:10525000FFD5FF57FFFF030000000000000000FC27
:10526000FFFFFF3F0000000000000000000054D5D9
:10527000FF5715000000000000000000005415005A
:1052800054150000000000000000000054150054F8
:105290001500000000000000000000541500541527
:1052A000000000000000000000F0FF3F00FCFF0FC6
:1052B00000000000000000000000000000000000EE
:1052C00000000000000000000000CF03000000000C
:1052D00000000000000000943CBCF025000000002D
:1052E0000000000000C0F33CCFF33C0F00000000C2
:1052F000000000005096BE5FFA6509000000000043
:1053000000004059FA95EF577E5902000000000056
:10531000004059C2BEEFFB705902000000000000BF
:105320004059FA3E08FA7E59020000000000004091
:1053300079FCBEEFFBFF5102000000000000407945
:105340001CBFEFFFC75102000000000000E5711C08
:10535000C7FF1FC77194000000000000E5711C0723
:10536000CF1FC77194000000000000E5011CC77149
:105370001C077094000000000000C0010007CF1F50
:10538000007000000000000000800F00FFFFFF0021
:10539000E00300000000000000001CC7711C0700B3
:1053A0000000000000000000701CC7711CC7010055
:1053B000000000000000C07F1CC7711CC7F1030083
:1053C000000000000000F0FFFFFFFFFF0F000000E3
:1053D000000000000000802000802000000000008D
:1053E00000000000000080690200000000000000D2
:1053F0000000000000A669F20000000000000000AC
:1054000000000098A6C9F33C000000000000000066
:105410000060F2A669F2A60900000000000000008A
:10542000C0F3BC699AA6090000000000000000500B
:10543000F98BEF2F7E05000000000000000050F9FE
:10544000BEEFFB7E05000000000000000050555537
:1054500055555505000000000000000050555555F9
:10546000555505000000000000008069565555554F
:1054700095C90300000000000080699A5555552623
:10548000CF03000000000000A6C99B665599A6C97D
:105490009B00000000000026CFF3A6699AA6699A37
:1054A000000000000000A6C99BA6699AA6699A00A0
:1054B0000000000000A6699AA669F2A6699A000099
:1054C00000000000BE6F9AA6C9F3BCE9FB00000013
:1054D00000000000C09BA669F2A6090000000000C1
:1054E000000000C0F3A6699AA609000000000000B1
:1054F000000000F83E00F83E000000000000000040
:10550000005096250094650900000000000000008E
:1055100000E880AAEB00000000000000000000008E
:10552000A4699EA62900000000000000000090A7CA
:10553000799AE7790E000000000000000090E67EF6
:105540009EA6799A02000000000000409AFBBE9FD0
:10555000E7690E000000000000000090FB95EF5787
:105560007EAE030000000000000000F8BEEFFB3E2E
:105570000000000000000000000000BEEFFB000083
:10558000000000000000007F5DFFAAEFAB7F5DFF21
:10559000000000000000C05FD7BFAAFE75FD030039
:1055A000000000000080EFD7B5AED7F5EF03000094
:1055B0000000000080EFD7755DD7B5EF0300000055
:1055C000000000405DD7755DD7755D0300000000E9
:1055D000000080EFE7F9FFE7B9EF030000000000EB
:1055E000000000FC795DE73F0000000000000000C3
:1055F0000000FC7E5EFB3F00000000000000000099
:1056000000FC3F00FC3F0000000000000000000024
:10561000E43900E43900000000000000000000D47C
:105620003500D43500000000000000000090E73590
:1056300000D4790E000000000004040404040404F3
:10564000040404040409090904040404040404040B
:1056500004040404090909090404040404040404F6
:105660000404040909090909048484848484040461
:10567000040424240909090B048484848484040414
:10568000040909090909090B048484848484040435
:105690000409090909090B0B0404040404040404A3
:1056A00009090909090B0B0B040404040404040987
:1056B0000909090B0B0B0B69040404040404090910
:1056C0000909090B0B0B0B0B04040404040409095E
:1056D00009090B0B0B0B0B0B040404040404040951
:1056E000090B0B0B0B0B0B0B09090404040404043A
:1056F0000404040404040409090909040404040456
:105700000404040404040909090909040404040440
:10571000040404040409090B0B0909090404040422
:105720000404040409090B0B0B0B09090904040404
:1057300004040409090B0B0B0B0B0B0909090904E1
:10574000040409090B0B0B0B0B0B0B0B09090909C3
:105750000909090B0B0B0B0B0B0B0B0B0B0B0909A3
:10576000090B0B0B0B0B0B0B0B0B0B0B0B0B0B0B8B
:105770000B0B0B0B0B0B0B0B0B0B0B0B0B0B0B0B79
:105780000B0B0B0B0B0B0B0B0B0B0B0B0B0B0B0B69
:105790000B0B0B0B0B0B0B0B090904040404040487
:1057A00004040404040404040909090404040404AA
:1057B00004040404040404040B0B0909090404048C
:1057C00004040404040404040B0B0B0B0909040473
:1057D00004040404040404040B0B0B0B090909045E
:1057E00004040404040404040B0B0B0B0B0909044C
:1057F00004040404040404040B0B0B0B0B0B090935
:1058000004040404040404040B0B0B0B0B0B090924
:1058100009040404040404040B0B0B0B0B0B0B090D
:1058200009040404040404040B0B0B0B0B0B0B0BFB
:1058300009090404040404040B0B0B0B0B0B0B0BE6
:105840000B09090404040404040404040404040407
:105850000404040404040404040404040404040408
:1058600004040404040404040404040404040404F8
:1058700004040404040404040404040404040404E8
:1058800004040404040404040404040404040404D8
:1058900004040404040404040404040404040404C8
:1058A00004040404040404040404040404040404B8
:1058B00004040404040404040404040404040404A8
:1058C0000404040404040404040404040404040498
:1058D0000404040404040404040404040404040488
:1058E0000404040404040404040404040404040478
:1058F0000404040404040404040404040404040468
:105900000404040404040404040404040404040457
:105910000404040404040404040404040404040447
:105920000404040404040404040404040404040437
:105930000404040404040404040404040404040427
:105940000404040404040404040404040404040417
:105950000404040404040404040404040404040407
:1059600004040404040404040404040404040404F7
:1059700004040404040404040404040404040404E7
:1059800004040404040404040404040404040404D7
:1059900004040404040404040404040404040404C7
:1059A000040404040404040404040404040F0F0F96
:1059B0000F0F0F0F0F0F0404040404040F0F0F0F39
:1059C0000F0F0F0F0F0F04040404040F0F0F0F0F1E
:1059D0000F0F0F0F0F0F040404040F0F0F0F0F0F03
:1059E0000F0F0F0F0F0F0F040F0F0F0F0F0F0F0FD2
:1059F0000F0F0F0F0F0F0F0F0F0F0F0F0F0F0F0FB7
:105A00000F0F0F0F0F0F0F0F0F0F0F0F0F0F0F0FA6
:105A10000F0F0F0F0F0F0F0F0F0F0F0F0F0F0F0F96
:105A20000F0F0F0F0F0F0F0F0F0F0F0F0F0F0F0F86
:105A30000F0F0F0F0F0F0F0F0F0F0F0F0F0F0F0F76
:105A40000F0F0F0F0F0F0F0F0F0F0F0F0F0F0F0F66
:105A50000F0F0F0F0F0F0F0F0F0F0F0F0F0F0F0F56
:105A60000F0F0F0F0F0F0F0F0F0F0F0F0F0F0F0F46
:105A70000F0F0F0F0F0F0F0F0F0F0F0F0F0F0F0F36
:105A80000F0F0F0F0F0F0F0F0F0F0F0F0F0F0F0F26
:105A90000F0F0F0F0F0F0F0F0F0F0F0F0F0F0F0F16
:105AA0000F0F0F0F0F0F0F0F0F0F0F0F0F0F0F0F06
:105AB0000F0F0F0F0F0F0F0F0F0F0F0F0F0F0F0FF6
:105AC0000F0F0F0F0F0F0F0F0F0F0F0F0F0F0F0FE6
:105AD0000F0F0F0F0F0F0F0F0F0F0F0F0F0F0F0FD6
